:020000040800F2
:1000000000090020C1010008110200080D020008CB
:100010000F02000809020008D102000800000000D9
:100020000000000000000000000000003502000891
:100030000B0200080000000033020008370200082D
:10004000DB010008DB010008DB010008DB01000820
:10005000DB010008DB010008DB010008DB01000810
:10006000DB010008DB010008DB010008DB01000800
:10007000DB010008DB010008DB010008DB010008F0
:10008000DB010008DB010008DB010008DB010008E0
:10009000DB010008DB010008DB010008DB010008D0
:1000A000DB010008DB010008DB010008DB010008C0
:1000B000DB010008DB010008DB010008DB010008B0
:1000C000DB010008DB010008DB010008DB010008A0
:1000D000DB010008DB010008DB010008DB01000890
:1000E000DB010008DB010008DB010008DB01000880
:1000F000DB010008DB010008DB010008DB01000870
:10010000DB010008DB010008DB010008DB0100085F
:10011000DB010008DB010008DB010008DB0100084F
:10012000DB010008DB010008DB010008DB0100083F
:10013000DB010008DB010008DB010008DB0100082F
:10014000DB010008DB010008DB010008DB0100081F
:10015000DB010008DB010008DB010008DB0100080F
:10016000DB010008DB010008DB010008DB010008FF
:10017000DB010008DB010008DB01000800000000D3
:10018000DB010008DB010008DB010008DB010008DF
:10019000DB010008DB010008DB01000800000000B3
:1001A000DB010008DB010008DB010008DFF80CD0F0
:1001B00000F018F8004800472F050008000900204B
:1001C0000648804706480047FEE7FEE7FEE7FEE7F1
:1001D000FEE7FEE7FEE7FEE7FEE7FEE73D0200087A
:1001E000AD010008064C074D06E0E06840F0010351
:1001F00094E8070098471034AC42F6D3FFF7DAFFD3
:10020000180D0008380D0008FEE77047FEE7FEE70E
:1002100070470907090E002806DA00F00F0000F108
:10022000E02080F8141D704700F1E02080F80014F1
:1002300070477047704700F05BB8000018B4204862
:10024000016841F4700101601E48016841F001013C
:10025000016001688907FCD51A4A0832116841F02B
:10026000800111600023009302E00099491C009175
:1002700000995029F9D3116841F090011160009361
:1002800002E00099491C009100995029F9D31168A6
:1002900021F00301116001680B4C214001600168ED
:1002A00021F4802101601360106806490748091D88
:1002B000086004480C30036018BC00F0E1B900008D
:1002C00088ED00E000380240FFFFF6FE1030002409
:1002D000FEE702E008C8121F08C1002AFAD17047E1
:1002E0007047002001E001C1121F002AFBD17047B6
:1002F00003480168002902D00168491E0160704767
:100300000000002001EB410100EBC100016941F058
:1003100001010161704701EB410100EBC10001697E
:1003200021F0606141EA42610161704701EB4101E6
:1003300000EBC100016941F480710161704701EB7C
:10034000410200EBC202136923F001031361002391
:10035000136153619361D361136253623D22042997
:100360000BD201EB41035B00C1F3400103EB8101C0
:100370008A4081680A4382607047091F01EB41038C
:100380005B00C1F3400103EB81018A40C1680A436D
:10039000C260704730B501EB410100EBC100416A1A
:1003A00021F004014162116881619168C161D169E4
:1003B000416103691A490B40146A116995690C433C
:1003C00045EA81010C4344EA0301016151680029B7
:1003D00012D0012915D0016941F400410161D168B1
:1003E000A1B1016921F480610161516999B101698B
:1003F00021F48071016130BD016941F40071016136
:10040000EDE7016921F400710161E8E7016941F458
:1004100080610161E9E7016941F48071016130BDEA
:100420003F87FCFF00210160012242608160C260C1
:10043000016142618161C161016270472DE9F04350
:10044000046A456A002301274FF00F0C07FA03F6F0
:10045000164208D09E000CFA06F824EA080401FAB5
:1004600006F848EA04045B1C9BB2082BEED3082371
:1004700007FA03F818EA020F0AD0A3F10806B6003B
:100480000CFA06F825EA080501FA06F949EA050515
:100490005B1C9BB2102BEBD304624562BDE8F0837A
:1004A0002DE9F0470568C66800244FF001084FF0B9
:1004B000030908FA04F71F420ED0670009FA07FC87
:1004C00025EA0C0501FA07FA4AEA050526EA0C06B0
:1004D00002FA07FC4CEA0606641CA4B2102CE8D30E
:1004E0000560C660BDE8F0872DE9F04101291AD00A
:1004F000416899434160846800214FF001084FF042
:10050000030C08FA01F71F4206D04D000CFA05F65D
:10051000B44302FA05F63443491C89B21029F0D3DA
:100520008460BDE8F081416819434160E3E700F071
:10053000A9F84FF4A06000F003F800F0A3FBFEE779
:100540000249084302490860704700000000FA05AC
:100550000CED00E0064901EB9011D1F8002800F005
:100560001F03012098400243C1F800287047000093
:1005700000300240064901EB9011D1F8002800F04C
:100580001F03012098408243C1F8002870470000F3
:1005900000300240064901EB9011D1F8002800F02C
:1005A0001F03012098400243C1F800287047000053
:1005B00000300240064900F18072521C03D00A68E4
:1005C00002430A6070470A6802400A6070470000F0
:1005D0008C38024010B50020264A116841F0010114
:1005E00011604FF4A063401C116801F0020109B9C9
:1005F0009842F8D11068800700D4FEE71D484030CB
:10060000016841F0805101601B49086840F4404096
:1006100008601848083003680360036843F4004327
:100620000360036843F4A0530360041F134B23606B
:10063000136843F08073136013689B01FCD50A684C
:1006400042F480320A604A68D203FCD50A6842F458
:1006500000320A604A689203FCD5016821F0030168
:100660000160016841F00201016001680907FCD5E1
:1006700010BD000000380240007000401078000AF1
:10068000FFF7A8BF70B511484FF47A710068B0FB4E
:10069000F1F1491E4FF0FF35B1F1807F01D3012107
:1006A0000BE04FF0E02461610F212846FFF7B1FD18
:1006B0000020A06107202061002101B1FEE728464B
:1006C000BDE870400021FFF7A4BD00000400002039
:1006D00030B5734B734C002929D0012960D0022911
:1006E0007ED0032922D1016A21F480510162C169BF
:1006F00021F44071C161016A158841EA0531016246
:10070000016A21F400510162016A958841EA0531CC
:100710000162984201D0A04208D1416821F4804191
:1007200041604168128941EA8211416030BD016A2D
:1007300021F001010162816921F003018161016AF7
:10074000158829430162016A21F002010162016AF0
:10075000958829430162984201D0A042E6D1016AFE
:1007600021F004010162016A538819430162016AA0
:1007700021F008010162016AD388194301624168CE
:1007800021F48071416041681389194341604168D7
:1007900021F400714160416852891143416030BDCC
:1007A000016A21F010010162816921F440718161C7
:1007B000016A158841EA05110162016A21F02001F0
:1007C0000162016A958841EA05110162984201D0EF
:1007D000A042E4D1016A21F040010162016A00E017
:1007E0001FE0538841EA03110162016A21F0800190
:1007F0000162016AD38841EA03110162416821F470
:10080000806141604168138941EA83014160416828
:1008100021F4006141604168528941EA82014160EE
:1008200030BD016A21F480710162C16921F00301C8
:10083000C161016A158841EA05210162016A21F45A
:1008400000710162016A958841EA052101629842BE
:1008500001D0A042E4D1016A21F480610162016A01
:10086000538841EA03210162016A21F400610162B7
:10087000016AD38841EA03210162416821F4805171
:1008800041604168138941EA03114160416821F4E4
:10089000005141604168528941EA0211416030BD16
:1008A000000001400004014000290ED0012914D0AD
:1008B00002291BD0032907D1C16921F4E041C1619C
:1008C000C16941EA0221C1617047816921F070016B
:1008D00081618169114381617047816921F4E0413F
:1008E0008161816941EA022181617047C16921F01A
:1008F0007001C161C1691143C1617047002907D00E
:10090000012907D0022907D0032900D102647047CA
:100910004263704782637047C26370470021018061
:1009200041808180C18001814181704710B55E4A5C
:10093000811A131590427DD02ADC5C4A4FF4006482
:10094000A0EB0201904265D011DCB0F1804F4FD096
:100950005749401854D098426DD140F602042046C1
:10096000FFF718FE2046BDE81040FFF703BE99428E
:100970005AD0A14265D0B1F5406F5CD140F6060473
:100980002046FFF707FE2046BDE81040FFF7F2BD06
:10099000B1F5923F5FD011DC99427AD0B1F5644F46
:1009A0001CD0B1F5684F7ED140F601142046FFF708
:1009B000F1FD2046BDE81040FFF7DCBDB1F5943FE6
:1009C00053D0B1F5963F6ED140F612142046FFF792
:1009D000E1FD2046BDE81040FFF7CCBD4FF41064A8
:1009E0002046FFF7D7FD2046BDE81040FFF7C2BD07
:1009F0002046FFF7CFFD2046BDE81040FFF7BABD07
:100A000040F601042046FFF7C5FD2046BDE8104032
:100A1000FFF7B0BD40F603042046FFF7BBFD2046BC
:100A2000BDE81040FFF7A6BD40F604042046FFF7DE
:100A3000B1FD01E023E036E02046BDE81040FFF7BD
:100A400099BD40F605042046FFF7A4FD2046BDE809
:100A50001040FFF78FBD4FF411642046FFF79AFD59
:100A60002046BDE81040FFF785BD40F61114204632
:100A7000FFF790FD2046BDE81040FFF77BBD40F634
:100A800007042046FFF786FD2046BDE81040FFF72B
:100A900071BD40F608042046FFF77CFD2046BDE806
:100AA0001040FFF767BD10BD001C0040000C004067
:100AB00000FCFFBFC2680A43C2607047016841F092
:100AC000010101607047000030B50A8882621C4B4A
:100AD0001C4A98420DD0B0F1804F0AD01A4CA04267
:100AE00007D01A4CA04204D0194CA04201D0904229
:100AF0000BD1046824F07004046004684D882C4312
:100B0000046004688D882C4304608C68C462114CB6
:100B1000A0420AD0104CA04207D0046824F44074CC
:100B200004600468CD882C430460984201D0904250
:100B300001D1097B0163416941F00101416130BD8F
:100B40000000014000040140000400400008004093
:100B5000000C00400010004000140040012904D0A7
:100B6000416C21F4004141647047416C41F4004103
:100B70004164704700210180418081804FF6FF72FF
:100B80008260C1800173704710B58AB040F616408C
:100B9000FFF7E0FC01A8FFF745FC154C01212046BA
:100BA000FFF7CDFB402107911249039100210491E9
:100BB000E11405914FF49F7108910F4901910121B2
:100BC00002914FF44030099001AA2046FFF7E2FB62
:100BD00001212046FFF7AAFB062201212046FFF74C
:100BE0009AFB01212046FFF78DFB0AB010BD0000E3
:100BF00000640240080000203400014070B54FF44A
:100C00004060FFF7A7FC0B4D4FF480742246012192
:100C10002846FFF713FC2346002202212846FFF74F
:100C20003FFC23462846BDE8704002220021FFF722
:100C30005BBC00000000024010B5FFF7DFFF00F0D2
:100C40002DF8BDE81040FFF79FBF000070B50022EF
:100C5000B4230B4D00EB4000482401FA02F63602A3
:100C600004D502EBC00645F8263003E002EBC006CF
:100C700045F82640521CD2B2182AEED370BD0000AF
:100C80000800002010B5FFF7D7FFBDE8104002496B
:100C90000020FFF7DBBF000080EA360010B588B007
:100CA0004FF08070FFF786FC4FF48850FFF752FC3E
:100CB00004A8FFF75FFF0020ADF81000FB200690AE
:100CC000144C2046FFF732FE04A92046FFF7FCFE35
:100CD00001A8FFF723FE0121ADF8041001AA0021AD
:100CE0002046FFF7F5FC002211462046FFF706FEDE
:100CF000602200212046FFF7D7FD61152046FFF74F
:100D0000D9FE01212046FFF729FF2046FFF7D6FE36
:100D100008B010BD00000140380D000800000020A0
:100D200008000000D2020008400D00080800002062
:100D3000F8080000E202000800000000001C4E0E4F
:04000005080001AD41
:00000001FF
