:020000040800F2
:1000000010040020C1010008130800080F080008B0
:10001000110800080B080008D108000800000000C3
:100020000000000000000000000000003708000889
:100030000D08000800000000350800083908000815
:10004000DB010008DB010008DB010008DB01000820
:10005000DB010008DB010008DB010008DB01000810
:10006000DB010008DB010008DB010008DB01000800
:10007000DB010008DB010008DB010008DB010008F0
:10008000DB010008DB010008DB010008DB010008E0
:10009000DB010008DB010008DB010008DB010008D0
:1000A000DB010008DB010008DB010008DB010008C0
:1000B000DB010008DB010008DB010008DB010008B0
:1000C000DB010008DB010008DB010008DB010008A0
:1000D000DB010008DB010008DB010008DB01000890
:1000E000DB010008DB010008DB010008DB01000880
:1000F000DB010008DB010008DB010008DB01000870
:10010000DB010008DB010008DB010008DB0100085F
:10011000DB010008DB010008DB010008DB0100084F
:10012000DB010008DB010008DB010008DB0100083F
:10013000DB010008DB010008DB010008DB0100082F
:10014000DB010008DB010008DB010008DB0100081F
:10015000DB010008DB010008DB010008DB0100080F
:10016000DB010008DB010008DB010008DB010008FF
:10017000DB010008DB010008DB01000800000000D3
:10018000DB010008DB010008DB010008DB010008DF
:10019000DB010008DB010008DB01000800000000B3
:1001A000DB010008DB010008DB010008DFF80CD0F0
:1001B00000F0E8FA00480047F71700081004002094
:1001C0000648804706480047FEE7FEE7FEE7FEE7F1
:1001D000FEE7FEE7FEE7FEE7FEE7FEE73D08000874
:1001E000AD0100082DE9FE4F81EA030404F000444C
:1001F00021F0004100944FF0000B23F0004350EA3F
:1002000001045ED052EA03045BD0C3F30A54C1F385
:100210000A552C44A4F2F3340194A0FB0254C1F318
:10022000130141F48011C3F3130343F4801301FB62
:10023000024400FB034E840A970A44EA815447EAC9
:100240008357A4FB076802958D0A05FB07854FEAD3
:10025000932C04FB0C542705029D4FEA065847EAED
:100260001637B5EB08056EEB070C870E920E47EAC2
:10027000811742EA8312A7FB0201B6EB0B0164EB84
:1002800000042B0D43EA0C335E1844EB1C50DA4695
:100290005146E7FB0201C5F313044FEA0B3343EA6F
:1002A00014534FEA0432019C43EA0603A4F10C0400
:1002B0000294009CCDE900B400F0CFF803B0BDE893
:1002C000F08F00200146F9E70EB540F2334102916C
:1002D0000021CDE900110A460B4600F0BEF803B03C
:1002E00000BD00F0004230F000400AD0C10D01F521
:1002F0006071C0F3160042EA0151C2084007114381
:10030000704700200146704701F0004330B421F0EF
:10031000004150EA010206D00A0DA2F56072C1F355
:100320001301002A02DC30BC00207047440F44EA6D
:10033000C104C100E01830BC00EBC25000F047B867
:1003400030B50B46014600202022012409E021FAA5
:1003500002F59D4205D303FA02F5491B04FA02F5A2
:100360002844151EA2F10102F1DC30BD2DE9F05F39
:100370000546002092469B46884606468146402414
:100380001BE0284641464746224600F01CFA5346E9
:100390005A46C01A914110D311461846224600F021
:1003A00003FA2D1A67EB01084F462246012000216F
:1003B00000F0FAF917EB00094E41201EA4F10104E8
:1003C000DFDC484631462A464346BDE8F09F002917
:1003D000A8BF7047401C490008BF20F001007047CB
:1003E00010B4B0FA80FC00FA0CF050EA010404BF2B
:1003F00010BC704749B1CCF1200421FA04F411FA81
:100400000CF118BF012121430843A3EB0C01CB1DC4
:100410004FEA00614FEA102042BF002010BC704735
:1004200000EBC35010440029A4BF10BC7047401C0F
:10043000490008BF20F0010010BC704710B5141E21
:1004400073F1000408DA401C41F1000192185B418D
:100450001A4301D120F0010010BD2DE9F04D924664
:100460009B4611B1B1FA81F202E0B0FA80F220327B
:10047000904600F099F904460F4640EA0A0041EA26
:100480000B0153465A46084313D0114653EA010064
:1004900019D0C8F14002504600F095F905460E46C5
:1004A00050465946424600F07FF9084305D00120E6
:1004B00004E020463946BDE8F08D0020054346EAB9
:1004C000E0762C4337430A986305E40AA0EB080062
:1004D0000022FD0A44EA47540A3002D500200146B2
:1004E000E9E7010510196941DDE90845001969418D
:1004F000BDE8F04DA2E72DE9FE4F804681EA0300FA
:10050000C00F0C46009021F0004123F00045B8EBED
:100510000200A94105D24046214690461C460B46A2
:10052000024623F00040104347D0270DC7F30A00CE
:10053000C3F30A510290401A019040286BDAC3F3CA
:10054000130040F4801B0098924620B10023D2EBA8
:10055000030A63EB0B0B01985946C0F14002504669
:1005600000F022F906460D4650465946019A00F021
:100570003AF910EB08006141002487EA115284EA3D
:10058000E7731A4340D0009A62B3019A012A4FEAF6
:10059000075215DC001B61EB02014FF0004202EA3A
:1005A0000752CDE90042001C41F5801132462B462E
:1005B000FFF753FF03B0BDE8F08F40462146F9E74F
:1005C000001B61EB0201001C41F5801300185B4128
:1005D0002018A2F5001747EB030140EAD570B619C1
:1005E0006D4111E06D084FEA360645EAC0754FEAE5
:1005F0000752001B61EB0201001C41F58011490804
:100600004FEA30000019514132462B4603B0BDE895
:10061000F04FFFF713BF0098012240000023D0EBFA
:10062000020263EBE073009821464FEAE074B8EBF6
:10063000000061EB0401E9E783F000435BE781F030
:10064000004158E72DE9F04D81EA030404F0004B26
:1006500021F0004514464FF0000A23F0004150EA13
:10066000050220D054EA01021DD0C5F30A57024604
:10067000C5F31303C1F31300C1F30A5640F4801508
:1006800043F48013A7EB0608101BD64608F2FD388A
:1006900073EB050002D308F1010801E092185B41F9
:1006A000B8F1000F03DA00200146BDE8F08D00200C
:1006B0004FF48011064684460EE0171B73EB0507C6
:1006C00005D3121B63EB050306434CEA010C4908F2
:1006D0004FEA300092185B4150EA0107EDD152EA2F
:1006E000030012D082EA040083EA0501084305D022
:1006F000101BAB4106D20122002306E000224FF07E
:10070000004302E06FF0010253101AEB06004CEBBD
:10071000085110EB0A0041EB0B01BDE8F04DFFF76B
:100720008DBEC1F30A52C1F3130140F2FF3341F40D
:1007300080119A4202DA00200146704740F23343AA
:100740009A42A2F2334202DC524200F03CB800F07E
:100750002BB8000030B5041E71F1000404DB4FF02B
:100760000044404264EB0101141E73F1000405DBF8
:100770001C464FF00043524263EB0403994208BF0A
:10078000904230BD064C074D06E0E06840F00103A2
:1007900094E8070098471034AC42F6D3FFF70AFDFF
:1007A000A81E0008C81E0008202A04DB203A00FA10
:1007B00002F1002070479140C2F1200320FA03F3B8
:1007C000194390407047202A04DB203A21FA02F0B6
:1007D0000021704721FA02F3D040C2F1200291407B
:1007E000084319467047202A06DBCB17203A41FA06
:1007F00002F043EAE07306E041FA02F3D040C2F1AE
:1008000020029140084319467047FEE77047FEE713
:10081000FEE770470907090E002806DA00F00F000E
:1008200000F1E02080F8141D704700F1E02080F80E
:10083000001470477047704700F058BE18B4204845
:10084000016841F4700101601E48016841F0010136
:10085000016001688907FCD51A4A0832116841F025
:10086000800111600023009302E00099491C00916F
:1008700000995029F9D3116841F09001116000935B
:1008800002E00099491C009100995029F9D31168A0
:1008900021F00301116001680B4C214001600168E7
:1008A00021F4802101601360106806490748091D82
:1008B000086004480C30036018BC01F0F5B8000073
:1008C00088ED00E000380240FFFFF6FE1030002403
:1008D000FEE700000FB4054B10B503A9044A0298C7
:1008E00000F0DAF810BC5DF814FB0000B91600083F
:1008F0000C00002002E008C8121F08C1002AFAD12B
:1009000070477047002001E001C1121F002AFBD18F
:10091000704700002DE9FF5F82B00021DDE904305F
:10092000020DDDF840B0034318D044F61050A2F297
:10093000FF3242431514119801281FD0A5EB0B007C
:10094000401C5FEA000A4FF000064E4FDFF8389176
:10095000B046504615D5CAF1000413E011980124A1
:100960004AA3012801D16FEA0B010298119AC0E94C
:100970000031C0E9024206B0BDE8F09FCBF10000B3
:10098000DFE704460021404A491842EB0450CDE914
:10099000001012E0E00707D032463B464046494689
:1009A000FFF720FC8046894632463B4610461946F2
:1009B000FFF718FC06460F466410002CEAD1DDE96B
:1009C0000401DDE90023BAF1000F06DAFFF70AFCA3
:1009D00042464B46FFF706FC05E0FFF733FE424672
:1009E0004B46FFF72FFE04460E460022284BFFF72A
:1009F000B1FE03D84FF0FF30014607E00022254B3F
:100A000020463146FFF777FDFFF78BFE102409E003
:100A1000002C0ADB0A220023FFF7A8FC039B3032DC
:100A20001A55641E50EA0102F2D1641C039AC4F103
:100A300011031444119A012A03D0012208430DD155
:100A40000AE0084304D000204FF0110B119072E728
:100A5000A3EB0B056D1E0DE05B4504DD4FF00002BE
:100A600005F1010504E003DA4FF00002A5F10105EC
:100A7000002AECD002981199C0E90231C0E9004582
:100A800079E70000000014400000F03F3000000053
:100A90000000F0430000E03F2DE9FF4F95B09B467A
:100AA0008946064600250FE2252877D100242746EF
:100AB000F84A0121059400E0044316F8013F203B69
:100AC00001FA03F01042F7D130782A2811D06FF0E4
:100AD0002F033078A0F13002092A16D8059A44F085
:100AE000020402EB820203EB42021044761C0590E2
:100AF000EFE759F8042B0592002A03DA504244F438
:100B00000054059044F00204761C30782E2816D14B
:100B100016F8010F44F004042A280DD06FF02F02BC
:100B20003078A0F13003092B09D807EB870302EBDB
:100B30004303C718761CF3E759F8047B761C30781A
:100B40006C280FD006DC4C2817D068280DD06A28F6
:100B500014D104E0742810D07A280FD10DE044F4A9
:100B600000140AE044F4801401E044F44014727864
:100B7000824202D104F58014761C761C30786628F7
:100B80000BD013DC582877D009DC002875D0452815
:100B9000F6D04628F4D047281AD19DE118E0632802
:100BA00035D0642879D0652812D195E1702873D0AA
:100BB00008DC6728F1D069286FD06E280DD06F2827
:100BC00006D1B5E073282CD0752875D0782874D05C
:100BD0005A46179990476D1C75E1C4F302500228DC
:100BE00009D003280DD0D9F8001004280DD00D60CD
:100BF00009F1040967E1D9F80010EA17C1E90052C8
:100C0000F6E7D9F800100D80F2E70D70F0E719F85B
:100C1000041B8DF8001000208DF80100EA46012029
:100C200003E059F804AB4FF0FF3061074FF00001CB
:100C300002D40DE008F101018846B9420FDA80457F
:100C4000F8DB1AF808100029F4D108E008F10101D6
:100C500088468142FADB1AF808100029F6D1059877
:100C60005B46A0EB080721463846179A00F094FA35
:100C7000284400EB080507E04DE029E10DE01AF8F3
:100C8000010B5A4617999047B8F10108F7D25B4615
:100C900021463846179A13E142E00A220092C4F333
:100CA00002524FF0000A022A08D059F804CB032A56
:100CB0004FEAEC710AD00DE029E02AE009F10701C2
:100CC00021F00702F2E802C1914609E00FFA8CFC1C
:100CD0004FEAEC71042A03D14FFA8CFC4FEAEC7115
:100CE000002907DA0A460021DCF1000C61EB020161
:100CF0002D2202E0220504D52B228DF804200122AA
:100D000003E0E20701D02022F7E7904659E00A21EC
:100D100002E010220DE010214FF0000A00910BE0DC
:100D200010224FF0000A44F004040827009203E068
:100D300008224FF0000A0092C4F30252022A05D0A2
:100D400059F804CB0021032A08D009E009F1070172
:100D500021F00702F2E802C1914605E01FFA8CFC7F
:100D6000042A01D10CF0FF0C4FF00008220728D50F
:100D7000702806D0009B83F0100353EA0A0305D0C5
:100D80000EE040228DF80420012208E05CEA010216
:100D900006D030228DF804208DF8050002229046FE
:100DA000009B83F0080353EA0A030AD15CEA0102BC
:100DB00001D1620705D530228DF804204FF00108DB
:100DC0007F1E582804D034A003900EA802900DE096
:100DD00036A0F9E753466046009AFFF7C7FA844603
:100DE0000398825C0298401E029002705CEA010047
:100DF000F0D1029806A9081A00F1200A600702D56E
:100E000024F4803400E00127574502DDA7EB0A00F7
:100E100000E0002000EB0A01009005984144401AD0
:100E20000590E00306D45B462146179A059800F02A
:100E3000B3F90544002706E001A85A46C05D17999A
:100E400090476D1C7F1C4745F6DBE0030CD55B46E5
:100E50002146179A059800F09FF9054404E03020D8
:100E60005A46179990476D1C0099481E009000291A
:100E7000F5DC08E0029802995A460078491C029174
:100E8000179990476D1CBAF10001AAF1010AF1DC33
:100E900065E100000928010030313233343536373E
:100EA00038396162636465660000000030313233B6
:100EB0003435363738394142434445460000000056
:100EC00000F058F90544761C307800287FF4ECAD2A
:100ED00019B02846BDE8F08F620700D4062709F153
:100EE000070222F0070CFCE80223E14603F0004869
:100EF0005FEA080C02D00FF2702C0DE05FEA045C90
:100F000002D50FF2682C07E05FEAC47C02D00FF232
:100F1000602C01E0AFF2700C4FF0FF3823F000437B
:100F2000CDF850C065280CD006DC452809D04628ED
:100F30001DD047283DD13DE0662818D067287ED1D6
:100F400038E00021112F01DB112000E0781CCDE9F1
:100F5000000106A90EA8FFF7DDFCDDE90F010E9ADE
:100F600003910021009207F1010A04914DE04FF036
:100F700000400097CDE9011006A90EA8FFF7CAFCB2
:100F8000DDE90F0203920E9B11990022DDF80CA0FF
:100F90000093049211B9791C00EB010AB7EB0A0027
:100FA00004D4C0F1FF3007F1010A0490AAEB070056
:100FB000019044E0012F00DA01270021112F01DD0B
:100FC000112000E03846CDE9000106A90EA8FFF780
:100FD000A1FCDDE90F010E9A03910021049100921A
:100FE000BA4621070CD40399514500DA8A46BAF172
:100FF000010F05DD009AAAF10101515C302908D0EA
:10100000B84202DA10F1040F06DA0121CDE901102D
:1010100015E0AAF10101E9E7002805DC0499014483
:101020000491AAEB000102E0411C514500DD8A4613
:101030000499401A401C01904FF000400290200794
:1010400004D40198504501DBCDF8048000208DF8D0
:101050004F0002980DF14F07B0F1004F25D02B2023
:101060000E9002984FF0020800280CDA40420290DD
:101070002D200E9007E00A210298FFF761F9303128
:10108000029007F8011DB8F10001A8F10108F2DC97
:1010900002980028EFD1791E0E980870307800F081
:1010A000200040F0450007F8020D12A8C01B00F117
:1010B00007081498007800B1012000EB0A0101989C
:1010C00001EBE07105984144401A401E0590E00391
:1010D00006D45B462146179A059800F05DF8054452
:1010E0001498007818B15A46179990476D1CE00380
:1010F00024D55B462146179A059800F04DF8054423
:101100001CE00498002807DBDDE90301884203DDC9
:101110000098405C179901E0179930205A46904793
:10112000049805F10105401C04900198401E0190AF
:1011300004D12E205A46179990476D1CBAF1000130
:10114000AAF1010ADDDC05E017F8010B5A461799F0
:1011500090476D1CB8F10001A8F10108F4DC5B4672
:101160002146179A0598ABE62D0000002B000000E1
:10117000200000002DE9F041044600251E461746D8
:10118000880404D405E039462020B0476D1C641E55
:10119000F9D52846BDE8F0812DE9F0410446002547
:1011A0001E469046C80301D5302700E0202788045A
:1011B00004D505E041463846B0476D1C641EF9D59C
:1011C0002846BDE8F081816841F0080181608168AE
:1011D0000907FCD4816841F00401816081684907F6
:1011E000FCD47047521E01290FD002290CD1032ACA
:1011F0000AD8816B21F440118163816B4FF4401355
:1012000003EA02521143816370470F2AFCD8C16A76
:1012100021F47001C162C16A4FF4700303EA025203
:101220001143C1627047000004490A6822F4E022B9
:101230000A600A6802430A60704700000423014004
:1012400010B541F2081000F0A9FB4FF44030FFF751
:10125000EBFF00F041F8002000F034F9174C0022B9
:101260000221204600F006F90022A115204600F0D8
:1012700001F90021204600F023F801220221204636
:10128000FFF7B0FF06230F220021204600F080F870
:1012900001220221204600F032F8204600F027F813
:1012A000012000F01BF92046FFF78DFF012000F020
:1012B00015F9BDE8104000F047BA000000200140D9
:1012C000002904D0816841F4006181607047816821
:1012D00021F400618160704710B540F60814204683
:1012E00000F07CFB2046BDE8104000F067BB816841
:1012F000C90703D1816841F001018160704701296C
:101300000AD0022907D1816821F4401181608168E7
:1013100041EA025181607047816821F0405181604B
:10132000816841EA027181607047000010B5114C7C
:101330000221204600F090F80021204600F052F8EB
:10134000FEF7C2FF9FED0C1B53EC112BFEF74AFF7B
:101350009FED0B1B53EC112BFEF744FF9FED0A1B77
:1013600053EC112BFEF73EFFFEF7CEFF00EE100A06
:1013700010BD0000002001406666666666660A4091
:10138000000000000000303F00000000000014409A
:1013900030B5846BC4F3015504290BD2846B491B0F
:1013A00001EB81010F311F258D40AC4302FA01F59D
:1013B0002543856307250A2A08D2046902EB420106
:1013C0008D40AC438B402343036130BD122AFCD8CF
:1013D000C4680A3A02EB42018D40AC438B40234380
:1013E000C36030BD002908D0012908D0022908D0E7
:1013F000032908D0002080B27047C06BFBE7006C67
:10140000F9E7406CF7E7806CF5E700000BA0FFF709
:1014100061FAFFF715FF4FF4FA74FFF787FF10EE3C
:10142000100AFEF75EFF41EC100B06A053EC102BE8
:10143000FFF750FA204600F051F8EEE7737461723E
:10144000740A00006261747465727956616C756526
:101450003D25660A00000000012906D0022903D1BB
:10146000816841F4800181607047816841F080416A
:1014700081607047002A12D0CA0503D5426842F441
:10148000807242604A0503D5426842F4806242603D
:10149000890703D5816841F0020181607047CA0560
:1014A00003D5426822F4807242604A0503D542683F
:1014B00022F4806242608907F0D5816821F0020140
:1014C0008160704704490A6822F01F020A600A68B6
:1014D00002430A607047000004230140024908608B
:1014E00008680028FCD1704700000020034801680C
:1014F000002902D00168491E0160704700000020E9
:1015000001EB410100EBC100016921F00101016122
:10151000704701EB410100EBC100016941F001019D
:101520000161704701EB410100EBC100016921F04D
:10153000606141EA42610161704701EB410200EBE9
:10154000C202136923F00103136100231361536185
:101550009361D361136253623D2204290BD201EBE4
:1015600041035B00C1F3400103EB81018A408168C4
:101570000A4382607047091F01EB41035B00C1F31E
:10158000400103EB81018A40C1680A43C260704791
:1015900004290BD201EB41035B00C1F3400103EBD3
:1015A00081018A4081680A4382607047091F01EB0C
:1015B00041035B00C1F3400103EB81018A40C16834
:1015C0000A43C260704704290ED201EB41035B005D
:1015D000C1F3400103EB810100688A40024201D05F
:1015E0000120704700207047091F01EB41035B0099
:1015F000C1F3400103EB810140688A40024201D0FF
:10160000012070470020704701EB410100EBC10051
:10161000002A01D003627047C361704730B501EB07
:10162000410100EBC100416A21F0040141621168EF
:1016300081619168C161D169416103691A490B40B7
:10164000146A116995690C4345EA81010C4344EA27
:10165000030101615168002912D0012915D00169E7
:1016600041F400410161D168A1B1016921F48061B7
:101670000161516999B1016921F48071016130BD45
:10168000016941F400710161EDE7016921F4007124
:101690000161E8E7016941F480610161E9E70169FD
:1016A00041F48071016130BD3F87FCFF01EB4101D6
:1016B00000EBC1004261704710B508490870012174
:1016C000064800F019FA064C202207212046FFF7B1
:1016D0007AFF0028F8D0002010BD0000080000208C
:1016E000006402402DE9F043046A456A00230127A3
:1016F0004FF00F0C07FA03F6164208D09E000CFAC2
:1017000006F824EA080401FA06F848EA04045B1C17
:101710009BB2082BEED3082307FA03F818EA020F4E
:101720000AD0A3F10806B6000CFA06F825EA080567
:1017300001FA06F949EA05055B1C9BB2102BEBD3B5
:1017400004624562BDE8F08310B540F6024000F047
:1017500025F920230022BDE810400321014800F0B4
:1017600003B80000000802402DE9F0470568C6688C
:1017700000244FF001084FF0030908FA04F71F4254
:101780000ED0670009FA07FC25EA0C0501FA07FAF2
:101790004AEA050526EA0C0602FA07FC4CEA0606A8
:1017A000641CA4B2102CE8D30560C660BDE8F087C5
:1017B0002DE9F04101291AD04168994341608468BC
:1017C00000214FF001084FF0030C08FA01F71F4207
:1017D00006D04D000CFA05F6B44302FA05F6344380
:1017E000491C89B21029F0D38460BDE8F0814168BA
:1017F00019434160E3E700F059F94FF4E13000F09C
:101800006FFAFFF703FEFEE770B505460E460023AC
:10181000002423480168C1F30221072932D001685E
:10182000C1F3022106292FD00168C1F30221052945
:101830002DD00168C1F3022104292BD00068C0F328
:101840000220032829D04FF4A06000F02BF80223D7
:101850000224C3F104008640C4F104010F20C840F3
:1018600010403043000105F1E02181F8000405F04B
:101870001F01012088406909890001F1E021C1F8B8
:10188000000170BD0424E4E701230324E1E70223FF
:101890000224DEE703230124DBE70423D9E7000069
:1018A0000CED00E00249084302490860704700005F
:1018B0000000FA050CED00E0F0B588B0024600200B
:1018C0002FA104AE91E83800C96838C607912DA150
:1018D0000AC9CDE902132BA10AC9CDE900132C4C8A
:1018E0002168C1F381012B4B002925D0DFF8A8C066
:1018F000012923D0022923D019462368C3F30313F7
:1019000004ADEB5C21FA03F32568C5F3822502AE32
:10191000755D23FA05F52468C4F342341DF80440CC
:1019200023FA04F432B3012A26D0022A26D0032A4D
:1019300000D1204608B0F0BD1946DEE76146DCE77D
:101940001349091F0D6805F03F050E68C6F3881698
:101950000F68C7F301477F1C7F00096801F480010D
:10196000B1F5800F00D16346B3FBF5F17143B1FBD4
:10197000F7F1C2E70846DDE71846DBE72846D9E776
:10198000000000000000000001020304060708092F
:10199000083802400024F40040787D01064901EB3C
:1019A0009011D1F8002800F01F0301209840024355
:1019B000C1F800287047000000300240064901EBE2
:1019C0009011D1F8002800F01F03012098408243B5
:1019D000C1F800287047000000300240064901EBC2
:1019E0009011D1F8002800F01F0301209840024315
:1019F000C1F80028704700000030024010B50020F8
:101A0000264A116841F0010111604FF4A063401CA7
:101A1000116801F0020109B99842F8D110688007F5
:101A200000D4FEE71D484030016841F0805101605C
:101A30001B49086840F440400860184808300368B3
:101A40000360036843F400430360036843F4A05356
:101A50000360041F134B2360136843F0807313600B
:101A600013689B01FCD50A6842F480320A604A6818
:101A7000D203FCD50A6842F400320A604A68920335
:101A8000FCD5016821F003010160016841F0020109
:101A9000016001680907FCD510BD00000038024054
:101AA000007000401078000AFFF7A8BF70B5114819
:101AB0004FF47A710068B0FBF1F1491E4FF0FF3529
:101AC000B1F1807F01D301210BE04FF0E02461618F
:101AD0000F212846FEF79EFE0020A061072020610E
:101AE000002101B1FEE72846BDE870400021FEF765
:101AF00091BE00000400002070B505460E460D4C56
:101B000007212046FFF7FCFC202207212046FFF793
:101B10003FFD2B46002207212046FFF775FD324688
:101B200007212046FFF7C2FD07212046FFF7F1FC01
:101B3000002070BD0064024070B504460D460020D0
:101B4000294AA11A131594422DD00BDC274962189B
:101B500019D09A421BD0B2F5006F1CD0B2F5406F7D
:101B600028D11CE0994222D0B1F5184F03D0B1F52D
:101B70001C4F1FD103E00320FFF79EFE1AE0032055
:101B8000FFF79AFE16E00220FFF796FE12E0022011
:101B9000FFF792FE0EE00220FFF78EFE0AE0022021
:101BA000FFF78AFE06E00220FFF786FE02E0022031
:101BB000FFF782FEE1680A044FF6F0710AD5400093
:101BC00000EB5500B0FBF5F00140C0F342021143B9
:101BD000A16070BD00EB5500B0FBF5F0014000F0D6
:101BE0000F021143A16070BD0078004000BCFFBF30
:101BF00050F8802F22F400620A4302607047000010
:101C000010B5354A811A131590424FD014DC334970
:101C100040182DD0984235D0B0F5006F3CD0B0F5CB
:101C2000406F57D140F614042046FFF7D7FE2046F8
:101C3000BDE81040FFF7C2BE994241D0B1F5184F40
:101C40000CD0B1F51C4F45D140F605142046FFF7E6
:101C5000C5FE2046BDE81040FFF7B0BE40F60414B4
:101C60002046FFF7BBFE2046BDE81040FFF7A6BEAA
:101C700040F611042046FFF7B1FE2046BDE81040B3
:101C8000FFF79CBE40F612042046FFF7A7FE204651
:101C9000BDE81040FFF792BE40F613042046FFF760
:101CA0009DFE2046BDE81040FFF788BE40F61E04AA
:101CB0002046FFF793FE2046BDE81040FFF77EBEAA
:101CC00040F61F042046FFF789FE2046BDE810407D
:101CD000FFF774BE10BD00000078004000BCFFBFDD
:101CE00010B5044600F042F8204600F07DF8BDE84B
:101CF0001040014800F00CB804100140426922F085
:101D000080024261426901F080010A4342617047EA
:101D100030B589B0044640F61640FFF73FFE0F4D40
:101D200007212846FFF709FC402006900020039079
:101D300000940121019104904FF4403008900591E6
:101D40006A4607212846FFF769FC04220721284636
:101D5000FFF7E8FB09B0002030BD0000006402403E
:101D6000C16841F40051C1607047000070B54FF484
:101D70004060FFF713FE41F20410FFF70FFE144E10
:101D80004FF48064224607213046FFF7ABFC651014
:101D90002A4607213046FFF7A5FC234601220221EF
:101DA0003046FFF7E1FC2B46012202213046FFF7C7
:101DB000DBFC2346022200213046FFF7F9FC2B46CC
:101DC0003046BDE8704002220021FFF7F1BC000060
:101DD0000000024000EB9110026801F01F03012196
:101DE00099400A430260704770B505461B4C204677
:101DF000FFF706FF29462046FFF79EFE00212046FA
:101E000000F02EF80021204600F046F80021204680
:101E100000F034F800212046FFF7EAFE2046FFF7E5
:101E20009FFF0821204600F031F80421204600F0F1
:101E30001FF8022211462520FFF7E6FC40F205318B
:101E40002046FFF7C7FF4FF441712046FFF7C2FF5E
:101E50002046BDE870408021FFF750BF00100140D0
:101E6000C26822F4C062C260C2680A43C26070479E
:101E7000C26822F004020A43C2607047026922F479
:101E80004052026102690A4302617047C26822F04F
:101E900008020A43C2607047C26822F48052C260DE
:101EA000C2680A43C2607047C81E000800000020D4
:101EB00010000000F4080008D81E000810000020E0
:101EC000000400000409000800000000001C4E0E81
:081ED00000000000000000000A
:04000005080001AD41
:00000001FF
