:020000040800F2
:1000000008040020C1010008110200080D020008C8
:100010000F02000809020008D102000800000000D9
:100020000000000000000000000000003502000891
:100030000B0200080000000033020008370200082D
:10004000DB010008DB010008DB010008DB01000820
:10005000DB010008DB010008DB010008DB01000810
:10006000DB010008DB010008DB010008DB01000800
:10007000DB010008DB010008DB010008DB010008F0
:10008000DB010008DB010008DB010008DB010008E0
:10009000DB010008DB010008DB010008DB010008D0
:1000A000DB010008DB010008DB010008DB010008C0
:1000B000DB010008DB010008DB010008DB010008B0
:1000C000DB010008DB010008DB010008DB010008A0
:1000D000DB010008DB010008DB010008DB01000890
:1000E000DB010008DB010008DB010008DB01000880
:1000F000DB010008DB010008DB010008DB01000870
:10010000DB010008DB010008DB010008DB0100085F
:10011000DB010008DB010008DB010008DB0100084F
:10012000DB010008DB010008DB010008DB0100083F
:10013000DB010008DB010008DB010008DB0100082F
:10014000DB010008DB010008DB010008DB0100081F
:10015000DB010008DB010008DB010008DB0100080F
:10016000DB010008DB010008DB010008DB010008FF
:10017000DB010008DB010008DB01000800000000D3
:10018000DB010008DB010008DB010008DB010008DF
:10019000DB010008DB010008DB01000800000000B3
:1001A000DB010008DB010008DB010008DFF80CD0F0
:1001B00000F018F800480047A304000808040020D5
:1001C0000648804706480047FEE7FEE7FEE7FEE7F1
:1001D000FEE7FEE7FEE7FEE7FEE7FEE73D0200087A
:1001E000AD010008064C074D06E0E06840F0010351
:1001F00094E8070098471034AC42F6D3FFF7DAFFD3
:10020000C8050008E8050008FEE77047FEE7FEE7BE
:1002100070470907090E002806DA00F00F0000F108
:10022000E02080F8141D704700F1E02080F80014F1
:1002300070477047704700F05BB8000018B4204862
:10024000016841F4700101601E48016841F001013C
:10025000016001688907FCD51A4A0832116841F02B
:10026000800111600023009302E00099491C009175
:1002700000995029F9D3116841F090011160009361
:1002800002E00099491C009100995029F9D31168A6
:1002900021F00301116001680B4C214001600168ED
:1002A00021F4802101601360106806490748091D88
:1002B000086004480C30036018BC00F05DB9000011
:1002C00088ED00E000380240FFFFF6FE1030002409
:1002D000FEE702E008C8121F08C1002AFAD17047E1
:1002E0007047002001E001C1121F002AFBD17047B6
:1002F00003480168002902D00168491E0160704767
:1003000000000020A4274FF08008224E4FF0010982
:1003100008244D46641E05FA04F03840E04020B140
:100320001021304600F074F803E01021304600F050
:100330006DF80121304600F069F80121304600F0E7
:1003400067F8E4B2002CE5D10824641E05FA04F134
:1003500001EA0801E14021B11021304600F058F8CF
:1003600003E01021304600F051F80121304600F042
:100370004DF80121304600F04BF8E4B2002CE4D1F6
:100380000221304600F042F80221304600F040F8E9
:10039000BEE70000000C024010B540F603442046C2
:1003A00000F084F8204600F081F8204600F07EF846
:1003B000134C102300220121204600F02BF80223C9
:1003C00000220121204600F025F8012300221946D1
:1003D000204600F01FF8102301220021204600F0E3
:1003E0003DF8022301220021204600F037F80123C6
:1003F0002046BDE810401A46002100F02FB800004A
:10040000000C0240FFF7C8FFFFF77CFF81627047D6
:10041000816170472DE9F0470568C66800244FF0F8
:1004200001084FF0030908FA04F71F420ED06700D5
:1004300009FA07FC25EA0C0501FA07FA4AEA05055C
:1004400026EA0C0602FA07FC4CEA0606641CA4B273
:10045000102CE8D30560C660BDE8F0872DE9F041B7
:1004600001291AD0416899434160846800214FF006
:1004700001084FF0030C08FA01F71F4206D04D00A7
:100480000CFA05F6B44302FA05F63443491C89B266
:100490001029F0D38460BDE8F081416819434160C0
:1004A000E3E700F06BF8FFF7ADFFFEE7064901EB6D
:1004B0009011D1F8002800F01F030120984002435A
:1004C000C1F80028704700000030024010B500203D
:1004D000264A116841F0010111604FF4A063401CED
:1004E000116801F0020109B99842F8D1106880073B
:1004F00000D4FEE71D484030016841F080510160A2
:100500001B49086840F440400860184808300368F8
:100510000360036843F400430360036843F4A0539B
:100520000360041F134B2360136843F08073136050
:1005300013689B01FCD50A6842F480320A604A685D
:10054000D203FCD50A6842F400320A604A6892037A
:10055000FCD5016821F003010160016841F002014E
:10056000016001680907FCD510BD00000038024099
:10057000007000401078000AFFF7A8BF70B511485E
:100580004FF47A710068B0FBF1F1491E4FF0FF356E
:10059000B1F1807F01D301210BE04FF0E0246161D4
:1005A0000F212846FFF735FE0020A06107202061BB
:1005B000002101B1FEE72846BDE870400021FFF7A9
:1005C00028BE000004000020E8050008000000200C
:1005D00008000000D2020008F00500080800002012
:1005E00000040000E202000800000000001C4E0EA3
:04000005080001AD41
:00000001FF
