:020000040800F2
:1000000058080020C10100080B090008E10300089E
:100010000909000859020008D10B0008000000007F
:10002000000000000000000000000000CB090008F4
:100030005B020008000000002D090008710A00089A
:10004000DB010008DB010008DB010008DB01000820
:10005000DB010008DB0100085D020008DB0100088D
:10006000F9020008DB010008DB010008DB010008E1
:10007000DB010008DB010008DB010008DB010008F0
:10008000DB010008DB010008DB010008DB010008E0
:10009000DB010008DB010008DB0100082503000884
:1000A000DB010008DB010008DB010008DB010008C0
:1000B000DB010008DB010008090B0008DB01000878
:1000C000DB010008DB010008DB010008DB010008A0
:1000D000DB010008DB010008DB010008DB01000890
:1000E00089020008DB010008DB010008DB010008D1
:1000F000DB010008DB010008DB010008DB01000870
:10010000DB010008DB010008DB010008DB0100085F
:10011000DB010008DB010008DB010008DB0100084F
:10012000DB010008DB010008DB010008DB0100083F
:10013000DB010008DB010008DB010008DB0100082F
:10014000DB010008DB010008DB010008DB0100081F
:10015000DB010008DB010008DB010008DB0100080F
:10016000DB010008DB010008DB010008DB010008FF
:10017000DB010008DB010008DB01000800000000D3
:10018000DB010008DB010008DB010008DB010008DF
:10019000DB010008DB010008DB01000800000000B3
:1001A000DB010008DB010008DB010008DFF80CD0F0
:1001B00000F040F800480047BD160008580800202D
:1001C0000648804706480047FEE7FEE7FEE7FEE7F1
:1001D000FEE7FEE7FEE7FEE7FEE7FEE7750A00083A
:1001E000AD0100080649074A0868504343F2390246
:1001F00010440860400870470149086070470000DB
:10020000340000206D4EC64130B50B46014600203B
:100210002022012409E021FA02F59D4205D303FAC8
:1002200002F5491B04FA02F52844151EA2F1010249
:10023000F1DC30BD064C074D06E0E06840F00103FC
:1002400094E8070098471034AC42F6D3FFF7B2FFAA
:10025000F8E0090818E10908FEE7704710B5012029
:1002600001F024F901280BD10121064801F08CF995
:10027000012001F015F9BDE81040322000F0DABF8E
:1002800010BD00000000024070B54FF4004420464D
:1002900001F00CF901281DD1254629460E4801F030
:1002A00073F90E4C012809D0002020700CA000F03A
:1002B00091FC2846BDE8704001F0F2B80BA000F0B8
:1002C00089FC002240F64A110A4801F0B3FC0120E3
:1002D0002070EEE770BD00000004024030000020F6
:1002E00072656C656173650A000000007072657369
:1002F000730A00003E69020810B5042001F0D6F828
:1003000001280BD10421064801F03EF9042001F038
:10031000C7F8BDE81040642000F08CBF10BD00009D
:100320000004024010B54FF40074204601F0BEF8FE
:1003300001280BD12146064801F026F9204601F09C
:10034000AFF8BDE81040322000F074BF10BD0000CF
:10035000001802403EB500242020CDE900404FF6B1
:10036000FF730DA264213220029400F069F910207D
:10037000CDE900404FF478430AA2DC212320029407
:1003800000F05EF90D4C0EA0217800F023FC2078DF
:100390000128F8D13EBD000047616D65204F7665AC
:1003A0007200000050726573732061204B45595FE5
:1003B0004220746F20706C617921000030000020B1
:1003C0006B65793A25640A00044800214161816126
:1003D000491EC16001610421816070470000002056
:1003E000FEE72DE9FE4F00250026171AA3EB0108B2
:1003F00081468A46681E002F03DD4FF001010191FE
:1004000007E003D14FF00001019102E00190C7F134
:100410000007B8F1000F03DD4FF00100009007E086
:1004200003D14FF00000009002E00090C8F10008F6
:10043000474501DD3C4600E044464FF0000B601CA0
:10044000029016E01FFA8AF11FFA89F00C9A00F068
:1004500015F83D444644A54202DD2D1B0198814418
:10046000A64202DD361B009882440BF1010B1FFAF5
:100470008BFB02988345E5DBBDE8FE8F10B5144683
:100480000B46024600F0E0F92046BDE8104000F0BF
:1004900031BA2DE9F0478046DDF820900D4616462A
:1004A0001F46781E83B2701E82B22946404600F075
:1004B000CBF90AE0444604E0484600F01BFA641C0D
:1004C000A4B2B442F8D36D1CADB2BD42F2D3BDE8C4
:1004D000F08700002DE9FF4F83B00746DDF8449018
:1004E0004FF0000801974FEA590A5FEA4A7001D0BD
:1004F000012000E0002000EBDA0000FB09F0029090
:10050000203A02F0FF0B049804994844401E83B23D
:1005100007EB0A00401E82B2384600F095F900252C
:1005200054E0B9F10C0F24D0B9F1100F28D0B9F173
:10053000180F2AD0B9F1200F4BD1294800EB8B10AE
:10054000465D0024129838B30120A040304204D008
:100550003846069A0499FFF791FF7F1CBFB20198B5
:10056000381A50452CD1019F0498401C80B2049049
:100570002AE01C490BEB4B0001EB8000465DE0E7F5
:10058000194800EB0B10465DDBE718490BEB4B00FD
:1005900001EB0010465DD4E70120A040304203D0BB
:1005A000069800F0A7F902E0109800F0A3F908F10E
:1005B000010808F0FF08B8FBFAF00AFB108058B1F8
:1005C000641CE4B2082CBDD36D1CADB20298854208
:1005D000A7D307B0BDE8F08F4FF00008F4E70000A4
:1005E0002C4C0208F82F02086C3402085C3A02080E
:1005F0002DE9F0479146089F9846002401EB080238
:10060000521E93B200EB0902521E92B200F01CF986
:10061000002611E000250BE017F8140000F068F93F
:1006200007EB4400407800F063F9641C6D1CADB228
:100630004545F1D3761CB6B24E45EBD3BDE8F08705
:100640002DE9FE4F0546DDE90D68894614469A46B8
:100650000C9F0BE0CDE901685346494628460097B8
:10066000FFF738FF05EB560085B2641C2278002A9C
:10067000F0D1BDE8FE8F000070B50546084C102192
:10068000204600F07DFF284600F0DCF9042000F051
:10069000CDFD2046BDE87040102100F073BF000082
:1006A0000000024070B500F0BFFF00F08FF9644D0C
:1006B0004FF480642146284600F062FF642000F079
:1006C000B9FD2146284600F05DFF642000F0B2FD30
:1006D00080215C4800F056FF112000F0F7F87820E8
:1006E00000F0A8FD002000F0E3F83A2000F0EEF85A
:1006F000052000F0FDF8B22000F0E8F80C2000F032
:10070000F7F80C2000F0F4F8002000F0F1F83320A6
:1007100000F0EEF8332000F0EBF8B72000F0D6F848
:10072000352000F0E5F8BB2000F0D0F8322000F0D2
:10073000DFF8C22000F0CAF8012000F0D9F8C32089
:1007400000F0C4F8152000F0D3F8C42000F0BEF883
:10075000202000F0CDF8C62000F0B8F80F2000F0FF
:10076000C7F8D02000F0B2F8A42000F0C1F8A12012
:1007700000F0BEF8E02000F0A9F8D02000F0B8F8B2
:10078000082000F0B5F80E2000F0B2F8092000F0C3
:10079000AFF8092000F0ACF8052000F0A9F83120EE
:1007A00000F0A6F8332000F0A3F8482000F0A0F8ED
:1007B000172000F09DF8142000F09AF8152000F0A2
:1007C00097F8312000F094F8342000F091F8E120FF
:1007D00000F07CF8D02000F08BF8082000F088F8BA
:1007E0000E2000F085F8092000F082F8092000F0C2
:1007F0007FF8152000F07CF8312000F079F83320E4
:1008000000F076F8482000F073F8172000F070F838
:10081000142000F06DF8152000F06AF8312000F087
:1008200067F8342000F064F8212000F04FF8292008
:1008300000F04CF8BDE87040782000F0FBBC0000F0
:1008400000140240000002402DE9F04106460C462B
:1008500015461F4615480078002806D0C02804D049
:10086000702807D0A02805D008E01434A4B21437AB
:10087000BFB203E01436B6B21435ADB22A2000F090
:1008800025F8304600F036F8284600F033F82B20E3
:1008900000F01CF8204600F02DF8384600F02AF849
:1008A000BDE8F0412C2000F011B80000310000201C
:1008B00010B5054C2070362000F008F82078BDE80F
:1008C000104000F015B800003100002070B505465A
:1008D000064C4021204600F053FE2846FFF7CCFE90
:1008E0002046BDE87040402100F04CBE00000240B0
:1008F000FFF7C2BE10B50446200AFFF7BDFEE0B206
:10090000BDE81040FFF7B8BEFEE770470907090EC3
:10091000002806DA00F00F0000F1E02080F8141D36
:10092000704700F1E02080F800147047704710B560
:1009300004460846002C05D000F019F8216811B1D2
:100940004160206010BD206010BD10B5044608460F
:10095000002C05D000F00BF80246206810B9226088
:1009600010BD084641680029FBD1426010BD10B59A
:100970000446082000F0BEFE18B10460002141606A
:1009800010BD002010BD70B506464FF0FF31002E9F
:1009900006D0306830B100244168002521B10BE059
:1009A000084670BD084670BD046800F08FFD3560D4
:1009B000204670BD0446084641680029FAD1066801
:1009C00000F084FD6560304670BD704730B587B07B
:1009D00040F6054000F08EFF41F2141000F08AFF4F
:1009E000164D4FF4207422460521284600F096FD4E
:1009F000234600220221284600F0CDFD2346022294
:100A00000021284600F0EBFD2146284600F0BAFD03
:100A1000002001904FF48271009102900321059112
:100A20006915039106900490054C6946204601F033
:100A3000C5F8204601F0B4F807B030BD00140240FC
:100A40000050014070B50546084C0221204601F0D7
:100A5000AEF80028F9D02946204601F0A6F8022178
:100A6000204601F0A4F80028F9D070BD00500140E4
:100A700000F0E8BB18B42048016841F4700101603F
:100A80001E48016841F00101016001688907FCD539
:100A90001A4A0832116841F0800111600023009366
:100AA00002E00099491C009100995029F9D311687E
:100AB00041F090011160009302E00099491C0091FF
:100AC00000995029F9D3116821F0030111600168E0
:100AD0000B4C21400160016821F48021016013600A
:100AE000106806490748091D086004480C30036077
:100AF00018BC01F039B9000088ED00E00038024070
:100B0000FFFFF6FE1030002470B5144D0121284679
:100B100001F071FA00281DD00121284601F068FA81
:100B20000F4CD4E90010425C0221012000F0F6FADB
:100B3000012000F045FB2168491C2160A068884223
:100B400008D1207B012806D0284601F0F9F9054993
:100B50000220087070BD0020206070BD00080040B9
:100B600044000020320000207FB5044602221146D6
:100B70001E2000F0F5FD41F2020000F0BBFE4FF038
:100B8000807000F0E7FE104D284601F015F917209F
:100B9000ADF800000021ADF80210ADF804100B48CC
:100BA000B0FBF4F0401E0290ADF806108DF80C106A
:100BB0006946284601F0CEF90121284601F014FAD1
:100BC000284601F0BDF97FBD0008004080969800DE
:100BD000FEE700000FB4054B10B503A9044A0298C4
:100BE00000F018F810BC5DF814FB0000C1140008F8
:100BF0003800002002E008C8121F08C1002AFAD1FC
:100C000070477047002001E001C1121F002AFBD18C
:100C1000704700002DE9FF4F89B09B460446002530
:100C200006E025280BD05A460B999047641C6D1C92
:100C300020780028F5D10DB02846BDE8F08F0027B8
:100C4000B8460122474900E0074314F8013F203B22
:100C500002FA03F00842F7D120782E2819D114F8AF
:100C6000010F47F004072A280ED06FF02F022078DA
:100C7000A0F1300109290CD808EB880102EB4101F1
:100C800000EB0108641CF2E70A98641C50F8048B1E
:100C90000A9020780028CED0642808D0692806D091
:100CA00075281ED05A460B9990476D1C58E00A993A
:100CB0004FF00A0901C90A91002802DA40422D21A9
:100CC00002E0390504D52B218DF82010012103E025
:100CD000F90704D02021F7E78A4608AE0DE000218D
:100CE000FAE70A994FF00A0901C90A91F7E749465C
:100CF000FFF78AFA303106F8011D0028F7D1ADEB75
:100D0000060000F12009780701D44FF00108C8451A
:100D100002DDA8EB090000E000208046002706E085
:100D200008A85A46C05D0B9990476D1C7F1C57451B
:100D3000F6DB04E030205A460B9990476D1CB8F161
:100D40000001A8F10108F5DC05E016F8010B5A4690
:100D50000B9990476D1CB9F10001A9F10109F4DC70
:100D6000641C65E709280100816841F00801816081
:100D700081680907FCD4816841F0040181608168C1
:100D80004907FCD47047521E01290FD002290CD10B
:100D9000032A0AD8816B21F440118163816B4FF4DF
:100DA000401303EA02521143816370470F2AFCD8B3
:100DB000C16A21F47001C162C16A4FF4700303EA91
:100DC00002521143C162704710B50D4C0246012317
:100DD0000021204600F0BAF80121204600F0F8F882
:100DE0000221204600F071F80028F9D002212046A7
:100DF00000F067F82046BDE8104000F0E6B80000BB
:100E00000020014004490A6822F4E0220A600A68CE
:100E100002430A60704700000423014010B500F04F
:100E20005BF841F2081000F065FD4FF44030FFF729
:100E3000E9FF00F033F8002000F000F9104C002228
:100E40000221204600F0D2F80022A115204600F031
:100E5000CDF80021204600F015F801221146204669
:100E6000FFF791FF204600F024F8012000F0E2F99E
:100E70002046FFF779FFBDE81040012000F0DAB905
:100E800000200140002904D0816841F400618160A4
:100E90007047816821F400618160704710B540F6A9
:100EA0000814204600F046FD2046BDE8104000F042
:100EB00031BD8168C90703D1816841F001018160BA
:100EC000704702688A430260704702460020126839
:100ED0000A4200D00120704710B540F6024000F0F1
:100EE00009FD022300220321074800F054FB4FF4C0
:100EF000406000F0FFFC02230022BDE81040032107
:100F0000024800F048BB0000000802400000024018
:100F100010B50120FFF758FF074C2080014607A0BD
:100F2000FFF758FE0B20FFF74FFF60800146BDE83A
:100F3000104004A0FFF74EBE2C000020783A256434
:100F40000D000000793A25640D0A000030B51F2419
:100F5000062909D2456B01EB81018C40A54302FAB9
:100F600001F42C43446318E00C290AD2056B891F55
:100F700001EB81018C40A54302FA01F42C43046388
:100F80000BE0102909D2C56A0C3901EB81018C40B4
:100F9000A54302FA01F42C43C46207250A2A08D2A9
:100FA000046902EB42018D40AC438B402343036153
:100FB00030BD122AFCD8C4680A3A02EB42018D40C7
:100FC000AC438B402343C36030BDC06C80B27047DC
:100FD000012906D0022903D1816841F48001816092
:100FE0007047816841F0804181607047002A12D0CB
:100FF000CA0503D5426842F4807242604A0503D5AF
:10100000426842F480624260890703D5816841F0FA
:10101000020181607047CA0503D5426822F48072DC
:1010200042604A0503D5426822F480624260890723
:10103000F0D5816821F002018160704704490A6897
:1010400022F01F020A600A6802430A60704700002B
:1010500004230140FEB54FF400720920CDE90102DE
:10106000062100911723144940F6064000F06EFD5A
:101070000F200124CDE90040104D4FF4004240F60E
:101080000146282329460292304600F05FFD0022E7
:101090000092CDE90124062301220949580200F0FB
:1010A00055FD0220CDE90040042208232946029282
:1010B000304600F04BFDFEBD001802400004024027
:1010C0000000024010B54FF4406000F013FC41F204
:1010D0001D0000F00FFC202300220321094800F02E
:1010E0005AFA00F041F83821012000F089F8012077
:1010F00000F076F8012000F053F8BDE81040012020
:1011000000F03EB80000024010B50446FFF7DAFFD9
:101110002046BDE81040FFF727BD0000002807D09B
:10112000B9B1012919D0022901D10E4802607047D6
:1011300039B1012909D00229F9D10A480C380260D5
:10114000704708481438026070470648103802603B
:10115000704704480838026070470248001F026068
:10116000704700001C74004010B540F61D04204676
:1011700000F0E0FB2046BDE8104000F0CBBB0000D3
:101180000649002804D0086840F4803008607047A1
:10119000086840F0010008607047000000740040DB
:1011A0000649002804D0086820F400300860704721
:1011B000086820F0020008607047000000740040DA
:1011C0000649002804D0086840F002000860704713
:1011D000086840F001000860704700000474004097
:1011E0000649002804D0086840F480200860704751
:1011F000086840F004000860704700000074004078
:10120000094A002808D0106820F4601010601068A7
:1012100040EA014010607047106820F0380010600C
:10122000106808431060704700740040401E411C65
:10123000FCD170470249086008680028FCD170475B
:101240002400002003480168002902D00168491EDB
:10125000016070472400002008B50D490B22088862
:1012600000EB800002EB80008988152201EB8101F0
:1012700002EB81014FF47842009201F1120293B225
:1012800000F1120292B289B280B2FFF702F908BDF2
:101290001C00002070B5FEF7A5FF094C04F11C05E9
:1012A000216890FBF1F201FB12002860FEF79AFF23
:1012B000616890FBF1F201FB1200686070BD0000F4
:1012C00000000020F8B50A244FF6FF754FF482762F
:1012D000A2B2A0B2334614210095FFF782F814346D
:1012E000E62CF5DD1424A3B2A1B2E6220A20009573
:1012F000FFF777F81434B442F5DDF8BD70B5FEF7AA
:1013000071FF174D2968891F90FBF1F201FB120450
:10131000641DFEF767FF6968891F90FBF1F201FB0E
:101320001206761D2046FFF722FB68613046FFF764
:101330001EFBA861611E05F11400FFF706FB314694
:1013400005F11800FFF701FBA11E05F11400FFF7DE
:10135000FCFA314605F11800BDE87040FFF7F5BA18
:101360000000002070B508484469856905E02068E0
:10137000296800F00BF864686D680CB1002DF6D197
:10138000BDE8704000F02AB80000002038B500EB3E
:1013900080000B2202EB800401EB8100152101EBA0
:1013A00080054FF44870009005F1120083B204F1FB
:1013B000120082B2A9B2A0B2FFF76BF849F27270C4
:1013C000009005F10A0083B204F10A0082B22D1DDB
:1013D000241DA9B2A0B2FFF75CF838BD08B50E49CC
:1013E0000A22888900EB800002EB8000098A14221F
:1013F00001EB810102EB81010022009201F1120256
:1014000093B200F11202891C801C92B289B280B2A0
:10141000FFF73FF808BD000000000020F0B51B4EAC
:10142000336883433360351D2B6883432B602B1D4A
:101430001C6884431C601C1D2768874327600029A3
:1014400002D0012907D103E031680143316002E095
:1014500029680143296052B1012A0FD0022A05D11F
:10146000196801431960216801432160F0BD1968C2
:1014700001431960216881432160F0BD19688143EF
:101480001960216801432160F0BD0000003C01406B
:1014900002490A6802430A6070470000003C0140AC
:1014A0000149086070470000143C01400349096885
:1014B000014201D00120704700207047143C0140D8
:1014C00010B5C0B200F032FB002010BD10B50028EE
:1014D00021D0114B0022001F196803E0814203D87C
:1014E0000A4649680029F9D152B11368841A9C420E
:1014F00004D1006818441060104602E0506000E01B
:10150000186039B102680B1A934203D10B681A4470
:1015100002604968416010BD3C0000202DE9F043A5
:10152000046A456A002301274FF00F0C07FA03F6FF
:10153000164208D09E000CFA06F824EA080401FAC4
:1015400006F848EA04045B1C9BB2082BEED3082380
:1015500007FA03F818EA020F0AD0A3F10806B6004A
:101560000CFA06F825EA080501FA06F949EA050524
:101570005B1C9BB2102BEBD304624562BDE8F08389
:1015800081627047816170470069084201D0012083
:101590007047002070472DE9F0470568C6680024B1
:1015A0004FF001084FF0030908FA04F71F420ED06C
:1015B000670009FA07FC25EA0C0501FA07FA4AEA6E
:1015C000050526EA0C0602FA07FC4CEA0606641C2E
:1015D000A4B2102CE8D30560C660BDE8F0872DE901
:1015E000F04101291AD04168994341608468002183
:1015F0004FF001084FF0030C08FA01F71F4206D024
:101600004D000CFA05F6B44302FA05F63443491CC2
:1016100089B21029F0D38460BDE8F0814168194394
:101620004160E3E7FFF716BD70B540F6054000F0F6
:1016300061F9204D4FF480642346002201212846A1
:10164000FFF7A9FF2346022200212846FFF7C7FF24
:101650004FF44064204600F04DF9174D402300221E
:1016600001212846FFF797FF402302220021284648
:10167000FFF7B5FF204600F03DF9102300220121BD
:101680002846FFF788FF1023022200212846FFF793
:10169000A6FF204600F02EF98023002201212846D3
:1016A000FFF779FF2846BDE8704080230222002121
:1016B000FFF795BF00140240000002404FF4A06005
:1016C00000F09CF800F052FB00F0ECFDFFF7A6FBE9
:1016D000FFF71EFCFFF7A6FFFEF7E4FF4FF4FA50FA
:1016E000FFF712FD00F082FA00F044F9FEF732FE37
:1016F000FAE70000F0B50B30154D20F0070100248B
:10170000144A0FE003688B420BD38B4205D95E1A53
:1017100043184768C3E9006700E04368136002C0EC
:1017200004E0021D10680028ECD12046002802D1F8
:10173000286808B10020F0BD064A07481060074A33
:10174000121A22F00702C0E9002401202860D7E71E
:10175000400000203C0000205C00002058040020D5
:1017600070B505460E460023002423480168C1F3E6
:101770000221072932D00168C1F3022106292FD0A6
:101780000168C1F3022105292DD00168C1F30221AE
:1017900004292BD00068C0F30220032829D04FF47D
:1017A000A06000F02BF802230224C3F1040086405D
:1017B000C4F104010F20C84010403043000105F17E
:1017C000E02181F8000405F01F010120884069092B
:1017D000890001F1E021C1F8000170BD0424E4E7B3
:1017E00001230324E1E702230224DEE7032301248B
:1017F000DBE70423D9E700000CED00E002490843D1
:1018000002490860704700000000FA050CED00E096
:10181000F0B588B0024600202FA104AE91E8380050
:10182000C96838C607912DA10AC9CDE902132BA1B9
:101830000AC9CDE900132C4C2168C1F381012B4B5F
:10184000002925D0DFF8A8C0012923D0022923D000
:1018500019462368C3F3031304ADEB5C21FA03F3C9
:101860002568C5F3822502AE755D23FA05F5246867
:10187000C4F342341DF8044023FA04F432B3012ABD
:1018800026D0022A26D0032A00D1204608B0F0BD77
:101890001946DEE76146DCE71349091F0D6805F0CC
:1018A0003F050E68C6F388160F68C7F301477F1C13
:1018B0007F00096801F48001B1F5800F00D1634613
:1018C000B3FBF5F17143B1FBF7F1C2E70846DDE781
:1018D0001846DBE72846D9E70000000000000000BA
:1018E0000102030406070809083802400024F40036
:1018F00040787D01064901EB9011D1F8002800F0F5
:101900001F03012098400243C1F8002870470000DF
:1019100000300240064901EB9011D1F8002800F098
:101920001F03012098408243C1F80028704700003F
:1019300000300240064901EB9011D1F8002800F078
:101940001F03012098400243C1F80028704700009F
:1019500000300240064900F18072521C03D00A6830
:1019600002430A6070470A6802400A60704700003C
:101970008C3802402DE9F84FFEF726FD00204FF489
:101980008C73F02201460090FEF783FDFFF79AFC6E
:10199000FFF780FCFFF7B2FC00240025DFF8789108
:1019A000DFF86CA140F256285A4FA9F11C06FFF748
:1019B000AFFABAF80000A0F29761414508D83A881A
:1019C000C82A05D2B268022A02D00120B0602BE0FA
:1019D00041450BD83988A1F696714942C82905DAE4
:1019E000B168012902D00220B0601DE0A0F6FA71B2
:1019F0004942C8290BDA3988A1F6511149424145BB
:101A000005D8B168042902D00320B0600CE0C828D2
:101A10000AD23888A0F651104042404504D8B06838
:101A2000032801D00420B060B068012806D0022845
:101A30000AD003280ED0042812D016E0706904687A
:101A4000B06905686D1E10E070690468B0690568CA
:101A50006D1C0AE070690468641EB069056804E0E2
:101A600070690468641CB06905682B482146083811
:101A7000FEF75DFF28482946001FFEF758FF7069F2
:101A8000D9F80010006888420BD1B069D9F8041069
:101A90000068884205D121A0FFF79CF8FFF7FAFB08
:101AA00009E01D480838FEF76EFFF0601A48001F75
:101AB000FEF769FF306170690268002A25DB316832
:101AC000491E8A4221DCB1690B68002B1DDBD6F868
:101AD00004C0ACF1010C634517DC4068496809E0BB
:101AE000D0F800C0D1F800B0944501D19B450CD08E
:101AF000406849680028F3D1FFF7AEFBFFF732FCDE
:101B00004FF41670FFF796FB51E7BDE8F88F000021
:101B10002C0000202E0000201C0000206561742095
:101B200061206170706C650A0000000010B5064C01
:101B30000146204600F0CDFA0721204600F043FB85
:101B40000028F9D010BD0000001001402DE9F04739
:101B50000C46DDE9097891461D46089EFFF7CAFE4E
:101B600041F20E10FFF7C6FE4B460222002120462E
:101B7000FFF711FD022211462846FFF7F1FD394615
:101B8000304600F067F8022200214046FFF746FC8D
:101B90004046FFF77DFC4046BDE8F047FFF780BCBC
:101BA000016841F0400101607047C1607047806882
:101BB000084201D00120704700207047026802F4FB
:101BC00041520B6813434A681A438B681343CA682F
:101BD0001A430B6913434A691A4389691143016027
:101BE000C16921F40061C1617047000038B50B483C
:101BF000002100904FF48C73F0220846FEF7F8FCA9
:101C000000220749074800F015F8074C07A0217883
:101C1000FEF7E0FF20780128F8D138BDF022000857
:101C2000706E070088720208300000206B65793AF8
:101C300025640A0030B4054B00241C60996058608C
:101C40001A7330BC024800F080B900004400002044
:101C5000000800408A07130F0F229A40D243984091
:101C600089080DD0012914D002291BD0032906D1DF
:101C700011490B6813400B600A6802430A60704701
:101C80000D490C390B6813400B600A6802430A6067
:101C90007047094908390B6813400B600A68024312
:101CA0000A6070470449091F0B6813400B600A68FB
:101CB00002430A60704700001438014010B500204C
:101CC000264A116841F0010111604FF4A063401CE5
:101CD000116801F0020109B99842F8D11068800733
:101CE00000D4FEE71D484030016841F0805101609A
:101CF0001B49086840F440400860184808300368F1
:101D00000360036843F400430360036843F4A05393
:101D10000360041F134B2360136843F08073136048
:101D200013689B01FCD50A6842F480320A604A6855
:101D3000D203FCD50A6842F400320A604A68920372
:101D4000FCD5016821F003010160016841F0020146
:101D5000016001680907FCD510BD00000038024091
:101D6000007000401078000AFFF7A8BF70B5114856
:101D70004FF47A710068B0FBF1F1491E4FF0FF3566
:101D8000B1F1807F01D301210BE04FF0E0246161CC
:101D90000F212846FEF7BAFD0020A0610720206130
:101DA000002101B1FEE72846BDE870400021FEF7A2
:101DB000ADBD00002800002010B55E4A811A131541
:101DC00090427DD02ADC5C4A4FF40064A0EB020113
:101DD000904265D011DCB0F1804F4FD05749401888
:101DE00054D098426DD140F602042046FFF7A2FD80
:101DF0002046BDE81040FFF78DBD99425AD0A14260
:101E000065D0B1F5406F5CD140F606042046FFF77F
:101E100091FD2046BDE81040FFF77CBDB1F5923F33
:101E20005FD011DC99427AD0B1F5644F1CD0B1F586
:101E3000684F7ED140F601142046FFF77BFD204617
:101E4000BDE81040FFF766BDB1F5943F53D0B1F542
:101E5000963F6ED140F612142046FFF76BFD2046E8
:101E6000BDE81040FFF756BD4FF410642046FFF761
:101E700061FD2046BDE81040FFF74CBD2046FFF74E
:101E800059FD2046BDE81040FFF744BD40F601046F
:101E90002046FFF74FFD2046BDE81040FFF73ABD52
:101EA00040F603042046FFF745FD2046BDE81040FC
:101EB000FFF730BD40F604042046FFF73BFD01E08C
:101EC00023E036E02046BDE81040FFF723BD40F692
:101ED00005042046FFF72EFD2046BDE81040FFF721
:101EE00019BD4FF411642046FFF724FD2046BDE8DC
:101EF0001040FFF70FBD40F611142046FFF71AFD02
:101F00002046BDE81040FFF705BD40F60704204617
:101F1000FFF710FD2046BDE81040FFF7FBBC40F680
:101F200008042046FFF706FD2046BDE81040FFF7F5
:101F3000F1BC10BD001C0040000C004000FCFFBFC5
:101F4000016821F0010101607047016841F0010161
:101F50000160704730B50A8882621C4B1C4A984267
:101F60000DD0B0F1804F0AD01A4CA04207D01A4CC5
:101F7000A04204D0194CA04201D090420BD1046879
:101F800024F07004046004684D882C4304600468E5
:101F90008D882C4304608C68C462114CA0420AD026
:101FA000104CA04207D0046824F440740460046814
:101FB000CD882C430460984201D0904201D1097B26
:101FC0000163416941F00101416130BD0000014000
:101FD000000401400004004000080040000C0040E4
:101FE0000010004000140040C2680A43C2607047FD
:101FF000C94301617047C2680A400069084202D0C3
:102000000AB10120704700207047000070B50446F7
:102010000D460020294AA11A131594422DD00BDC3D
:102020002749621819D09A421BD0B2F5006F1CD014
:10203000B2F5406F28D11CE0994222D0B1F5184F7B
:1020400003D0B1F51C4F1FD103E00320FFF7E0FBE5
:102050001AE00320FFF7DCFB16E00220FFF7D8FBB5
:1020600012E00220FFF7D4FB0EE00220FFF7D0FBC6
:102070000AE00220FFF7CCFB06E00220FFF7C8FBD6
:1020800002E00220FFF7C4FBE1680A044FF6F0719A
:102090000AD5400000EB5500B0FBF5F00140C0F35D
:1020A00042021143A16070BD00EB5500B0FBF5F09A
:1020B000014000F00F021143A16070BD00780040A4
:1020C00000BCFFBF50F8802F22F400620A43026078
:1020D0007047C1F3080141607047000010B5354AF0
:1020E000811A131590424FD014DC334940182DD07B
:1020F000984235D0B0F5006F3CD0B0F5406F57D165
:1021000040F614042046FFF715FC2046BDE81040B9
:10211000FFF700BC994241D0B1F5184F0CD0B1F592
:102120001C4F45D140F605142046FFF703FC20461E
:10213000BDE81040FFF7EEBB40F604142046FFF761
:10214000F9FB2046BDE81040FFF7E4BB40F6110460
:102150002046FFF7EFFB2046BDE81040FFF7DABB53
:1021600040F612042046FFF7E5FB2046BDE810408C
:10217000FFF7D0BB40F613042046FFF7DBFB2046F9
:10218000BDE81040FFF7C6BB40F61E042046FFF72F
:10219000D1FB2046BDE81040FFF7BCBB40F61F0452
:1021A0002046FFF7C7FB2046BDE81040FFF7B2BB53
:1021B00010BD00000078004000BCFFBFC16841F4C2
:1021C0000051C160704700EB9110006801F01F02E0
:1021D00001219140084201D0012070470020704742
:1021E00070B54FF44060FFF785FB41F20410FFF734
:1021F00081FB144E4FF48064224607213046FFF7DE
:102200008DF965102A4607213046FFF787F92346E6
:10221000012202213046FFF7BEF92B46012202219E
:102220003046FFF7B8F92346022200213046FFF777
:10223000D6F92B463046BDE8704002220021FFF758
:10224000CEB900000000024070B50546104C204693
:10225000FFF744FF29462046FFF7D8FE002120461D
:1022600000F018F80021204600F03AF8002120463E
:1022700000F028F800212046FFF724FF2046FFF752
:102280009DFF2046BDE87040082100F023B8000003
:1022900000100140C26822F4C062C260C2680A43F2
:1022A000C260704710B5FFF79BFF4FF4E130FFF7B6
:1022B000CBFFBDE8104001A0FEF78CBC68656C6CDC
:1022C0006F000000026922F44052026102690A4371
:1022D00002617047C26822F008020A43C260704778
:1022E000C26822F48052C260C2680A43C26070476A
:1022F000101000F00118011B469F469F469F469F05
:10230000469F469F469F469F469F469F469F469FA5
:10231000469F469F469F469F469F469F469F469F95
:10232000469F469F469F469F469F469F469F469F85
:10233000469F469F469F469F469F469F469F469F75
:104230004E9F469F469F469F469F469F469F469F4E
:10424000469F469F469F469F469F469F469F469F46
:10425000469F469F469F469F469F469F4E7F4E7F66
:104260004E9F46BF469F467F46BF469F4EBF469ED7
:1042700046BF469F467F469F4E9F467F469F469F2E
:104280004E9F469F467F4EBF46BF469F469F469FD6
:104290004E9F4E9F469F46BF469F469F469F469FC6
:1042A000469F469F469F469F469F469F469F469FE6
:1042B000469F469F469F469F469F469F469F469FD6
:1042C000469F469F469F469F469F469F469F469FC6
:1042D000469F469F469F469F469F469F469F469FB6
:1042E000469F469F469F469F469F469F469F469FA6
:1042F000469F469F469F469F469F469F469F469F96
:10430000469F469F469F469F469F469F469F469F85
:10431000469F469F469F469F469F469F469F469F75
:10432000469F469F469F469F469F469F469F469F65
:10433000469F469F469F469F469F469F469F469F55
:10434000469F469F469F469F469F469F469F469F45
:10435000469F469F469F469F469F469F469F469F35
:10436000469F469F469F469F469F469F469F469F25
:10437000469F469F469F469F469F469F469F469F15
:10438000469F469F469F469F469F469F469F469F05
:10439000469F469F469F469F469F469F469F469FF5
:1043A000469F469F469F469F469F469F469F469FE5
:1043B000469F469F469F469F469F469F469F469FD5
:1043C000469F469F469F469F469F469F469F469FC5
:1043D000469F469F469F469F469F469F469F469FB5
:1043E000469F469F469F469F469F469F469F469FA5
:1043F000469F469F469F469F469F469F469F469F95
:10440000469F469F469F469F469F469F469F469F84
:10441000469F469F469F469F469F469F469F469F74
:10442000469F469F469F469F469F469F469F469F64
:10443000469F469F469F469F469F469F56BF4E7F3C
:10444000469F469F469F46BF469F469F469F469E25
:10445000469E46BF469F4E9F469F469F469F469F0D
:10446000469F469F4EBF467F467F4EBF467F4E9F2C
:10447000467F467F4EBF469F469F469F469F469F2C
:10448000469F469F469F469F469F469F469F469F04
:10449000469F469F469F469F469F469F469F469FF4
:1044A000469F469F469F469F469F469F469F469FE4
:1044B000469F469F469F469F469F469F469F469FD4
:1044C000469F469F469F469F469F469F469F469FC4
:1044D000469F469F469F469F469F469F469F469FB4
:1044E000469F469F469F469F469F469F469F469FA4
:1044F000469F469F469F469F469F469F469F469F94
:10450000469F469F469F469F469F469F469F469F83
:10451000469F469F469F469F469F469F469F469F73
:10452000469F469F469F469F469F469F469F469F63
:10453000469F469F469F469F469F469F469F469F53
:10454000469F469F469F469F469F469F469F469F43
:10455000469F469F469F469F469F469F469F469F33
:10456000469F469F469F469F469F469F469F469F23
:10457000469F469F469F469F469F469F469F469F13
:10458000469F469F469F469F469F469F469F469F03
:10459000469F469F469F469F469F469F469F469FF3
:1045A000469F469F469F469F469F469F469F469FE3
:1045B000469F469F469F469F469F469F469F469FD3
:1045C000469F469F469F469F469F469F469F469FC3
:1045D000469F469F469F469F46BF46BF469F469F73
:1045E000469F469F469F469F469F469F46BF469F83
:1045F000469F469F4E9F4E9F469F469F469F469F83
:10460000469F469F469F469F469F469F469F469F82
:10461000469F469F469F469F46BF46BF467F4E9F4A
:1046200046BF469E469F3E9F469F4E9F4E9F4E9F33
:104630003E9E3EBF4E9F467F46BF469F469F46BF1B
:10464000469F467F469F469F4EBF467F4EDF46BFF2
:104650004E7F4E9F467F469F469F469F469F469F62
:10466000469F469F469F469F469F469F469F469F22
:10467000469F469F469F469F469F469F469F469F12
:10468000469F469F469F469F469F469F469F469F02
:10469000469F469F469F469F469F469F469F469FF2
:1046A000469F469F469F469F469F469F469F469FE2
:1046B000469F469F469F469F469F469F469F469FD2
:1046C000469F469F469F469F469F469F469F469FC2
:1046D000469F469F469F469F469F469F469F469FB2
:1046E000469F469F469F469F469F469F469F469FA2
:1046F000469F469F469F469F469F469F469F469F92
:10470000469F469F469F469F469F469F469F469F81
:10471000469F469F469F469F469F469F469F469F71
:10472000469F469F469F469F469F469F469F469F61
:10473000469F469F469F469F469F469F469F469F51
:10474000469F469F469F469F469F469F469F469F41
:10475000469F469F469F469F469F469F469F469F31
:10476000469F469F469F469F469F469F469F469F21
:10477000469F469F469F469F469F469F469F469F11
:10478000469F469F469F469F469F469F469F469F01
:10479000469F469F469F469F469F469F469F469FF1
:1047A000469F469F469F469F469F469F469F469FE1
:1047B000469F469F469F469F46BF46BF469F469F91
:1047C000469F469F469F469F469F469F469F469FC1
:1047D000469F469F469F469F469F469F469F469FB1
:1047E000469F469F469F469F469F469F469F469FA1
:1047F000469F469F469F469F469F469F4EBF4E9F61
:10480000469E46BF46BF469F4EBF467F467F469F59
:1048100046DF469F4EBF469F3E9F46BF469F469FF0
:10482000469F46BF46BF469F469F469F467F469F40
:104830004E9F469F46BF469F469F469F469F469F28
:10484000469F469F469F469F469F469F469F469F40
:10485000469F469F469F469F469F469F469F469F30
:10486000469F469F469F469F469F469F469F469F20
:10487000469F469F469F469F469F469F469F469F10
:10488000469F469F469F469F469F469F469F469F00
:10489000469F469F469F469F469F469F469F469FF0
:1048A000469F469F469F469F469F469F469F469FE0
:1048B000469F469F469F469F469F469F469F469FD0
:1048C000469F469F469F469F469F469F469F469FC0
:1048D000469F469F469F469F469F469F469F469FB0
:1048E000469F469F469F469F469F469F469F469FA0
:1048F000469F469F469F469F469F469F469F469F90
:10490000469F469F469F469F469F469F469F469F7F
:10491000469F469F469F469F469F469F469F469F6F
:10492000469F469F469F469F469F469F469F469F5F
:10493000469F469F469F469F469F469F469F469F4F
:10494000469F469F469F469F469F469F469F469F3F
:10495000469F469F469F469F469F469F469F469F2F
:10496000469F469F469F469F469F469F469F469F1F
:10497000469F469F469F469F469F469F469F469F0F
:10498000469F469F469F469F469F469F469F469FFF
:10499000469F469F469F469F469F469F4E9F4E9FDF
:1049A0004E9F469F469F469F469F469F469F469FD7
:1049B000469F469F469F469F469F469F469F469FCF
:1049C000469F469F469F469F469F469F469F469FBF
:1049D000469F469F469F469F469F46BF4E9F467FA7
:1049E0004EBF3E7F4E9F467F467F3E9F469F469FDF
:1049F000469F467F467F467F46BF3E7F469F469FF7
:104A0000467E469F3E9E3E9F3E7F46BF465E4E5E32
:104A1000469F469F469F46BF469F469F469F469F4E
:104A2000469F469F469F469F469F469F469F469F5E
:104A3000469F469F469F469F469F469F469F469F4E
:104A4000469F469F469F469F469F469F469F469F3E
:104A5000469F469F469F469F469F469F469F469F2E
:104A6000469F469F469F469F469F469F469F469F1E
:104A7000469F469F469F469F469F469F469F469F0E
:104A8000469F469F469F469F469F469F469F469FFE
:104A9000469F469F469F469F469F469F469F469FEE
:104AA000469F469F469F469F469F469F469F469FDE
:104AB000469F469F469F469F469F469F469F469FCE
:104AC000469F469F469F469F469F469F469F469FBE
:104AD000469F469F469F469F469F469F469F469FAE
:104AE000469F469F469F469F469F469F469F469F9E
:104AF000469F469F469F469F469F469F469F469F8E
:104B0000469F469F469F469F469F469F469F469F7D
:104B1000469F469F469F469F469F469F469F469F6D
:104B2000469F469F469F469F469F469F469F469F5D
:104B3000469F469F469F469F469F469F469F469F4D
:104B4000469F469F469F469F469F469F469F469F3D
:104B5000469F469F469F469F469F469F469F469F2D
:104B6000469F469F469F469F469F469F469F469F1D
:104B7000469F469F469F469F4E9F4E9F4E9F4E9FED
:104B80004E9F469F469F469F469F469F469F469FF5
:104B9000469F469F469F469F469F469F469F469FED
:104BA000469F469F469F469F469F469F469F469FDD
:104BB000469F469F469F469F469F4E9F4E9E469FBE
:104BC0003E5F469F565F4DFD45FC461C463E465E99
:104BD000463D4E1C45DC4E1D45FC4E5D4E7E467EE0
:104BE0004E9F4E9E4E7E5EFF56FF3DFD66DF6EFF82
:104BF000569F465E4EBF465F469F469F469F469FD6
:104C0000469F469F469F469F469F469F469F469F7C
:104C1000469F469F469F469F469F469F469F469F6C
:104C2000469F469F469F469F469F469F469F469F5C
:104C3000469F469F469F469F469F469F469F469F4C
:104C4000469F469F469F469F469F469F469F469F3C
:104C5000469F469F469F469F469F469F469F469F2C
:104C6000469F469F469F469F469F469F469F469F1C
:104C7000469F469F469F469F469F469F469F469F0C
:104C8000469F469F469F469F469F469F469F469FFC
:104C9000469F469F469F469F469F469F469F469FEC
:104CA000469F469F469F469F469F469F469F469FDC
:104CB000469F469F469F469F469F469F469F469FCC
:104CC000469F469F469F469F469F469F469F469FBC
:104CD000469F469F469F469F469F469F469F469FAC
:104CE000469F469F469F469F469F469F469F469F9C
:104CF000469F469F469F469F469F469F469F469F8C
:104D0000469F469F469F469F469F469F469F469F7B
:104D1000469F469F469F469F469F469F469F469F6B
:104D2000469F469F469F469F469F469F469F469F5B
:104D3000469F469F469F469F469F469F469F469F4B
:104D4000469F469F469F469F469F469F469F469F3B
:104D5000469F469F469F469F469F469F469F469F2B
:104D6000469F469F469F469F469F469F469F469F1B
:104D7000469F469F469F469F469F469F469F469F0B
:104D8000469F469F469F469F469F469F469F469FFB
:104D9000469F469F4E9F4E9F4E9F467E469E469EF6
:104DA0003E9F465E55DB9F3FAFBFA7BF7EFF459945
:104DB0005E1A977FAFDFB7BFAFBF7E9D4E1D4E7FA0
:104DC000461D4DDC76DE877F877F7F3F873F871FCD
:104DD000875F561C563D4E5E467F469F469F469FC8
:104DE000469F469F469F469F469F469F469F469F9B
:104DF000469F469F469F469F469F469F469F469F8B
:104E0000469F469F469F469F469F469F469F469F7A
:104E1000469F469F469F469F469F469F469F469F6A
:104E2000469F469F469F469F469F469F469F469F5A
:104E3000469F469F469F469F469F469F469F469F4A
:104E4000469F469F469F469F469F469F469F469F3A
:104E5000469F469F469F469F469F469F469F469F2A
:104E6000469F469F469F469F469F469F469F469F1A
:104E7000469F469F469F469F469F469F469F469F0A
:104E8000469F469F469F469F469F469F469F469FFA
:104E9000469F469F469F469F469F469F469F469FEA
:104EA000469F469F469F469F469F469F469F469FDA
:104EB000469F469F469F469F469F469F469F469FCA
:104EC000469F469F469F469F469F469F469F469FBA
:104ED000469F469F469F469F469F469F469F469FAA
:104EE000469F469F469F469F469F469F469F469F9A
:104EF000469F469F469F469F469F469F469F469F8A
:104F0000469F469F469F469F469F469F469F469F79
:104F1000469F469F469F469F469F469F469F469F69
:104F2000469F469F469F469F469F469F469F469F59
:104F3000469F469F469F469F469F469F469F469F49
:104F4000469F469F469F469F469F469F469F469F39
:104F5000469F469F469F469F469F469F469F469F29
:104F6000469F469F469F469F469F469F469F469F19
:104F7000469F469F4E9F4E9F4E9F465F4E7E465D8C
:104F80003E1D4DDBBFFFBFBFC79FBFBFBFFF971F0A
:104F9000AFDFB7DFBFBFC79FBF7FBFFF665D3D9B72
:104FA00076FF875F8F3F8EFE86FE8F3F871F871FAE
:104FB000873F875F773F779F467F469F469F469F05
:104FC000469F469F469F469F469F469F469F469FB9
:104FD000469F469F469F469F469F469F469F469FA9
:104FE000469F469F469F469F469F469F469F469F99
:104FF000469F469F469F469F469F469F469F469F89
:10500000469F469F469F469F469F469F469F469F78
:10501000469F469F469F469F469F469F469F469F68
:10502000469F469F469F469F469F469F469F469F58
:10503000469F469F469F469F469F469F469F469F48
:10504000469F469F469F469F469F469F469F469F38
:10505000469F469F469F469F469F469F469F469F28
:10506000469F469F469F469F469F469F469F469F18
:10507000469F469F469F469F469F469F469F469F08
:10508000469F469F469F469F469F469F469F469FF8
:10509000469F469F469F469F469F469F469F469FE8
:1050A000469F469F469F469F469F469F469F469FD8
:1050B000469F469F469F469F469F469F469F469FC8
:1050C000469F469F469F469F469F469F469F469FB8
:1050D000469F469F469F469F469F469F469F469FA8
:1050E000469F469F469F469F469F469F469F469F98
:1050F000469F469F469F469F469F469F469F469F88
:10510000469F469F469F469F469F469F469F469F77
:10511000469F469F469F469F46BF469F467F4E9F5F
:105120004E7F469F46BF469F469F46BF469F469F2F
:10513000469F46BF4E9F469F469F469F469F469F1F
:10514000469F469F469F469F467F4E9F469F469F4F
:105150004E9F4E9F467F467F467F4E7F45FD4DDBEF
:1051600055FB763CC7DFC77FC77EC7BFB77FB79FFA
:10517000BF9FBF9FBF7FBF9FBF7FB79F973F5DDB35
:105180005DDB769D7E9D86BE8F1F873F7F3F7F3F85
:105190007F1F875F773F671F467F469F469F469FDB
:1051A000469F469F469F469F469F469F469F469FD7
:1051B000469F469F469F469F469F469F469F469FC7
:1051C000469F469F469F469F469F469F469F469FB7
:1051D000469F469F469F469F469F469F469F469FA7
:1051E000469F469F469F469F469F469F469F469F97
:1051F000469F469F469F469F469F469F469F469F87
:10520000469F469F469F469F469F469F469F469F76
:10521000469F469F469F469F469F469F469F469F66
:10522000469F469F469F469F469F469F469F469F56
:10523000469F469F469F469F469F469F469F469F46
:10524000469F469F469F469F469F469F469F469F36
:10525000469F469F469F469F469F469F469F469F26
:10526000469F469F469F469F469F469F469F469F16
:10527000469F469F469F469F469F469F469F469F06
:10528000469F469F469F469F469F469F469F469FF6
:10529000469F469F469F469F469F469F469F469FE6
:1052A000469F469F469F469F469F469F469F469FD6
:1052B000469F469F469F469F469F469F469F469FC6
:1052C000469F469F469F469F469F469F469F469FB6
:1052D000469F469F469F469F469F469F469F469FA6
:1052E000469F469F469F469F469F469F469F469F96
:1052F000469F469F469F469F469F469F4EBF4E9F56
:10530000467F469F469F469F469F469F469F4E9F8D
:10531000469F469F469F469F469F469F469F469F65
:10532000469F469F469F469F469F4E9F469F469F4D
:10533000469F469F467F467F467F35BC76FFAFFF40
:10534000AFFFBFFFC7BFC75FC77EC77EC77FC79F0F
:10535000C79FBF7FC77FBF7FB75FBFBFAF7FAFBFF5
:10536000A79FA79FA77FA79F769D76FF6EFF66BE2C
:10537000773F771F4E5D463D467F469F469F469F3F
:10538000469F469F469F469F469F469F469F469FF5
:10539000469F469F469F469F469F469F469F469FE5
:1053A000469F469F469F469F469F469F469F469FD5
:1053B000469F469F469F469F469F469F469F469FC5
:1053C000469F469F469F469F469F469F469F469FB5
:1053D000469F469F469F469F469F469F469F469FA5
:1053E000469F469F469F469F469F469F469F469F95
:1053F000469F469F469F469F469F469F469F469F85
:10540000469F469F469F469F469F469F469F469F74
:10541000469F469F469F469F469F469F469F469F64
:10542000469F469F469F469F469F469F469F469F54
:10543000469F469F469F469F469F469F469F469F44
:10544000469F469F469F469F469F469F469F469F34
:10545000469F469F469F469F469F469F469F469F24
:10546000469F469F469F469F469F469F469F469F14
:10547000469F469F469F469F469F469F469F469F04
:10548000469F469F469F469F469F469F469F469FF4
:10549000469F469F469F469F469F469F469F469FE4
:1054A000469F469F469F469F469F469F469F469FD4
:1054B000469F469F469F469F469F469F469F469FC4
:1054C000469F469F469F469F469F469F469F469FB4
:1054D000469F469F469F469F4E9F4EBF3E5F46BF9C
:1054E00046BF467E46BF469F469F469F4E9F4E9F65
:1054F0004E9F4EBF46BF469F469F469F469F469F34
:10550000469F469F469F469F469F469F469F469F73
:10551000469F469F467F467F361D5EBEB7FFAF9FC4
:10552000AF9FB79FB77FBF9FC79FBF7FC77FBF7F1B
:10553000BF7FBF7FCF7FC73FC79FB77FBF7FB77F8B
:10554000AF5FA73DAF5DAF9F86FF459B461D465EA3
:1055500045FD461D467F467F469F469F469F469F88
:10556000469F469F469F469F469F469F469F469F13
:10557000469F469F469F469F469F469F469F469F03
:10558000469F469F469F469F469F469F469F469FF3
:10559000469F469F469F469F469F469F469F469FE3
:1055A000469F469F469F469F469F469F469F469FD3
:1055B000469F469F469F469F469F469F469F469FC3
:1055C000469F469F469F469F469F469F469F469FB3
:1055D000469F469F469F469F469F469F469F469FA3
:1055E000469F469F469F469F469F469F469F469F93
:1055F000469F469F469F469F469F469F469F469F83
:10560000469F469F469F469F469F469F469F469F72
:10561000469F469F469F469F469F469F469F469F62
:10562000469F469F469F469F469F469F469F469F52
:10563000469F469F469F469F469F469F469F469F42
:10564000469F469F469F469F469F469F469F469F32
:10565000469F469F469F469F469F469F469F469F22
:10566000469F469F469F469F469F469F469F469F12
:10567000469F469F469F469F469F469F469F469F02
:10568000469F469F469F469F469F469F469F469FF2
:10569000469F469F469F469F469F469F469F469FE2
:1056A000469F469F469F469F469F469F469F469FD2
:1056B000469F469F469F469F467F4EBF469F46BF9A
:1056C00046BF46BF469F469F469F469F467F467FB2
:1056D000469F4E9F469F3E7F469F469F469F469FC2
:1056E000469F469F469F469F469F469F469F469F92
:1056F000469F469F467F467E463C4DFAAFFFAFBF72
:10570000AFBFAFDFA77FAF9FB79FB79FBFBFBF9FA1
:10571000B77FBF7FC77FC75FBF7FBF7FBF7FBFBF71
:10572000BFBFA73DAFDFB7FF665D45FD465E467F65
:10573000469F469F469F46BF469F469F469F469F21
:10574000469F469F469F469F469F469F469F469F31
:10575000469F469F469F469F469F469F469F469F21
:10576000469F469F469F469F469F469F469F469F11
:10577000469F469F469F469F469F469F469F469F01
:10578000469F469F469F469F469F469F469F469FF1
:10579000469F469F469F469F469F469F469F469FE1
:1057A000469F469F469F469F469F469F469F469FD1
:1057B000469F469F469F469F469F469F469F469FC1
:1057C000469F469F469F469F469F469F469F469FB1
:1057D000469F469F469F469F469F469F469F469FA1
:1057E000469F469F469F469F469F469F469F469F91
:1057F000469F469F469F469F469F469F469F469F81
:10580000469F469F469F469F469F469F469F469F70
:10581000469F469F469F469F469F469F469F469F60
:10582000469F469F469F469F469F469F469F469F50
:10583000469F469F469F469F469F469F469F469F40
:10584000469F469F469F469F469F469F469F469F30
:10585000469F469F469F469F469F469F469F469F20
:10586000469F469F469F469F469F469F469F469F10
:10587000469F469F469F469F469F469F469F469F00
:10588000469F469F469F469F469F469F469F469FF0
:10589000469F469F469F469F46BF469F46BF3EBF88
:1058A0003EBF46DF3E7F46BF46BF469F467F46BF60
:1058B00046BF469F469F4EBF469F469F469F469F78
:1058C000469F469F469F469F469F469F469F46BF90
:1058D000469F3E9F3E7F465D45F93D763CF455B878
:1058E000563B45DB7F7F8F7F9FBFAFBFB79FB79F83
:1058F000BFBFB7BFAF7FA75EB77EBF9FBF9EAF5D85
:10590000AF9FA7FF669D3DDB461D4E7F4E7F467FC6
:10591000467E46BF46BF469F469F469F469F469F40
:10592000469F469F469F469F469F469F469F469F4F
:10593000469F469F469F469F469F469F469F469F3F
:10594000469F469F469F469F469F469F469F469F2F
:10595000469F469F469F469F469F469F469F469F1F
:10596000469F469F469F469F469F469F469F469F0F
:10597000469F469F469F469F469F469F469F469FFF
:10598000469F469F469F469F469F469F469F469FEF
:10599000469F469F469F469F469F469F469F469FDF
:1059A000469F469F469F469F469F469F469F469FCF
:1059B000469F469F469F469F469F469F469F469FBF
:1059C000469F469F469F469F469F469F469F469FAF
:1059D000469F469F469F469F469F469F469F469F9F
:1059E000469F469F469F469F469F469F469F469F8F
:1059F000469F469F469F469F469F469F469F469F7F
:105A0000469F469F469F469F469F469F469F469F6E
:105A1000469F469F469F469F469F469F469F469F5E
:105A2000469F469F469F469F469F469F469F469F4E
:105A3000469F469F469F469F469F469F469F469F3E
:105A4000469F469F469F469F469F469F469F469F2E
:105A5000469F469F469F469F469F469F469F469F1E
:105A6000469F469F469F469F469F469F469F469F0E
:105A7000469F469F469F469F3E7F469F4E7D461BC4
:105A80003E3B465D467F469F467F469F469F469FDC
:105A90003E9E3E9F469F469F469F469F469F469FEF
:105AA000469F469F469F469F46BF469F46BF46BF6E
:105AB000469F469F3E7F3DFB76BAAFFDAFDC7E77CB
:105AC0004D752CB3457876DD7F1D8F3E975E9F5ECA
:105AD0009F7F9F9F8F7F9FBFAFDFB7DFAFFFAFFF7E
:105AE000979F5E7C3DDB467F467F4E9F465F4EBF65
:105AF00046BF469E469F46BF469F469F469F469F3F
:105B0000469F469F469F469F469F469F469F469F6D
:105B1000469F469F469F469F469F469F469F469F5D
:105B2000469F469F469F469F469F469F469F469F4D
:105B3000469F469F469F469F469F469F469F469F3D
:105B4000469F469F469F469F469F469F469F469F2D
:105B5000469F469F469F469F469F469F469F469F1D
:105B6000469F469F469F469F469F469F469F469F0D
:105B7000469F469F469F469F469F469F469F469FFD
:105B8000469F469F469F469F469F469F469F469FED
:105B9000469F469F469F469F469F469F469F469FDD
:105BA000469F469F469F469F469F469F469F469FCD
:105BB000469F469F469F469F469F469F469F469FBD
:105BC000469F469F469F469F469F469F469F469FAD
:105BD000469F469F469F469F469F469F469F469F9D
:105BE000469F469F469F469F469F469F469F469F8D
:105BF000469F469F469F469F469F469F469F469F7D
:105C0000469F469F469F469F469F469F469F469F6C
:105C1000469F469F469F469F469F469F469F469F5C
:105C2000469F469F469F469F469F469F469F469F4C
:105C3000469F469F469F469F469F469F469F469F3C
:105C4000469F469F469F469F469F469F469F469F2C
:105C5000469F469F469F469F469F4E5D55968ED8CF
:105C6000979B4DB6465D361E3E5E467E467E3E7E28
:105C70003E9F3EBF469F467F469F469F469F469F0C
:105C8000469F469F469F469F469F469F46BF469FCC
:105C9000469F469F3E5F3DB8CFFCEFF8EFF6F7F624
:105CA000EFF7D7F95CD0238E34D33D5656395E5B7F
:105CB0004E3B45FB359A3DBB4DFC4DFC4E3D3D9A60
:105CC00045FC4E3D465E469F469F469F469F469FEB
:105CD000469F469F4EBF469F469F469F469F469F74
:105CE000469F469F469F469F469F469F469F469F8C
:105CF000469F469F469F469F469F469F469F469F7C
:105D0000469F469F469F469F469F469F469F469F6B
:105D1000469F469F469F469F469F469F469F469F5B
:105D2000469F469F469F469F469F469F469F469F4B
:105D3000469F469F469F469F469F469F469F469F3B
:105D4000469F469F469F469F469F469F469F469F2B
:105D5000469F469F469F469F469F469F469F469F1B
:105D6000469F469F469F469F469F469F469F469F0B
:105D70004E9F4E9F469F469F469F469F4E9F4E9FDB
:105D80004E9F4E9F4E9F4E9F4E7F4E7E4E7E4E7E2E
:105D90004E7F4E7F4E7F4E7F4E9F4E9F4E9F4E9F1B
:105DA0004E9F4E9F4E9F4E9F469F4E9F4E9F4E7FB3
:105DB0004E7F4E7F4E7E4E7E4E7F4E7F4E7F4E9F5D
:105DC0004E9F4E9F4E9F469F469F469F469F469F93
:105DD000469F469F469F469F469F469F469F469F9B
:105DE000469F469F469F469F469F469F469F469F8B
:105DF000469F469F469F469F469F469F469F469F7B
:105E0000469F469F469F469F469F469F469F469F6A
:105E1000469F469F469F469F469F469F469F469F5A
:105E2000469F469F469F469F469F469F469F469F4A
:105E3000469F469F469F467F45FB55D7CFFDDFFADD
:105E4000D7FC86D835783E3D25991D38255835FB39
:105E5000367D367E3E5E469F469F469F469F469FC6
:105E60004E9F4E9F469F469F4E9F467F469F469F12
:105E7000469F469F365E3D97A716EFF3E76DEF6BA3
:105E8000EF6CF7D0F7F7C7B83C4D13CD143014932F
:105E90002578361C3E1D361D3E3E3E3F3E3E467F2B
:105EA000467F467F4E7F467F46BF46BF46DF467FE2
:105EB000469F469F4E9F469F469F469F469F469FB2
:105EC000469F469F469F469F469F469F469F469FAA
:105ED000469F469F469F469F469F469F469F469F9A
:105EE000469F469F469F469F469F469F469F469F8A
:105EF000469F469F469F469F469F469F469F469F7A
:105F00004E9F4E9F4E9F469F469F467F467F467EB2
:105F1000469F469F469F469F46BF46BF46BF46BFD9
:105F2000469F469F469F469F469F469F469F4E9F41
:105F3000469F469F469F469F469F469F469F469F39
:105F4000469F469F4E9F469F469F469F467F467E62
:105F50004E5E465E467E467E467E467D4E5D4E5D8C
:105F60004E3D4E3D4E3D4E3D567E5E7E5E7D5E7D9F
:105F7000563D4E1C4E1D461D463E465E4E5E4E5ED6
:105F8000465D4E5E4E5E4E5E465D3E1C4E3C563C51
:105F900055FC5E3D669E5E5D561C561C4DFC4E1DBE
:105FA0004E3D4E5E465E465F467F467F467F469F3D
:105FB000469F469F469F469F4E9F4E9F4E7F469FC1
:105FC000469F4E9F4E9E4E9F469F469F469F469F92
:105FD000469F469F469F469F469F469F46BF46BF59
:105FE00046BF469F469F469F469F469F469F469F69
:105FF000469F469F469F467F469F469F4E7F4E9FA9
:106000004E9F469F469F469F3E9F46BF4E9F467F60
:10601000469F46BF3E7F461C6DD6D7FBEFF9EFF794
:10602000EFF9B7791C7104720C920C920CB2045106
:106030001577367D3E3E3E3E3E7E467E467E4E5E39
:106040004E5E4E5E467E467E4E5E4E7F467F467F6D
:106050003E9F3E7F3E5E46195D91CFF3DF8AEF861D
:10606000F786EF67E769EFEEF7F5AEF31BAA14507A
:106070001492047225783E5D363D363E3E5F465FA3
:10608000467F4E9F467F469F469F46BF3E9F469F08
:10609000469F469F46BF467F469F469F469F469FD8
:1060A000469F469F469F4E9F469F469F469F469FC0
:1060B000469F469F469F469F469F469F469F469FB8
:1060C000469F469F469F469F469F469F469F46BF88
:1060D0004E9F469F469F469F467F469F469F467FD0
:1060E0004E7F4E7E4E5E4E5E4E5E56BF5F1F5F1F02
:1060F00056DF4E9F467F469F469F469F469F469F40
:10610000469F469F469F469F469F469F469F469F67
:10611000469F469F469F469F4E7F4E9F469F469F67
:106120004E9F4E9F4E7F4E5E463D4E5E5E9F66DFAB
:1061300066DF6EFF66FF66FF66FF6EFF6F1F773FCD
:106140007F5F7F5F877F877F877F8F9F979F979FE7
:106150008F9F8F9F877F877F7F3F773F771F76FF58
:106160006F1F771F771F771F775F7FBF877F8F9F97
:10617000979F97BF97BF97BF97DF8FDF8FBF879F8F
:106180007F9F6F5F673F5EFF56BF4EBF4EBF469F0C
:10619000469F469F469F469F467F467F4E7F4E7F47
:1061A000469F469F4E9F4E9F469F469F469F469FB7
:1061B0004E9F469F469F469F469F469F3E9F3E9FBF
:1061C000469F469F46BF4EBF467F467F469F469F9F
:1061D000469F4EBF4E9F4E9F4E9F4E9F4E7F4E7F7F
:1061E0004E7F4E7F469E469E4E9F465E4E7F4E5E43
:1061F000465E465E3E1D3D57DFFDEFF7F7F5F7F5CE
:10620000F7F89E540B8C14B30CB10CB10C910CB27A
:10621000047235FA3E1D463E569F5E9E66FF6EFF37
:106220006EDF6EDF6F1F6EFF6F1F66BE66BE66BFDE
:10623000569F4E9F4E7E4E3B45739F12DFCAF7A47A
:10624000F7A4F784EF85EF88E72BE7F3D7FC3CD181
:106250000C2F14B20C7304732DDA3E5D35DD3E1E37
:10626000463E463E4E5F4E7F4E9E467D4E9F4EBF03
:106270004E9F4E7F4E7F4E7F4E9F4E9F4E9F4E9F16
:106280004E9F4E9F469F469F469F469F469F469FD6
:10629000469F469F469F469F469F469F469F469FD6
:1062A00046BF46BF46BF46BF46BF469F469F469F26
:1062B000469F469F469F469F4E9F467F467F4E9FE6
:1062C0004E7F565E5E9F771F773F76FF6EFF6F1F94
:1062D0006F5F673F56DF467F469F469F4E9F4E9FAC
:1062E0004E9F469F467E465E467E465E465E465EC4
:1062F000465E465E4E5E4E5E4E5E4E5D4E3C4E3D92
:106300004E3D5E7E669F6EBF871F871F8F3F8F3F0C
:106310008F3F8F3F8F3F8F3F8F3F8F3F8F3F8F3F0D
:106320008F1F8F1F8F3F973F8F3F8F3F973F973F25
:10633000973F973F973F973F975F975F9F5F9F5F1D
:106340009F5F9F5F975F975F8F7F97BF9FBF9F9F65
:106350009FBF97DF97BF8FBF775F6F3F66FF56BFC7
:10636000567F4E7E4E5E465E467F469F469F469FC8
:10637000469F469F469F46BF469F469F4E9F4E9FC5
:10638000469F469F469F469F469F469F469F469FE5
:106390004E9F4E9F469F469F469F469F469F46BFA5
:1063A000469F469F469E469E467F467F467F465F67
:1063B000465E465D463D463D463C463C461D4DFDDF
:1063C0004DFD4E3D4E5D567D567D5E5D669D669EE5
:1063D00066BE6EBE5E3B8EBBE7FAFFF6FFF3FFF4D0
:1063E000FFF7CF98136D1C931492149214721492A9
:1063F00004313598567D6EDF7F1F975F9F9F9F9F6B
:10640000A7BFAFBFA77F9F9F979F977F9F5E9F1D4F
:106410008F3F875F7F3F6F1F567D6E35DFCDEF6506
:10642000EF65EF85E766E767E74AEFF2E7F9CFFE4A
:1064300013EE1492149314B40C5214945EBE567E50
:106440005E7E667E6E7F663D5E5C563B563B4DFBD8
:106450004DFB55FB4DDB561D4DFD461D461D463E75
:10646000465E467F469F469F467F3E9F3E9F469F95
:10647000469F469F469F469F469F469F469F469FF4
:10648000469F469F469F467F469F469F469F469F04
:10649000469F469F469F467F4E9F4EBF4E7F463E3D
:1064A000569F777F777F6EFF771F6F1F6EFF5EBFF0
:1064B000565E4E3D4E5E4E9F4E7F4E7E465E463D44
:1064C0004E5E56BF66FF6F3F66FF66FF66DF66DFA4
:1064D00066DF66FF66FF6EFF6EFF771F7F5F7F5F81
:1064E0007F5F875F875F8F3F8F1F971E971F96FF86
:1064F0008EFF8EFF96FF96FF971F971F971F971F80
:10650000971F971F971F971F973F973F973F973F5B
:10651000973F975F975F975F975F9F7F9F9F9F9F33
:106520009F7F9F7F8F5F8F3F873F7EDF6E9E665E80
:106530005E1D4DFC4E1D45FD4E3D4E5D4E7E4E9FFB
:1065400056BF4EBF4E9F4E9F4E9F4E9F4E9F4E9F9B
:106550004EBF4E9F4E9F469E46BF469F4E7F4E7FEC
:106560004E9F4EBF4E9F4E9F4E9E4E9E4E7F4E7FE5
:106570004E5E4E5D4E5E4E5E4E5E463D463D463D37
:10658000463D4E5D4E7D569E567E5E9F5EBF5EDFF3
:106590006EFF6F1F773F775F775F7F7F877F8F9F6C
:1065A0008F9F8FBF8FBF87BF8F9F97BF979F979FEB
:1065B000875F871F6DF9C7FCF7F7EF90D6CBF7D051
:1065C000FFF6C758134C1C73149214921C72145289
:1065D00014722D36565C5E7D7EDE8F1F9F5F9F3F5F
:1065E000A73FA73FA71F9EFD96BA9697BF18BF1853
:1065F000967886597E3966185DF84CEEE7EEEF66C0
:10660000E786E786E787E767DF69F7F0DF924B66A3
:106610002BC91BCB13CC1C0F24701C3014125E9D95
:106620006EDE7F1F975F9F9FA7FF9FFFA7FFA7FFBC
:10663000A7FF9FDF977F977F8F5F875F7F3F76FF03
:106640006EDF669E5E7E565D565E4E3E4E1D45FD7D
:1066500045FD461E461E463E4E3E4E3E4E5E4E7E1C
:106660004E7F4E7F4E7F4E9F4E9F4E9F4E9F469F2A
:10667000467F467F467F469F4E9F4E9F4E9F4E9F32
:106680004E9F4E9F4E9F4EBF467E467E467E467E26
:106690004E5E4E5E4E3E4E3D5E7E66BF6EFF7F3F5F
:1066A0007F5F875F7F1F7F1F7F1F7F1F7F1F7F1F72
:1066B0007F1F7F1F7F3F7F1F871F871F871F7F1FB2
:1066C0007EFF7EFF871F871F871F871F8F1F8F1FDC
:1066D0008EFF8EFF96FF971F971F96FF96FF96FFE0
:1066E000971F971F973F973F975F977F977F979F3A
:1066F0008F9F877F7F7F7F5F771F6EDF5E9E567DD8
:10670000565D4E3D4E3D461D463E4E5E463E4E7FDC
:106710004E7F4EBF467F4EBF4EBF4EBF4E9F4E9FD9
:106720004E9F4E9F4E9F4EBF4EBF4EBF4EBF4E9F81
:106730004E9F4E7F4E9F4E9F469F469F4E7E4E5D84
:106740004E3D4E3D4E3D563C561C5E3D5E5E667E69
:106750006EBE76DE76FF76FF873F873F875F8F5F6F
:106760008F5F8F5F8F5F8F5F975F8F5F875F875FC1
:106770008F3F8F3F873F873F875F873F8F1F8F1FE9
:106780008F1F8F1F8F3F8F5F8F3F8F3F8F3F873FC1
:106790007EFF7EBD7E16DFF9EFF1D708DF68DF6B85
:1067A000FFF6BEF61BAD147214911492147214729B
:1067B0000C3125364E5C5E9E76FF8F3F9F9FA7DF94
:1067C0009FBF977F8EDC8E76C776EFF5EFF3F7F5F8
:1067D000C7548DD0AEF3B753CFF4DFF1DF49E7668E
:1067E000DF66E787DF66DF47DF67D748F7EEF7F159
:1067F000F7F4DFF5AED27DB02BCB1BCD1C101C9473
:106800005EBD5E9E76BF871F975F973F9F3FA77FC6
:10681000A77FA75FA77FA77FA75FA75FAF7FAF7F98
:10682000AF9FAF9FAF9FAFBFAF9FA79FA79FA79FF0
:106830009F9F975F973F8F1F86FF7EDE769D665DE9
:106840005E1C5E1C561C561C4DFD4E1D4E3E4E5E83
:106850004E5F4E7F4E7F467F4E9F4E9F4E9F4EBF58
:1068600046BF469F469F46BF46BF469E465E465E23
:10687000567E5EDF6F3F7F5F7F3F7F3F7F1F7EFFE4
:106880007EDF7EDF7EDF7EFF86FF86FF86FF86FF60
:10689000871F7F1F871F871F871F871F871F871FD0
:1068A000871F871F873F8F3F873F873F873F8F1F08
:1068B0008F1F8F1F8F1F8F1F8F3F8F5F975F977F58
:1068C000977F8F7F873F7F1F76FF6EDE669D5E5DC1
:1068D0004E1D4E1D463D463D463E465F469F4E9EE2
:1068E0004E9D4E7C565B565B563B5E3B661B661B65
:1068F000663C561C4E9F3E9E469F469F46BF4EBFDF
:106900004E9F4E9F4E9F4EBF46BF46BF469F4E9FD7
:106910004E9F4E9F4E9F4E9F4E9F56DF671F6F5F4D
:10692000777F7F9F7FBF87DF8FDF8FBF8FBF8FBF57
:106930008F9F8F9F877F877F8F9F8F7F8F7F8F5FB7
:106940008F3F8F3F8F5F8F5F973F8F5F875F877F1F
:106950008F5F8F5F875F877F875F875F8F3F8F3F07
:106960008F3F873F873F871F873F86FF86FE7EFEDC
:106970006EDF5E1A9676EFF7D74BDF47D766C7070D
:10698000FFF4BF151B4B24711C91147114721CB3BE
:106990000C3225163DFB3DDC4E3D561D665E663CC9
:1069A00065FA55748EB6DFF9DFD1D70AD70AE7CE7C
:1069B000DFD1D7D1D7AFCF4CCF4ADF69DF47E7462A
:1069C000DF46DF66DF67DF67DF66DF67D707DF2960
:1069D000D6EADF4CEFF1E7F4DFF8AF76342C13ADF5
:1069E000351545B9669E76BE7EDE977F973F975FE9
:1069F000A79F9F9FA7BFA7BFAFBFAFBFAFBFAFBF8F
:106A0000AF9FAF9FAF9FAF9FAF9FAF9FA79FA79F26
:106A1000A79FA79FA79F9F9F9F9F9FBF9FFFA7FF86
:106A20009FFF9FFF97FF8FDF87BF7F9F6F3F66FFAF
:106A30005EDF56BF4E7F465F469F46BF469F469FDE
:106A4000469F4E9F4E7E465D567D5EBE6F1F773FD2
:106A50007F3F771F76FF76FF7EFF7EFF7EFF7EFF04
:106A60007EFF7F1F7F1F7F1F7EFF7EFF7EFF7EFFDB
:106A70007F1F7F1F7F1F871F8EFF8EFF871F871F30
:106A8000871F8F1F8F1F8F1F8F3F8F3F8F5F8F5FDE
:106A90008F5F8F5F7F5F7F5F6EFF66FF5EBF4E7EA3
:106AA000467D465D4E5E4E3E4E5E4E5E4E7E4E7E58
:106AB0004E9E4E9F4E9F469F46BF46BF467F465CBA
:106AC0004E1755F46DD275D17D916C6D948E946F87
:106AD00094F285B74DFA469E3E9E469F469F4E9F36
:106AE0004E9F4EBF46BF46BE46DF46DF46BF46BF4F
:106AF00046BF46BF469F469F3E7F469F56BF5EBFEE
:106B0000569F4E9F4E9F4EBF4E9E4E9E4E7F4E7F37
:106B10004E7F567F569E569E4E7D4E9D4E9D4E9D5F
:106B20004E9E4E7E4E5F565E4E5E4E7D4E5E4E5E7D
:106B30004E5E4E5E4E5E4E5E4E7D4E5D4E3E4E3E17
:106B40004E3D4E5D465E465D461B45B84D554D7704
:106B50002DBC3557B777EFF3D72ACF27D787CF2864
:106B6000E7AFCF52128523AD1BCD140E14511493F1
:106B7000143224F6361C2E1C3E1D463E3E3E45FA7F
:106B80005D73C7D7E7F5BF2BCF49CF28D769CF496A
:106B9000CF49CF6ACF49D769D768D766DF45E76461
:106BA000DF65D745D745D746D766D766D767D76855
:106BB000D748D749C709CF6AC74BCF8EDFF5A7148F
:106BC000132A1BF00BF11C94353745FB45FD3DDDC9
:106BD000461D4E3D4E5D4E7E4E5E565E567E567E48
:106BE000567E5E9E5E9E5E9E5EBE66BE66BE66BF54
:106BF00066DF6EDF6EFF6EFF6F1F6EFF6EFF6EFF54
:106C00006EFF6F1F6F3F6F5F671F673F6F5F6F5F45
:106C10006F5F673F5EFF569F4E9F4E9F467F467E4B
:106C20004E7E569F66DF773F773F7F1F7EFF7EFF5A
:106C30007EFF7F1F7F1F7EFF7F1F7F1F7F1F7F1FA6
:106C40007F1F7F1F7F1F7EFF7F1F7F1F7F1F7F1F75
:106C50007F1F7F1F7F1F871F871F873F875F877F5C
:106C6000877F8F5F8F3F873F7F1F76FF66BE5E7D8A
:106C70005E3D563D4E3D463E4E3E4E7E469F469FB5
:106C800046BF46BF469F4E9F4E9F469F469F4EBF64
:106C90004EBD4E9C565B565A4DF84DD75DD77E374C
:106CA0009ED6B734CF33D6F2DEF2D60F9AE3B3874F
:106CB000A3C8840C6CF25DB755FA4E1B4E3D4E5E78
:106CC000467F469F46BF3EDF3EBF3EBF3EBF46BFFC
:106CD000469F46BF46BF46BF46BF46BF4E7F4E7F1C
:106CE0004E7F4E9F46BF46DF46BF46BF4E9E4E9DDF
:106CF000569C56DC5EDC5EFC66FD5EFD56DD4EDDC0
:106D00004EBD4EBE4E9F4E9F46BF46BF46BF46BF7E
:106D10004EBF4EBF4E9F4EBF46BF46BF4E9F4EBF5B
:106D20004EBF469F467E465C45B78F5ACFFDBFFD9E
:106D30004E373511D7F6DF8ED74AD769CF47CF49BF
:106D4000C6E9E7F1E7F8CFF9A77676732C4D138CF7
:106D50001BAF351635FB2E1C361D3E3D3DDA4DB5BD
:106D6000D7FAD7F1BF0ACF69D768CF67CF48CF69C5
:106D7000C749C749C76AC74AC78BC78BD7CBD7ABE9
:106D8000D7CDD7EED7EFCFEED7EED7CECFACC74A21
:106D9000CF49CF48CF68CF68CF48CF49C70BDFF482
:106DA000CFFA1B2A245114520C320C342D9A465F10
:106DB000361E3E3E3E7F3E7F469F467F467F467F55
:106DC000467F469F467F467F467E467E467E467E7F
:106DD000467E467E465E465E465E465E465E465E53
:106DE000465E465E463E463D465E465E465E465EC4
:106DF000465E4E7E4E7E4E7E4E3D4E5E5E9F6EFFEA
:106E0000771F771F76FF76FF76FF7EFF7EFF7EFF80
:106E10007EFF7EFF7EFF7EFF7EFF7EFF7EFF7EFF8A
:106E20007EFF86FF7EFF7EFF871F7F1F871F873FB6
:106E3000873F873F875F7F5F773F6F1F66FF56BF44
:106E40004E7E4E5D4E3D4E3D465D465D4E7E4E7FD6
:106E5000569F4E7F569F569E4E9E4E9E4EBF4E9FB5
:106E60004E9F4E9F4E9F4E9F46BF469F46BF467EBB
:106E70004E3955D465B19672B6F1D711DE8FD5ED86
:106E8000DDADDD6CDD4BE56BE5ABE56ACC25BB62CA
:106E9000A321A3439B669C2C8D13757765B9561B64
:106EA000463D3E9F369F36BF3EBF3EBF46BF469FD4
:106EB00046BF469F4EBF469F4E9F4EBF467F4EBF2A
:106EC0004E9F4E9E46DF3EBF46BF4E9F56DB5EF84E
:106ED0005E94458F350C0B871B69342D44F14DB5FD
:106EE0006EDA6F1C5EDD56DE46BE46DF4EBF469F45
:106EF0004EDF46BF4E9F4E9F469F46BF467F4EBFCA
:106F0000469F467F4E3C55B7CFFBE7F7BEEDB72D0A
:106F1000BFD1CFF2CF8DD78CC729C748C728CF495B
:106F2000CF49C729C74CBF0CC78DD7F1E7F6CFB8FB
:106F30004C6E1B6E2CB524F835DB3D9865D3D7F825
:106F4000BF6EBF2AC749CF49CF29C729C749CF8BB1
:106F5000C78ECFD1BFD3AF938E917E106D6E54ED9F
:106F600044CE344C344D342C344C4CAD7DCECFF229
:106F7000C72BCF28CF69C729CF49C729C729C70B36
:106F8000EFF6A6731B4C1C5214511C720C111CF60C
:106F9000463E35FE3E3E467E467F469F469F469F86
:106FA000469F469F469F469F469F469F469F469FB9
:106FB000469F469F467F467F4E9F469F4E9F469FD9
:106FC000469F469F469F469F4E9F469F4E9F469F89
:106FD000469F469F469F469F6F1F773F771F76FFCE
:106FE00076FF7EFF7EFF76DF7EDF7EFF7EFF7EFF09
:106FF0007EFF7EFF7EFF7EFF7F1F7F1F7F1F7F1F25
:107000007F3F873F873F875F7F1F771F76FF6EBF7A
:10701000669E5E5D563D4E1D4E3E4E5E467E467FF2
:10702000469F4E9F4EBF4EBF46BF46BF46BF3E7FA8
:107030004EBF4E9F467E4E9E4E9E4E9E4E9F469FFC
:10704000467F4E9F56BE565B565A56194D7765F68B
:1070500096B6B735CF33C64DD5E9E5A7F5A8F548BF
:10706000FD6BFD4BFD6CFD4AFD8AFD89FDCAFE0BE3
:10707000FE4CFDCBF4C8C4078B886B6A640D64D2E8
:1070800065965DD85DF955F95E3A5E3B561B5E5CD0
:10709000565D567E4E7F4E9F469F46BF46BF46BFBB
:1070A0004E9E469E46DF46BF4E9D5EDA4E5345AD30
:1070B000456B4D6B4D6B452A34281B660AE403254E
:1070C000030402E5140C45B46F3C673D569C56BE64
:1070D00046BE46BE4E9F4E9F4EBF469F4EBF469FEA
:1070E000465E4E3B55B6CFFDE7F6C6CBCF29CF283F
:1070F000C728BF28C709C709BF29BF29C729C7296A
:10710000BF28BF49C729C729CF49BEC8C6CCD77237
:10711000DFF985F40B2D1C32038E346ED7F8B6ECF4
:10712000BF49BF48C729C729C729C74BC7B0860C65
:10713000756B44482BC823CA23CC1BCD240F2410C5
:107140001C111C321C331C121C32241023AC33863D
:10715000D7D0C729C74AC74AC72ABF09C74ABF0AE3
:10716000CF0DE7F82BAD24112472143124710BF1EB
:1071700024F8463E3E1D3E3E467F467F469F469F44
:10718000469F4E9F4E9F4E9F4E9F469F469F469FB7
:10719000469F469F469F469F469F469F469F469FC7
:1071A000469F469F469F469F469F469F469F469FB7
:1071B000469F469F4E9F469F6EFF6EFF6EFF771F56
:1071C000771F771F76FF7EFF76DE7EFE7EFF7EFFD7
:1071D0007F1F7F3F7F3F773F775F775F6F1F66FF40
:1071E0005EBF569E4E5E4E5E4E5E465E4E5E4E7E6E
:1071F0004E7F4E7F4E9F4E9F4E7F4E7F4E9F4E9FA7
:107200004E9F4E9F4E7F469F46BF46BF469F4EDFD6
:10721000467F4E9F4EBF4EBF4E9F465F46BF46DFE6
:1072200046BF467D4E165DD28612B692DF11DE8EC7
:10723000D5CDDD8CDD8BEDCBF5A9FD89FD49FDAC10
:10724000FDAEF52CF52BF56BFDAAFDA9FD69FD8AB8
:10725000F549F549FDCAFE2CFEAFFED0E5EDCD0A9D
:10726000B4489BC7838683E9842B8D1085537D7634
:107270006DD9661B4E1C465E3E9F369F3EBF3E7FCD
:10728000469F4EBF467F56DD66F64E0D45664DA6BF
:1072900045693D2A3D6C4E0F564F66CF5E2A4565C7
:1072A00034E22C8223A20AE102400B8756146F3B82
:1072B000571C46BD4EBF4E7F4E9F4E9F3E9F46BEC3
:1072C000463B4DB6CFFAD7F4AEECB70AC729C7088C
:1072D000BF29BF2ABF4ABF2AB72ABF4ABF2ABF2A2F
:1072E000B74BB74CCFAFBEECBF0AC72BBF2BB6EC2A
:1072F000B6EEDFF87E551B4A3388D7F7AEECBF2BCE
:10730000BF29BF29BF2ABF2ABF09D7F1132723CE20
:107310002BEE2C0E240F242F2431243124511C5108
:107320001C311C112432243224521C302C721B8933
:10733000962BCF8BBF2AB72ABF2AC76BB72ABF4B62
:10734000B6CAE7F675D3136E2431243224521C12C8
:107350000BF23579363C365E3E5E467F469F4E9F49
:107360004E9F4E9F4E7F4E7F4E7F4E7F4E9F4E9F35
:10737000469F469F469F469F469F469F469F469FE5
:10738000469F469F469F469F469F469F469F469FD5
:107390004E9F469F4E9F469F771F6EFF6EFF6F1F4B
:1073A0006F1F6F1F771F773F771F773F773F771FDD
:1073B0006EFF66BF5E9E4E5E4E5E4E5E4E7E4E7EA3
:1073C0004E9F4E9F4EBF4EBF469F469F469F469F35
:1073D000469F469F469F4E9F469F4E9F469F4E9F6D
:1073E0004E9F4E9F4E9F4E9F46BF469F467F467F75
:1073F0004E9F467F469F46BF4E9E567D4E3B56193A
:107400004D976E16A736BF34C66FD5EBE5C7F5A707
:10741000FD89FD8BFD8BFD6AFDAAFD8AFE0DBB6417
:10742000CBE7FE10FED2FE90FDACF54AFD4AFD8B87
:10743000FD8BFD8BF5AAF5A9EDA8F588FDA8FD88C3
:10744000FDCAFE0BFE4DFDEDE56CB48A942A7BEA85
:107450005BEC5C4F6D3365B55DF75E185E1A661BBD
:10746000665C561B4E5D5679562D34E23D013CE379
:10747000456C3D9046133DF2361135CD55EB6649CE
:107480006E8955C63C833C423C2233E30AE30285C5
:1074900024AF5EFA671C56BC4E9D4E9D4EBE463BC9
:1074A0003D75C7FDDFF5B6CBAF2BB74AB6E9CF6C5C
:1074B000BF4DB72DAF0BB72AB74BB72BB72BAEEAE3
:1074C000C7CF75673B42CFF4B6EBBF2AAEE9B72B07
:1074D000BF4CCFD2D7F91AC3E7F7BF0EB70BB72A05
:1074E000B72AB70AB72BB72BBF6D968F134D1C1455
:1074F000241224102C50242F23EE13AD1BEF1C302C
:107500001C3224521C121C12141214330C13032BA1
:107510009ECFBF4BB72BB72BB72AB72AAF2BAF0BDA
:10752000AEEABF90BFFA132C241124321C1124534D
:1075300024330C33361C2E3D363E465F469F4E9F0D
:107540004E9F4E9F4E9F4E7F4E9F4E9F4E9F4E9FF3
:10755000469F469F469F469F469F469F469F469F03
:10756000469F469F469F469F469F469F469F469FF3
:107570004E9F469F467F469F6F1F6F3F6F5F6F3FD7
:107580006F1F671F5EDF569F4E7F4E5F465E463E13
:10759000465E4E7E4E9F56BF4E9F4E9F4E9F4E9FC5
:1075A0004E9F4E9F4E9F4E9F4EBF4EBF4EBF4EBFF3
:1075B00046BF46BF469F469F4EBF4EBF46BF46BFD3
:1075C00046BF469F469F469F469F467F4EBF4E9F63
:1075D000467F4E9F467F467E4E3A55B67DF4AEB40A
:1075E000DF13DEAFD5CBE5ECEDCBF5EBF5A8FDA8D1
:1075F000FDAAFD4AFD8CFE4FF58BF5ABF5ABFE8F7A
:10760000FDACAAE2A221CB46FCECFE92FED2FE0F1C
:10761000F5ADEDACED8BF5CBFDAAFDCAFDA9FDC91D
:10762000FD69FDAAFD8BF56AF5ABF62DFEEFFF0FA8
:10763000F6EFDE2CBD28A4668BE483C6942C946FF1
:107640008CF17D945E174E3355E84D831C2045AB7D
:107650003DB4463B569D4EBD46DB56D96DF575B2E1
:10766000554F456C5E6D4DE834812B803342332499
:10767000234402820BC94DF366FA5EBA5EBC4D9696
:10768000B799E7F8B70DAEEAA70BA70ACFCE7D27CB
:1076900022C27D8DB78FA72BAEEBAEEBAEEBAF0C5E
:1076A000BF8E966E1AE77570C7AFAEE8B72AAF0AFD
:1076B000A6CAB70CC791D7F3B72EAECCAF0CAF2C80
:1076C000AF0BAF0AAF0BA6ECC7F333C834102C13C3
:1076D000241223EF1B6A3C4A75CE8E92555013AC90
:1076E0001C3114331C951CD61CF71D181D1A24D3ED
:1076F000AF51BF2AAF0BAF0BAF0AAF0AAF2BAF2B07
:10770000AF0AAF0DD7FA1B2A2C1124321C111C32E0
:1077100024320BD22D7A2E1D363E3E5F467F4E9F81
:107720004EBF46BF46BF46BF4EBF4EBF4EBF4EBF09
:107730004E9F4EBF4E9F4EBF4EBF46BF46BF46BF39
:1077400046BF46BF46BF46BF46BF46BF46BF46BF11
:107750004E9F469F4E9F469F56BE569E567E4E5EFD
:107760004E7E4E7E4E7F467F469F469F469F469F5B
:10777000469F4EBF4E9F4E9F4EBF4EBF4EBF4EBF09
:107780004EBF4EBF4E9F4E9F4E9F4E9F4E9F4EBF31
:107790004E9F46BF46BF46BF469F4E9F46BF46BF11
:1077A00046BF46BF46BF4EBF4E9F4EBF467F467F39
:1077B000467F4E5E4E1B4D768697BF78CED3CDED7D
:1077C000EDE9F5C8FDA9FDAAFDCAF5AAFDCAFDAA05
:1077D000FDABFEB0FE0FBB44FF33ED4BF5CCED8AA5
:1077E000FDCBFE8FFDEFD386AA83B2A3BB04DC29B9
:1077F000FDEFFE91FEF1FE4EFD8BF54AF569FDAA07
:10780000FDEBF58AFDCCFDCCFDCBF5A9EDC8F60866
:10781000F5E7FE07FE49FF2DFEECFE6CB324BBA886
:10782000ABC9946B7D4F4CCA4D042400248345CFD3
:107830003DF956BF567E4E5C4E194D357471844FDE
:107840007CB075D23DCF35EC664C44842AA03280A2
:1078500032805384332312C302E50BAA0226448EDE
:10786000E7F9CF71A6ABAF2BA70BA6EBC7B0542699
:107870002AE69673A74FA72BA6EBAF2CAF0CA6EC6E
:10788000AF4E8E4F0ACA5D32B790AF29A70AAF2B11
:10789000A70BA6CBA6CBAECBAEECA6ECA70CA70C49
:1078A000A6EBAF2CAEEBA70EA7751B292BEF2BF089
:1078B0001B4B44AEA796AFB4AF4FA730B7F944D136
:1078C0003D152CD6249524D61CD72D9B259D2D15F2
:1078D000A730B70AAF0BAF0CA6EBAF2CA6EBAF2CC3
:1078E000A72B9ECCDFF94C2D23AF24122412243277
:1078F0001BD11C131C963DFD35FD3E3E467F469F29
:1079000046BF46BF46BF46BF46BF46BF4EBF4EBF3F
:107910004EBF4E9F4E9F4E9F4EBF46BF46BF46BF77
:1079200046BF46BF46BF46BF46BF46BF46BF46BF2F
:1079300046BF4EBF4EBF4EBF4E9F4E7F4E9F4EBF67
:107940004EBF4E9F4E9F4EBF46BF46BF46BF4E9F47
:107950004E9F4EBF4EBF4EBF4E9F4E9F4EBF4EBF1F
:107960004EBF4EBF4EBF4EBF4EBF4EBF4EBF4EBFAF
:107970004EBF4EBF4EBF4E9F4EBF4EBF4EBF4EBFBF
:10798000469F469F469F4E7F4E7E56BF46BF46BF90
:107990004E5E45778E76EFFADEB1D5CCE5ECF60C8F
:1079A000FDCAFDCAFDCAFDCAF5CAED8AFDEDFF3369
:1079B000FDCDCB23CAC2C2C3CBC8FF14ED2AFDCB79
:1079C000FDA9F5A9FDABFE4EFE0EB303DB65DB049E
