:020000040800F2
:1000000010050020C1010008350200083102000877
:10001000330200082D0200088D03000800000000D4
:10002000000000000000000000000000590200086D
:100030002F02000800000000570200085B020008C1
:10004000DB010008DB010008DB010008DB01000820
:10005000DB010008DB010008DB010008DB01000810
:10006000DB010008DB010008DB010008DB01000800
:10007000DB010008DB010008DB010008DB010008F0
:10008000DB010008DB010008DB010008DB010008E0
:10009000DB010008DB010008DB010008DB010008D0
:1000A000DB010008DB010008DB010008DB010008C0
:1000B000DB010008DB010008DB010008DB010008B0
:1000C000DB010008DB010008DB010008DB010008A0
:1000D000DB010008F5020008DB010008DB01000875
:1000E000DB010008DB010008DB010008DB01000880
:1000F000DB010008DB010008DB010008DB01000870
:10010000DB010008DB010008DB010008DB0100085F
:10011000DB010008DB010008DB010008DB0100084F
:10012000DB010008DB010008DB010008DB0100083F
:10013000DB010008DB010008DB010008DB0100082F
:10014000DB010008DB010008DB010008DB0100081F
:10015000DB010008DB010008DB010008DB0100080F
:10016000DB010008DB010008DB010008DB010008FF
:10017000DB010008DB010008DB01000800000000D3
:10018000DB010008DB010008DB010008DB010008DF
:10019000DB010008DB010008DB01000800000000B3
:1001A000DB010008DB010008DB010008DFF80CD0F0
:1001B00000F02AF800480047D30700081005002087
:1001C0000648804706480047FEE7FEE7FEE7FEE7F1
:1001D000FEE7FEE7FEE7FEE7FEE7FEE76102000856
:1001E000AD010008D2B201E000F8012B491EFBD29C
:1001F00070470022F6E710B513460A460446194632
:10020000FFF7F0FF204610BD064C074D06E0E06802
:1002100040F0010394E8070098471034AC42F6D34D
:10022000FFF7C8FF680F0008880F0008FEE7704757
:10023000FEE7FEE770470907090E002806DA00F01E
:100240000F0000F1E02080F8141D704700F1E0205D
:1002500080F8001470477047704700F023B9000021
:1002600018B42048016841F4700101601E4801681B
:1002700041F00101016001688907FCD51A4A083282
:10028000116841F0800111600023009302E00099A1
:10029000491C009100995029F9D3116841F090014F
:1002A0001160009302E00099491C009100995029C7
:1002B000F9D3116821F00301116001680B4C214052
:1002C0000160016821F48021016013601068064913
:1002D0000748091D086004480C30036018BC00F092
:1002E000D3BB000088ED00E000380240FFFFF6FEBF
:1002F0001030002470B51DA000F04AF81E4D1F4CB0
:100300002946204600F0B6FD00282DD0294620467B
:1003100000F0A6FD204600F062FC194C02212046A8
:1003200000F0CAF80221204600F0BEF9C0F5807046
:1003300098B1FF2811D8134A00211154114612A078
:1003400000F026F820220221204600F0FDF8204689
:10035000BDE87040022100F0B8B8BDE870404FF42D
:1003600080710848FFF745BF70BD0000757361726A
:10037000742069646C650A000403040000100140E5
:10038000006402401000002025730A00FEE7000010
:100390000FB4054B10B503A9044A029800F017F8F2
:1003A00010BC5DF814FB0000B50600080C0000202E
:1003B00002E008C8121F08C1002AFAD1704770472E
:1003C000002001E001C1121F002AFBD170472DE976
:1003D000F84F9946924688460546002706E02528AC
:1003E0000AD051464A4690476D1C7F1C2878002849
:1003F000F5D13846BDE8F88F002315F8011F1846DF
:100400002E2915D115F8011F04232A290DD06FF0CC
:100410002F022978A1F13004092C09D800EB8000C3
:1004200002EB400008446D1CF3E758F8040B6D1C08
:100430002A78002ADDD0632A07D0732A0FD010460D
:1004400051464A4690477F1C2AE018F8042B8DF845
:10045000002000218DF801106E46012103E058F8BC
:10046000046B4FF0FF315A074FF0000401D409E04C
:10047000641C84420BDA8C42FADB325D002AF7D12D
:1004800005E0641C8C42FCDB305D0028F9D1274478
:1004900004E016F8010B51464A469047641EF8D214
:1004A0006D1CA3E703480168002902D00168491EBA
:1004B000016070470000002001EB410100EBC1002A
:1004C000016921F001010161704701EB410100EB7D
:1004D000C100016941F001010161704701EB410177
:1004E00000EBC100016921F0606141EA42610161F4
:1004F000704701EB410200EBC202136923F00103D4
:1005000013610023136153619361D36113625362DA
:100510003D2204290BD201EB41035B00C1F34001F2
:1005200003EB81018A4081680A4382607047091F9A
:1005300001EB41035B00C1F3400103EB81018A4001
:10054000C1680A43C260704704290BD201EB410322
:100550005B00C1F3400103EB81018A4081680A43DB
:1005600082607047091F01EB41035B00C1F340014A
:1005700003EB81018A40C1680A43C26070470429C5
:100580000ED201EB41035B00C1F3400103EB81019B
:1005900000688A40024201D0012070470020704765
:1005A000091F01EB41035B00C1F3400103EB810133
:1005B00040688A40024201D0012070470020704705
:1005C00004290BD201EB41035B00C1F3400103EBB3
:1005D00081018A4081680A4382607047091F01EBEC
:1005E00041035B00C1F3400103EB81018A40C16814
:1005F0000A43C260704701EB410100EBC100002AD1
:1006000001D003627047C3617047000030B501EB51
:10061000410100EBC100416A21F00401416211680F
:1006200081619168C161D169416103691A490B40D7
:10063000146A116995690C4345EA81010C4344EA47
:10064000030101615168002912D0012915D0016907
:1006500041F400410161D168A1B1016921F48061D7
:100660000161516999B1016921F48071016130BD65
:10067000016941F400710161EDE7016921F4007144
:100680000161E8E7016941F480610161E9E701691D
:1006900041F48071016130BD3F87FCFF01EB4101F6
:1006A00000EBC1004261704701EB410100EBC1006A
:1006B0004069704710B5084908700121064800F0EC
:1006C0000BFA064C202207212046FFF758FF00288E
:1006D000F8D0002010BD0000080000200064024097
:1006E0002DE9F043046A456A002301274FF00F0CFF
:1006F00007FA03F6164208D09E000CFA06F824EA20
:10070000080401FA06F848EA04045B1C9BB2082BB3
:10071000EED3082307FA03F818EA020F0AD0A3F170
:100720000806B6000CFA06F825EA080501FA06F9EB
:1007300049EA05055B1C9BB2102BEBD304624562B2
:10074000BDE8F0832DE9F0470568C66800244FF046
:1007500001084FF0030908FA04F71F420ED06700A2
:1007600009FA07FC25EA0C0501FA07FA4AEA050529
:1007700026EA0C0602FA07FC4CEA0606641CA4B240
:10078000102CE8D30560C660BDE8F0872DE9F04184
:1007900001291AD0416899434160846800214FF0D3
:1007A00001084FF0030C08FA01F71F4206D04D0074
:1007B0000CFA05F6B44302FA05F63443491C89B233
:1007C0001029F0D38460BDE8F0814168194341608D
:1007D000E3E74FF4A06000F055F800F057F94FF44C
:1007E000E13000F071FAFEE770B505460E460023D1
:1007F000002423480168C1F30221072932D001688F
:10080000C1F3022106292FD00168C1F30221052975
:100810002DD00168C1F3022104292BD00068C0F358
:100820000220032829D04FF4A06000F02BF8022307
:100830000224C3F104008640C4F104010F20C84023
:1008400010403043000105F1E02181F8000405F07B
:100850001F01012088406909890001F1E021C1F8E8
:10086000000170BD0424E4E701230324E1E702232F
:100870000224DEE703230124DBE70423D9E7000099
:100880000CED00E00249084302490860704700008F
:100890000000FA050CED00E0F0B588B0024600203B
:1008A0002FA104AE91E83800C96838C607912DA180
:1008B0000AC9CDE902132BA10AC9CDE900132C4CBA
:1008C0002168C1F381012B4B002925D0DFF8A8C096
:1008D000012923D0022923D019462368C3F3031327
:1008E00004ADEB5C21FA03F32568C5F3822502AE63
:1008F000755D23FA05F52468C4F342341DF80440FD
:1009000023FA04F432B3012A26D0022A26D0032A7D
:1009100000D1204608B0F0BD1946DEE76146DCE7AD
:100920001349091F0D6805F03F050E68C6F38816C8
:100930000F68C7F301477F1C7F00096801F480013D
:10094000B1F5800F00D16346B3FBF5F17143B1FB04
:10095000F7F1C2E70846DDE71846DBE72846D9E7A6
:10096000000000000000000001020304060708095F
:10097000083802400024F40040787D01064901EB6C
:100980009011D1F8002800F01F0301209840024385
:10099000C1F800287047000000300240064901EB12
:1009A0009011D1F8002800F01F03012098408243E5
:1009B000C1F800287047000000300240064901EBF2
:1009C0009011D1F8002800F01F0301209840024345
:1009D000C1F80028704700000030024010B5002028
:1009E000264A116841F0010111604FF4A063401CD8
:1009F000116801F0020109B99842F8D11068800726
:100A000000D4FEE71D484030016841F0805101608C
:100A10001B49086840F440400860184808300368E3
:100A20000360036843F400430360036843F4A05386
:100A30000360041F134B2360136843F0807313603B
:100A400013689B01FCD50A6842F480320A604A6848
:100A5000D203FCD50A6842F400320A604A68920365
:100A6000FCD5016821F003010160016841F0020139
:100A7000016001680907FCD510BD00000038024084
:100A8000007000401078000AFFF7A8BF70B5114849
:100A90004FF47A710068B0FBF1F1491E4FF0FF3559
:100AA000B1F1807F01D301210BE04FF0E0246161BF
:100AB0000F212846FFF7BFFB0020A061072020611F
:100AC000002101B1FEE72846BDE870400021FFF794
:100AD000B2BB00000400002070B505460E460D4C68
:100AE00007212046FFF7E8FC202207212046FFF7D8
:100AF0002BFD2B46002207212046FFF77CFD3246C6
:100B000007212046FFF7CAFD07212046FFF7DDFC3D
:100B1000002070BD0064024070B504460D46002000
:100B2000294AA11A131594422DD00BDC27496218CB
:100B300019D09A421BD0B2F5006F1CD0B2F5406FAD
:100B400028D11CE0994222D0B1F5184F03D0B1F55D
:100B50001C4F1FD103E00320FFF79EFE1AE0032085
:100B6000FFF79AFE16E00220FFF796FE12E0022041
:100B7000FFF792FE0EE00220FFF78EFE0AE0022051
:100B8000FFF78AFE06E00220FFF786FE02E0022061
:100B9000FFF782FEE1680A044FF6F0710AD54000C3
:100BA00000EB5500B0FBF5F00140C0F342021143E9
:100BB000A16070BD00EB5500B0FBF5F0014000F006
:100BC0000F021143A16070BD0078004000BCFFBF60
:100BD00050F8802F22F400620A4302607047406898
:100BE000C0F308007047000010B5354A811A13158C
:100BF00090424FD014DC334940182DD0984235D064
:100C0000B0F5006F3CD0B0F5406F57D140F61404FA
:100C10002046FFF7D3FE2046BDE81040FFF7BEBEDA
:100C2000994241D0B1F5184F0CD0B1F51C4F45D1C8
:100C300040F605142046FFF7C1FE2046BDE81040EF
:100C4000FFF7ACBE40F604142046FFF7B7FE20467F
:100C5000BDE81040FFF7A2BE40F611042046FFF7A2
:100C6000ADFE2046BDE81040FFF798BE40F61204E6
:100C70002046FFF7A3FE2046BDE81040FFF78EBEDA
:100C800040F613042046FFF799FE2046BDE81040C9
:100C9000FFF784BE40F61E042046FFF78FFE204675
:100CA000BDE81040FFF77ABE40F61F042046FFF76C
:100CB00085FE2046BDE81040FFF770BE10BD000065
:100CC0000078004000BCFFBF10B5044600F08AF871
:100CD000204600F0E9F8044C204600F055F8204684
:100CE000BDE8104000F00CB804100140426922F049
:100CF00040024261426901F040010A43426170478B
:100D000030B589B0044640F61640FFF737FE174D60
:100D100002212846FFF7EDFB0021069100940120F7
:100D200001900491124A02920391010207914FF43B
:100D30004031089105906A4602212846FFF766FC7B
:100D4000042202212846FFF7C9FB02212846FFF7AB
:100D5000BCFB022211463A20FFF746FD2022022169
:100D60002846FFF72DFC09B0002030BD006402408A
:100D700010000020426922F080024261426901F0C5
:100D800080010A434261704730B589B0044640F69D
:100D90001640FFF7F3FD0F4D07212846FFF7A9FB8B
:100DA00040200690002003900094012101910490BE
:100DB0004FF44030089005916A4607212846FFF716
:100DC00025FC042207212846FFF788FB09B00020F4
:100DD00030BD000000640240C16841F40051C160B0
:100DE0007047000070B54FF44060FFF7C7FD41F257
:100DF0000410FFF7C3FD144E4FF480642246072110
:100E00003046FFF76DFC65102A4607213046FFF794
:100E100067FC2346012202213046FFF793FC2B4654
:100E2000012202213046FFF78DFC234602220021D9
:100E30003046FFF7ABFC2B463046BDE8704002223F
:100E40000021FFF7A3BC00000000024000EB91105E
:100E5000026801F01F03012199400A4302607047B4
:100E600000EB91500268C1F30443012199408A4389
:100E70000260704730B5C1F38912825801F01F0437
:100E8000012505FA04F31A4000EB91500068C1F304
:100E9000044105FA01F31840002802D00AB10120EC
:100EA00030BD002030BD000070B505461B4C20460B
:100EB000FFF79AFE29462046FFF72EFE0021204626
:100EC00000F02EF80021204600F046F800212046D0
:100ED00000F034F800212046FFF77AFE2046FFF7A5
:100EE0007BFF0821204600F031F80421204600F065
:100EF0001FF880212046FFF73DFF40212046FFF7E5
:100F0000F5FE022211462520FFF76EFC2046BDE8C3
:100F100070404FF44171FFF799BF0000001001408D
:100F2000C26822F4C062C260C2680A43C2607047ED
:100F3000C26822F004020A43C2607047026922F4C8
:100F40004052026102690A4302617047C26822F09E
:100F500008020A43C2607047C26822F48052C2602D
:100F6000C2680A43C2607047880F00080000002072
:100F700010000000B0030008980F000810000020C7
:100F800000050000C003000800000000001C4E0E19
:080F9000000000000000000059
:04000005080001AD41
:00000001FF
