:020000040800F2
:1000000010040020C1010008110200080D020008C0
:100010000F02000809020008D102000800000000D9
:100020000000000000000000000000003502000891
:100030000B0200080000000033020008370200082D
:10004000DB010008DB010008DB010008DB01000820
:10005000DB010008DB010008DB010008DB01000810
:10006000DB010008DB010008DB010008DB01000800
:10007000DB010008DB010008DB010008DB010008F0
:10008000DB010008DB010008DB010008DB010008E0
:10009000DB010008DB010008DB010008DB010008D0
:1000A000DB010008DB010008DB010008DB010008C0
:1000B000DB010008DB010008DB010008DB010008B0
:1000C000DB010008DB010008DB010008DB010008A0
:1000D000DB010008DB010008DB010008DB01000890
:1000E000DB010008DB010008DB010008DB01000880
:1000F000DB010008DB010008DB010008DB01000870
:10010000DB010008DB010008DB010008DB0100085F
:10011000DB010008DB010008DB010008DB0100084F
:10012000DB010008DB010008DB010008DB0100083F
:10013000DB010008DB010008DB010008DB0100082F
:10014000DB010008DB010008DB010008DB0100081F
:10015000DB010008DB010008DB010008DB0100080F
:10016000DB010008DB010008DB010008DB010008FF
:10017000DB010008DB010008DB01000800000000D3
:10018000DB010008DB010008DB010008DB010008DF
:10019000DB010008DB010008DB01000800000000B3
:1001A000DB010008DB010008DB010008DFF80CD0F0
:1001B00000F018F8004800477705000810040020F8
:1001C0000648804706480047FEE7FEE7FEE7FEE7F1
:1001D000FEE7FEE7FEE7FEE7FEE7FEE73D0200087A
:1001E000AD010008064C074D06E0E06840F0010351
:1001F00094E8070098471034AC42F6D3FFF7DAFFD3
:10020000C80A0008E80A0008FEE77047FEE7FEE7B4
:1002100070470907090E002806DA00F00F0000F108
:10022000E02080F8141D704700F1E02080F80014F1
:1002300070477047704700F07DB8000018B4204840
:10024000016841F4700101601E48016841F001013C
:10025000016001688907FCD51A4A0832116841F02B
:10026000800111600023009302E00099491C009175
:1002700000995029F9D3116841F090011160009361
:1002800002E00099491C009100995029F9D31168A6
:1002900021F00301116001680B4C214001600168ED
:1002A00021F4802101601360106806490748091D88
:1002B000086004480C30036018BC00F06BBA000002
:1002C00088ED00E000380240FFFFF6FE1030002409
:1002D000FEE70000014A024900F013B84903000894
:1002E0000800002002E008C8121F08C1002AFAD145
:1002F00070477047002001E001C1121F002AFBD1A6
:1003000070472DE9F04116460F460446002503E0EC
:100310003946B047641C6D1C20780028F8D1284667
:10032000BDE8F0810249086008680028FCD17047E8
:100330000000002003480168002902D00168491E1E
:10034000016070470000002010B5C0B200F0BCF999
:10035000002010BD2DE9F043046A456A00230127FF
:100360004FF00F0C07FA03F6164208D09E000CFA65
:1003700006F824EA080401FA06F848EA04045B1CBB
:100380009BB2082BEED3082307FA03F818EA020FF2
:100390000AD0A3F10806B6000CFA06F825EA08050B
:1003A00001FA06F949EA05055B1C9BB2102BEBD359
:1003B00004624562BDE8F0838162704781617047E5
:1003C0002DE9F0470568C66800244FF001084FF09A
:1003D000030908FA04F71F420ED0670009FA07FC68
:1003E00025EA0C0501FA07FA4AEA050526EA0C0691
:1003F00002FA07FC4CEA0606641CA4B2102CE8D3EF
:100400000560C660BDE8F0872DE9F04101291AD0EA
:10041000416899434160846800214FF001084FF022
:10042000030C08FA01F71F4206D04D000CFA05F63E
:10043000B44302FA05F63443491C89B21029F0D3BB
:100440008460BDE8F081416819434160E3E7000042
:1004500070B51A4C01212046FFF7B0FF022120465B
:10046000FFF7ACFF08212046FFF7A8FF2021204618
:10047000FFF7A4FF10212046FFF79EFF0121204631
:10048000FFF79AFF4FF47A752846FFF74BFF0221DA
:100490002046FFF791FF2846FFF744FF082120463A
:1004A000FFF78AFF2846FFF73DFF20212046FFF790
:1004B00083FF2846BDE87040FFF734BF000C0240C0
:1004C00010B540F60344204600F0CEF8204600F078
:1004D000CBF8204600F0C8F8204600F0C5F82046CA
:1004E00000F0C2F81F4C1023002201212046FFF724
:1004F00067FF0123002219462046FFF761FF022310
:10050000002201212046FFF75BFF08230022012182
:100510002046FFF755FF2023002201212046FFF748
:100520004FFF1023022200212046FFF76DFF012319
:10053000022200212046FFF767FF02231A4600210E
:100540002046FFF761FF0823022200212046FFF723
:100550005BFF204620230222BDE810400021FFF768
:1005600053BF0000000C024010B5FFF7A9FFBDE823
:100570001040FFF76DBF00F00FF900F07FFAFFF7B2
:10058000F3FFFCE7F0B588B0024600202FA104AECF
:1005900091E83800C96838C607912DA10AC9CDE98C
:1005A00002132BA10AC9CDE900132C4C2168C1F319
:1005B00081012B4B002925D0DFF8A8C0012923D0C9
:1005C000022923D019462368C3F3031304ADEB5C5F
:1005D00021FA03F32568C5F3822502AE755D23FA7F
:1005E00005F52468C4F342341DF8044023FA04F4EA
:1005F00032B3012A26D0022A26D0032A00D120466F
:1006000008B0F0BD1946DEE76146DCE71349091F73
:100610000D6805F03F050E68C6F388160F68C7F32E
:1006200001477F1C7F00096801F48001B1F5800F4C
:1006300000D16346B3FBF5F17143B1FBF7F1C2E7BB
:100640000846DDE71846DBE72846D9E7000000004A
:1006500000000000010203040607080908380240F0
:100660000024F40040787D01064901EB9011D1F897
:10067000002800F01F03012098400243C1F8002821
:100680007047000000300240064901EB9011D1F89C
:10069000002800F01F03012098408243C1F8002881
:1006A0007047000000300240064901EB9011D1F87C
:1006B000002800F01F03012098400243C1F80028E1
:1006C000704700000030024010B5064C014620463D
:1006D00000F0EBF80721204600F061F90028F9D07E
:1006E00010BD00000010014010B50020264A11681E
:1006F00041F0010111604FF4A063401C116801F04A
:10070000020109B99842F8D11068800700D4FEE7C9
:100710001D484030016841F0805101601B49086864
:1007200040F44040086018480830036803600368DC
:1007300043F400430360036843F4A0530360041FC1
:10074000134B2360136843F08073136013689B019D
:10075000FCD50A6842F480320A604A68D203FCD5AC
:100760000A6842F400320A604A689203FCD50168C4
:1007700021F003010160016841F00201016001689C
:100780000907FCD510BD0000003802400070004091
:100790001078000AFFF7A8BF70B511484FF47A71BE
:1007A0000068B0FBF1F1491E4FF0FF35B1F1807FD9
:1007B00001D301210BE04FF0E02461610F212846B5
:1007C000FFF727FD0020A06107202061002101B173
:1007D000FEE72846BDE870400021FFF71ABD000083
:1007E0000400002070B504460D460020294AA11AD5
:1007F000131594422DD00BDC2749621819D09A4268
:100800001BD0B2F5006F1CD0B2F5406F28D11CE0B0
:10081000994222D0B1F5184F03D0B1F51C4F1FD12A
:1008200003E00320FFF7AEFE1AE00320FFF7AAFE65
:1008300016E00220FFF7A6FE12E00220FFF7A2FE5C
:100840000EE00220FFF79EFE0AE00220FFF79AFE6C
:1008500006E00220FFF796FE02E00220FFF792FE7C
:10086000E1680A044FF6F0710AD5400000EB55002C
:10087000B0FBF5F00140C0F342021143A16070BD2E
:1008800000EB5500B0FBF5F0014000F00F02114302
:10089000A16070BD0078004000BCFFBF50F8802F01
:1008A00022F400620A4302607047C1F3080141600C
:1008B0007047000010B5354A811A131590424FD089
:1008C00014DC334940182DD0984235D0B0F5006F74
:1008D0003CD0B0F5406F57D140F614042046FFF7E6
:1008E000E3FE2046BDE81040FFF7CEBE994241D05E
:1008F000B1F5184F0CD0B1F51C4F45D140F6051499
:100900002046FFF7D1FE2046BDE81040FFF7BCBEF1
:1009100040F604142046FFF7C7FE2046BDE810400D
:10092000FFF7B2BE40F611042046FFF7BDFE204699
:10093000BDE81040FFF7A8BE40F612042046FFF7BE
:10094000B3FE2046BDE81040FFF79EBE40F61304FC
:100950002046FFF7A9FE2046BDE81040FFF794BEF1
:1009600040F61E042046FFF79FFE2046BDE81040DB
:10097000FFF78ABE40F61F042046FFF795FE20468B
:10098000BDE81040FFF780BE10BD000000780040B9
:1009900000BCFFBFC16841F40051C160704700EB6B
:1009A0009110006801F01F0201219140084201D01E
:1009B000012070470020704770B54FF44060FFF78A
:1009C00053FE41F20410FFF74FFE144E4FF48064C3
:1009D000224607213046FFF7BDFC65102A46072155
:1009E0003046FFF7B7FC2346012202213046FFF7CD
:1009F000E7FC2B46012202213046FFF7E1FC2346AB
:100A0000022200213046FFF7FFFC2B463046BDE8AE
:100A1000704002220021FFF7F7BC000000000240F6
:100A200070B50546104C2046FFF744FF2946204686
:100A3000FFF7D8FE0021204600F018F800212046DC
:100A400000F03AF80021204600F028F80021204666
:100A5000FFF724FF2046FFF79DFF2046BDE87040CA
:100A6000082100F023B8000000100140C26822F401
:100A7000C062C260C2680A43C260704710B5FFF727
:100A80009BFF4FF4E130FFF7CBFFBDE8104001A022
:100A9000FFF720BCB3C2CCECB3C90A00026922F450
:100AA0004052026102690A4302617047C26822F043
:100AB00008020A43C2607047C26822F48052C260D2
:100AC000C2680A43C2607047E80A000800000020BC
:100AD0000C000000E4020008F40A00080C000020EA
:100AE00004040000F402000800000000001C4E0E88
:040AF0000000000002
:04000005080001AD41
:00000001FF
