:020000040800F2
:1000000030040020C1010008630700084103000814
:10001000610700083D0300081D17000800000000EC
:100020000000000000000000000000008116000831
:100030003F030008000000007F1600088316000838
:10004000DB010008DB010008DB010008DB01000820
:10005000DB010008DB010008DB010008DB01000810
:10006000DB010008DB010008DB010008DB01000800
:10007000DB010008DB010008DB010008DB010008F0
:10008000DB010008DB010008DB010008DB010008E0
:10009000DB010008DB010008DB010008DB010008D0
:1000A000DB010008DB010008DB010008DB010008C0
:1000B000DB010008DB010008DB010008DB010008B0
:1000C000DB010008DB010008DB010008DB010008A0
:1000D000DB010008DB010008DB010008DB01000890
:1000E000DB010008DB010008DB010008DB01000880
:1000F000DB010008DB010008DB010008DB01000870
:10010000DB010008DB010008DB010008DB0100085F
:10011000DB010008DB010008DB010008DB0100084F
:10012000DB010008DB010008DB010008DB0100083F
:10013000DB010008DB010008DB010008DB0100082F
:10014000DB010008DB010008DB010008DB0100081F
:10015000DB010008DB010008DB010008DB0100080F
:10016000DB010008DB010008DB010008DB010008FF
:10017000DB010008DB010008DB01000800000000D3
:10018000DB010008DB010008DB010008DB010008DF
:10019000DB010008DB010008DB01000800000000B3
:1001A000DB010008DB010008DB010008DFF80CD0F0
:1001B00000F04AF800480047DD1F00083004002026
:1001C0000648804706480047FEE7FEE7FEE7FEE7F1
:1001D000FEE7FEE7FEE7FEE7FEE7FEE7891600081A
:1001E000AD0100082DE9F05F0546002092469B46D0
:1001F00088460646814640241BE02846414647463D
:10020000224600F042F853465A46C01A914110D394
:1002100011461846224600F029F82D1A67EB01080E
:100220004F4622460120002100F020F817EB00097C
:100230004E41201EA4F10104DFDC484631462A4627
:100240004346BDE8F09F0000064C074D06E0E0681D
:1002500040F0010394E8070098471034AC42F6D30D
:10026000FFF7A8FFC8DE0B08E8DE0B08202A04DB36
:10027000203A00FA02F1002070479140C2F12003B9
:1002800020FA03F3194390407047202A04DB203AF8
:1002900021FA02F00021704721FA02F3D040C2F1A6
:1002A00020029140084319467047000070B505468A
:1002B0000E46214C608900F0CFF9C5F30F2000F005
:1002C000C5F96089401C80B200F0C6F9E8B200F0C0
:1002D000BDF96089801C80B200F0BEF9C6F30F2022
:1002E00000F0B4F96089C01C80B200F0B5F9F0B23A
:1002F00000F0ACF9A08900F0AFF9C2F30F2000F0D4
:10030000A5F9A089401C80B200F0A6F9D0B200F097
:100310009DF9A089801C80B200F09EF9C3F30F20E4
:1003200000F094F9A089C01C80B200F095F9BDE8F6
:100330007040D8B200F08AB910000020FEE7704784
:10034000FEE7000070B5064600240948018843888E
:1003500003FB01F500221046FFF7A8FF00F088F923
:1003600003E0304600F07EF9641CAC42F9D370BD66
:100370001000002070B540F6034001F01FFF0F4C45
:100380004FF4005501222B461146204601F0DEFDB8
:100390002B4602220021204601F0FCFDA5142B462D
:1003A00000220121204601F0D1FD2B462046BDE868
:1003B00070400222002101F0EDBD0000000C02405F
:1003C0002DE9F0439DB040F6034001F0F7FE40F602
:1003D000044001F0F3FE40F6064001F0EFFE394F15
:1003E0004CF2337422460C21384601F079FDDFF8D7
:1003F000D8804FF680752A460C21404601F070FDEA
:10040000DFF8C89041F2010632460C21484601F05F
:1004100067FD234601220221384601F097FD23465D
:1004200002220021384601F0B5FD2B4601220221AF
:10043000404601F08BFD2B4602220021404601F090
:10044000A9FD334601220221484601F07FFD3346D3
:1004500002220021484601F09DFD4FF4606001F04A
:10046000ADFE002007900890310509910A904822BE
:100470000B920C9012220D92009001900291039029
:10048000042104910590032106910E911A90199070
:100490001021189117901690119015901490012129
:1004A0001391129010910F9007A81B90CDF870D067
:1004B0000EA801F0A1FC032001F096FC1DB0BDE8E0
:1004C000F0830000000C02400010024000180240BF
:1004D00008484FF4F07101804FF4487141804FF4A7
:1004E000285141814FF42C5181814FF430510181C9
:1004F000704700001000002010B5FFF73BFFFFF72A
:100500005FFF00F0C7F8FFF7E3FF00F02BF90020D2
:1005100000F024F84FF6FF70FFF714FFBDE810401D
:100520004FF40051014801F00FBD0000000C0240E3
:1005300001480088704700000008006C00B500F01A
:100540008BF8052001F068FBFFF7F2FF4FF6FF7113
:1005500001EA0021FFF7ECFF084300BD00B50021D0
:10056000082812D2DFE800F0110406080A0C0E1069
:1005700080210AE0402108E0C02106E0202104E0BB
:10058000602102E0A02100E0E0214FF4585000F08B
:1005900079F8244A508900F05FF8002000F056F8FE
:1005A0005089401C80B200F057F8002000F04EF84F
:1005B0005089801C80B200F04FF81088401EC0F3B4
:1005C0000F2000F043F85089C01C80B200F044F8BE
:1005D0001078401EC0B200F039F8908900F03CF865
:1005E000002000F033F89089401C80B200F034F80D
:1005F000002000F02BF89089801C80B200F02CF8CD
:100600005088401EC0F30F2000F020F89089C01CD5
:1006100080B200F021F890785DF804EB401EC0B283
:1006200000F014B81000002030B5DDE90345FFF7F5
:100630003DFE00F01DF8002204E034F8120000F046
:1006400011F8521CAA42F8DB30BD000001490880B5
:10065000704700000008006C0149088070470000E6
:10066000FE07006C01490880704700000008006C1C
:1006700002480349008908807047000010000020EC
:10068000FE07006C024A1080901C01807047000039
:10069000FE07006C70B5322001F0ACFA0121002099
:1006A000FFF7F0FF322001F0A5FA0020FFF746FF28
:1006B000204CA080204E4FF480552946304601F052
:1006C00043FC0A2001F096FA2946304601F03AFC34
:1006D000322001F08FFA2946304601F035FC7820AF
:1006E00001F088FA4FF45A40FFF7B6FFFFF720FFFA
:1006F000A0804FF45B40FFF7AFFFFFF719FF4FF605
:10070000FF7101EA0020A0804FF45C40FFF7A4FFD6
:10071000FFF70EFFA1880843A080014607A000F064
:10072000FFFFA28804F10E00BDE8704009A101F0AE
:1007300007B8000010000020000C02404E54333572
:10074000353130204C43442049443A253034580D4B
:100750000A0000004C43442049443A2530345800F4
:10076000FEE770472DE9F05F4FF4704355211846BE
:10077000FFF788FF4FF20104AA212046FFF782FF0E
:10078000651C52212846FFF77DFFA61C0821304634
:10079000FFF778FFE71C01213846FFF773FF0D21B3
:1007A0004FF43040FFF76EFF0D214BF20100FFF7D1
:1007B00069FF0D214BF20200FFF764FF4FF436484A
:1007C00034214046FFF75EFF34214BF20160FFF712
:1007D00059FF34214BF20260FFF754FF4FF43149C7
:1007E0000D214846FFF74EFF4BF2011A0D215046EE
:1007F000FFF748FF0D214BF20210FFF743FF4FF4C4
:10080000374B34215846FFF73DFF34214BF201703E
:10081000FFF738FF34214BF20270FFF733FF00215E
:100820004FF43240FFF72EFF00214BF20120FFF77B
:1008300029FF00214BF20220FFF724FF24214FF46F
:100840003840FFF71FFF24214BF60100FFF71AFF86
:1008500024214BF60200FFF715FF01214FF43F4022
:10086000FFF710FF0F214FF43340FFF70BFF0F216D
:100870004BF20130FFF706FF0F214BF20230FFF77A
:1008800001FF34214FF43940FFF7FCFE34214BF6D1
:100890000110FFF7F7FE34214BF60210FFF7F2FECE
:1008A00008214FF43540FFF7EDFE08214BF20150CF
:1008B000FFF7E8FE08214BF20250FFF7E3FE0321A9
:1008C0004FF44240FFF7DEFE24214FF43A40FFF799
:1008D000D9FE24214BF60120FFF7D4FE24214BF64C
:1008E0000220FFF7CFFE00214FF43C40FFF7CAFE85
:1008F00078214BF60140FFF7C5FE00214BF6024080
:10090000FFF7C0FE00214FF43D40FFF7BBFE78210A
:100910004BF60150FFF7B6FE00214BF60250FFF7F1
:10092000B1FE00214FF43E40FFF7ACFE64214BF6D0
:100930000160FFF7A7FE00214FF45140FFF7A2FE30
:1009400033214DF20110FFF79DFE00214DF2021000
:10095000FFF798FE34214DF20310FFF793FE0021BC
:100960004DF20410FFF78EFE3A214DF20510FFF70D
:1009700089FE00214DF20610FFF784FE4A214DF258
:100980000710FFF77FFE00214DF20810FFF77AFEF7
:100990005C214DF20910FFF775FE00214DF20A109F
:1009A000FFF770FE81214DF20B10FFF76BFE002167
:1009B0004DF20C10FFF766FEA6214DF20D10FFF769
:1009C00061FE00214DF20E10FFF75CFEE5214DF2B5
:1009D0000F10FFF757FE01214DF21010FFF752FEE6
:1009E00013214DF21110FFF74DFE01214DF21210AF
:1009F000FFF748FE54214DF21310FFF743FE01218B
:100A00004DF21410FFF73EFE82214DF21510FFF754
:100A100039FE01214DF21610FFF734FECA214DF2C6
:100A20001710FFF72FFE02214DF21810FFF72AFED4
:100A300000214DF21910FFF725FE02214DF21A1088
:100A4000FFF720FE01214DF21B10FFF71BFE0221D4
:100A50004DF21C10FFF716FE34214DF21D10FFF76A
:100A600011FE02214DF21E10FFF70CFE67214DF220
:100A70001F10FFF707FE02214DF22010FFF702FEC4
:100A800084214DF22110FFF7FDFD02214DF22210CD
:100A9000FFF7F8FDA4214DF22310FFF7F3FD02212B
:100AA0004DF22410FFF7EEFDB7214DF22510FFF7B0
:100AB000E9FD02214DF22610FFF7E4FDCF214DF2B2
:100AC0002710FFF7DFFD02214DF22810FFF7DAFDB6
:100AD000DE214DF22910FFF7D5FD02214DF22A103B
:100AE000FFF7D0FDF2214DF22B10FFF7CBFD0221D5
:100AF0004DF22C10FFF7C6FDFE214DF22D10FFF731
:100B0000C1FD03214DF22E10FFF7BCFD10214DF267
:100B10002F10FFF7B7FD03214DF23010FFF7B2FDA4
:100B200033214DF23110FFF7ADFD03214DF23210AC
:100B3000FFF7A8FD6D214DF23310FFF7A3FD002153
:100B40004FF45240FFF79EFD33214DF20120FFF795
:100B500099FD00214DF20220FFF794FD34214DF262
:100B60000320FFF78FFD00214DF20420FFF78AFDDF
:100B70003A214DF20520FFF785FD00214DF20620B8
:100B8000FFF780FD4A214DF20720FFF77BFD002192
:100B90004DF20820FFF776FD5C214DF20920FFF7AA
:100BA00071FD00214DF20A20FFF76CFD81214DF20D
:100BB0000B20FFF767FD00214DF20C20FFF762FDCF
:100BC000A6214DF20D20FFF75DFD00214DF20E2014
:100BD000FFF758FDE5214DF20F20FFF753FD0121EE
:100BE0004DF21020FFF74EFD13214DF21120FFF7BB
:100BF00049FD01214DF21220FFF744FD54214DF231
:100C00001320FFF73FFD01214DF21420FFF73AFDBD
:100C100082214DF21520FFF735FD01214DF21620FE
:100C2000FFF730FDCA214DF21720FFF72BFD0221FF
:100C30004DF21820FFF726FD00214DF21920FFF795
:100C400021FD02214DF21A20FFF71CFD01214DF27A
:100C50001B20FFF717FD02214DF21C20FFF712FDAC
:100C600034214DF21D20FFF70DFD02214DF21E2013
:100C7000FFF708FD67214DF21F20FFF703FD02215A
:100C80004DF22020FFF7FEFC84214DF22120FFF7DA
:100C9000F9FC02214DF22220FFF7F4FCA4214DF2D1
:100CA0002320FFF7EFFC02214DF22420FFF7EAFC9E
:100CB000B7214DF22520FFF7E5FC02214DF2262059
:100CC000FFF7E0FCCF214DF22720FFF7DBFC0221EC
:100CD0004DF22820FFF7D6FCDE214DF22920FFF748
:100CE000D1FC02214DF22A20FFF7CCFCF2214DF27B
:100CF0002B20FFF7C7FC02214DF22C20FFF7C2FC8E
:100D0000FE214DF22D20FFF7BDFC03214DF22E20D8
:100D1000FFF7B8FC10214DF22F20FFF7B3FC0321A1
:100D20004DF23020FFF7AEFC33214DF23120FFF7BA
:100D3000A9FC03214DF23220FFF7A4FC6D214DF2F6
:100D40003320FFF79FFC00214FF45340FFF79AFC3C
:100D500033214DF20130FFF795FC00214DF20230B6
:100D6000FFF790FC34214DF20330FFF78BFC00219C
:100D70004DF20430FFF786FC3A214DF20530FFF7C3
:100D800081FC00214DF20630FFF77CFC4A214DF238
:100D90000730FFF777FC00214DF20830FFF772FCB7
:100DA0005C214DF20930FFF76DFC00214DF20A3055
:100DB000FFF768FC81214DF20B30FFF763FC002147
:100DC0004DF20C30FFF75EFCA6214DF20D30FFF71F
:100DD00059FC00214DF20E30FFF754FCE5214DF295
:100DE0000F30FFF74FFC01214DF21030FFF74AFCA6
:100DF00013214DF21130FFF745FC01214DF2123065
:100E0000FFF740FC54214DF21330FFF73BFC01216A
:100E10004DF21430FFF736FC82214DF21530FFF70A
:100E200031FC01214DF21630FFF72CFCCA214DF2A6
:100E30001730FFF727FC02214DF21830FFF722FC94
:100E400000214DF21930FFF71DFC02214DF21A303E
:100E5000FFF718FC01214DF21B30FFF713FC0221B4
:100E60004DF21C30FFF70EFC34214DF21D30FFF720
:100E700009FC02214DF21E30FFF704FC67214DF200
:100E80001F30FFF7FFFB02214DF22030FFF7FAFB86
:100E900084214DF22130FFF7F5FB02214DF2223083
:100EA000FFF7F0FBA4214DF22330FFF7EBFB02210B
:100EB0004DF22430FFF7E6FBB7214DF22530FFF766
:100EC000E1FB02214DF22630FFF7DCFBCF214DF292
:100ED0002730FFF7D7FB02214DF22830FFF7D2FB76
:100EE000DE214DF22930FFF7CDFB02214DF22A30F1
:100EF000FFF7C8FBF2214DF22B30FFF7C3FB0221B5
:100F00004DF22C30FFF7BEFBFE214DF22D30FFF7E6
:100F1000B9FB03214DF22E30FFF7B4FB10214DF247
:100F20002F30FFF7AFFB03214DF23030FFF7AAFB64
:100F300033214DF23130FFF7A5FB03214DF2323062
:100F4000FFF7A0FB6D214DF23330FFF79BFB002133
:100F50004FF45440FFF796FB33214DF20140FFF769
:100F600091FB00214DF20240FFF78CFB34214DF242
:100F70000340FFF787FB00214DF20440FFF782FB9F
:100F80003A214DF20540FFF77DFB00214DF206406E
:100F9000FFF778FB4A214DF20740FFF773FB002172
:100FA0004DF20840FFF76EFB5C214DF20940FFF760
:100FB00069FB00214DF20A40FFF764FB81214DF2ED
:100FC0000B40FFF75FFB00214DF20C40FFF75AFB8F
:100FD000A6214DF20D40FFF755FB00214DF20E40CA
:100FE000FFF750FBE5214DF20F40FFF74BFB0121CE
:100FF0004DF21040FFF746FB13214DF21140FFF771
:1010000041FB01214DF21240FFF73CFB54214DF210
:101010001340FFF737FB01214DF21440FFF732FB7D
:1010200082214DF21540FFF72DFB01214DF21640B4
:10103000FFF728FBCA214DF21740FFF723FB0221DF
:101040004DF21840FFF71EFB00214DF21940FFF74B
:1010500019FB02214DF21A40FFF714FB01214DF25A
:101060001B40FFF70FFB02214DF21C40FFF70AFB6C
:1010700034214DF21D40FFF705FB02214DF21E40C9
:10108000FFF700FB67214DF21F40FFF7FBFA02213B
:101090004DF22040FFF7F6FA84214DF22140FFF790
:1010A000F1FA02214DF22240FFF7ECFAA4214DF2B1
:1010B0002340FFF7E7FA02214DF22440FFF7E2FA5E
:1010C000B7214DF22540FFF7DDFA02214DF226400F
:1010D000FFF7D8FACF214DF22740FFF7D3FA0221CC
:1010E0004DF22840FFF7CEFADE214DF22940FFF7FE
:1010F000C9FA02214DF22A40FFF7C4FAF2214DF25B
:101100002B40FFF7BFFA02214DF22C40FFF7BAFA4D
:10111000FE214DF22D40FFF7B5FA03214DF22E408E
:10112000FFF7B0FA10214DF22F40FFF7ABFA032181
:101130004DF23040FFF7A6FA33214DF23140FFF770
:10114000A1FA03214DF23240FFF79CFA6D214DF2D6
:101150003340FFF797FA00214FF45540FFF792FA1A
:1011600033214DF20150FFF78DFA00214DF202506C
:10117000FFF788FA34214DF20350FFF783FA00217C
:101180004DF20450FFF77EFA3A214DF20550FFF779
:1011900079FA00214DF20650FFF774FA4A214DF218
:1011A0000750FFF76FFA00214DF20850FFF76AFA77
:1011B0005C214DF20950FFF765FA00214DF20A500B
:1011C000FFF760FA81214DF20B50FFF75BFA002127
:1011D0004DF20C50FFF756FAA6214DF20D50FFF7D5
:1011E00051FA00214DF20E50FFF74CFAE5214DF275
:1011F0000F50FFF747FA01214DF21050FFF742FA66
:1012000013214DF21150FFF73DFA01214DF212501A
:10121000FFF738FA54214DF21350FFF733FA01214A
:101220004DF21450FFF72EFA82214DF21550FFF7C0
:1012300029FA01214DF21650FFF724FACA214DF286
:101240001750FFF71FFA02214DF21850FFF71AFA54
:1012500000214DF21950FFF715FA02214DF21A50F4
:10126000FFF710FA01214DF21B50FFF70BFA022194
:101270004DF21C50FFF706FA34214DF21D50FFF7D6
:1012800001FA02214DF21E50FFF7FCF967214DF2E1
:101290001F50FFF7F7F902214DF22050FFF7F2F946
:1012A00084214DF22150FFF7EDF902214DF2225039
:1012B000FFF7E8F9A4214DF22350FFF7E3F90221EB
:1012C0004DF22450FFF7DEF9B7214DF22550FFF71C
:1012D000D9F902214DF22650FFF7D4F9CF214DF272
:1012E0002750FFF7CFF902214DF22850FFF7CAF936
:1012F000DE214DF22950FFF7C5F902214DF22A50A7
:10130000FFF7C0F9F2214DF22B50FFF7BBF9022194
:101310004DF22C50FFF7B6F9FE214DF22D50FFF79C
:10132000B1F903214DF22E50FFF7ACF910214DF227
:101330002F50FFF7A7F903214DF23050FFF7A2F924
:1013400033214DF23150FFF79DF903214DF2325018
:10135000FFF798F96D214DF23350FFF793F9002113
:101360004FF45640FFF78EF933214DF20160FFF73D
:1013700089F900214DF20260FFF784F934214DF222
:101380000360FFF77FF900214DF20460FFF77AF95F
:101390003A214DF20560FFF775F900214DF2066024
:1013A000FFF770F94A214DF20760FFF76BF9002152
:1013B0004DF20860FFF766F95C214DF20960FFF716
:1013C00061F900214DF20A60FFF75CF981214DF2CD
:1013D0000B60FFF757F900214DF20C60FFF752F94F
:1013E000A6214DF20D60FFF74DF900214DF20E6080
:1013F000FFF748F9E5214DF20F60FFF743F90121AE
:101400004DF21060FFF73EF913214DF21160FFF726
:1014100039F901214DF21260FFF734F954214DF2F0
:101420001360FFF72FF901214DF21460FFF72AF93D
:1014300082214DF21560FFF725F901214DF216606A
:10144000FFF720F9CA214DF21760FFF71BF90221BF
:101450004DF21860FFF716F900214DF21960FFF701
:1014600011F902214DF21A60FFF70CF901214DF23A
:101470001B60FFF707F902214DF21C60FFF702F92C
:1014800034214DF21D60FFF7FDF802214DF21E6080
:10149000FFF7F8F867214DF21F60FFF7F3F802211C
:1014A0004DF22060FFF7EEF884214DF22160FFF746
:1014B000E9F802214DF22260FFF7E4F8A4214DF291
:1014C0002360FFF7DFF802214DF22460FFF7DAF81E
:1014D000B7214DF22560FFF7D5F802214DF22660C5
:1014E000FFF7D0F8CF214DF22760FFF7CBF80221AC
:1014F0004DF22860FFF7C6F8DE214DF22960FFF7B4
:10150000C1F802214DF22A60FFF7BCF8F2214DF23A
:101510002B60FFF7B7F802214DF22C60FFF7B2F80D
:10152000FE214DF22D60FFF7ADF803214DF22E6044
:10153000FFF7A8F810214DF22F60FFF7A3F8032161
:101540004DF23060FFF79EF833214DF23160FFF726
:1015500099F803214DF23260FFF794F86D214DF2B6
:101560003360FFF78FF855211846FFF78BF8AA2153
:101570002046FFF787F852212846FFF783F8082115
:101580003046FFF77FF800213846FFF77BF8CC2183
:101590004846FFF777F800215046FFF773F805211A
:1015A0004046FFF76FF870215846FFF76BF870213F
:1015B0004BF20170FFF766F801214FF43840FFF756
:1015C00061F803214BF60100FFF75CF803214BF6AD
:1015D0000200FFF757F803214BF60300FFF752F81C
:1015E00002214FF43C40FFF74DF800214BF601403B
:1015F000FFF748F800214BF60240FFF743F8D021EF
:101600004FF44940FFF73EF802214CF60110FFF776
:1016100039F850214CF60210FFF734F850214CF6FF
:101620000310FFF72FF850214CF60410FFF72AF8AB
:1016300000214FF45450FFF725F855214FF468501E
:10164000FFF720F84FF48850FFF706F8782000F0F5
:10165000D1FABDE8F05F4FF42450FEF7FDBF090753
:10166000090E002806DA00F00F0000F1E02080F8F3
:10167000141D704700F1E02080F800147047704797
:10168000704700F0BFBA000018B42048016841F468
:10169000700101601E48016841F0010101600168AC
:1016A0008907FCD51A4A0832116841F0800111609F
:1016B0000023009302E00099491C009100995029F1
:1016C000F9D3116841F090011160009302E0009994
:1016D000491C009100995029F9D3116821F00301A8
:1016E000116001680B4C21400160016821F48021E8
:1016F00001601360106806490748091D0860044826
:101700000C30036018BC00F0DFBD000088ED00E085
:1017100000380240FFFFF6FE10300024FEE7000014
:101720000FB4054B10B503A9044A029800F02CF839
:1017300010BC5DF814FB0000B51E00080C00002072
:101740000FB4084B10B504A902AA039800F01CF8C6
:10175000044602A9002000F048FA204610BC5DF8BB
:1017600014FB0000EB1B000802E008C8121F08C1B0
:10177000002AFAD170477047002001E001C1121F12
:10178000002AFBD1704700002DE9FF4F8DB00F46B6
:101790000546002606E025280BD0DDE90F1290470C
:1017A0006D1C761C28780028F5D111B03046BDE8B4
:1017B000F08F0024A246A1460122EC4900E0044338
:1017C00015F8013F203B02FA03F00842F7D12878D0
:1017D0002A2810D06FF02F022878A0F130010929B3
:1017E00014D80AEB8A0102EB410144F0020400EB39
:1017F000010A6D1CF0E701CF5FEA000A03D544F44B
:101800000054CAF1000A44F002046D1C28782E2806
:1018100017D115F8010F44F004042A280ED06FF0F8
:101820002F022878A0F1300109290AD809EB890193
:1018300002EB410100EB01096D1CF2E757F8049B34
:101840006D1C28786C280FD006DC4C2817D068282F
:101850000DD06A2814D104E0742810D07A280FD152
:101860000DE044F400140AE044F4801401E044F470
:1018700040146978814202D104F580146D1C6D1CFE
:101880002A786E2A1FD00CDC632A31D004DC002AAF
:101890008BD0582A11D1A3E0642A68D0692A0CD1D0
:1018A00065E0732A2ED004DC6F2A73D0702A04D12D
:1018B0009BE0752A6FD0782A6ED01046DDE90F12B2
:1018C0009047761C50E1C4F30250022806D003284A
:1018D00009D0042801CF09D0066045E101CFF117F6
:1018E000C0E9006140E101CF06803DE106703BE1C7
:1018F00017F8040B8DF8000000208DF80100EB466E
:10190000012003E057F804BB4FF0FF3061074FF0B0
:10191000000102D40DE008F10101884649450FDAC3
:101920008045F8DB1BF808100029F4D108E008F125
:10193000010188468142FADB1BF808100029F6D124
:10194000DDE90F23AAEB08008146214600F036F9B5
:10195000304400EB080604E0DDE90F121BF8010B30
:101960009047B8F10108F7D221464846F7E00A212E
:10197000C4F302534FF0000B0891022B04D001CFA7
:10198000C117032B09D00AE0FF1D27F00707F7E86E
:10199000020108E032E01FE020E000B2C117042B92
:1019A00001D140B2C117031E71F1000307DA4FF0F5
:1019B000000CD0EB0C006CEB01012D2302E02305A1
:1019C00004D52B238DF82430012303E0E30701D055
:1019D0002023F7E7984658E00A2110E010210EE096
:1019E00010204FF0000B08900CE010214FF0000B7E
:1019F00044F004044FF00809089103E008214FF077
:101A0000000B0891C4F30253022B04D001CF002134
:101A1000032B06D006E0FF1D27F00707F7E80201B9
:101A200003E080B2042B00D1C0B24FF000082307BE
:101A30002BD5702A07D0DDF820C08CF0100C5CEAA2
:101A40000B0C05D00EE040238DF82430012308E074
:101A500050EA010306D030238DF824308DF825207C
:101A600002239846DDF820C08CF0080C5CEA0B0CD1
:101A70000BD150EA010301D1630706D530238DF85D
:101A800024304FF00108A9F10109582A04D038A2E6
:101A90000B9208AA0A920BE03AA2F9E75B46089A71
:101AA000FEF7A0FB0B9B9B5C0A9A521E0A921370D6
:101AB00050EA0102F2D10A98ADEB000000F1200BD0
:101AC000600702D524F4803401E04FF00109D945C4
:101AD00002DDA9EB0B0000E0002000EB0B0141440C
:101AE0000890AAEB010AE00306D4DDE90F232146A2
:101AF000504600F063F806444FF0000908E009A9D9
:101B000011F80900DDE90F12904709F10109761C6F
:101B1000C145F4DBE0030CD5DDE90F232146504637
:101B200000F04CF8064404E0DDE90F123020904745
:101B3000761C0899481E08900029F5DC08E00A98F0
:101B40000A990078491C0A91DDE90F129047761C2A
:101B5000BBF10001ABF1010BF1DC21465046DDE9A0
:101B60000F2300F019F806446D1C1BE6092801003C
:101B70003031323334353637383961626364656603
:101B800000000000303132333435363738394142C5
:101B900043444546000000002DE9F041044600257D
:101BA0001E461746880404D405E039462020B04775
:101BB0006D1C641EF9D52846BDE8F0812DE9F04181
:101BC000044600251E469046C80301D5302700E094
:101BD0002027880404D505E041463846B0476D1CEF
:101BE000641EF9D52846BDE8F0810A68531C0B60D5
:101BF000107070470249086008680028FCD17047DF
:101C00000000002003480168002902D00168491E35
:101C1000016070470000002005E000BF00BF00BF6A
:101C200000BF00BF00BF401E80B2F6D2704701EB7C
:101C3000410100EBC100016921F001010161704720
:101C400001EB410100EBC100016941F001010161BB
:101C5000704701EB410100EBC100016921F06061B7
:101C600041EA42610161704701EB410200EBC202AF
:101C7000136923F00103136100231361536193611E
:101C8000D361136253623D2204290BD201EB41035D
:101C90005B00C1F3400103EB81018A4081680A4384
:101CA00082607047091F01EB41035B00C1F34001F3
:101CB00003EB81018A40C1680A43C260704704296E
:101CC0000BD201EB41035B00C1F3400103EB810147
:101CD0008A4081680A4382607047091F01EB410313
:101CE0005B00C1F3400103EB81018A40C1680A43F4
:101CF000C260704704290ED201EB41035B00C1F3BF
:101D0000400103EB810100688A40024201D00120BA
:101D1000704700207047091F01EB41035B00C1F3CE
:101D2000400103EB810140688A40024201D001205A
:101D300070470020704701EB410100EBC100002A11
:101D400001D003627047C3617047000030B501EBFA
:101D5000410100EBC100416A21F0040141621168B8
:101D600081619168C161D169416103691A490B4080
:101D7000146A116995690C4345EA81010C4344EAF0
:101D8000030101615168002912D0012915D00169B0
:101D900041F400410161D168A1B1016921F4806180
:101DA0000161516999B1016921F48071016130BD0E
:101DB000016941F400710161EDE7016921F40071ED
:101DC0000161E8E7016941F480610161E9E70169C6
:101DD00041F48071016130BD3F87FCFF01EB41019F
:101DE00000EBC10042617047C000A0F1C040016833
:101DF00041F0010101607047F0B50168CC00A4F129
:101E0000C04421682A4A1140D0E90A23056B466A7A
:101E10006D001A4345EA06252A43056AC6682A4327
:101E2000C56942EA852285692A43456942EA053245
:101E3000056942EA4532856842EA853242EAC6329D
:101E4000466832430A43416BD1E9057646EA0716F4
:101E50000F69B1F80CC03F0247EA0C473E438F6858
:101E60003E434F6809683E430E43082B01D142F0C0
:101E70004002012D0ED06FF0704322600168C9004E
:101E8000A1F1C0414E600068C000A0F1C040C0F8A0
:101E90000431F0BD816BD1E9055343EA05130D69A7
:101EA0008F892D0245EA074509682B430B43E4E778
:101EB0008100F7FF10B5084908700121064800F0BD
:101EC0002BFA064C202207212046FFF713FF00289B
:101ED000F8D0002010BD000008000020006402407F
:101EE0002DE9F043046A456A002301274FF00F0CE7
:101EF00007FA03F6164208D09E000CFA06F824EA08
:101F0000080401FA06F848EA04045B1C9BB2082B9B
:101F1000EED3082307FA03F818EA020F0AD0A3F158
:101F20000806B6000CFA06F825EA080501FA06F9D3
:101F300049EA05055B1C9BB2102BEBD3046245629A
:101F4000BDE8F08381627047816170472DE9F047F9
:101F50000568C66800244FF001084FF0030908FA2D
:101F600004F71F420ED0670009FA07FC25EA0C05AA
:101F700001FA07FA4AEA050526EA0C0602FA07FC06
:101F80004CEA0606641CA4B2102CE8D30560C660B7
:101F9000BDE8F0872DE9F04101291AD04168994345
:101FA0004160846800214FF001084FF0030C08FAEB
:101FB00001F71F4206D04D000CFA05F6B44302FAB1
:101FC00005F63443491C89B21029F0D38460BDE87A
:101FD000F081416819434160E3E700001CB500F05F
:101FE00075F94FF4A06000F06DF84FF4E13000F0A7
:101FF00087FA09A0FFF794FBFEF77EFA0848094923
:10200000CDE9001000224FF448734FF4F0711046F0
:10201000FEF70AFBFEE7000068656C6C6F0D0A00B6
:1020200000DC0500C826000870B505460E460023F2
:10203000002423480168C1F30221072932D0016836
:10204000C1F3022106292FD00168C1F3022105291D
:102050002DD00168C1F3022104292BD00068C0F300
:102060000220032829D04FF4A06000F02BF80223AF
:102070000224C3F104008640C4F104010F20C840CB
:1020800010403043000105F1E02181F8000405F023
:102090001F01012088406909890001F1E021C1F890
:1020A000000170BD0424E4E701230324E1E70223D7
:1020B0000224DEE703230124DBE70423D9E7000041
:1020C0000CED00E002490843024908607047000037
:1020D0000000FA050CED00E0F0B588B002460020E3
:1020E0002FA104AE91E83800C96838C607912DA128
:1020F0000AC9CDE902132BA10AC9CDE900132C4C62
:102100002168C1F381012B4B002925D0DFF8A8C03D
:10211000012923D0022923D019462368C3F30313CE
:1021200004ADEB5C21FA03F32568C5F3822502AE0A
:10213000755D23FA05F52468C4F342341DF80440A4
:1021400023FA04F432B3012A26D0022A26D0032A25
:1021500000D1204608B0F0BD1946DEE76146DCE755
:102160001349091F0D6805F03F050E68C6F3881670
:102170000F68C7F301477F1C7F00096801F48001E5
:10218000B1F5800F00D16346B3FBF5F17143B1FBAC
:10219000F7F1C2E70846DDE71846DBE72846D9E74E
:1021A0000000000000000000010203040607080907
:1021B000083802400024F40040787D01064901EB14
:1021C0009011D1F8002800F01F030120984002432D
:1021D000C1F800287047000000300240064901EBBA
:1021E0009011D1F8002800F01F030120984082438D
:1021F000C1F800287047000000300240064901EB9A
:102200009011D1F8002800F01F03012098400243EC
:10221000C1F80028704700000030024010B50020CF
:10222000264A116841F0010111604FF4A063401C7F
:10223000116801F0020109B99842F8D110688007CD
:1022400000D4FEE71D484030016841F08051016034
:102250001B49086840F4404008601848083003688B
:102260000360036843F400430360036843F4A0532E
:102270000360041F134B2360136843F080731360E3
:1022800013689B01FCD50A6842F480320A604A68F0
:10229000D203FCD50A6842F400320A604A6892030D
:1022A000FCD5016821F003010160016841F00201E1
:1022B000016001680907FCD510BD0000003802402C
:1022C000007000401078000AFFF7A8BF70B51148F1
:1022D0004FF47A710068B0FBF1F1491E4FF0FF3501
:1022E000B1F1807F01D301210BE04FF0E024616167
:1022F0000F212846FFF7B3F90020A06107202061D5
:10230000002101B1FEE72846BDE870400021FFF73B
:10231000A6B900000400002070B505460E460D4C1D
:1023200007212046FFF783FC202207212046FFF7E4
:10233000C6FC2B46002207212046FFF7FCFC324654
:1023400007212046FFF74AFD07212046FFF778FCCA
:10235000002070BD0064024070B504460D460020A8
:10236000294AA11A131594422DD00BDC2749621873
:1023700019D09A421BD0B2F5006F1CD0B2F5406F55
:1023800028D11CE0994222D0B1F5184F03D0B1F505
:102390001C4F1FD103E00320FFF79EFE1AE003202D
:1023A000FFF79AFE16E00220FFF796FE12E00220E9
:1023B000FFF792FE0EE00220FFF78EFE0AE00220F9
:1023C000FFF78AFE06E00220FFF786FE02E0022009
:1023D000FFF782FEE1680A044FF6F0710AD540006B
:1023E00000EB5500B0FBF5F00140C0F34202114391
:1023F000A16070BD00EB5500B0FBF5F0014000F0AE
:102400000F021143A16070BD0078004000BCFFBF07
:1024100050F8802F22F400620A43026070470000E7
:1024200010B5354A811A131590424FD014DC334948
:1024300040182DD0984235D0B0F5006F3CD0B0F5A3
:10244000406F57D140F614042046FFF7D7FE2046D0
:10245000BDE81040FFF7C2BE994241D0B1F5184F18
:102460000CD0B1F51C4F45D140F605142046FFF7BE
:10247000C5FE2046BDE81040FFF7B0BE40F604148C
:102480002046FFF7BBFE2046BDE81040FFF7A6BE82
:1024900040F611042046FFF7B1FE2046BDE810408B
:1024A000FFF79CBE40F612042046FFF7A7FE204629
:1024B000BDE81040FFF792BE40F613042046FFF738
:1024C0009DFE2046BDE81040FFF788BE40F61E0482
:1024D0002046FFF793FE2046BDE81040FFF77EBE82
:1024E00040F61F042046FFF789FE2046BDE8104055
:1024F000FFF774BE10BD00000078004000BCFFBFB5
:1025000010B5044600F042F8204600F07DF8BDE822
:102510001040014800F00CB804100140426922F05C
:1025200080024261426901F080010A4342617047C2
:1025300030B589B0044640F61640FFF73FFE0F4D18
:1025400007212846FFF790FB4020069000200390CB
:1025500000940121019104904FF4403008900591BE
:102560006A4607212846FFF7F1FB04220721284687
:10257000FFF76FFB09B0002030BD0000006402408F
:10258000C16841F40051C1607047000070B54FF45C
:102590004060FFF713FE41F20410FFF70FFE144EE8
:1025A0004FF48064224607213046FFF799FC6510FE
:1025B0002A4607213046FFF793FC234601220221D9
:1025C0003046FFF7C3FC2B46012202213046FFF7BD
:1025D000BDFC2346022200213046FFF7DBFC2B46E0
:1025E0003046BDE8704002220021FFF7D3BC000056
:1025F0000000024000EB9110026801F01F0301216E
:1026000099400A430260704770B505461B4C20464E
:10261000FFF706FF29462046FFF79EFE00212046D1
:1026200000F02EF80021204600F046F80021204658
:1026300000F034F800212046FFF7EAFE2046FFF7BD
:102640009FFF0821204600F031F80421204600F0C9
:102650001FF8022211462520FFF7E6FC40F2053163
:102660002046FFF7C7FF4FF441712046FFF7C2FF36
:102670002046BDE870408021FFF750BF00100140A8
:10268000C26822F4C062C260C2680A43C260704776
:10269000C26822F004020A43C2607047026922F451
:1026A0004052026102690A4302617047C26822F027
:1026B00008020A43C2607047C26822F48052C260B6
:1026C000C2680A43C26070474963486349636963EB
:1026D000696369636963696369636963695B896382
:1026E000896389638963896389638963896389638A
:1026F0008963896389636A636A6B6B6B33A517C6E9
:1027000017C617C617C617C617C617C617C617C6E1
:1027100017C6F8C5F7C5F7C5F7C5D6BDD6BDD6BD32
:10272000D6BDB6BDB6C5B6C574BDB1A4CD8BA96ABC
:102730006762876AA762A86AA96AA972A86AC96A51
:102740000A6B5094B6BDD7BDD8BDB8BD98B597B586
:1027500097AD97AD97AD97B597B5B7B5D7BDD8BD80
:10276000F8BD18C618C618C618C618C618C618C6A2
:1027700018CE18CEF8CD719C685A064A07522752D7
:1027800027524752485A685A885A685A685A896282
:102790002B7313B595BD95C594BDB5C595C595C5A8
:1027A00095BD75BD74BD74BD54BD33B533B533B57A
:1027B00054B574BD95BDB5C5B5C5B5C574BDB1A499
:1027C0008C7B485AE649E649E649E649E649E64946
:1027D000E649E649E649E649064A075227522752A2
:1027E000885ACA620A6B8C7B919C13AD33B533B5A2
:1027F00033AD33AD13AD13AD13AD33AD34B555B506
:1028000075B596B5B6BDB6BDB6BDB6BDD6BDB6BD81
:1028100096B575B555B555B575B595B5F7C513A547
:10282000074AA539C641E641E649064A27524752BA
:1028300048524852485A485248526852695ACA62E5
:102840000B634C736C73AD83909C37D6B5C513ADD9
:10285000F2A412ADF2A4F2A4D2A4D2A4F2AC13ADAD
:1028600033B533B533B534B5F2AC919CF2A412ADA7
:10287000D2A4D2A4D1A4B19CB19C919C709C919CF7
:10288000B9DEDDFF5BEFF6BD53ADF29C4C6B284229
:1028900048424842483A69428A42AB4ACB4AEC52E3
:1028A0000C530D5B2D5B2D63F073938C52842D6361
:1028B000CC52AB528B4AEC5A97ADB7B556A5159D85
:1028C000CC52093A293A4A426A4A8B4AAB4AEC52FC
:1028D000EC52EC52CC52CC52AB4AAB4AAF6BD073F9
:1028E000CF6B0C53AB4ACB4ACB526E63F073107470
:1028F000117C517C72847284938C7284B38C8F6B44
:10290000093A083A083A083A093A093A093A4A4269
:10291000ED522E5B0C5BEC52AB52CB52AB52CB5216
:10292000AB52AB4AAE6BB5AD329DAF848E848E8414
:102930006D7C6D7C4D7C2C7CAE8CAF8C6E7C2D7C4C
:102940002D7C0D740C740C742D742C7C4D7C6E8459
:102950004E844A63EA5AC95AA95ACA5ACA5ACA5A22
:10296000A95A89620A7B4B834B8B4A8B4A938A9381
:10297000AB9BCC9BAFBCF1BCF1BCF1BCF1BCF1BCDE
:1029800011BD11BD31BD32BD52BD52C532C552C59A
:1029900053C553C573BD73BD73BD74BD74BD74BDE4
:1029A00074BD74BD74BD74BD74BD74BD74C595C56E
:1029B000B5CDD6CDD6CDD5CDD5CDD5CDD5CDD5CD25
:1029C000D5CDD5CDB6CDB5CDB6CDB6CDD6CDD6CD72
:1029D000D5CDD6CDD6CDF6CDF6CDF6CDF6CDF6CD40
:1029E000F7CDF7C5D7C5D6C5D6C5B6C5B6C5B6C524
:1029F000B6C5B6C5B6C5B6C5B6C5B6C5B6C5B6C5FF
:102A0000B6C5B6C5B6C5B6C5B6C5B6C596BD96BD3E
:102A100096BD96BDB6BDB6BDB6C5B6C5B6C5B6C53E
:102A2000D6C5D7C5D7C5F7C5F7CDF7CDF7CDF7CD07
:102A3000F7CDF7CDF7CD17CE17CE17CE17CE18CED0
:102A400018CE18CE18CE18CE18CE18CE18CE18CE56
:102A500058D6F7CD38D617CE38CEE641EA6258D6EA
:102A600078D677D677D677D676D677D677D697DED6
:102A7000B8DED8E6D9E6F9E698DE77D678D677D606
:102A800077CE77CE57CE57CE4963486349636963A3
:102A9000696369636963696369636963695B8963BE
:102AA00089638963896389638963896389638963C6
:102AB0008963896389636A636A6B6B6B53AD17C6FD
:102AC00017C617C617C617C617C617C617C617C61E
:102AD00017C6F8C5F7C5F7C5F7C5D6BDD6BDD6BD6F
:102AE000D6BDB6BDB6C5B6C574BDB1A4CD8BA96AF9
:102AF0006762876AA762A86AA96AA972A86AC96A8E
:102B00000A6B5094B6BDD7BDD8BDB8BD98B597B5C2
:102B100097AD97AD97AD97B597B5B7B5D7BDD8BDBC
:102B2000F8BD18C618C618C618C618C618C6F8C5FF
:102B300018CE18CEF8CD719C685A064A0752275213
:102B400027524752485A685A885A685A685A8962BE
:102B50004C7B33B595BDB5C595BDB5C595C595C57A
:102B600095BD75BD74BD74BD54BD33B533B533B5B6
:102B700054B574BD95BDB5C5B5C5B5C574BDB1A4D5
:102B80006C7B4852E649E649E649E649E649E649AA
:102B9000E649E649E649E649064A075227522752DE
:102BA000685ACA620B6B8D7BB19C13AD33B533ADE4
:102BB00033AD13AD13ADF3AC13AD13AD34B554B5A4
:102BC00075B595B595B595B5B6BDB6BDB6BD96B559
:102BD00095B575B555B555B575B595B5F7C513A585
:102BE000074AA539C641E641E649064A27524752F7
:102BF00048524852485A485248526852695ACA6222
:102C00000B634C736C73AD83709C17CEB5C513AD5D
:102C1000F2A412ADF2A4F2A4D2A4D2A4F2AC13ADE9
:102C200033B533B533B534B512AD919CF2A412ADC2
:102C3000D2A4D2A4D2A4B1A4B1A4919C709C919C22
:102C4000B9DEDDFF5BEFF6BD53ADF29C4C6B284265
:102C500048424842483A69428A42AB4AEB4AEC52FF
:102C60000C532D5B2D5B2D63F073938C52842D637D
:102C7000CC52AB528B4AEC5A97ADB7B556A5159DC1
:102C8000CC52093A293A4A426A4A8B4AAB4AEC5238
:102C9000EC52EC52CC52CC52AB4AAB4AAF6BD07335
:102CA000CF6B0C53AB4ACB4ACB526E63F0731074AC
:102CB000117C517C72847284938C7284B38C8F6B80
:102CC000093A083A083A083A093A093A093A4A42A6
:102CD000ED522E5B0C5BEC52AB52CB52AB52CB5253
:102CE000AB52AB4AAE6BB5AD329DAF848E848E8451
:102CF0006D7C6D7C4D7C2C7CAE8CAF8C6E7C2D7C89
:102D00002D7C0D740C740C742D742C7C4D7C6E8495
:102D10004E844A63EA5AC95AA95ACA5ACA5ACA5A5E
:102D2000A95A89620A7B4B834B8B4A8B4A938A93BD
:102D3000AB9BCC9BB0BCF1BCF1BCF1BCF1BCF1BC19
:102D400011BD11BD31BD32BD52BD52C532C552C5D6
:102D500053C553C573BD73BD73BD74BD74BD74BD20
:102D600074BD74BD74BD74BD74BD74BD74C595C5AA
:102D7000B5CDD6CDD6CDD5CDD5CDD5CDD5CDD5CD61
:102D8000D5CDD5CDB6CDB5CDB6CDB6CDD6CDD6CDAE
:102D9000D5CDD6CDD6CDF6CDF6CDF6CDF6CDF6CD7C
:102DA000F7CDF7C5D7C5D6C5D6C5B6C5B6C5B6C560
:102DB000B6C5B6C5B6C5B6C5B6C5B6C5B6C5B6C53B
:102DC000B6C5B6C5B6C5B6C5B6C5B6C596BD96BD7B
:102DD00096BD96BDB6BDB6BDB6C5B6C5B6C5B6C57B
:102DE000D6C5D7C5D7C5F7C5F7CDF7CDF7CDF7CD44
:102DF000F7CDF7CDF7CD17CE17CE17CE17CE18CE0D
:102E000018CE18CE18CE18CE18CE18CE18CE18CE92
:102E1000F7CD38CEF7CD18CECF836431D6BD78D676
:102E200078D677D677D677D676DE77D697DEB8DEC1
:102E3000F9E619EF1AEF3AEFD9E698D678D677D6B1
:102E400077CE77CE77CE77CE49634863496369639F
:102E5000696369636963696369636963695B8963FA
:102E60008963896389638963896389638963896302
:102E70008963896389636A636A6B8B6B74AD17C6F8
:102E800017C617C617C617C617C617C617C617C65A
:102E900017C6F8C5F7C5F7C5F7C5D6BDD6BDD6BDAB
:102EA000D6BDB6BDB6C5B6C574BDB1ACCD8BA96A2D
:102EB0006762886AA762A86AA96AA972A86AC96AC9
:102EC0000A6B5094B6BDD7BDD8BDB8BD98B597B5FF
:102ED00097AD97AD97AD97B597B5B7B5D7BDD8BDF9
:102EE000F8BD18C618C618C618C618C618C6F8C53C
:102EF00018CE18CEF8CD719C685A064A0752275250
:102F000027524752485A685A885A685A885A8962DA
:102F10006C7B33B595BDB5C595BDB5C595C595C596
:102F200095BD75BD74BD74BD54BD33B533B554B5D1
:102F300054B574BD95BDB5C5B5C5B5C574BDB1A411
:102F40006C7B4752E649E649E649E649E649E649E7
:102F5000E649E649E649E649064A0752275227521A
:102F6000685ACA620B6B8D7BB1A433AD33B533ADF8
:102F700013AD13AD13ADF3AC13AD13AD34B554B500
:102F800075B575B595B595B5B6BD95B596B595B507
:102F900075B575B555B555B575B595B5F7C513A5E1
:102FA000074AA539C641E641E649064A2752475233
:102FB00048524852485A485248526852695ACA625E
:102FC0000B634C736C73AD835094F6CDB5C513ADE4
:102FD000F2A412ADF2A4F2ACD2ACD2ACF3AC13AD0D
:102FE00033B533B533B534B513AD919CD2A412AD1E
:102FF000D2A4D2A4D2A4B1A4B1A4919C709C919C5F
:10300000B9DEDDFF5BEFF6BD53ADF29C4C6B2842A1
:1030100048424842483A69428A42AB4AEC4AEC523A
:103020000C532D5B2D5B2D63F073938C52842D63B9
:10303000CC52AB528B4AEC5A97ADB7B556A5159DFD
:10304000CC52093A293A4A426A4A8B4AAB4AEC5274
:10305000EC52EC52CC52CC52AB4AAB4AAF6BD07371
:10306000CF6B0C53AB4ACB4ACB526E63F0731074E8
:10307000117C517C72847284938C7284B38C8F6BBC
:10308000093A083A083A083A093A093A093A4A42E2
:10309000ED522E5B0C5BEC52AB52CB52AB52CB528F
:1030A000AB52AB4AAE6BB5AD329DAF848E848E848D
:1030B0006D7C6D7C4D7C2C7CAE8CAF8C6E7C2D7CC5
:1030C0002D7C0D740C740C742D742C7C4D7C6E84D2
:1030D0004E844A63EA5AC95AA95ACA5ACA5ACA5A9B
:1030E000A95A89620A7B4B834B8B4A8B4A938A93FA
:1030F000AB9BCC9BB0BCF1BCF1BCF1BCF1BCF1BC56
:1031000011BD11BD31BD32BD52BD52C532C552C512
:1031100053C553C573BD73BD73BD74BD74BD74BD5C
:1031200074BD74BD74BD74BD74BD74BD74C595C5E6
:10313000B5CDD6CDD6CDD5CDD5CDD5CDD5CDD5CD9D
:10314000D5CDD5CDB6CDB5CDB6CDB6CDD6CDD6CDEA
:10315000D5CDD6CDD6CDF6CDF6CDF6CDF6CDF6CDB8
:10316000F7CDF7C5D7C5D6C5D6C5B6C5B6C5B6C59C
:10317000B6C5B6C5B6C5B6C5B6C5B6C5B6C5B6C577
:10318000B6C5B6C5B6C5B6C5B6C5B6C596BD96BDB7
:1031900096BD96BDB6BDB6BDB6C5B6C5B6C5B6C5B7
:1031A000D6C5D7C5D7C5F7C5F7CDF7CDF7CDF7CD80
:1031B000F7CDF7CDF7CD17CE17CE17CE17CE18CE49
:1031C00018CE18CE18CE18CE18CE18CE18CE18CECF
:1031D00038D617CE18CE13AD0429F3A479D678D6F5
:1031E00057D677D677D697DE77DE97DED8E619EF13
:1031F0005AF75AF75BF75BF7FAEEB8DE78D677D670
:1032000077D657CE77CE77CE4963486349636963F3
:10321000696369636963696369636963695B896336
:10322000896389638963896389638963896389633E
:103230008963896389636A636A6B8C6B74AD37C613
:1032400017C617C617C617C617C617C617C617C696
:1032500017C6F7C5F7C5F7C5F7C5D6BDD6BDD6BDE8
:10326000D6BDB6BDB6C5B6C574BDB1ACCD8BA96A69
:103270006762886AA762A96AA96AA96AA86AC96A0C
:103280000A6B5094B6BDD7BDD8BDB8BD98B597B53B
:1032900097AD97AD97AD97B597B5B7B5D7BDD8BD35
:1032A000F8BD18C618C618C618C618C618C6F8C578
:1032B00018CE18CEF7CD719C685A064A075227528D
:1032C00027524752485A685A885A685A895A896216
:1032D0008D7B54B595BDB5C595C5B5C595C595C589
:1032E00095BD75BD74BD74BD54BD33B554B554B5ED
:1032F00054B574BD95BDB5C5B5C5B5C554BD919C96
:103300004C7B2752E649E649E649E649E649E64963
:10331000E649E649E649E649064A07522752275256
:10332000885ACA620B6BAD7BB1A433AD33B533ADF4
:1033300013AD13AD13ADF3AC13AD13AD34B554B53C
:1033400055B575B595B575B596BD95B595B575B5C4
:1033500075B575B555B555B575B595B5F7C513A51D
:10336000074AA539C641E641E649064A275247526F
:10337000485248524852485248526852695ACA62A2
:103380000B634C736C73AD834F94F6CDB5C513AD21
:10339000F2A412ADF2A4F2ACD2ACD2ACF3AC13AD49
:1033A00033B533B533B534B513AD919CD2A412AD5A
:1033B000D2A4D2A4D2A4B1A4B1A4919C709C919C9B
:1033C000B9DEDDFF5BEFF6BD53ADF29C4C632842E6
:1033D00048424942483A69428A42AB4AEC520C534D
:1033E0000C532D5B2D5B2D63F07B938C52842D63EE
:1033F000CC52AB528B4AEC5A97ADB7B536A5159D5A
:10340000CC52093A293A4A426A4A8B4AAB4AEC52B0
:10341000EC52EC52CC52CC52AB4AAB4AAF6BD073AD
:10342000CF6B0C53AB4ACB4ACB526E63F073107424
:10343000117C517C72847284938C7284B38C8F6BF8
:10344000093A083A083A083A093A093A093A4A421E
:10345000ED522E5B0C5BEC52AB52CB52AB52CB52CB
:10346000AB52AB4AAE6BB5AD329DAF848E848E84C9
:103470006D7C6D7C4D7C2C7CAE8CCF8C6E7C2D7CE1
:103480002D7C0D740C740C742D742C7C4D7C6E840E
:103490004E844B63EA5AC95AC95ACA5ACA5ACA5AB6
:1034A000A95A89620A7B4B834B8B4A8B4A938A9336
:1034B000AB9BCC9BB0BCF1BCF1BCF1BCF1BCF1BC92
:1034C00011BD11BD31BD32BD52BD32C532C552C56F
:1034D00053C553C573BD73BD73BD74BD74BD74BD99
:1034E00074BD74BD74BD74BD74BD74BD74C595C523
:1034F000B5CDD6CDD6CDD5CDD5CDD5CDD5CDD5CDDA
:10350000D5CDD5CDB6CDB5CDB6CDB6CDD6CDD6CD26
:10351000D5CDD6CDD6CDF6CDF6CDF6CDF6CDF6CDF4
:10352000F7CDF7C5D7C5D6C5D6C5B6C5B6C5B6C5D8
:10353000B6C5B6C5B6C5B6C5B6C5B6C5B6C5B6C5B3
:10354000B6C5B6C5B6C5B6C5B6C5B6C596BD96BDF3
:1035500096BD96BDB6BDB6BDB6C5B6C5B6C5B6C5F3
:10356000D6C5D7C5D7C5F7C5F7CDF7CDF7CDF7CDBC
:10357000F7CDF7CDF7CD17CE17CE17CE17CE18CE85
:1035800018CE18CE18CE18CE18CE18CE18CE18CE0B
:1035900038CEF7CDD7C5C6414C73B9DE58D657D60D
:1035A00098DE77DE97DE97DE97DE19EF5AF77AF727
:1035B0007BF77BF77BF77BF73AEFB8DE78D677D6E9
:1035C00077D677CE77CE77CE6963496369636963CF
:1035D000696369636963696369636963896389634B
:1035E000896389638963896389638963896389637B
:1035F0008963896389636A638B6BAC7394B517C6FF
:10360000F7C5F7C518C618C618C618C618C618C60E
:1036100018C617C617C6F7C5F7C5D7C5D6BDD6BDD8
:10362000D6BDD7C5D6C5B6C574BDB1ACCD8BA96A5C
:103630006762876AA762A96AA96AA96AC86AC96A29
:103640000A6B519496BDD7BDD8BDD8BDB8BD97B54E
:1036500077AD97B597AD97B597B5B7B5B7BDD7BDAA
:10366000D8BDF8BDF8BDF8C5F8C5F8C519C619C666
:10367000F8C518CEF7CD509C485A074A074A27523A
:1036800027524752685A685A685A685A885A895A5B
:10369000AD8374BD95C5B5C595C5B5C595C595C56D
:1036A00095C574BD74BD74BD54BD54B554B554B501
:1036B00054BD74BD95C5B5C5B5C5B5C574BD909CA3
:1036C0004C732752E649E649E649E649E649E649A8
:1036D000E649E649E649E649E749075227522752B3
:1036E0006852CA620B6BCE83B1A412AD33B513AD71
:1036F00013AD13AD13ADF3A4F3AC13AD13AD34ADF3
:1037000054B555B555B575B575B575B575B575B5CA
:1037100055B555B555B555B575B575B5F7C513ADB1
:10372000E741A539C641E649E649074A274A2752F3
:103730004752485268526952695269528952CA6264
:10374000EB624C736C73AD832F94F6CDB5BD12ADA7
:10375000F2A412AD12A5F2ACF2ACF2ACF3AC13B51C
:1037600033B533B533B533B533AD709CB1A412ADB9
:10377000F2A4D2A4D2A4B1A4B1A4919C919C919C96
:1037800099DEBDFF5BEFF6BD53A5D29C4D63484269
:103790004942494249426A428A42CB4AEC520C535E
:1037A0000C5B2D5B2D5B4D63117CD39452840D5BC0
:1037B000EC52AB4AAB4AEC52B7ADB7B556A535A5FE
:1037C000CB52093A294249426A42AB4ACB4ACC52CF
:1037D000EC52EC52EC52CC52AB4AAB4AAF6BF073AA
:1037E000AF6B0C53AB4ACB4ACC526E63F073107480
:1037F000317C517C72849284938C7284B38C8E63FE
:10380000093A083A083A083A093A093A093A4A425A
:10381000ED522E5B0C5BEC52AB52CB52AB52CB5207
:10382000CB52AB4AAE6BB5AD329DAF8C8E846E84FD
:103830004D7C6D7C4D7C2C7C8E84CF944D7C2D7C7E
:103840002D7C0D740C740C742D742C744D7C6E8452
:103850006E844B63C95AA952A95ACA5ACA5ACA5A3B
:10386000A95AA95A0B734B834B8B4A8B4A938A9361
:10387000AB9BCC9BB0BCF1BCF1BCF0BCF1BCF1BCCF
:1038800011BD11BD32BD32BD32BD32C532C532C5EA
:1038900053C553C573BD73BD73BD74BD74BD74BDD5
:1038A00074BD74BD74BD74BD74BD74BD74BD94C568
:1038B000B5C5B5C5B5C5B5CDB5CDB5CDB5CDB5CD10
:1038C000B5CDB5CDB6CDB5CDB6CDB6CDD6CDD6CDA3
:1038D000D5CDD6CDF6CDF6CDF6CDF6CDF6CDF6CD11
:1038E000F7C5D7C5D7C5D6C5B6C5B6C5B6C5B6C55D
:1038F000B6C5B6C5B6C5B6C5B6C5B6C5B6C5B6C5F0
:10390000B6C5D6C5B6C5D6C5D7C5B6C5B6C5B6BD86
:1039100096BD96BDB6BDB6BDB6C5B6C5B6C5B6C52F
:10392000D7C5F7C5F7C5F7C5F7CDF7CDF7CDF7CDB7
:10393000F7CD17CE17CE17CE17CE17CE17CE17CE80
:1039400017CE17CE17CE18CE18CE38CE38CE18CE0A
:1039500017CE38D6695A685237D678DE58D678DE10
:1039600077DE97DEB7DED7E6F8EE59F77AF77AF723
:103970007AF77BF77BF75BF71AE7B8DE98D677D64E
:1039800078D678D677D677D6496348634963696332
:10399000696369636963696369636963695B895BB7
:1039A000895B895B895B895B895B895B895B8963EF
:1039B0008963896389636A638B6BCC73B5B517C6FA
:1039C000F7C5F7C518C6F7C518C618C618C618C66D
:1039D00018C617C617C6F7C5F7C5D7C5D6BDD6BD15
:1039E000D6BDD7C5D6C5B6C574BDB1ACCD8BA96A99
:1039F0006762876AA762A86AA96AA96AC86AC96A67
:103A00000A6B519496BDD7BDD8BDD8BDB8BD97B58A
:103A100077AD97B597AD97B597B5B7B5B7BDD7BDE6
:103A2000D8BDF8BDF8BDF8C5F8C5F8C519C619C6A2
:103A3000F8C538CEF7CD5094485A074A074A27525E
:103A400027524752685A685A685A685A895A89628E
:103A5000AD8374BDB5C5B5C595C5B5C595C595C589
:103A600095C575BD74BD74BD54BD54BD54B554B534
:103A700074BD74BD95BDB5C5B5C5B5C574BD909CC7
:103A80004C732752E649E649E649E649E649E649E4
:103A9000E649E649E649E649E749075227522852EE
:103AA000685AEA622B6BEE83B1A4F2AC33AD13AD6E
:103AB00013AD13ADF3A4F2A4F3A4F3A413AD33AD8B
:103AC00034AD55B555B555B555B575B555B555B5AF
:103AD00055B555B535B535B555B575B5F7C513AD4E
:103AE000E741A539C641E641E649074A274A275238
:103AF0004752485268526852685268528952CA62A4
:103B0000EB624C736C73AD832F94F6CDB5BD13ADE2
:103B100012AD12AD12ADF3ACF2ACF2AC13AD33B5E5
:103B200033B533B533B533B533AD909CB1A412ADD5
:103B3000F2A4F2A4D2A4B1A4B1A4919C919C909CB3
:103B400099DE9DF73BEFF6BD33A5B2944D63494234
:103B50006942494249426A428A42CB4AEC520C537A
:103B60000C5B2D5B2D5B4D63117CD39452840D5BFC
:103B7000EC52AB4AAB4AEC52B7ADD8B556A535A519
:103B8000CB52093A294249426A42AB4ACB4ACC520B
:103B9000EC52EC52EC52CC52AB4AAB4AAF6BF073E6
:103BA000CF6B0C53AB4ACB4ACC526E63F07311749B
:103BB000317C517C72849284938C9284B38C8F6B11
:103BC000093A083A083A083A093A093A093A4A4297
:103BD000ED522E5B0C5BEC52AB52CB52AB52CB5244
:103BE000CB52AB4AAE6BB5AD329DAF8C6E846E845A
:103BF0004D7C4D7C2D7C2C7C8E84CF944D7C2D7CFB
:103C00002D7C0D740C740C742D742C744D7C6E848E
:103C10006E844B63C95AA952A95ACA5ACA5ACA5A77
:103C2000A95AA95A0B734B834B8B4A8B4A938A939D
:103C3000AB9BCC9BB0BCF1BCF1BCF0BCF1BCF1BC0B
:103C400011BD11BD32BD32BD32BD32C532C532C526
:103C500053C553C573BD73BD73BD74BD74BD74BD11
:103C600074BD74BD74BD74BD74BD74BD74BD94C5A4
:103C7000B5C5B5C5B5C5B5CDB5CDB5CDB5CDB5CD4C
:103C8000B5CDB5CDB6CDB5CDB6CDB6CDD6CDD6CDDF
:103C9000D5CDD6CDF6CDF6CDF6CDF6CDF6CDF6CD4D
:103CA000F7C5D7C5D7C5D6C5B6C5B6C5B6C5B6C599
:103CB000B6C5B6C5B6C5B6C5B6C5B6C5B6C5B6C52C
:103CC000B6C5D6C5B6C5D6C5D7C5B6C5B6C5B6BDC3
:103CD00096BD96BDB6BDB6BDB6C5B6C5B6C5B6C56C
:103CE000D7C5F7C5F7C5F7C5F7CDF7CDF7CDF7CDF4
:103CF000F7CD17CE17CE17CE17CE17CE17CE17CEBD
:103D000017CE17CE17CE38CE38CE38CE38CE38D6DE
:103D1000F7C50F8C643195BD99DE78DE78DE98DECC
:103D200097DE97DEB7E618EF59F77AFF7AF77AF75A
:103D30005AF77BF77BF75BEFF9E6B8D678D677D6FC
:103D400078D677D677D677D6486348634963696370
:103D5000696369636963696369636963695B895BF3
:103D6000895B895B895B895B895B895B895B89632B
:103D70008963896389636A638B6BCD7BD5B517C60D
:103D8000F7C518C618C618C618C618C618C618C665
:103D900018C618CE17C6F7C5F7C5D7C5D6BDD6BD48
:103DA000D6BDD7C5D6C5B6C574BDB1A4CD8BA96ADD
:103DB0006762876AA762A86AA96AA96AC86AC96AA3
:103DC0000A6B519496BDD7BDD8BDD8BDB8BD97B5C7
:103DD00077AD97B597AD97B597B5B7B5B7BDD7BD23
:103DE000D8BDF8BDF8BDF8C5F8C5F8C519C619C6DF
:103DF000F8C538CEF7CD3094485A074A074A2752BB
:103E000027524752685A685A685A685A89628962C2
:103E1000AD8374BDB5C5B5C595C5B5C595C5B5C5A5
:103E200095C595BD74BD74BD54BD54BD54B554B550
:103E300074BD74BD95BDB5C5B5C5B5C574BD909C03
:103E40004C732752E649E649E649E649E649E64920
:103E5000E649E649E649E649E7490752275228522A
:103E6000685AEA622B73EE8BD1A4F2A413AD13ADA2
:103E700013ADF3A4F2A4D2A4D2A4F2A4F3AC13AD74
:103E800014AD34AD34AD35B555B555B555B555B59D
:103E900055B535B534AD34AD54B575B5F7C513ADBD
:103EA000E7418539C641E641E649064A074A274ABD
:103EB0004752485268526852685268528952CA62E0
:103EC000EB624C736C73AD832F94D6CD95BD13AD5F
:103ED00012AD12AD12AD13ADF3ACF2AC13AD33B500
:103EE00033B533B533B533B533AD919CB19CF2AC3A
:103EF000F2ACF2A4D2A4D1A4D2A491A4919C709CBF
:103F000098DE9CF73BEFF6BD13A5918C4C6369429C
:103F10006942494249426A428A42CB4AEC520C53B6
:103F20000C5B2D5B2D5B4D63117CD39472842D5BF8
:103F3000EC5AAB52AB4AEC52B7ADD8B556A535A545
:103F4000CB52093A294249426A42AB4ACB4ACC5247
:103F5000EC52EC52EC52CC52AB4AAB4AAF6BF07322
:103F6000CF6B0D53AB4ACB4AEC526E63F0731174B6
:103F7000317C517C72849284938C9284B38C8F6B4D
:103F8000093A083A083A083A093A093A093A4A42D3
:103F9000ED522E5B0C5BEC52AB52CB52AB52CB5280
:103FA000CB52AB4AAE6BB5AD329DAF8C6E846D7C9F
:103FB0004D7C4D7C2D7C2C7C8E84CF944D7C2D7C37
:103FC0002D7C0D740C740C742D742C744D7C6E84CB
:103FD0006E844B63C95AA952A95ACA5ACA5ACA5AB4
:103FE000A95AA95A0B734B834B8B4A8B4A938A93DA
:103FF000AB9BCC9BB0BCF1BCF1BCF0BCF1BCF1BC48
:1040000011BD11BD11BD32BD32BD32BD32C532C58B
:1040100053C553C573BD73BD73BD74BD74BD74BD4D
:1040200074BD74BD74BD74BD74BD74BD74BD94C5E0
:10403000B5C5B5C5B5C5B5CDB5CDB5CDB5CDB5CD88
:10404000B5CDB5CDB6CDB5CDB6CDB6CDD6CDD6CD1B
:10405000D5CDD6CDF6CDF6CDF6CDF6CDF6CDF6CD89
:10406000F7C5D7C5D7C5D6C5B6C5B6C5B6C5B6C5D5
:10407000B6C5B6C5B6C5B6C5B6C5B6C5B6C5B6C568
:10408000B6C5D6C5B6C5D6C5D7C5B6C5B6C5B6BDFF
:1040900096BD96BDB6BDB6BDB6C5B6C5B6C5B6C5A8
:1040A000D7C5F7C5F7C5F7C5F7CDF7CDF7CDF7CD30
:1040B000F7CD17CE17CE17CE17CE17CE17CE17CEF9
:1040C00017CE17CE17CE17CE18CE38CE38D638D654
:1040D00054B5A539AE83B9E678DE98DEB8E698DE49
:1040E00097DEB7E6F8E659F77AF79AFF7AF75AF7C4
:1040F0007AF79BF77BF73AEFF9DE98D677D677D643
:1041000078D677D677D677D64863485B49634963D4
:104110004963696369636963695B695B695B895B5F
:10412000895B895B895B895B895B895B895B895B6F
:104130008963896389636A638B6BED7BD5BD17C621
:1041400017C618CE18CE18CE18CE18CE18CE18CE48
:1041500018CE18CE17C6F7C5F7C5D7C5D6BDD6BD7C
:10416000D6BDD7C5D6C5B6C574BDB1A4CD8BA96A19
:104170006762876AA762A86AA96AA96AC86AC96ADF
:104180000A6B519496BDD7BDD8BDD8BDB8BD97B503
:1041900077AD97B597AD97B597B5B7B5B7BDD7BD5F
:1041A000D8BDF8BDF8BDF8C5F8C5F8C519C619C61B
:1041B000F8C538CEF7C53094485A074A074A2752FF
:1041C00027524752685A685A685A685A89628962FF
:1041D000AD8374BDB5C5D5C5B5C5B6C5B5C5B5C581
:1041E00095C595BD75BD74BD54BD54BD54B554B58C
:1041F00054BD74BD95BD95C5B5C5B5C574BD909C80
:104200004C732752E649E649E649E649E649E6495C
:10421000E649E649E649E649E74907522752285266
:10422000685AEA6A4B730E8CD1A4F2A413AD13AD95
:10423000F3A4F3A4D2A4D2A4D2A4D2A4F3A413AD21
:1042400014AD14AD34AD34AD35B535B535B555B562
:1042500055B535AD34AD34AD54B595BDF7C513ADD9
:10426000E7418539C541E641E641064A074A274A02
:104270002752485268526852685268526952CA625C
:10428000EB624C736C73AD832F94D6C594BD13ADA4
:1042900012AD12AD12AD13ADF3ACF3AC13AD33B53B
:1042A00034B534B534B534B533B5919CB19CF2AC6A
:1042B000F2ACF2A4D2A4D1A4D2A4B1A4919C709CDB
:1042C00078D69CF73BEFF6BD12A5718C2C63694242
:1042D0004942494249426A428A42CB4AEC520C5313
:1042E0000C5B2D5B2D5B4D63117CD39472842D5B35
:1042F000EC5AAB52AB4AEC52B7ADD8B576A535A562
:10430000CB52093A294249426A42AB4ACB4ACC5283
:10431000EC52EC52EC52CC52AB4AAB4ACF6BF0733E
:10432000CF6B0D53AB4ACC4AEC526E63F073117CE9
:10433000317C517C72849284938C9284D38C8F6B69
:10434000093A083A083A083A093A093A093A4A420F
:10435000ED522E5B0C5BEC52AB52CB52AB52CB52BC
:10436000CB52AB4AAE6BB5AD329DAF8C6E846E84D2
:104370004D7C4D7C2D7C2C7C8E84CF944D7C2D7C73
:104380002D7C0D740C740C742D742C744D7C6E8407
:104390006E844B63C95AA952A95ACA5ACA5ACA5AF0
:1043A000A95AA95A0B734B834B8B4A8B4A938A9316
:1043B000AB9BCC9BAFBCF1BCF1BCF0BCF1BCF1BC85
:1043C00011BD11BD11BD11BD32BD32BD32C532C5E9
:1043D00053C573C573BD73BD73BD74BD74BD74BD6A
:1043E00074BD74BD74BD74BD74BD74BD74BD94C51D
:1043F000B5C5B5C5B5C5B5CDB5CDB5CDB5CDB5CDC5
:10440000B5CDB5CDB6CDB5CDB6CDB6CDD6CDD6CD57
:10441000D5CDD6CDF6CDF6CDF6CDF6CDF6CDF6CDC5
:10442000F7C5D7C5D7C5D6C5B6C5B6C5B6C5B6C511
:10443000B6C5B6C5B6C5B6C5B6C5B6C5B6C5B6C5A4
:10444000B6C5D6C5B6C5D6C5D7C5B6C5B6C5B6BD3B
:1044500096BD96BDB6BDB6BDB6C5B6C5B6C5B6C5E4
:10446000D7C5F7C5F7C5F7C5F7CDF7CDF7CDF7CD6C
:10447000F7CD17CE17CE17CE17CE17CE17CE17CE35
:1044800017CE17CE17CE18CE38CE58D637CEF7C5A2
:10449000895A074A58D678DEB8E698DE98DE97DE65
:1044A000D8E618EF59F77AF77AFF7AF77AF75AF7DA
:1044B0009BF77BF75AEF1AEFB8DE78D677CE78D62F
:1044C00098D677CE77D677D64863486348634863F3
:1044D0004963496369636963695B695B695B895BBC
:1044E000895B895B895B895B895B895B895B895BAC
:1044F000696389638A638A638B6BED7BD5BD17C65D
:1045000018CE18CE18CE18CE18CE18CE18CE18CE7B
:1045100018CE18CE17C6F7C5F7C5D7C5D6BDD6BDB8
:10452000D6BDD7C5D7C5B6C554BDB1ACCD8BA96A6C
:104530006762876AA762A86AA96AA96AC86AE96AFB
:104540000A6B519496BDD7BDD8BDD8BDB8BD98B53E
:1045500077AD97B597B597B597B5B7B5D7BDD7BD73
:10456000F8BDF8BDF8BDF8C5F8C5F8C5F9C5F8C57A
:1045700018C638CED7C50F944852064A075227525C
:1045800027524752685A685A685A685A8962A9621B
:10459000CD8374BDB5C5D5C5B5C5B5C595C595C5DE
:1045A00095C595C595BD74BD54BD54BD54B554B5A0
:1045B00054BD74BD95BD95C5B5C595C554B5709C24
:1045C0004C7B2752E649E649E649E649E649E64991
:1045D000E649E649064A064A074A07522752275241
:1045E000885AEA6A4C730F8CB1A4F2ACF2ACF2A414
:1045F000F2A4D2A4D2A4B2A4B29CB2A4D2A4F2A433
:10460000F3A414AD14AD34AD34AD34AD34AD34AD2C
:1046100034AD14AD14AD34AD54B575B517CEF3A4A7
:10462000C641A539C541E641E641064A074A274A3F
:104630004752475248524852685268526952CA62B9
:104640000B634C736D7BAD832F94B5C574BD13ADF7
:1046500012AD12AD12AD12ADF3ACF3AC13AD34B577
:1046600034B554B534B554B533ADB19CB19CF2A456
:10467000F2A4F2ACF2A4B1A4D2A4B1A4B1A4909CCF
:1046800098D69DF75BEFF6BD12A550842C5B694A66
:1046900049426942694269428A42CB4AEC520C5310
:1046A0000C5B2D5B2D5B2D5B107CD394938C2D5B71
:1046B000EC52AB4AAB4AEC52B7ADF8B576AD35A586
:1046C000AB52083A294249426A42AB4ACB4AEC52C1
:1046D000EC52EC52EC52EC52AB4AAB4ACF6BF0735B
:1046E000D06B0D5BAB4ACB4AEC528E63F073117CFE
:1046F000317C517C72849284938C9284D38CAF6B86
:10470000093A083A083A083A093A093A093A4A424B
:10471000ED522E5B0C5BEC52AB52CB52AB52CB52F8
:10472000CB52AB4AAE6BB5AD339DB08C6E844D7C35
:104730004D7C4D7C4D7C2C7C8E8CCF8C4D7C2D7C8F
:104740002D7C0D740C740C742D742C744D7C6E8443
:104750006E844B63C95AA952A95ACA5ACA5ACA5A2C
:10476000A95AA95A0B734B834B8B4A8B4A938A9352
:10477000AB9BCC9BAFBCF1BCF1BCF0BCF0BCF1BCC2
:1047800011BD11BD11BD32BD32BD32BD32C532C504
:1047900053C573C573BD73BD73BD74BD74BD74BDA6
:1047A00074BD74BD74BD74BD74BD74BD74BD94C559
:1047B000B5C5B5C5B5C5B5CDB5CDB5CDB5CDB5CD01
:1047C000B5CDB5CDB5CDB5CDB6CDB6CDD6CDD6CD95
:1047D000D5CDD6CDF6CDF6CDF6CDF6CDF6CDF6C50A
:1047E000F7C5D7C5D6C5B6C5B6C5B6C5B6BDB6C577
:1047F000B6C5B6C5B6C5B6C5B6C5B6C5B6C5B6C5E1
:10480000B6C5D6C5B6C5D6C5D7C5B6C5B6C5B6BD77
:1048100096BD96BDB6BDB6BDB6C5B6C5B6C5B6C520
:10482000D7C5F7C5F7C5F7C5F7CDF7CDF7CDF7CDA8
:10483000F7CDF7CD17CE17CE17CE17CE17CE17CE92
:1048400038CE38CE38D638CE38CE79D617CECE83BD
:10485000443133AD78D678D698DEB8E697DEB8E640
:1048600019EF59F77AFF7AFF79F75AF759F77AF77C
:104870007AF77BF73AEFD9DE98D677D677D678D61F
:1048800098D698D678D678D6485B485B4863486314
:104890004863496369636963695B695B695B695B19
:1048A000695B695B695B695B695B695B695B695BE8
:1048B000696389638A638A638B6BED7BB5B517C6C1
:1048C00038CE18CE18CE18CE18CE18CE18CE18CE98
:1048D00018CE18CE17C6F7C5F7C5D7C5D6BDD6BDF5
:1048E000D6BDD7C5D7C5B6C554BDB1A4CD8BA96AB1
:1048F0006762876AA762A86AA96AA96AC86AE86A39
:104900000A6B519496BDD7BDD8BDD8BDB8BD98B57A
:1049100077AD97B597AD97B597B5B7B5D7BDD7BDB7
:10492000F8BDF8BDF8BDF8C5F8C5F8C5F9C5F8C5B6
:1049300018C638CED6C50F8C4852064A07522752A1
:1049400027524752685A685A685A685A8962A96257
:10495000CD8374BDB5C5D5C5B5C5B6C595C5B5C5F9
:1049600095C595C595BD74BD54BD54BD33B554B5FD
:1049700054B574BD95BD95BDB5C595C554B5709C70
:104980004C7B2752E649E649E649E649064AE649AC
:10499000E649E649064A064A074A0752275227527D
:1049A000885A0A6B4C730F8CB1A4F2ACF2ACF2A42F
:1049B000D2A4D2A4B29CB29CB19CB29CD2A4D2A4E8
:1049C000F3A4F3A4F4AC14AD14AD14AD14AD14AD54
:1049D00014AD14AD14AD14AD34B575B517CEF3A444
:1049E000C641A539C541C641E641064A074A274A9C
:1049F0002752475248524852685268526952CA6216
:104A00000B634C736D7BAD830F94B5C574BD13AD53
:104A100012AD13AD12AD13ADF3ACF3AC13AD34B5B1
:104A200054B554B534B554B533B5B19C919CF2A48A
:104A3000F2A4F2ACF2A4B1A4D2A4B1A4B1A4909C0B
:104A400098D69DF73BEFD5BDF29C30840C5B494274
:104A500049426942694269428A42CB4AEC520C534C
:104A60000C5B2D5B2D5B2D63107CD394938C2D639D
:104A7000EC52AB4AAB4AEC52B7B5F8B576AD35A5BA
:104A8000AB52093A494249426A42AB4ACB4AEC52DC
:104A9000EC52EC52EC52EC52CB4AAB4ACF6BF07377
:104AA000D06B2D5BAB4ACB4AEC528E63F073117C1A
:104AB000317C317C72847284938C9284D494AF6BF9
:104AC000093A083A083A083A093A093A093A4A4288
:104AD000ED522E5B0C5BEC52AB52CB52AB52CB5235
:104AE000CB52AB4AAE6BB5AD339DB08C6E844D7C72
:104AF0004D7C4D7C4D7C2C7C8E8CCF8C4D7C2D7CCC
:104B00002D7C0D740C740C742D742C744D7C6E847F
:104B10006E844A63C95AA952A95ACA5ACA5ACA5A69
:104B2000A95AA95A0B734B834B8B4A8B4A938A938E
:104B3000AB9BCC9BAFBCF1BCF1BCF0BCF0BCF1BCFE
:104B400011BD11BD11BD32BD32BD32BD32C532C540
:104B500053C573C573BD73BD73BD74BD74BD74BDE2
:104B600074BD74BD74BD74BD74BD74BD74BD94C595
:104B7000B5C5B5C5B5C5B5CDB5CDB5CDB5CDB5CD3D
:104B8000B5CDB5CDB5CDB5CDB6CDB6CDD6CDD6CDD1
:104B9000D5CDD6CDF6CDF6CDF6CDF6CDF6CDF6C546
:104BA000F7C5D7C5D6C5B6C5B6C5B6C5B6BDB6C5B3
:104BB000B6C5B6C5B6C5B6C5B6C5B6C5B6C5B6C51D
:104BC000B6C5D6C5B6C5D6C5D7C5B6C5B6C5B6BDB4
:104BD00096BD96BDB6BDB6BDB6C5B6C5B6C5B6C55D
:104BE000D7C5F7C5F7C5F7C5F7CDF7CDF7CDF7CDE5
:104BF000F7CDF7CD17CE17CE17CE17CE17CE17CECF
:104C000038CE38D638D638D617CE17CE95BD6431C3
:104C10002F9498DE78D698DE77DEB8DEB8E6F8EE28
:104C20005AF77AF77AFF7AFF79F759F77AF77AF72E
:104C30005AF73AEFF9E698DE77D677D677D678D670
:104C400098D698D678D678D6485B485B4863285B78
:104C5000485B485B485B485B695B695B695B695BB8
:104C6000695B695B695B695B695B695B695B695B24
:104C7000695B69638A638A638B6BED7B94B517C646
:104C800038CE18CE18CE18CE18CE18CE18CE18CED4
:104C900018CE18CE17C6F7C5F7C5D7C5D6BDD6BD31
:104CA000D6BDD7C5D7C5B6C574BDB1A4CD8BA96ACD
:104CB0006762876AA762A86AA96AA96AC86AE86A75
:104CC0000A6B519496BDD7BDD8BDD8BDB8BD98B5B7
:104CD00077AD97B597AD97B597B5B7B5D7BDD7BDF4
:104CE000F8BDF8BDF8BDF8C5F8C5F8C5F9C5F8C5F3
:104CF00018C618CED6C50F8C4852064A07522752FE
:104D000027524752685A685A685A685A8962A96293
:104D1000CD8374BDB5C5D6C5B5C5B6C5B5C5B5C514
:104D200095C595C595BD74BD54BD54BD33B533B55A
:104D300054B574BD95BD95BD95C595BD54B5709CD4
:104D40004C7B2752E649E649E649E649064AE649E8
:104D5000E649E649064A064A074A07522752485298
:104D6000895A0B6B6C732F8CB1A4F2A4F2A4D2A459
:104D7000D2A4B29CB29C919C919C919CB29CD2A4D6
:104D8000D2A4D3A4F3A4F3A414AD14AD14AD14AD04
:104D900014AD14AD14AD14AD34AD75B517CEF3A488
:104DA000C641A539C541C641E641E649064A274AFA
:104DB0002752275248524852485268526952CA6292
:104DC0000B634C736D7BAD830F8CB5C554B513ADC0
:104DD00012AD13AD12AD13ADF3ACF3AC13B534B5E6
:104DE00054B554B534B554B533B5B1A4919CF2A4BF
:104DF000F2A4F2ACF2A4B1A4D2A4B1A4B1A4909C48
:104E000098D69CF73BE7B5B590940F7CEB5A494296
:104E100049426942694269428A42CB4AEC520C5388
:104E20000C5B2D5B2D5B4D63117CD394938C2D63B8
:104E3000EC5AAB4AAB4AEC52B7B5F8B597AD35A5CD
:104E4000CB52093A494249426A42AB4ACB4AEC52F8
:104E5000EC52EC52EC52EC52CB4AAB4AD073F073AA
:104E6000D0732D5BCB4ACC4AEC528E63F073117C2D
:104E7000117C317C7284728492849284D494AF6B5E
:104E8000093A083A083A083A093A093A093A4A42C4
:104E9000ED522E5B0C5BEC52AB52CB52AB52CB5271
:104EA000CB52AB4AAE6BB5AD339DB08C6E844D7CAE
:104EB0004D7C4D7C4D7C2C7C8E8CCF8C4D7C2D7C08
:104EC0002D7C0D740C740C742D742C744D7C6E84BC
:104ED0006E844A63C95AA952A95ACA5ACA5ACA5AA6
:104EE000A95AA95A0B734B834B8B4A8B6A938A93AB
:104EF000AB9BCC9BAFB4F1BCF1BCF0BCF0BCF1BC43
:104F000011BD11BD11BD32BD32BD32BD32C532C57C
:104F100053C573C573BD73BD73BD74BD74BD74BD1E
:104F200074BD74BD74BD74BD74BD74BD74BD94C5D1
:104F3000B5C5B5C5B5C5B5CDB5CDB5CDB5CDB5CD79
:104F4000B5CDB5CDB5CDB5CDB6CDB6CDD6CDD6CD0D
:104F5000D5CDD6CDF6CDF6CDF6CDF6CDF6CDF6C582
:104F6000F7C5D7C5D6C5B6C5B6C5B6C5B6BDB6C5EF
:104F7000B6C5B6C5B6C5B6C5B6C5B6C5B6C5B6C559
:104F8000B6C5D6C5B6C5D6C5D7C5B6C5B6C5B6BDF0
:104F900096BD96BDB6BDB6BDB6C5B6C5B6C5B6C599
:104FA000D7C5F7C5F7C5F7C5F7CDF7CDF7CDF7CD21
:104FB000F7CDF7CD17CE17CE17CE17CE38CE38CEC9
:104FC00038D638D638D638D617CE17CECA62895AD0
:104FD00098DE57D678D6D9E677D6B8E619EF5AF7DD
:104FE0007AF77AF77AF75AF759F759F77AF77AF79B
:104FF00039EFD8E6B8DE77D657CE77CE77D678D6E3
:1050000098D698D678D678D6485B485B285B285BDC
:10501000285B485B485B485B485B695B695B695B35
:10502000695B695B695B695B695B695B695B695B60
:10503000695B696389638A638B6BCD7B94AD17C6AB
:1050400038CE38CE38CE38CE38CE38CE38CE38CE30
:1050500038CE18CE17C6F7C5F7C5D7C5D6BDD6BD4D
:10506000D6BDD7C5D7C5B6C574BDB1A4CD8BA96A09
:105070006762876AA762A86AA96AA96AC86AE86AB1
:105080000A6B519496BDD7BDD8BDD8BDB8BD98B5F3
:1050900077AD97B597AD97B597B5B7B5D7BDD7BD30
:1050A000F8BDF8BDF8BDF8C5F8C5F8C5F9C5F8C52F
:1050B00018C618CEB6C5EF8B4852064A075227527B
:1050C00027524752685A685A685A685A8962A962D0
:1050D000CD8394BDB5C5D6CDB5C5D6C5B5C5B5C509
:1050E00095C595C595BD74BD54BD54BD54B554B555
:1050F00054BD74BD74BD95BD95C595BD54B5709C2A
:105100004C7B2752E649E649E649E649064AE64924
:10511000E649E649064A064A074A075227524852D4
:10512000895A0B6B6C732F94B1A4D2A4D2A4D2A4CD
:10513000B29CB29C919C919C719C919C919CB29CC4
:10514000B2A4D3A4D3A4F3A4F4AC14AD14AD14ADA1
:1051500014AD14ADF4AC14AD34AD75B517CEF3A4E5
:10516000C641A539A541C641C641E649064A274A76
:105170002752275248524852485248526952CA62EE
:105180000B634C736D7BAD830F8C95C553B512AD1E
:1051900012AD13AD33AD13ADF3AC13AD33B534B5C0
:1051A00054B554B554B554B533B5B1A4919CF2A4DB
:1051B000F2A4F2ACF2A4B1A4D2A4B1A4B1A4909C84
:1051C00098D69CF71AE774AD2F84AE73EB52694AF8
:1051D00049426942694269428A42CB4AEC520C53C5
:1051E0000C5B2D5B2D5B4D63117CD394938C4E63D4
:1051F000EC5AAB52AB4AEC52D8B5F8BD97AD35A5D9
:10520000CB52093A494249426A42AB4ACB4AEC5234
:10521000EC52EC52EC52EC52CC52AB4AD073F073DD
:10522000D0732D5BCB4ACC52EC528E63F073117C61
:10523000117C317C5284728492849284D494AF6BBA
:10524000093A083A083A083A093A093A093A4A4200
:10525000ED522E5B0C5BEC52AB52CB52AB52CB52AD
:10526000CB52AB4AAE6BB5AD339DB08C6E844D7CEA
:105270004D7C4D7C4D7C2C7C8E8CCF8C4D7C2D7C44
:105280002D7C0D740C740C742D742C744D7C6E84F8
:105290006E844A63C95AA952A95ACA5ACA5ACA5AE2
:1052A000A95AA95A0A734B834B8B4A8B6A938A93E8
:1052B000AB9BCC9BAFB4F1BCF1BCF0BCF0BCF1BC7F
:1052C00011BD11BD11BD32BD32BD32BD32C532C5B9
:1052D00053C573C573BD73BD73BD74BD74BD74BD5B
:1052E00074BD74BD74BD74BD74BD74BD74BD94C50E
:1052F000B5C5B5C5B5C5B5CDB5CDB5CDB5CDB5CDB6
:10530000B5CDB5CDB5CDB5CDB6CDB6CDD6CDD6CD49
:10531000D5CDD6CDF6CDF6CDF6CDF6CDF6CDF6C5BE
:10532000F7C5D7C5D6C5B6C5B6C5B6C5B6BDB6C52B
:10533000B6C5B6C5B6C5B6C5B6C5B6C5B6C5B6C595
:10534000B6C5D6C5B6C5D6C5D7C5B6C5B6C5B6BD2C
:1053500096BD96BDB6BDB6BDB6C5B6C5B6C5B6C5D5
:10536000D7C5F7C5F7C5F7C5F7CDF7CDF7CDF7CD5D
:10537000F7CDF7CD17CE17CE17CE38CE38D638D6D4
:1053800038D638D638D638D638D6919C022974BD4E
:1053900078D6D9E678D698DE97DEF8E65AF77AFF1F
:1053A0007AF77AF77AF75AF75AF75AF759F739EF3F
:1053B000D8E697DE97D677D677D677D677D678D6CB
:1053C00098D698D678D678D6285B285B285B285B59
:1053D000485B485B485B485B685B685B695B695B33
:1053E000695B695B695B695B695B695B695B695B9D
:1053F000695B695B695B69638A63EC7374AD37C62B
:1054000037C638CE38CE38CE38CE38CE38CE38CE75
:1054100038CE38CE18C6F7C5F7C5D7C5D7BDD7BD66
:10542000D7BDD7C5D7C5B6BD74B5D1A4AD83A86A5D
:1054300087628762A862A86AA96AA86AC86AE86AD5
:105440000A6B519496B5D8BDD8BDD8BDD8BD97B517
:1054500077AD97B597ADB7B597B5B7BDD7BDD8BD43
:10546000F8C5F8C5F8C5F8C5F8C5F8C5F8C5F8CD4C
:10547000F7C518CE96BDCE8B485A074A0752075239
:1054800027524852485A685A685A485AA96289624B
:10549000CE8374BDB5C5D6C5B5C5D6CDD6C5B6C542
:1054A00095C595C595BD75BD54BD54BD34B534B5D0
:1054B00054BD74BD95BD95BD95C595BD54B5909C25
:1054C0004C7B2752E649E649E649E649E649E64982
:1054D000E649064A0752074A074A07520752275227
:1054E000685A0B6B8C7B5094B1A4D2A4D2A4D2A4E2
:1054F000929C929C719C7194719C919C929C929CA8
:10550000D2A4D3A4D3A4F3A4F3A4F3A4F3ACF3AC34
:10551000F3ACF3ACF3ACF3A414AD55B518CED3A4EF
:105520000742A539C541C641C641E641064A074A78
:10553000274A274A284A6852484A68526952CA622A
:105540000B634C738D7BAD832F8C95BD74B512AD01
:10555000F2AC13AD13AD12ADF3AC13AD33B554B51E
:1055600054B554B554B554B553B5D2A4709CD2A417
:10557000D2A4F2A4D2A4D2A4B1A4B1A4B19C909418
:1055800078D69CF71AE7129DEE7B4C63EB52894A62
:1055900049426942694269428A42CB4AEC52EC5222
:1055A0000C5B2D5B2D5B4E63117CF494938C6E63CE
:1055B000EC52CC528B4ACC52D7B538BED7B556AD8B
:1055C000CC522942294249426A42AB4ACB52EC5260
:1055D000EC52EC52EC52CC52CC52AB4ACF6B117C19
:1055E000F0732D5BAB4ACB4AEC526E63F073117CC7
:1055F000317C317C52847284938C938C159DAF6B7B
:10560000293A083A083A083A093A093A293A4A42FC
:105610000D5B4E630C5BEC52AB52CC52AB52CB5297
:10562000CC52AB52CE6BB5AD539DAF8C6E844D7CDE
:105630004D7C4D7C2C7C2C7C8E84CF8C4D7C2D7CA9
:105640000D7C0D740D740C744D7C4D7C4D7C4D8423
:105650006E844B63C952C95AC95ACA5AAA5AAA5225
:10566000A95A895A0A732B832B834A8B4A936A93CC
:105670008B9BECA3B0B4F1BCF1BCF0B4F0BCF1BCBA
:1056800011BD11BD11BD12BD32BD32BD32C532C515
:1056900053C553BD73BD73BD74BD74BD74C574BDB6
:1056A00074BD74BD74BD74BD74BD74BD74BD94C54A
:1056B000B5C5B5C5B5C5B5C5B5C5B5C5B5C5B5C51A
:1056C000B5C5B5C5B5CDB5CDB5CDD6CDD6CDD6CD77
:1056D000D5CDF6CDF6CDF6CDF6CDF6CDF6CDD6CDF3
:1056E000D6CDD7CDD7C5D6C5B6C5B6C5B6C596C570
:1056F00096C5B6C5B6C5B6C5B6C5B6C5B6C5B6C5F2
:10570000B6C5B6C5B6C5B6C5B6C5B6C5B6C5B6C5C1
:1057100096BD96BD96BDB6BDB6C5B6C5B6C5B6C531
:10572000B6C5D6C5F6CDF6CDF7CDF7CDF7CD17CEAC
:1057300017CE17CE17CE17CE17D637D637D637D6C1
:1057400038D658D638D638CE58D623298D7B78D639
:1057500057D6D9E678DE98DED8E65AF77AFF7AFF90
:105760007AFF7AF77AFF9AFF7AFF7AFF59F7F8EE15
:10577000B7DE97D697D677D677CE77CE78CE78CE57
:1057800078CE78CE78CE78CE285B285B285B285BF5
:10579000485B485B485B485B485B685B695B685B90
:1057A000685B685B685B685B685B685B685B695BE0
:1057B000695B695B695B695B6A63CC7373AD37C6B0
:1057C00037C638CE38CE38CE38CE38CE38CE38CEB2
:1057D00038CE38CE18C6F8C5F7C5D7C5D7C5D7BD9A
:1057E000D7BDD7BDF7C5D6C574B5D1A4AD83A86A5A
:1057F00087628762A862A86AA96AA86AC86AE86A12
:105800000A6B719496B5D8BDD8BDD8BDD8BDB7B513
:1058100077AD97B597ADB7B5B7B5B7BDD7BDD8C557
:10582000F8C5F8C5F8C5F8CDF8C5F8CDF8C5F8CD78
:10583000F7CD17CE95C5CE8B485A074A0752075267
:1058400027524852485A685A685A485AA962895A8F
:10585000CE8374BDB5C5D6C5B5C5D6CDD6C5B6C57E
:1058600095C595C595BD75BD54BD54BD34B534B50C
:1058700054B574BD95BD95BD95C595BD54B5909C69
:105880004B7B2752E651E649E649E649E649E649B7
:10589000064A064A0752074A074A07520752275242
:1058A000685A0B6B8D7B5094B1A4D2A4D2A4D2A41D
:1058B000929C929C719C71947194929C929C929CEB
:1058C000D2A4D3A4D3A4D3A4D3A4F3A4F3A4F3A4C1
:1058D000F3ACF3ACD3A4D3A414AD75B518CED39C5C
:1058E0000842A639C641C641C641E641074A074AB1
:1058F000074A274A274A4852284A48526952CA5AF0
:105900000B634C73AD7BCD832F9495BD74B512ADF5
:10591000F2AC13AD13ADF2ACF3AC13AD33B554B57B
:1059200054B554B554B534B554B5D2A4709CD2A472
:10593000D2A4F2A4D1A4D2A4B1A4B1A4B19C909455
:1059400078D69CF71ADFF19CCD734C63EB52894AF1
:1059500049426942694269428A42CB4AEC52EC525E
:105960000C5B2D5B2D5B4E63317CF494938C6E63EA
:10597000EC52CC52AB4AEC52D7B559C6F8BD97B5EC
:10598000CC5A2942294249426A4AAB4ACB52EC528C
:10599000EC52EC52EC52CC52CC52AB4AAF6B117C75
:1059A000D0732D5BAB4ACB4AEC526E63F073117C23
:1059B000317C317C517C7284938C938C159DAF6BC0
:1059C000093A083A083A083A093A093A293A4A4259
:1059D0000D5B4E630C5BEC52AB52CC52AB52CB52D4
:1059E000CC52CB52CE6BB5AD539DAF8C6E844D7CFB
:1059F0004D7C4D7C2C7C0C7C8E84CF8C2D7C2D7C26
:105A00000D7C0D7C0D740C744D7C4D7C4D7C4D8457
:105A10006E844A63C952C95AC95AAA5AAA52AA528A
:105A2000A95A8962EA722B832A834A8B4A936B9321
:105A30008B9BECA3B0B4F1BCF1BCF0B4F1BCF1BCF5
:105A400011BD11BD11BD12BD32C532BD32BD32C551
:105A500033C553BD73BD73BD74BD74BD74C574C50A
:105A600074BD74BD74BD74BD74BD74BD74BD94C586
:105A7000B5C5B5C5B5C5B5CDB5CDB5CDB5CDB5C536
:105A8000B5C5B5C5B5CDB5CDB5CDD6CDD6CDD5CDB4
:105A9000D5CDF6CDF6CDF6CDF6CDF6CDF6CDD6CD2F
:105AA000D7CDD7CDD7C5D6C5B6C5B6C5B6C596C5AB
:105AB00096C5B6C5B6C5B6C5B6C5B6C5B6C5B6C52E
:105AC000B6C5B6C5B6C5B6C5B6C5B6C5B6C5B6C5FE
:105AD00096BD96BD96BDB6BDB6C5B6C5B6C5B6C56E
