:020000040800F2
:10000000780C0020C1010008710B000815090008D8
:100010006D0B0008E5080008490E0008000000000C
:10002000000000000000000000000000790B000844
:100030001109000800000000750B00087D0B000886
:10004000DB010008DB010008DB010008DB01000820
:10005000DB010008DB010008DB010008DB01000810
:10006000DB010008DB010008DB010008DB01000800
:10007000DB010008DB010008E9080008DB010008DB
:10008000DB010008DB010008DB010008DB010008E0
:10009000DB010008DB010008DB010008DB010008D0
:1000A000DB010008DB010008DB010008DB010008C0
:1000B000DB010008DB010008DB010008DB010008B0
:1000C000DB010008DB010008DB010008DB010008A0
:1000D000DB010008DB010008DB010008DB01000890
:1000E000DB010008DB010008DB010008DB01000880
:1000F000DB010008DB010008DB010008DB01000870
:10010000DB010008DB010008DB010008DB0100085F
:10011000DB010008DB010008DB010008DB0100084F
:10012000DB010008DB010008DB010008DB0100083F
:10013000DB010008DB010008DB010008DB0100082F
:10014000DB010008DB010008DB010008DB0100081F
:10015000DB010008DB010008DB010008DB0100080F
:10016000DB010008DB010008DB010008DB010008FF
:10017000DB010008DB010008DB01000800000000D3
:10018000DB010008DB010008F10C0008DB010008BE
:10019000DB010008DB010008DB01000800000000B3
:1001A000DB010008DB010008DB010008DFF80CD0F0
:1001B00000F024FB0048004779180008780C002064
:1001C0000648804706480047FEE7FEE7FEE7FEE7F1
:1001D000FEE7FEE7FEE7FEE7FEE7FEE78D0B000821
:1001E000AD0100082DE9FE4F804681EA0300C00FF3
:1001F0000C46009021F0004123F00045B8EB0200CE
:10020000A94105D24046214690461C460B4602466F
:1002100023F00040104347D0270DC7F30A00C3F373
:100220000A510290401A019040286BDAC3F3130080
:1002300040F4801B0098924620B10023D2EB030AC1
:1002400063EB0B0B01985946C0F14002504600F099
:10025000D8F906460D4650465946019A00F0E0F995
:1002600010EB08006141002487EA115284EAE77329
:100270001A4340D0009A62B3019A012A4FEA07520A
:1002800015DC001B61EB02014FF0004202EA07524D
:10029000CDE90042001C41F5801132462B4600F0AA
:1002A00017FA03B0BDE8F08F40462146F9E7001B7E
:1002B00061EB0201001C41F5801300185B4120181E
:1002C000A2F5001747EB030140EAD570B6196D415E
:1002D00011E06D084FEA360645EAC0754FEA07524D
:1002E000001B61EB0201001C41F5801149084FEA37
:1002F00030000019514132462B4603B0BDE8F04FA3
:1003000000F0D7B90098012240000023D0EB020290
:1003100063EBE073009821464FEAE074B8EB00000D
:1003200061EB0401E9E783F000435BE781F0004102
:1003300058E72DE9FE4F81EA030404F0004421F060
:10034000004100944FF0000B23F0004350EA0104F9
:100350005ED052EA03045BD0C3F30A54C1F30A55DA
:100360002C44A4F2F3340194A0FB0254C1F3130112
:1003700041F48011C3F3130343F4801301FB0244DF
:1003800000FB034E840A970A44EA815447EA8357E4
:10039000A4FB076802958D0A05FB07854FEA932C9D
:1003A00004FB0C542705029D4FEA065847EA16370E
:1003B000B5EB08056EEB070C870E920E47EA811726
:1003C00042EA8312A7FB0201B6EB0B0164EB0004C7
:1003D0002B0D43EA0C335E1844EB1C50DA465146B1
:1003E000E7FB0201C5F313044FEA0B3343EA14534E
:1003F0004FEA0432019C43EA0603A4F10C04029480
:10040000009CCDE900B400F063F903B0BDE8F08FC3
:1004100000200146F9E72DE9F04D81EA030404F0DC
:10042000004B21F0004514464FF0000A23F0004134
:1004300050EA050220D054EA01021DD0C5F30A5744
:100440000246C5F31303C1F31300C1F30A5640F487
:10045000801543F48013A7EB0608101BD64608F25C
:10046000FD3873EB050002D308F1010801E0921892
:100470005B41B8F1000F03DA00200146BDE8F08DC2
:1004800000204FF48011064684460EE0171B73EBE4
:10049000050705D3121B63EB050306434CEA010C69
:1004A00049084FEA300092185B4150EA0107EDD14C
:1004B00052EA030012D082EA040083EA05010843ED
:1004C00005D0101BAB4106D20122002306E000221A
:1004D0004FF0004302E06FF0010253101AEB0600E8
:1004E0004CEB085110EB0A0041EB0B01BDE8F04D5D
:1004F00000F0DFB80EB5C10F80EAE0700844CA070B
:10050000002140F233438DE80E000A460B4600F00E
:10051000DFF803B000BD00F0004230F000400AD028
:10052000C10D01F56071C0F3160042EA0151C20825
:1005300040071143704700200146704701F0004317
:1005400030B421F0004150EA010206D00A0DA2F5B4
:100550006072C1F31301002A02DC30BC0020704736
:10056000440F44EAC104C100E01830BC00EBC250A3
:1005700000F068B830B50B46014600202022012467
:1005800009E021FA02F59D4205D303FA02F5491B61
:1005900004FA02F52844151EA2F10102F1DC30BD77
:1005A0002DE9F05F0546002092469B4688460646A8
:1005B000814640241BE0284641464746224600F03B
:1005C0002FF953465A46C01A914110D31146184686
:1005D000224600F016F82D1A67EB01084F46224616
:1005E0000120002100F00DF817EB00094E41201EFC
:1005F000A4F10104DFDC484631462A464346BDE803
:10060000F09F202A04DB203A00FA02F10020704714
:100610009140C2F1200320FA03F319439040704740
:10062000202A06DBCB17203A41FA02F043EAE073B6
:1006300006E041FA02F3D040C2F1200291400843A3
:10064000194670470029A8BF7047401C490008BFE1
:1006500020F00100704710B4B0FA80FC00FA0CF0F2
:1006600050EA010404BF10BC704749B1CCF120042A
:1006700021FA04F411FA0CF118BF012121430843B7
:10068000A3EB0C01CB1D4FEA00614FEA102042BFE3
:10069000002010BC704700EBC35010440029A4BFD9
:1006A00010BC7047401C490008BF20F0010010BC7E
:1006B000704710B5141E73F1000408DA401C41F1B4
:1006C000000192185B411A4301D120F0010010BDD6
:1006D0002DE9F04D92469B4611B1B1FA81F202E04C
:1006E000B0FA80F220329046FFF78BFF04460F46A7
:1006F00040EA0A0041EA0B0153465A46084313D028
:10070000114653EA010019D0C8F14002504600F0EA
:1007100087F805460E46504659464246FFF771FF98
:10072000084305D0012004E020463946BDE8F08D9D
:100730000020054346EAE0762C4337430A986305D8
:10074000E40AA0EB08000022FD0A44EA47540A30FC
:1007500002D500200146E9E7010510196941DDE9EC
:10076000084500196941BDE8F04DA2E7C1F30A52FE
:10077000C1F3130140F2FF3341F480119A4202DACF
:1007800000200146704740F233439A42A2F23342BE
:1007900002DC524200F044B8FFF733BF30B5041E0C
:1007A00071F1000404DB4FF00044404264EB0101AE
:1007B000141E73F1000405DB1C464FF00043524247
:1007C00063EB04038B4208BF824230BD30B5041E88
:1007D00071F1000404DB4FF00044404264EB01017E
:1007E000141E73F1000405DB1C464FF00043524217
:1007F00063EB0403994208BF904230BD064C074D9D
:1008000006E0E06840F0010394E8070098471034E0
:10081000AC42F6D3FFF7CEFCB8400008D840000841
:10082000202A04DB203A21FA02F00021704721FA45
:1008300002F3D040C2F120029140084319467047AC
:100840002DE9F04D00231A461B1A8A4103DB0020D4
:100850000146BDE8F08DC1F30A52C1F3130141F422
:1008600080154FF0000BD10702D100186D41521EC8
:100870000027044640F2FF11384601EB620A3E466B
:100880008046024600204FF48011FFF7C9FFC219CD
:100890007141BB1846EB0100B4EB030C75EB000C87
:1008A00004D3E41A65EB000517460E46241908F137
:1008B00001006D4180463428E3DDF91946EB06005E
:1008C000091BA84103D24FF0FF32134601E000227A
:1008D00013461BEB070046EB0A51BDE8F04DFFF74E
:1008E000E8BE0000FEE7000010B546F20004C4F2C6
:1008F000020420460321202200F068FC012818BFD2
:1009000010BD204603212022BDE8104000F042BC6B
:1009100070470000FEE700002DE9F04145F2004479
:100920001D46164688460746C4F20004204640F29B
:10093000016100F085FF0028F8D1022D04D1204686
:100940004FF4006100F056FF20467F0000F088FF62
:1009500020464FF4A06100F073FF0028F8D0FFB2EA
:10096000204639466FF0010200F072FF204640F247
:10097000015100F065FF0028F8D0204640F20151F7
:1009800000F04AFF204640F2075100F059FF0128CD
:10099000F8D1204600F03AFF2046414600F034FFEF
:1009A000204640F2025100F04BFF0028F8D02046CC
:1009B00000F056FF20464FF4A06100F041FF0028F0
:1009C000F8D020463946012200F042FF022D03D81C
:1009D0002046002100F008FF204640F2015100F0BF
:1009E0002FFF0028F8D0204640F2015100F014FFFC
:1009F000012D0ED120464FF4006100F0FBFE204691
:100A000000F034FF05E0204640F2065100F018FFE8
:100A100068BBEFB2032FF6D8DFE807F030021C0CFA
:100A20002046002100F0E6FE2046002100F0DCFE1A
:100A3000E9E700BF204640F2025100F001FF002824
:100A4000F8D02046002100F0CFFE012FE8D0022F81
:100A5000D9D100BF204640F2025100F0F1FE00283B
:100A6000F8D0204600F002FF012FD9D0CBE7204676
:100A700000F0C6FE06F8010B013DCAE720688005BC
:100A8000FCD420464FF4806100F0AEFE20460021E9
:100A900000F0B0FE0020BDE8F08100002DE9F0413B
:100AA00045F200441D46164688460746C4F2000437
:100AB000204640F2016100F0C3FE0028F8D1204634
:100AC00000F0CEFE20464FF4A06100F0B9FE0028F1
:100AD000F8D07800C1B220466FF0010200F0B8FEF5
:100AE000204640F2015100F0ABFE0028F8D020462D
:100AF00040F2015100F090FE204640F2075100F014
:100B00009FFE0028F8D02046414600F07DFE00BF41
:100B1000204640F2025100F093FE0028F8D07DB14B
:100B200016F8011B204600F06FFE00BF204640F281
:100B3000025100F085FE0028F8D0013D2806EFD1D3
:100B4000204600F093FE00BF20688005FCD4002002
:100B5000BDE8F08194461A466346FFF7DDBE00000B
:100B600094461A466346FFF799BF0000FEE700006F
:100B700070470000704700007047000080B500F02B
:100B800079FABDE8804001F01DBB000081B04EF64F
:100B90008851CEF200010A6843F6080042F4700260
:100BA000C4F202000A6050F8081C41F0010140F84C
:100BB000081C00BF50F8081C8907FBD5016841F0EC
:100BC0008001016000210091009A4F2A06D800BFE1
:100BD000009A01320092009A502AF9D3026842F03A
:100BE00090020260009100994F2905D800990131C7
:100BF000009100995029F9D301684FF6FF7221F056
:100C00000301016050F8081CCFF6F662114040F86D
:100C1000081C50F8081C4FF0000C21F4802140F80B
:100C2000081CC0F800C0026843F21002C2F2004281
:100C300040F8042CC0F804C050F8082C42F001021F
:100C400040F8082C40F2FF4250F8081C013A4CF1E1
:100C50000003890701D4002BF6D150F8081C89073E
:100C600001D400BFFEE7826B47F2000142F08052E0
:100C7000C4F2000182630A6842F440420A600268DA
:100C80000260026842F400420260026842F4A0522C
:100C9000026047F61002C0F6002240F8042C50F81B
:100CA000082C42F0807240F8082C00BF50F8082C45
:100CB0009201FBD50A6842F480320A604A68D20386
:100CC000FCD50A6842F400320A6000BF4A68920309
:100CD000FCD5016821F003010160016841F00201C7
:100CE000016000BF01680907FCD501B07047000032
:100CF00070B588B047F60004C4F2000440F2043135
:100D0000C0F20401204601F0FDFE012879D1204601
:100D100001F0FEFD04F5F6300121012600F042FB52
:100D200040F65401C2F200010E7040F2540640F643
:100D300056050021C2F20006C0F50060C2F20005AF
:100D40008DF81F10049131787278288083B22EA01C
:100D500001F04CFF30787B284CD1717801290DD0FF
:100D600091BBB5F9001040F2540003AEC2F200008E
:100D700006AA05AB009601F00BF93BE005A8B5F912
:100D80000010009040F2540004AEC2F200000DF1D9
:100D90001F0206AB019601F0A1F89DF81F00012883
:100DA00016D038BB069840F25001C2F2000108602C
:100DB000059840F24C01C2F200010860049840F22C
:100DC0004801C2F2000114E018A001F00FFF11E089
:100DD000069840F66001C2F200010860059840F6EE
:100DE0005C01C2F200010860049840F65801C2F2AA
:100DF0000001086004F5F430032100F047F900F029
:100E000025F808B070BD00BF70726F746F636F6CAF
:100E10002073746172742070617273653A20255872
:100E20002025782025640D0A0000000070726F7480
:100E30006F636F6C206E6F742070617273653A20FF
:100E400025780D0A00000000FEE7000010B58AB00A
:100E500040F6154001F074F946F20004C4F20204B1
:100E60002046032100F032F9A4F5F23040F254019B
:100E7000A0F57F70C2F200010190012003910021D2
:100E80000290CDE906014FF4006008904FF4403025
:100E9000CDE90411099001AA2046032100F038FA97
:100EA00020460321052200F005F92046032100F029
:100EB000F7F820460321102200F05EF90E200221EF
:100EC000012200F0ADFFA4F5F430402101F0ECFD6B
:100ED0000AB010BD70B5054641F21E0001F030F9B0
:100EE00040F6054001F02CF947F60004C4F2000476
:100EF00004F5CE3630460821802200F0EFFB304664
:100F00000821402200F0EAFB304602210122802322
:100F100000F01CFC304602210122402300F016FCA8
:100F2000304600210222802300F03AFC30460021A6
:100F30000222402300F034FC204601F0F1FC204660
:100F4000294601F07DFC2046002101F02BFE2046C1
:100F5000002101F043FE2046002101F031FE204631
:100F600001F0B6FD2046082101F032FE20460421A2
:100F700001F020FE52200221022200F051FF204603
:100F800040F2053101F0B2FD20464FF44171BDE859
:100F9000704001F0ABBD000010B547F60004C4F28C
:100FA00000040146204601F0B7FC00BF204607219F
:100FB00001F094FD0028F9D010BD000080B5482054
:100FC00000F04EF84FF41650FFF784FFBDE8804064
:100FD000FFF73CBF704700002DE9F04381B0804629
:100FE0007A208946FFF7D8FF0120FFF7D5FF4FEAA7
:100FF0008904E0B2FFF7D0FFB9F1010F24DB44F020
:1010000001040020002700BF58F82050E8B22E0E3F
:10101000FFF7C2FFC5F3072054FA85F4FFF7BCFFC2
:10102000C5F30740FFF7B8FF3046FFF7B5FF04EB05
:101030001560013750FA95F1F8B2484551FAA5F418
:10104000E2DBA0B2000A01E0C9F39710C0B2FFF7DB
:10105000A3FF7B2001B0BDE8F043FFF79DBF000078
:1010600040F23801C2F20001086000BF08680028A1
:10107000FCD1704740F23800C2F20000016800293C
:1010800008BF7047016801390160704701EB4101F9
:1010900000EBC100016921F001010161704700000E
:1010A00001EB410100EBC100016941F00101016167
:1010B0007047000001EB410100EBC100016921F024
:1010C000606141EA426101617047000001EB410249
:1010D00000EBC20213694FF03D0C23F001031361D2
:1010E0000023136153619361D361136253620A1F3A
:1010F00028BFD1B201EB410301F002014FF00C0215
:101100004FEA410138BF082201EB430113580CFAA2
:1011100001F11943115070470B1F38BF0B46D9B26C
:101120004FEA410151FA83F103F002034FF00C0C36
:101130004FEA430338BF4FF0080C03EB41015CF862
:10114000003002FA01F119434CF80010704700001A
:101150000B1F34BF0B460430D9B2490051FA83F15A
:1011600003F002035B00006803EB410102FA01F1A6
:10117000084018BF01207047102301EB4101802A6D
:1011800008BF2423184450F831301A4340F8312066
:10119000704700000B1F38BF0B46D9B24FEA410120
:1011A00051FA83F103F002034FF00C0C4FEA4303B2
:1011B00038BF4FF0080C03EB41015CF8003002FA35
:1011C00001F119434CF8001070470000F0B50329F5
:1011D00021D8561E1F2E4FF0000300F28C804FF0D6
:1011E000800C24248E460546DFE806F06C858510C9
:1011F0008585853A8585858585858541858585852E
:101200008585858585858585858585484FF0020C92
:101210001024042228E0561E1F2E4FF0000300F277
:101220006A800FF20C0202EB86070A1FDFE806F065
:101230001063632B63636333636363636363633B61
:10124000636363636363636363636363636363438E
:10125000051D5FFA82FE4FF0800C2424012231E04C
:101260004FF0040C102408228E4605462AE04FF069
:10127000080C10228E460546102423E0102420225C
:101280008E4605461CE0051D5FFA82FE4FF0020CFB
:101290001024042216E0051D5FFA82FE4FF0040CB4
:1012A000102408220EE0051D5FFA82FE4FF0080CA4
:1012B0001022102406E0051D5FFA82FE1024202271
:1012C0004FF0100C0EF002072B680EEB4E057F005E
:1012D000204401EB410107EB450750F83100BA40CB
:1012E00013EA020100EA0C0018BF0121002818BF10
:1012F000012001EA00031846F0BD000001EB410C9B
:101300002021002A08BF1C21084440F83C307047C7
:1013100080B501EB410100EBC100416A48F23F7327
:1013200021F0040141621168CFF6FC73816191687C
:10133000C161D16941610169D2F818E001EA030C89
:10134000116A136941EA0C0141EA830141EA0E0185
:10135000194301615168012907D00029016914BFAF
:1013600041F4004141F4007102E0016921F400718F
:101370000161D1680369002923F4806308BF03F584
:101380008063036151690269002922F4807208BFF9
:1013900002F58072026180BD01EB410100EBC100EA
:1013A0004261704701EB410100EBC10040697047A9
:1013B0002DE9F04F89B01446DDE9129288460021EC
:1013C000A9F8001040F24601C2F2000109780DF1BF
:1013D000040A8346084651461E4600F00BFC20B125
:1013E0004FF0FF3009B0BDE8F08F40F24407C2F281
:1013F0000007388810F0140F49D09DF805100096AA
:101400009DF80400BDF8066009049DF8093041EA22
:10141000006031BA40EA11419DF8082021601904AA
:10142000BDF80A3041EA02611ABA41EA124262602A
:101430009DF80D209DF80C30BDF80E60120442EAB4
:10144000036233BA42EA1343A3609DF811309DF85A
:10145000106010FB30F01B04BDF8125011FB31007E
:1014600043EA066312FB32002EBA13FB33006FF01F
:10147000885143EA164546184FF6FE70CFF6FF50E6
:101480008642E56005D800F00BFC002005E0002056
:101490000BE0B9F8000040F480706FF000718E42EC
:1014A000A9F800009CD3009E102039884A062BD54D
:1014B00040F001031AF800201AF80330374643EAD7
:1014C000022240F0020340F003061AF803301AF833
:1014D0000660A8F8002046EA032240F0040340F02A
:1014E00005061AF803301AF80660A8F8022046EA42
:1014F0000322A8F80420B9F800203E4640F0060078
:1015000042F00802A9F8002011F4C07F18D03AF880
:1015100000200AEB000312BA5F88120CABF800201F
:101520003ABA9B88120CABF802201ABA120CABF82C
:101530000420B9F80020063042F07002A9F800201B
:1015400089071CD00AEB00056878EC78C0070BD03F
:1015500040F23C00C2F2000002682AB104F0070029
:10156000411CC4F3C20090476878000707D540F2D9
:101570004000C2F20000016809B1A0098847304666
:1015800000F0CCF9002009B0BDE8F08F2420C4F2AF
:101590000000006800B27047B0B54FF4406000F042
:1015A000CFFD40F6014000F0CBFD0024C4F2020460
:1015B0002046022100224FF4004300F0C7F804F552
:1015C0008065284602210022082300F0BFF820464B
:1015D000002102224FF4004300F0E2F828460021E7
:1015E0000222082300F0DCF8204601214FF40042DB
:1015F00000F074F828460121082200F06FF8BDE8D9
:10160000B04000F001B8000010B586B04FF4805033
:1016100000F096FD4FF0807000F0C2FD02AC204655
:1016200001F006F94FF0804000F022FF4FF08040BB
:10163000214600F0C7FF6C46204600F0EFFD502029
:10164000ADF806004FF080400021224601F010F86E
:101650004FF080400121224601F00AF84FF080400F
:1016600003210222002301F0BBF84FF0804000F07C
:10167000A3FF06B010BD0000B0B546F2004440F62E
:101680007005C4F20204C2F200052870204607214A
:10169000FFF7FCFC204607212022FFF73DFD2046F6
:1016A000072100222B46FFF729FE204607210122B1
:1016B000FFF772FE20460721FFF7F2FC20460721C4
:1016C0002022FFF745FD0028F8D00020B0BD000023
:1016D00040F66C00C2F2000000687047F0B5D0F828
:1016E00020E0D0F824C000230F27002505E000BF2C
:1016F0000135082D03F104030CD022FA05F6F60794
:10170000F6D007FA03F62EEA060601FA03F446EAD3
:10171000040EEDE7082300240F2504E00133102B0D
:1017200004F104040CD022FA03F6F607F6D005FA09
:1017300004F62CEA060701FA04F647EA060CEDE780
:10174000C0F820E0C0F824C0F0BD00002DE9F04151
:10175000D0F800E0D0F80CC000244FF003080026B9
:1017600005E000BF0136102E04F1020412D023FA66
:1017700006F7FF07F6D008FA04F72EEA070E01FA7B
:1017800004F54EEA050E2CEA070702FA04F547EACB
:10179000050CE7E7C0F800E0C0F80CC0BDE8F08138
:1017A000B0B50129416814BF994319434160D0F88D
:1017B00008C000214FF0030E002404E00134102C77
:1017C00001F102010CD023FA04F5ED07F6D00EFA70
:1017D00001F52CEA050C02FA01F54CEA050CEDE7DF
:1017E000C0F808C0B0BD0000026822F48062114356
:1017F00001607047026822F4006211430160704783
:101800000069C0B27047000001617047016841F093
:10181000010101607047000040F20152914202D183
:1018200041698069704701F01F0289094FF0010C7E
:101830000B580CFA02F223EA02020A507047000029
:101840008A09105801F01F01C84000F001007047DC
:1018500021F00101023218BF01310161704700001F
:10186000016841F48071016070470000016841F433
:10187000007101607047000000F0ACFC4FF4A06004
:1018800000F022FB4FF4E13001F0AEF800F048F830
:10189000FFF782FEFFF792FBFFF79CFB4FF4FA7015
:1018A00000F05CF8FFF772FEB0F51C7FF6DB00205D
:1018B00000F054F84FF4FA70FFF7D2FBFFF766FE22
:1018C000014644F26F00C0F6000001F08FF9FFF707
:1018D000FFFE40F6640440F6680840F674060546CC
:1018E000C2F20004C2F20008C2F2000604E0204680
:1018F0000121FFF771FB3D46FFF7EAFE0746401B5B
:101900006528F9D320464146324600F0ADF800285C
:10191000EDD00520FFF7A4FB3D46EDE77047000042
:1019200010B54FF4406000F00BFC0024C4F2020438
:101930002046022100220F23FFF708FF2046022144
:101940000F22FFF7CBFE2046002102220F23FFF7D4
:1019500027FFBDE8104000F019B80000B0B540F610
:101960000045044620EAE0720020C4F20005002C85
:1019700058BF04462846002100F06EFD284601218C
:101980002246BDE8B04000F067BD0000B0B588B0A9
:1019900041F2030000F0D4FB4FF0807000F000FC37
:1019A00004AD284600F044FFC72040F60044ADF8DF
:1019B000100041F61F40C4F200040690204600F0DB
:1019C00057FD2046294600F0FDFD01AD284600F0F8
:1019D00049FD0120ADF80400204600212A4600F010
:1019E00023FC204601212A4600F01EFC204602214D
:1019F0002A4600F019FC204603212A4600F014FC78
:101A000020460021002200F027FD2046012100226F
:101A100000F022FD20460221002200F01DFD20469C
:101A20000321002200F018FD20460021602200F072
:101A3000F5FC20460121602200F0F0FC2046022146
:101A4000602200F0EBFC20460321602200F0E6FC5F
:101A50002046012100F0BAFE204600F0ADFD08B09E
:101A6000B0BD0000000000002DE9F0412DED0E8B0F
:101A70008CB004460DF11E0090460D460DF11D0779
:101A800000900DF1260008A903AA0BAB0197FFF700
:101A90008FFC08B10120A0E0BDF81E00C00501D4F4
:101AA00002209AE09DED030A9DED041A9FED504A35
:101AB0009DED052AB8EEC00A9DED063A20EE049A87
:101AC000B8EEC10A20EE04CAB8EEC20A20EE04AA9B
:101AD000B8EEC30A20EE04BAB8EE000A2CEE00DA23
:101AE00039EE098A28EE0A0A2DEE0B1A31EE000AA9
:101AF00010EE100AFEF70FFD41EC100B01F0A0F8FC
:101B000051EC100B9FED380B56EC107B3A463346E8
:101B1000FEF70FFCFEF712FD3AEE0AEA28EE0C0A79
:101B20002EEE0B1A31EE000A206010EE100AFEF7BE
:101B3000F2FC2AEE0E0A2DEE0C1A31EE400AB7EE38
:101B4000001A30EE010A41EC180B10EE100AFEF7F5
:101B5000E2FC41EC110BB0EE480AF0EE680A01F02D
:101B60008BFB51EC100B3A463346FEF7E2FBFEF7D7
:101B7000E5FC29EE0B0A2CEE0A1A31EE000A30EED3
:101B8000000A286010EE100AFEF7C5FC2CEE0C0AC5
:101B900029EE091A31EE000A2AEE0A1A30EE410A3D
:101BA0002BEE0B1A30EE410A41EC180B10EE100A26
:101BB000FEF7B1FC41EC110BB0EE480AF0EE680AFA
:101BC00001F05AFB51EC100B3A463346FEF7B1FBDD
:101BD000FEF7B4FCC8F8000000200CB0BDEC0E8B82
:101BE000BDE8F08100BF00BF6666666666A64C4031
:101BF000000080302DE9F04182B040F20C07C2F2C3
:101C000000070E4697F8241005464FF0FF30E1B369
:101C1000B97AD1B3D7E9001014460078897A0DF16A
:101C200006030222FEF796FF28BBBDF8060001BAA4
:101C3000B5EB114F02D9002020701CE0796890FAB2
:101C400090F84A88B8EB520F0CD93A680878517C62
:101C50000DF106030122FEF77DFF60B99DF8060035
:101C6000C00615D4D7E90010EAB20078C97A334625
:101C7000FEF770FF20B14FF0FF3002B0BDE8F081F9
:101C8000B8FBF5F001382070002002B0BDE8F0810B
:101C900000F006F86FF0010002B0BDE8F08100002E
:101CA00010B582B040F20C04C2F20004A07A00B376
:101CB00000208DF80700D4E900100DF1070300782B
:101CC000C97B0122FEF74CFF98B9D4E900100DF151
:101CD0000703007849790122FEF742FF48B9D4E9A9
:101CE00000100DF10703007809790122FEF738FF93
:101CF00018B14FF0FF3002B010BD94F82400002856
:101D000045D00C208DF80700D4E900100DF1070331
:101D1000007809790122FEF723FF0028E9D132205B
:101D2000FFF79EF9A07A0DF10703C0076FF01F00BF
:101D300008BF6FF03F008DF80700D4E900100122C2
:101D400000780979FEF70CFF0028D2D1607C0DF1F4
:101D50000703002818BF012040008DF80700D4E9D0
:101D6000001001220078C97BFEF7FAFE0028C0D1DE
:101D700000208DF80700D4E900100DF1070300786A
:101D800049790122FEF7ECFE0028B2D145E004209B
:101D90008DF80700D4E900100DF1070300780979E8
:101DA0000122FEF7DDFE0028A3D1A07AA17CC007A6
:101DB0004FF0600008BF4020002918BF40208DF878
:101DC0000700D4E900100DF107030078097901221A
:101DD000FEF7C6FE00288CD13220FFF741F9607C67
:101DE0000DF10703002818BF01208DF80700D4E982
:101DF000001001220078C97BFEF7B2FE00287FF4B4
:101E000078AFD4E9001004F1100300784979012279
:101E1000FEF7A6FE00287FF46CAF002002B010BDD4
:101E20004EF60C5CCEF2000CDCF8003003F4E063FC
:101E3000B3F5E06F01D104232AE0DCF8003003F4AD
:101E4000E063B3F5C06F01D1032321E0DCF800307B
:101E500003F4E063B3F5A06F01D1022318E0DCF8CE
:101E6000003003F4E063B3F5806F01D101230FE08C
:101E7000DCF8003003F4E063B3F5407F01D10023C8
:101E800006E040F20053C0F2FA53CCF800300223CF
:101E900001FA03FCC3F104030F21D94011404EF2B3
:101EA000001241EA0C01CEF20002090140EA0203ED
:101EB00083F8001300F01F01012303FA01F11C2332
:101EC00003EAD0008150704740F080604EF60C511C
:101ED00040F0FD70CEF20001086070472DE9F0413E
:101EE0002DED028B84B012293ADB1C4615460646BE
:101EF0000278037C44F27F00C0F6000000F076FE1A
:101F000030787B282CD17078012829D1707C7A28F0
:101F100026D1F078DDF83080287070680D99206047
:101F2000B068C8F80000F6680E6020682D78FEF7EB
:101F3000F2FA0446D8F800000F46FEF7ECFA41EC3E
:101F4000180B3046FEF7E7FA41EC100B07A02946C4
:101F500022463B468DED008B8DED020B00F046FED8
:101F600004B0BDEC028BBDE8F08100BF74797065F0
:101F70003D2564206B703D253266206B693D25321E
:101F800066206B643D253266200D0A0000000000CB
:101F90002DE9F04381B02DED028B84B00B2957DB86
:101FA0001C46154606460278837A44F27F00C0F646
:101FB000000000F01BFE30787B2849D170780028A3
:101FC00046D1B07A7A2843D1B6F80300DDF83890CC
:101FD00040BAFEF78FFA9FED220B58EC107B3A4681
:101FE0004346FEF718FAFEF7A9FA2860B6F805008E
:101FF00040BAFEF77FFA3A464346FEF70CFAFEF780
:102000009DFA2060B6F8070040BAFEF773FA3A4628
:102010004346FEF700FAFEF791FAC9F800000646BB
:102020002868FEF778FA054620680F46FEF773FA2F
:1020300041EC180B3046FEF76EFA41EC100B0AA08B
:102040002A463B468DED008B8DED020B00F0CEFD58
:1020500004B0BDEC028B01B0BDE8F08300BF00BF4F
:102060000000000000005940783D25326620793D8F
:10207000253266207A3D253266200D0A00000000D8
:1020800010B543F60402C4F2020253680146C3F3DA
:10209000810342F20040022BC0F2F40006D0012B73
:1020A0001FD147F64000C0F27D101AE0D2F800C000
:1020B00013680CF03F0CC3F3881E13681468C3F355
:1020C0000143640247F64004C0F27D1458BF044641
:1020D000B4FBFCF4022000EB430004FB0EF3B3FB63
:1020E000F0F05368D2F804C0526803290FD8C3F344
:1020F00003130FA4E35C44F2400E20FA03F3C0F68E
:10210000000EDFE801F01302060D184610BD002096
:1021100010BDCCF382201EF8000023FA00F010BDA1
:10212000C2F342301EF8000023FA00F010BD00BFD9
:102130000000000000000000010203040607080977
:1021400043F6000300F01F018009C4F202034FF0C0
:10215000010CC2580CFA01F11143C1507047000044
:1021600043F6000300F01F018009C4F202034FF0A0
:10217000010CC2580CFA01F122EA0101C15070476A
:1021800043F6000300F01F018009C4F202034FF080
:10219000010CC2580CFA01F11143C1507047000004
:1021A00043F68C0CC4F2020CDCF800206FF0807156
:1021B00042EA0003884208BF22F08073CCF8003066
:1021C0007047000040F66C00C2F200000168013167
:1021D0000160704740F20800C2F20000006844F657
:1021E000D351C1F26201A0FB01014FF0FF3000EBBF
:1021F0009110B0F1807F00D3FEE74EF21001CEF2D5
:10220000000148604EF62350CEF20000F02202702A
:10221000002207238A600B60027070474FF4803100
:10222000016000214160704780B5032900F2F4800D
:10223000DFE801F002AE4185016A21F0010101628F
:10224000816921F0030181611188036A19430162E8
:10225000016A002321F002010162B2F804C0D0F843
:1022600020E020F48061C4F2010399424EEA0C019F
:10227000016240F0D180016A21F0040101625188BD
:10228000036A19430162016A21F008010162D188E1
:10229000036A1943016250F8041F21F48071016040
:1022A0001189036819430160016821F4007101601C
:1022B00051890268AEE0016A21F480710162C1694E
:1022C00021F00301C1611188036A43EA012101621F
:1022D000016A002321F400710162B2F804C0D0F851
:1022E00020E020F48061C4F2010399424EEA0C21FF
:1022F000016240F09180016A21F48061016251889D
:10230000036A43EA01210162016A21F4006101626A
:10231000D188036A43EA0121016250F8041F21F4C5
:10232000805101601189036843EA0111016001686D
:1023300021F4005101605289016812016AE0016ACA
:1023400021F480510162C16921F44071C161118899
:10235000036A43EA01310162016A002321F400515A
:102360000162B2F804C0D0F820E020F48061C4F229
:10237000010399424EEA0C31016218BF80BD50F84A
:10238000041F21F48041016012890168920141E03B
:10239000016A21F010010162816921F440718161BB
:1023A0001188036A43EA01110162016A002321F0E6
:1023B00020010162B2F804C0D0F820E020F480616E
:1023C000C4F2010399424EEA0C11016224D1016A60
:1023D00021F0400101625188036A43EA0111016260
:1023E000016A21F080010162D188036A43EA011188
:1023F000016250F8041F21F48061016011890368B3
:1024000043EA81010160016821F4006101605289A1
:10241000016892001143016080BD0000032988BF5C
:102420007047DFE801F0020E050B50F8181F01E0BD
:1024300050F81C1F21F07001016008E050F81C1FCB
:1024400001E050F8181F21F4E04112020160016818
:10245000114301607047000003299CBF00EB81001D
:102460004263704700218160416001607047000055
:1024700010B541F6FF31C4F2000188421BDC40F682
:10248000FF31C4F20001884230DD41F2FF31C4F275
:102490000001884250DC40F60041C4F2000188424D
:1024A00069D041F20001C4F20001884240F082800C
:1024B00040F6040476E040F2FF31C4F201018842A4
:1024C00026DD44F2FF31C4F20101884243DC40F2D0
:1024D0000041C4F20101884250D044F20001C4F22C
:1024E0000101884266D14FF411645BE0B0F1804F86
:1024F00047D040F20041C4F20001884244D040F687
:102500000001C4F20001884254D140F6020449E0BF
:1025100041F60041C4F20001884238D042F2000185
:10252000C4F20001884235D00021C4F20101884282
:1025300040D14FF4106435E041F20041C4F2000193
:1025400088422AD041F60001C4F20001884231D10C
:1025500040F6060426E044F20041C4F2010188423C
:102560001ED044F60001C4F20101884218BF10BD1C
:1025700040F6121416E040F6030413E040F601148E
:1025800010E04FF400640DE040F601040AE040F66C
:10259000070407E040F6080404E040F6050401E003
:1025A00040F611142046FFF7EBFD2046BDE8104031
:1025B000FFF7D6BD10BD0000016841F001010160C8
:1025C0007047000080B50A8840F2004C826240F6F5
:1025D000FF32C4F200029042C4F2010C0FDCB0F1F1
:1025E000804F19D040F20043C4F20003984213D048
:1025F00040F60003C4F2000398420DD018E040F604
:102600000043C4F20003984206D0604504D0002382
:10261000C4F2010398420BD1036823F070030360F6
:102620004B8802681A4302608A8803681A43026072
:1026300041F20002D1F808E020F48063C4F2000205
:102640009342C0F82CE007D0026822F44072026086
:10265000CA8803681A43026040F48062624504BF7E
:10266000097B0163416941F00101416180BD0000C6
:10267000F0B5032900F28B80DFE801F0021B35572B
:1026800084465CF8203F4FF0010E23F00103CCF8A4
:102690000030DCF8003023F00A03CCF80030138857
:1026A000DCF800703B43CCF80030034653F8187F49
:1026B00032E084465CF8203F4FF0100E23F0100308
:1026C000CCF80030DCF8003023F0A003CCF8003068
:1026D0001388DCF8007047EA0313CCF80030034697
:1026E00053F8187F3AE084465CF8203F4FF4807E30
:1026F00023F48073CCF80030DCF8003023F420633E
:10270000CCF800301388DCF8007047EA0323CCF8DB
:102710000030034653F81C7F27F003071F605488DE
:102720001D6804266FF0F00721E084465CF8203F26
:102730004FF4805E23F48053CCF80030DCF8003096
:1027400023F40053CCF800301388DCF8007047EA1B
:102750000333CCF80030034653F81C7F27F440774E
:102760001F6057881C683D020C266FF470472C438D
:102770001C601C683C401C60D4881D68B4402C431D
:102780001C60DCF8003043EA0E03CCF8003003296B
:1027900088BFF0BD9288DFE801F00205080E50F80E
:1027A000181F04E050F8181F07E050F81C1F21F014
:1027B0000C01016005E050F81C1F21F44061120279
:1027C0000160016811430160F0BD0000426C012905
:1027D00022F4004208BF02F5004242647047000044
:1027E000D0F808C042EA03122CF0070CC0F808C069
:1027F000D0F808C041EA0C018160D0F818C040F25E
:1028000003312CEA01018161D0F818C040F20111B6
:1028100041EA0C018161016A21F00A010162016A49
:1028200021F0A0010162016A1143016270470000BA
:1028300000214FF6FF72C0E90011826001737047FA
:10284000B0B5044647F2FF70C4F200000D46844262
:102850004FF000000EDC44F6FF31C4F200018C4260
:1028600017DC44F20041C4F200018C421DD044F652
:10287000000116E040F6FF71C4F201018C422FDC2A
:1028800047F60001C4F200018C420ED047F6004129
:1028900007E044F60041C4F200018C4205D045F245
:1028A0000001C4F200018C4203D102210846FFF767
:1028B000E7FBE168090406D400EB5500B0FBF5F036
:1028C00080B2A060B0BD400000EB5500B0FBF5F059
:1028D0004FF6F0710140C0F342000844A060B0BD63
:1028E00041F20001C4F201018C424FF00301DDD03E
:1028F00041F20042C4F201029442D7D0D9E700006D
:10290000D0F8802022F400621143C0F88010704794
:1029100040686FF35F2070476FF35F21416070473D
:1029200010B547F2FF71C4F20001884214DC44F68E
:10293000FF31C4F20001884224DC44F20041C4F2B9
:10294000000188423CD044F60001C4F200018842F4
:1029500049D140F612043EE040F6FF71C4F2010195
:1029600088421EDC47F60001C4F2000188422AD0EA
:1029700047F60041C4F20001884218BF10BD40F67E
:102980001F0428E044F60041C4F2000188421DD033
:1029900045F20001C4F20001884224D140F614043B
:1029A00019E041F20001C4F20101884211D041F264
:1029B0000041C4F20101884215D140F605140AE035
:1029C00040F6110407E040F61E0404E040F613044C
:1029D00001E040F604142046FFF7D2FB2046BDE894
:1029E0001040FFF7BDBB10BDF0B589B004464FF4F1
:1029F0004060FFF7A5FB41F20410FFF7A1FB0025A3
:102A0000C4F20205284607214FF48062FEF766FEF5
:102A1000284607214FF40072FEF760FE2846022187
:102A200001224FF480630126FEF790FE2846022122
:102A300001224FF40073FEF789FE2846002102228E
:102A40004FF480630027FEF7ABFE284600210222E8
:102A50004FF40073FEF7A4FE204600F065F840F640
:102A60001640FFF76DFB05F5C84420460721FEF729
:102A70002DFB4020069041F20400C4F20100CDE994
:102A800000064FF4403008906A462046072103971D
:102A900004970596FEF73CFC204607210422FEF72A
:102AA00009FB09B0F0BD0000426901F0400122F0CD
:102AB000400242614269114341617047426901F03D
:102AC000800122F0800242614269114341617047F6
:102AD000C16841F40051C160704700008A09105874
:102AE00001F01F01C84000F00100704701F01F0213
:102AF00089094FF0010C0B580CFA02F21A430A50E4
:102B000070470000C1F3891252F800C08A0D1058B6
:102B100001F01F03C1F30441C8402CFA03F108403F
:102B200000F0010070470000B0B541F20004C4F2AB
:102B3000010405462046FFF7F3FE20462946FFF72D
:102B40007FFE2046002100F02DF82046002100F0F5
:102B500045F82046002100F033F820460021FFF719
:102B6000CFFE2046FFF7B4FF2046082100F030F8E2
:102B70002046042100F01EF8252002210222FFF742
:102B80004FF9204640F20531FFF7B0FF20464FF4E1
:102B90004171FFF7ABFF20468021BDE8B040FFF751
:102BA0008DBF0000C26822F4C062C260C2681143D7
:102BB000C1607047C26822F004021143C1607047CF
:102BC000026922F4405202610269114301617047B7
:102BD000C26822F008021143C1607047C26822F443
:102BE0008052C260C2681143C16070470FB4054B88
:102BF00010B503A9044A029800F0C6FD10BC5DF8A8
:102C000014FB0000791600080000002003B40198AE
:102C10004100009850EAC12018BF04204A0D18BF97
:102C200040F0010040F2FF72B2EB515F08BF40F08C
:102C30000200012808BF052002B070470000000014
:102C400070B5C1482DED020B2DED0E8B82B0119D9C
:102C500025F000449FEDBEDB9FEDBFEB84423EDBE1
:102C6000A4F140511098A1F17F6108430FD0BC48F6
:102C7000844202DC28D1109830B39DED100B02B0D5
:102C8000BDEC0E8B02B0BDE8704000F071BC9DED54
:102C9000100B53EC1D2B51EC100BFDF74AFB9DED77
:102CA000100B41EC180B53EC1E2B51EC100BFDF7E5
:102CB00040FB53EC182BFDF795FA41EC100B02B0DA
:102CC000BDEC0E8B02B070BD012000F095FC02B08F
:102CD000BDEC0E8B02B0BDE8704000F05DBCA148B9
:102CE0009FEDA18B844256DA9DED100BB4F1795F14
:102CF0000ADA51EC100BFFF789FF042808BF00F037
:102D00005BFC9DED100BDAE753EC102B51EC100B34
:102D1000FDF70FFB41EC190B95480621B0EE490A6F
:102D2000F0EE690A784400F0A7FB53EC192B51EC44
:102D3000100BFDF7FEFA41EC1A0B8E48B0EE490A73
:102D4000F0EE690A0421784400F096FB53EC192B4D
:102D500051EC100BFDF7EDFA53EC182BFDF742FA8E
:102D600041EC100B51EC1A0B53EC102BFDF753FBFD
:102D7000CDE900019DED000B53EC102B9DED100BE8
:102D800051EC100BFDF7D5FA9DED101B53EC112BF8
:102D9000FDF728FAD2E09DED100B51EC100B01F07D
:102DA00092F853EC182BFDF7C1FA9FED730BCDE9A8
:102DB000000153EC102B9DED000B51EC100BFDF7B7
:102DC000B8FA41EC190B6E480621B0EE490AF0EE54
:102DD000690A784400F050FB53EC192B51EC100BAE
:102DE000FDF7A7FA41EC1B0B6648B0EE490AF0EE7E
:102DF000690A0421784400F03FFB53EC192B51EC95
:102E0000100BFDF796FA53EC182BFDF7EBF941EC9C
:102E10001C0B51EC190B01F062F841EC180B5A48ED
:102E20009FED5BABA04222DC53EC1C2B51EC1B0B47
:102E3000FDF7F1FACDE900019DED000B51EC180B07
:102E400053EC102BFDF775FA53EC182BFDF7CAF96C
:102E500053EC1A2BFDF76DFA53EC1D2BFDF763FABB
:102E600053EC1E2BFDF762FA41EC100B5FE08DED89
:102E7000008B002000909DED000B51EC180B53ECE3
:102E8000102BFDF7AFF99DED000B41EC1E0B53EC41
:102E9000102B51EC100BFDF74CFA53EC192BFDF7EE
:102EA00045FA53EC1E2BFDF7B6FA41EC190B53EC27
:102EB0001C2B51EC1B0BFDF7AEFA41EC1B0B53EC3A
:102EC0001A2B51EC190BFDF734FA53EC1D2BFDF7BF
:102ED0002DFA41EC190B53EC1A2B51EC180BFDF7A2
:102EE00028FA53EC1B2BFDF724FA53EC192BFDF7B2
:102EF0001AFA9DED000B41EC180B53EC1A2B51EC18
:102F0000100BFDF716FA9FED249B53EC192BFDF7E0
:102F10000DFA41EC100B51EC180B53EC102BFDF794
:102F200002FA53EC192BFDF701FA41EC100B002DBE
:102F30003FF7C5AE51EC100B81F0004141EC100B96
:102F4000BDE60000000000000000F03F00000000AF
:102F5000075C143326A6913C182D4454FB21F93FFD
:102F60000000F07F0000E03F000000000000F03FA4
:102F70002812000036120000000000000000E03FB0
:102F80007A110000881100003333EF3F0000000089
:102F90000000000000000040182D4454FB21E93FD0
:102FA00070B59B482DED020B2DED068B079D25F08E
:102FB0000044A04218DC9748844202DC0AD10698FB
:102FC00040B19DED060BBDEC068B02B0BDE8704034
:102FD00000F0CEBA002DCCBF9FED8F0B9FED900B74
:102FE000BDEC068B02B070BD8F48A04215DD8F4846
:102FF000A042D8BF4FF0FF3458DD9DED060B51ECD9
:10300000100BFFF703FE042808BF00F0D5FA9DED72
:10301000060BBDEC068B02B070BD9DED060B51ECAE
:10302000100B00F050FFCDE9060181489FED828B27
:10303000A0423CDD8248A0421FDD00249FED82AB10
:103040009DED060B53EC1A2B51EC100BFDF7CAF853
:103050009DED060B41EC190B53EC1A2B51EC100BA8
:10306000FDF767F953EC182BFDF75DF953EC192BBD
:10307000FDF7D1F9CDE9060149E09DED060B0124EC
:1030800053EC182B51EC100BFDF7ACF89DED060B33
:1030900041EC190B53EC182B51EC100BFDF743F9D5
:1030A00053EC192BFDF7B7F9CDE906012FE068487D
:1030B000A0421FDD02249FED689B9DED060B53ECA3
:1030C000192B51EC100BFDF734F953EC182BFDF7CD
:1030D00089F89DED060B41EC180B53EC192B51ECC4
:1030E000100BFDF720F953EC182BFDF794F9CDE9FF
:1030F00006010CE09DED060B032453EC102B9FED15
:10310000580B51EC100BFDF786F9CDE906019DED4A
:10311000060B53EC102B51EC100BFDF70AF941ECA8
:10312000180B53EC182BFDF704F941EC190B4E4822
:103130000621B0EE490AF0EE690A784400F09CF9E5
:1031400053EC182B51EC100BFDF7F3F841EC180B76
:103150004648B0EE490AF0EE690A0521784400F0CD
:103160008BF953EC192B51EC100BFDF7E2F841EC05
:10317000100B51EC180B53EC102B002C0EDAFDF752
:1031800031F89DED061B53EC112BFDF7D2F89DEDA8
:10319000061B53EC112BFDF7C9F835E0FDF722F8BB
:1031A0009DED061B53EC112BFDF7C3F841EC100B02
:1031B0002F48784400EBC40090ED001B51EC100B3D
:1031C00053EC112BFDF7AFF89DED061B53EC112BC3
:1031D000FDF7A9F841EC100B2648784400EBC40039
:1031E00090ED001B51EC100B53EC112BFDF79EF8EA
:1031F00041EC100B002DA2BFBDEC068B02B070BDE0
:1032000051EC100B81F0004141EC100B01E7000084
:10321000000010440000F07F182D4454FB21F93FBA
:10322000182D4454FB21F9BF0000DC3F0000203E74
:103230000000F33F00000000000000000000F03F2D
:103240000000E63F00000000000000000000004019
:103250000080034000000000000000000000F83F74
:10326000000000000000F0BFCA0E0000800E000049
:103270000A0E0000C20D000070B56F4E2DED040B5C
:103280002DED048B82B0DDF824C0DDE907235C421C
:103290002CF000411C4341EAD474069D22F000400A
:1032A000B44205D86C422C4340EAD474B4420BD9E2
:1032B0009DED081B9DED060B02B0BDEC048B04B028
:1032C000BDE8704000F05EB9ACF14054A4F17F64F9
:1032D0001C430BD0022404EAAC7444EAD2740543C4
:1032E0009FED578B9FED582B07D015E09DED060BFA
:1032F00051EC100B00F0DFFD42E0002C11BF012C5F
:103300009DED060B02B0BDEC048B04BF04B070BD94
:10331000022C38D0032C3BD00B439FED4D1B9FED6F
:103320004E0B0AD0B14218D1B04209D121F08041F0
:1033300020F08040099107900FE0002A15DA10E094
:10334000474B7B44002C08BF93ED000B0DD0012CA4
:1033500010D0022C17D0032C1AD0B0421DD1002A55
:1033600003DAB0EE410AF0EE610A02B0BDEC048B64
:1033700004B070BD93ED000B51EC100B81F00041D7
:1033800041EC100BF1E7B0EE480AF0EE680AECE70A
:10339000B0EE420AF0EE620AE7E7401A00159FED30
:1033A000329B3C28C8BF8DED000B17DCBCF1000F31
:1033B000BCBF10F13C0F8DED009B0FDB9DED080BAA
:1033C00053EC102B9DED060B51EC100BFDF723F881
:1033D00000F079FD00F06FFDCDE90001B4B1012CE2
:1033E00010D0022C9FED220B53EC102B9DED000B07
:1033F00051EC100B19D0FCF796FF53EC182BFCF78F
:1034000092FFBDE7019880F0004001909DED000B18
:1034100053EC192B51EC100BFDF7C0F904BF02203F
:1034200000F0EAF89DED000B9FE7FCF77CFF53EC02
:10343000182BFCF77BFFA3E70000F07F00000000E3
:10344000182D4454FB210940182D4454FB2109C078
:10345000182D4454FB21F9BF182D4454FB21F93F8A
:10346000F20C00000000000000000000000000005E
:10347000075C143326A6A13C70B504462DED028BE3
:103480004D1E00EBC500B0EE408AF0EE608A90ED74
:10349000000B35F0060017D053EC182B51EC100B35
:1034A000FCF747FF41EC100B6D1E04EBC50090EDDF
:1034B000001B51EC100B53EC112BFCF793FE41EC6D
:1034C000100B35F00600E7D1022D36D0042D1CD0AC
:1034D000062D1CBFBDEC028B70BD53EC182B51ECBC
:1034E000100BFCF726FF94ED0A1B53EC112BFCF795
:1034F00079FE53EC182BFCF71CFF94ED081B53ECE2
:10350000112BFCF76FFE41EC100B53EC182B51EC18
:10351000100BFCF70EFF94ED061B53EC112BFCF780
:1035200061FE53EC182BFCF704FF94ED040B53ECF5
:10353000102BFCF757FE41EC100B53EC182B51EC01
:10354000100BFCF7F6FE94ED021B53EC112BFCF76D
:1035500049FE53EC182BFCF7ECFE94ED001B53ECEA
:10356000112BFCF73FFEBDEC028B41EC100B70BD44
:1035700010B553EC102B51EC100BFCF733FE41EC63
:10358000100B10BD10B553EC112B51EC100BFCF7C8
:1035900029FE41EC100B10BD9FED050B10B553EC4F
:1035A000102B51EC100BFCF736FF41EC100B10BD4B
:1035B00000000000000000009FED050B10B553EC6B
:1035C000102B51EC100BFCF7B4FE41EC100B10BDAE
:1035D000000000000000001002E008C8121F08C12F
:1035E000002AFAD170477047002001E001C1121F84
:1035F000002AFBD1704700000149086070470000B5
:10360000040000202DE9FF5F82B00021DDE90430D5
:10361000020DDDF840B0034318D044F61050A2F27A
:10362000FF3242431514119801281FD0A5EB0B005F
:10363000401C5FEA000A4FF000064E4FDFF8389159
:10364000B046504615D5CAF1000413E01198012484
:103650004AA3012801D16FEA0B010298119AC0E92F
:103660000031C0E9024206B0BDE8F09FCBF1000096
:10367000DFE704460021404A491842EB0450CDE9F7
:10368000001012E0E00707D032463B46404649466C
:10369000FCF74FFE8046894632463B4610461946A7
:1036A000FCF747FE06460F466410002CEAD1DDE920
:1036B0000401DDE90023BAF1000F06DAFCF739FE58
:1036C00042464B46FCF735FE05E0FCF7A4FE4246B9
:1036D0004B46FCF7A0FE04460E460022284BFDF7A1
:1036E00075F803D84FF0FF30014607E00022254B64
:1036F00020463146FCF776FDFDF738F8102409E046
:10370000002C0ADB0A220023FCF74AFF039B30321D
:103710001A55641E50EA0102F2D1641C039AC4F1E6
:1037200011031444119A012A03D0012208430DD138
:103730000AE0084304D000204FF0110B119072E70B
:10374000A3EB0B056D1E0DE05B4504DD4FF00002A1
:1037500005F1010504E003DA4FF00002A5F10105CF
:10376000002AECD002981199C0E90231C0E9004565
:1037700079E70000000014400000F03F3000000036
:103780000000F0430000E03F2DE9FF4F95B09B465D
:103790008946064600250FE2252877D100242746D2
:1037A000F84A0121059400E0044316F8013F203B4C
:1037B00001FA03F01042F7D130782A2811D06FF0C7
:1037C0002F033078A0F13002092A16D8059A44F068
:1037D000020402EB820203EB42021044761C0590C5
:1037E000EFE759F8042B0592002A03DA504244F41B
:1037F0000054059044F00204761C30782E2816D12F
:1038000016F8010F44F004042A280DD06FF02F029F
:103810003078A0F13003092B09D807EB870302EBBE
:103820004303C718761CF3E759F8047B761C3078FD
:103830006C280FD006DC4C2817D068280DD06A28D9
:1038400014D104E0742810D07A280FD10DE044F48C
:1038500000140AE044F4801401E044F44014727847
:10386000824202D104F58014761C761C30786628DA
:103870000BD013DC582877D009DC002875D04528F8
:10388000F6D04628F4D047281AD19DE118E06328E5
:1038900035D0642879D0652812D195E1702873D08D
:1038A00008DC6728F1D069286FD06E280DD06F280A
:1038B00006D1B5E073282CD0752875D0782874D03F
:1038C0005A46179990476D1C75E1C4F302500228BF
:1038D00009D003280DD0D9F8001004280DD00D60B0
:1038E00009F1040967E1D9F80010EA17C1E90052AB
:1038F000F6E7D9F800100D80F2E70D70F0E719F83F
:10390000041B8DF8001000208DF80100EA4601200C
:1039100003E059F804AB4FF0FF3061074FF00001AE
:1039200002D40DE008F101018846B9420FDA804562
:10393000F8DB1AF808100029F4D108E008F10101B9
:1039400088468142FADB1AF808100029F6D105985A
:103950005B46A0EB080721463846179A00F094FA18
:10396000284400EB080507E04DE029E10DE01AF8D6
:10397000010B5A4617999047B8F10108F7D25B46F8
:1039800021463846179A13E142E00A220092C4F316
:1039900002524FF0000A022A08D059F804CB032A39
:1039A0004FEAEC710AD00DE029E02AE009F10701A5
:1039B00021F00702F2E802C1914609E00FFA8CFCFF
:1039C0004FEAEC71042A03D14FFA8CFC4FEAEC71F8
:1039D000002907DA0A460021DCF1000C61EB020144
:1039E0002D2202E0220504D52B228DF8042001228D
:1039F00003E0E20701D02022F7E7904659E00A21D0
:103A000002E010220DE010214FF0000A00910BE0BF
:103A100010224FF0000A44F004040827009203E04B
:103A200008224FF0000A0092C4F30252022A05D085
:103A300059F804CB0021032A08D009E009F1070155
:103A400021F00702F2E802C1914605E01FFA8CFC62
:103A5000042A01D10CF0FF0C4FF00008220728D5F2
:103A6000702806D0009B83F0100353EA0A0305D0A8
:103A70000EE040228DF80420012208E05CEA0102F9
:103A800006D030228DF804208DF8050002229046E1
:103A9000009B83F0080353EA0A030AD15CEA01029F
:103AA00001D1620705D530228DF804204FF00108BE
:103AB0007F1E582804D034A003900EA802900DE079
:103AC00036A0F9E753466046009AFCF769FD844644
:103AD0000398825C0298401E029002705CEA01002A
:103AE000F0D1029806A9081A00F1200A600702D551
:103AF00024F4803400E00127574502DDA7EB0A00DB
:103B000000E0002000EB0A01009005984144401AB3
:103B10000590E00306D45B462146179A059800F00D
:103B2000B3F90544002706E001A85A46C05D17997D
:103B300090476D1C7F1C4745F6DBE0030CD55B46C8
:103B40002146179A059800F09FF9054404E03020BB
:103B50005A46179990476D1C0099481E00900029FD
:103B6000F5DC08E0029802995A460078491C029157
:103B7000179990476D1CBAF10001AAF1010AF1DC16
:103B800065E1000009280100303132333435363721
:103B90003839616263646566000000003031323399
:103BA0003435363738394142434445460000000039
:103BB00000F058F90544761C307800287FF4ECAD0D
:103BC00019B02846BDE8F08F620700D4062709F136
:103BD000070222F0070CFCE80223E14603F000484C
:103BE0005FEA080C02D00FF2702C0DE05FEA045C73
:103BF00002D50FF2682C07E05FEAC47C02D00FF216
:103C0000602C01E0AFF2700C4FF0FF3823F000435E
:103C1000CDF850C065280CD006DC452809D04628D0
:103C20001DD047283DD13DE0662818D067287ED1B9
:103C300038E00021112F01DB112000E0781CCDE9D4
:103C4000000106A90EA8FFF7DDFCDDE90F010E9AC1
:103C500003910021009207F1010A04914DE04FF019
:103C600000400097CDE9011006A90EA8FFF7CAFC95
:103C7000DDE90F0203920E9B11990022DDF80CA0E2
:103C80000093049211B9791C00EB010AB7EB0A000A
:103C900004D4C0F1FF3007F1010A0490AAEB070039
:103CA000019044E0012F00DA01270021112F01DDEE
:103CB000112000E03846CDE9000106A90EA8FFF763
:103CC000A1FCDDE90F010E9A0391002104910092FD
:103CD000BA4621070CD40399514500DA8A46BAF155
:103CE000010F05DD009AAAF10101515C302908D0CD
:103CF000B84202DA10F1040F06DA0121CDE9011011
:103D000015E0AAF10101E9E7002805DC0499014466
:103D10000491AAEB000102E0411C514500DD8A46F6
:103D20000499401A401C01904FF000400290200777
:103D300004D40198504501DBCDF8048000208DF8B3
:103D40004F0002980DF14F07B0F1004F25D02B2006
:103D50000E9002984FF0020800280CDA40420290C0
:103D60002D200E9007E00A210298FCF703FC303169
:103D7000029007F8011DB8F10001A8F10108F2DC7A
:103D800002980028EFD1791E0E980870307800F064
:103D9000200040F0450007F8020D12A8C01B00F1FA
:103DA00007081498007800B1012000EB0A0101987F
:103DB00001EBE07105984144401A401E0590E00374
:103DC00006D45B462146179A059800F05DF8054435
:103DD0001498007818B15A46179990476D1CE00363
:103DE00024D55B462146179A059800F04DF8054406
:103DF0001CE00498002807DBDDE90301884203DDAD
:103E00000098405C179901E0179930205A46904776
:103E1000049805F10105401C04900198401E019092
:103E200004D12E205A46179990476D1CBAF1000113
:103E3000AAF1010ADDDC05E017F8010B5A461799D3
:103E400090476D1CB8F10001A8F10108F4DC5B4655
:103E50002146179A0598ABE62D0000002B000000C4
:103E6000200000002DE9F041044600251E461746BB
:103E7000880404D405E039462020B0476D1C641E38
:103E8000F9D52846BDE8F0812DE9F041044600252A
:103E90001E469046C80301D5302700E0202788043D
:103EA00004D505E041463846B0476D1C641EF9D57F
:103EB0002846BDE8F08110B541EC100BFFF770F813
:103EC00051EC100B10BD82B0CDE9000121F0004093
:103ED00001909DED000B02B051EC100B704700B546
:103EE0002DED048B83B041EC190BFCF7A9FC41ECE0
:103EF000180B18EE100A18EE901A8DED008B0028A2
:103F000018BF0120084320F00040C0F17F6000F19D
:103F1000E040C00F14D019EE101A19EE900A8DED82
:103F2000009B002918BF0121084320F00040C0F188
:103F30007F6000F1E040C00F04BF0120FFF75CFB91
:103F400051EC180B03B0BDEC048B00BD0000000069
:103F5000555555555555C53F7D6FEB0312D6D4BF0A
:103F60005544880E55C1C93F3B8F68B52882A4BF10
:103F700088B20175E0EF493F09F7FD0DE13D023FD1
:103F80004B2D8A1C273A03C0C88A599CE52A004059
:103F900059018D1B6C06E6BF82922EB1C5B8B33FA6
:103FA0004FBB610567ACDD3F182D4454FB21E93F51
:103FB0009BF681D20B73EF3F182D4454FB21F93F40
:103FC000E2652F227F2B7A3C075C143326A6813CC6
:103FD000BDCBF07A8807703C075C143326A6913C71
:103FE000C4EB98999999C9BF711623FEC671BCBFDD
:103FF0006D9A74AFF2B0B3BF9AFDDE522DDEADBF45
:104000002F6C6A2C44B4A2BF0D5555555555D53F5C
:10401000FF8300922449C23F6E204CC5CD45B73F77
:10402000513DD0A0660DB13FEB0D76244B7BA93FEF
:1040300011DA22E33AAD903F0000000000000000DA
:10404000000000000102030468000004760054012F
:10405000F7FD000175191A0C6A231B1C1F207274CE
:10406000433B4138393A6B6C376F06246D6E70658F
:104070006E6420656E636F6465723D25640A00633B
:104080006F756E743D25642025782025780A000020
:104090008300000000080000000100183200050045
:1040A000000020410000D242295C0F3E9A99993EBF
:1040B0003333733F295C0F3ED840000800000020D6
:1040C00038000000D83500081041000838000020F2
:1040D000400C0000E835000800000000000000006F
:1040E000001C4E0E5440000848400008000000002C
:1040F00000000000000000000000000000000000C0
:1041000000000000000000000000000090400008D7
:04000005080001AD41
:00000001FF
