:020000040800F2
:1000000008040020C1010008110200080D020008C8
:100010000F02000809020008D102000800000000D9
:100020000000000000000000000000003502000891
:100030000B0200080000000033020008370200082D
:10004000DB010008DB010008DB010008DB01000820
:10005000DB010008DB010008DB010008DB01000810
:10006000DB010008DB010008DB010008DB01000800
:10007000DB010008DB010008DB010008DB010008F0
:10008000DB010008DB010008DB010008DB010008E0
:10009000DB010008DB010008DB010008DB010008D0
:1000A000DB010008DB010008DB010008DB010008C0
:1000B000DB010008DB010008DB010008DB010008B0
:1000C000DB010008DB010008DB010008DB010008A0
:1000D000DB010008DB010008DB010008DB01000890
:1000E000DB010008DB010008DB010008DB01000880
:1000F000DB010008DB010008DB010008DB01000870
:10010000DB010008DB010008DB010008DB0100085F
:10011000DB010008DB010008DB010008DB0100084F
:10012000DB010008DB010008DB010008DB0100083F
:10013000DB010008DB010008DB010008DB0100082F
:10014000DB010008DB010008DB010008DB0100081F
:10015000DB010008DB010008DB010008DB0100080F
:10016000DB010008DB010008DB010008DB010008FF
:10017000DB010008DB010008DB01000800000000D3
:10018000DB010008DB010008DB010008DB010008DF
:10019000DB010008DB010008DB01000800000000B3
:1001A000DB010008DB010008DB010008DFF80CD0F0
:1001B00000F018F800480047150300080804002064
:1001C0000648804706480047FEE7FEE7FEE7FEE7F1
:1001D000FEE7FEE7FEE7FEE7FEE7FEE73D0200087A
:1001E000AD010008064C074D06E0E06840F0010351
:1001F00094E8070098471034AC42F6D3FFF7DAFFD3
:10020000BC040008DC040008FEE77047FEE7FEE7D8
:1002100070470907090E002806DA00F00F0000F108
:10022000E02080F8141D704700F1E02080F80014F1
:1002300070477047704700F063B8000018B420485A
:10024000016841F4700101601E48016841F001013C
:10025000016001688907FCD51A4A0832116841F02B
:10026000800111600023009302E00099491C009175
:1002700000995029F9D3116841F090011160009361
:1002800002E00099491C009100995029F9D31168A6
:1002900021F00301116001680B4C214001600168ED
:1002A00021F4802101601360106806490748091D88
:1002B000086004480C30036018BC00F0C7B80000A8
:1002C00088ED00E000380240FFFFF6FE1030002409
:1002D000FEE702E008C8121F08C1002AFAD17047E1
:1002E0007047002001E001C1121F002AFBD17047B6
:1002F0000249086008680028FCD17047000000200F
:1003000003480168002902D00168491E0160704756
:100310000000002000F09CF84FF4A06000F036F8D8
:1003200000F022F8FEE7000070B504460D4D002CE9
:100330000BDD22460021284600F0B0F82846BDE833
:1003400070400022012100F0A9B800221146284681
:1003500000F0A4F822462846BDE87040012100F0D4
:100360009DB80000000C00404FF4E1546642254661
:100370004FF4FA772046FFF7D7FFA4F57A74B4421A
:1003800000DA2C463846FFF7B3FFF3E7024908438B
:1003900002490860704700000000FA050CED00E01B
:1003A00010B50020264A116841F0010111604FF498
:1003B000A063401C116801F0020109B99842F8D10C
:1003C0001068800700D4FEE71D484030016841F006
:1003D000805101601B49086840F44040086018489B
:1003E000083003680360036843F400430360036854
:1003F00043F4A0530360041F134B2360136843F0BE
:100400008073136013689B01FCD50A6842F4803244
:100410000A604A68D203FCD50A6842F400320A60D6
:100420004A689203FCD5016821F00301016001686C
:1004300041F00201016001680907FCD510BD000010
:1004400000380240007000401078000AFFF7A8BF93
:1004500070B511484FF47A710068B0FBF1F1491E94
:100460004FF0FF35B1F1807F01D301210BE04FF058
:10047000E02461610F212846FFF7CBFE0020A06138
:1004800007202061002101B1FEE72846BDE8704049
:100490000021FFF7BEBE000004000020002907D0A5
:1004A000012907D0022907D0032900D1026470472F
:1004B0004263704782637047C2637047DC04000880
:1004C0000000002008000000D2020008E404000838
:1004D0000800002000040000E20200080000000004
:0404E000001C4E0EA0
:04000005080001AD41
:00000001FF
