:020000040800F2
:1000000018140020C1010008F30400080D020008C4
:10001000F104000809020008C10600080000000001
:1000200000000000000000000000000017050008AC
:100030000B0200080000000015050008BD050008BF
:10004000DB010008DB010008DB010008DB01000820
:10005000DB010008DB010008DB010008DB01000810
:10006000DB010008DB010008DB010008DB01000800
:10007000DB010008DB010008DB010008DB010008F0
:10008000DB010008DB010008DB010008DB010008E0
:10009000DB010008DB010008DB010008DB010008D0
:1000A000DB010008DB010008DB010008DB010008C0
:1000B000DB010008DB010008DB010008DB010008B0
:1000C000DB010008DB010008DB010008DB010008A0
:1000D000DB01000855060008DB010008DB01000811
:1000E000DB010008DB010008DB010008DB01000880
:1000F000DB010008DB010008DB010008DB01000870
:10010000DB010008DB010008DB010008DB0100085F
:10011000DB010008DB010008DB010008DB0100084F
:10012000DB010008DB010008DB010008DB0100083F
:10013000DB010008DB010008DB010008DB0100082F
:10014000DB010008DB010008DB010008DB0100081F
:10015000DB010008DB010008DB010008DB0100080F
:10016000DB010008DB010008DB010008DB010008FF
:10017000DB010008DB010008DB01000800000000D3
:10018000DB010008DB010008DB010008DB010008DF
:10019000DB010008DB010008DB01000800000000B3
:1001A000DB010008DB010008DB010008DFF80CD0F0
:1001B00000F018F800480047A109000818140020B2
:1001C0000648804706480047FEE7FEE7FEE7FEE7F1
:1001D000FEE7FEE7FEE7FEE7FEE7FEE7C1050008F3
:1001E000AD010008064C074D06E0E06840F0010351
:1001F00094E8070098471034AC42F6D3FFF7DAFFD3
:10020000901D0208B01D0208FEE77047FEE72DE9C9
:10021000F0479146089F9846002401EB0802521EC1
:1002200093B200EB0902521E92B200F001F90026CF
:1002300011E000250BE017F8140000F04DF907EB72
:100240004400407800F048F9641C6D1CADB245458F
:10025000F1D3761CB6B24E45EBD3BDE8F087000073
:1002600070B50546084C1021204600F003FB2846D7
:1002700000F08EF9042000F0AFFA2046BDE870408F
:10028000102100F0F9BA00000000024070B500F043
:100290003DFB00F041F9644D4FF48064214628464F
:1002A00000F0E8FA642000F09BFA2146284600F0AE
:1002B000E3FA642000F094FA80215C4800F0DCFA54
:1002C000112000F0F7F8782000F08AFA002000F002
:1002D000E3F83A2000F0EEF8052000F0FDF8B22037
:1002E00000F0E8F80C2000F0F7F80C2000F0F4F82B
:1002F000002000F0F1F8332000F0EEF8332000F099
:10030000EBF8B72000F0D6F8352000F0E5F8BB2078
:1003100000F0D0F8322000F0DFF8C22000F0CAF878
:10032000012000F0D9F8C32000F0C4F8152000F037
:10033000D3F8C42000F0BEF8202000F0CDF8C6208D
:1003400000F0B8F80F2000F0C7F8D02000F0B2F8A5
:10035000A42000F0C1F8A12000F0BEF8E02000F0D9
:10036000A9F8D02000F0B8F8082000F0B5F80E2069
:1003700000F0B2F8092000F0AFF8092000F0ACF866
:10038000052000F0A9F8312000F0A6F8332000F095
:10039000A3F8482000F0A0F8172000F09DF81420E2
:1003A00000F09AF8152000F097F8312000F094F84A
:1003B000342000F091F8E12000F07CF8D02000F02B
:1003C0008BF8082000F088F80E2000F085F809204E
:1003D00000F082F8092000F07FF8152000F07CF88A
:1003E000312000F079F8332000F076F8482000F052
:1003F00073F8172000F070F8142000F06DF8152045
:1004000000F06AF8312000F067F8342000F064F85A
:10041000212000F04FF8292000F04CF8BDE8704092
:10042000782000F0DDB90000001402400000024016
:100430002DE9F04106460C4615461F461548007842
:10044000002806D0C02804D0702807D0A02805D0E6
:1004500008E01434A4B21437BFB203E01436B6B2C5
:100460001435ADB22A2000F025F8304600F036F8F9
:10047000284600F033F82B2000F01CF8204600F04E
:100480002DF8384600F02AF8BDE8F0412C2000F0A5
:1004900011B800000800002010B5054C207036206F
:1004A00000F008F82078BDE8104000F015B8000012
:1004B0000800002070B50546064C4021204600F09B
:1004C000D9F92846FFF7CCFE2046BDE87040402110
:1004D00000F0D2B900000240FFF7C2BE10B50446DA
:1004E000200AFFF7BDFEE0B2BDE81040FFF7B8BE3E
:1004F000FEE770470907090E002806DA00F00F0032
:1005000000F1E02080F8141D704700F1E02080F831
:10051000001470477047704730B587B040F605400B
:1005200000F022FB41F2141000F01EFB164D4FF4B8
:10053000207422460521284600F06AF9234600224D
:100540000221284600F09AF923460222002128467B
:1005500000F0B8F92146284600F08EF900200190FD
:100560004FF4827100910290032105916915039166
:1005700006900490054C6946204600F043FB204657
:1005800000F032FB07B030BD0014024000500140C3
:1005900070B50546084C0221204600F02CFB0028CF
:1005A000F9D02946204600F024FB0221204600F025
:1005B00022FB0028F9D070BD0050014000F018B9AE
:1005C00018B42048016841F4700101601E480168B8
:1005D00041F00101016001688907FCD51A4A08321F
:1005E000116841F0800111600023009302E000993E
:1005F000491C009100995029F9D3116841F09001EC
:100600001160009302E00099491C00910099502963
:10061000F9D3116821F00301116001680B4C2140EE
:100620000160016821F480210160136010680649AF
:100630000748091D086004480C30036018BC00F02E
:100640004FBB000088ED00E000380240FFFFF6FEDF
:100650001030002470B5134E1149304600F09EFC56
:10066000114D124C012806D1304600F0CEFB216816
:100670006854491C21600E49304600F08FFC012867
:100680000CD1304600F0C1FB216800206854206086
:10069000BDE87040044907A000F014B870BD000028
:1006A0000503050000100140140000200C0000208C
:1006B00004030400646174612025730A00000000D3
:1006C000FEE700000FB4054B10B503A9044A0298D9
:1006D00000F017F810BC5DF814FB000005080008D6
:1006E0001000002002E008C8121F08C1002AFAD139
:1006F00070477047002001E001C1121F002AFBD1A2
:1007000070472DE9F84F99469246884605460027DE
:1007100006E025280AD051464A4690476D1C7F1CAA
:1007200028780028F5D13846BDE8F88F002315F861
:10073000011F18462E2915D115F8011F04232A2957
:100740000DD06FF02F022978A1F13004092C09D8BF
:1007500000EB800002EB400008446D1CF3E758F802
:10076000040B6D1C2A78002ADDD0632A07D0732A77
:100770000FD0104651464A4690477F1C2AE018F891
:10078000042B8DF8002000218DF801106E46012108
:1007900003E058F8046B4FF0FF315A074FF00004A4
:1007A00001D409E0641C84420BDA8C42FADB325D2E
:1007B000002AF7D105E0641C8C42FCDB305D002888
:1007C000F9D1274404E016F8010B51464A469047F8
:1007D000641EF8D26D1CA3E7401E411CFCD170477B
:1007E0000249086008680028FCD17047000000201A
:1007F00003480168002902D00168491E0160704762
:100800000000002010B5C0B200F0DEF9002010BDDD
:100810002DE9F043046A456A002301274FF00F0CCD
:1008200007FA03F6164208D09E000CFA06F824EAEE
:10083000080401FA06F848EA04045B1C9BB2082B82
:10084000EED3082307FA03F818EA020F0AD0A3F13F
:100850000806B6000CFA06F825EA080501FA06F9BA
:1008600049EA05055B1C9BB2102BEBD30462456281
:10087000BDE8F08381627047816170472DE9F047E0
:100880000568C66800244FF001084FF0030908FA14
:1008900004F71F420ED0670009FA07FC25EA0C0591
:1008A00001FA07FA4AEA050526EA0C0602FA07FCED
:1008B0004CEA0606641CA4B2102CE8D30560C6609E
:1008C000BDE8F0872DE9F04101291AD0416899432C
:1008D0004160846800214FF001084FF0030C08FAD2
:1008E00001F71F4206D04D000CFA05F6B44302FA98
:1008F00005F63443491C89B21029F0D38460BDE861
:10090000F081416819434160E3E7000070B540F6AB
:10091000054000F029F9204D4FF480642346002261
:1009200001212846FFF7AAFF23460222002128467C
:10093000FFF7C8FF4FF44064204600F015F9174D4B
:100940004023002201212846FFF798FF402302227E
:1009500000212846FFF7B6FF204600F005F91023D6
:10096000002201212846FFF789FF102302220021DF
:100970002846FFF7A7FF204600F0F6F88023002264
:1009800001212846FFF77AFF2846BDE87040802302
:1009900002220021FFF796BF00140240000002402F
:1009A00008B500F09FF94FF4A06000F061F84FF433
:1009B000E13000F0BDF9FFF769FC05480021009027
:1009C0004FF48C73F0220846FFF721FCFEE700008D
:1009D0008810000870B505460E4600230024234801
:1009E0000168C1F30221072932D00168C1F3022155
:1009F00006292FD00168C1F3022105292DD00168F5
:100A0000C1F3022104292BD00068C0F3022003287F
:100A100029D04FF4A06000F02BF802230224C3F188
:100A200004008640C4F104010F20C8401040304348
:100A3000000105F1E02181F8000405F01F0101200B
:100A400088406909890001F1E021C1F8000170BD09
:100A50000424E4E701230324E1E702230224DEE780
:100A600003230124DBE70423D9E700000CED00E0B9
:100A70000249084302490860704700000000FA0577
:100A80000CED00E0F0B588B0024600202FA104AEC6
:100A900091E83800C96838C607912DA10AC9CDE987
:100AA00002132BA10AC9CDE900132C4C2168C1F314
:100AB00081012B4B002925D0DFF8A8C0012923D0C4
:100AC000022923D019462368C3F3031304ADEB5C5A
:100AD00021FA03F32568C5F3822502AE755D23FA7A
:100AE00005F52468C4F342341DF8044023FA04F4E5
:100AF00032B3012A26D0022A26D0032A00D120466A
:100B000008B0F0BD1946DEE76146DCE71349091F6E
:100B10000D6805F03F050E68C6F388160F68C7F329
:100B200001477F1C7F00096801F48001B1F5800F47
:100B300000D16346B3FBF5F17143B1FBF7F1C2E7B6
:100B40000846DDE71846DBE72846D9E70000000045
:100B500000000000010203040607080908380240EB
:100B60000024F40040787D01064901EB9011D1F892
:100B7000002800F01F03012098400243C1F800281C
:100B80007047000000300240064901EB9011D1F897
:100B9000002800F01F03012098408243C1F800287C
:100BA0007047000000300240064901EB9011D1F877
:100BB000002800F01F03012098400243C1F80028DC
:100BC000704700000030024010B5064C0146204638
:100BD00000F01FF90721204600F095F90028F9D010
:100BE00010BD000000100140016841F040010160AB
:100BF0007047C16070478068084201D0012070478B
:100C000000207047026802F441520B6813434A689F
:100C10001A438B681343CA681A430B6913434A6922
:100C20001A43896911430160C16921F40061C161FE
:100C30007047000010B50020264A116841F00101FC
:100C400011604FF4A063401C116801F0020109B962
:100C50009842F8D11068800700D4FEE71D48403064
:100C6000016841F0805101601B49086840F4404030
:100C700008601848083003680360036843F40043C1
:100C80000360036843F4A0530360041F134B236005
:100C9000136843F08073136013689B01FCD50A68E6
:100CA00042F480320A604A68D203FCD50A6842F4F2
:100CB00000320A604A689203FCD5016821F0030102
:100CC0000160016841F00201016001680907FCD57B
:100CD00010BD000000380240007000401078000A8B
:100CE000FFF7A8BF70B511484FF47A710068B0FBE8
:100CF000F1F1491E4FF0FF35B1F1807F01D30121A1
:100D00000BE04FF0E02461610F212846FFF7F2FB72
:100D10000020A06107202061002101B1FEE72846E4
:100D2000BDE870400021FFF7E5BB00000400002093
:100D300010B500F0F5F8BDE810404FF4E13000F0D8
:100D400047B9000070B504460D460020294AA11A93
:100D5000131594422DD00BDC2749621819D09A4202
:100D60001BD0B2F5006F1CD0B2F5406F28D11CE04B
:100D7000994222D0B1F5184F03D0B1F51C4F1FD1C5
:100D800003E00320FFF77EFE1AE00320FFF77AFE60
:100D900016E00220FFF776FE12E00220FFF772FE57
:100DA0000EE00220FFF76EFE0AE00220FFF76AFE67
:100DB00006E00220FFF766FE02E00220FFF762FE77
:100DC000E1680A044FF6F0710AD5400000EB5500C7
:100DD000B0FBF5F00140C0F342021143A16070BDC9
:100DE00000EB5500B0FBF5F0014000F00F0211439D
:100DF000A16070BD0078004000BCFFBF50F8802F9C
:100E000022F400620A43026070474068C0F30800A1
:100E10007047C1F3080141607047000010B5354AC2
:100E2000811A131590424FD014DC334940182DD04D
:100E3000984235D0B0F5006F3CD0B0F5406F57D137
:100E400040F614042046FFF7AFFE2046BDE81040F0
:100E5000FFF79ABE994241D0B1F5184F0CD0B1F5C9
:100E60001C4F45D140F605142046FFF79DFE204655
:100E7000BDE81040FFF788BE40F604142046FFF797
:100E800093FE2046BDE81040FFF77EBE40F61104F9
:100E90002046FFF789FE2046BDE81040FFF774BEEC
:100EA00040F612042046FFF77FFE2046BDE81040C2
:100EB000FFF76ABE40F613042046FFF775FE204692
:100EC000BDE81040FFF760BE40F61E042046FFF765
:100ED0006BFE2046BDE81040FFF756BE40F61F04EB
:100EE0002046FFF761FE2046BDE81040FFF74CBEEC
:100EF00010BD00000078004000BCFFBFC16841F495
:100F00000051C160704700EB9110006801F01F02B2
:100F100001219140084201D0012070470020704714
:100F200070B54FF44060FFF71FFE41F20410FFF769
:100F30001BFE144E4FF48064224607213046FFF713
:100F400067FC65102A4607213046FFF761FC2346FF
:100F5000012202213046FFF791FC2B46012202219B
:100F60003046FFF78BFC2346022200213046FFF774
:100F7000A9FC2B463046BDE8704002220021FFF755
:100F8000A1BC00000000024000EB9110026801F0DB
:100F90001F03012199400A430260704730B5C1F335
:100FA0008912825801F01F04012505FA04F31A4042
:100FB00000EB91500068C1F3044105FA01F31840B9
:100FC000002802D00AB1012030BD002030BD000051
:100FD00070B50546194C2046FFF720FF29462046EC
:100FE000FFF7B0FE0021204600F02AF8002120463D
:100FF00000F042F80021204600F030F800212046A1
:10100000FFF7FCFE2046FFF779FF0821204600F09D
:101010002DF80421204600F01BF80222114625205D
:10102000FFF7D8FC40F205312046FFF7ADFF204620
:10103000BDE870404FF44171FFF7A6BF00100140BA
:10104000C26822F4C062C260C2680A43C2607047CC
:10105000C26822F004020A43C2607047026922F4A7
:101060004052026102690A4302617047C26822F07D
:1010700008020A43C2607047C26822F48052C2600C
:10108000C2680A43C2607047101000F00118011BCB
:10109000898191C19A01A240AA80B2C0B2A0B2A037
:1010A000B2A0B280AA60AA40A220A22099E091A09A
:1010B00091A0894091809180918099A099A099C038
:1010C00099A0A1E09A009A40A240AA80AA60AA80B2
:1010D000AA60AA60AA40A220A20099E091C091A0B3
:1010E00091808980898089608160814081408140D0
:1010F00079007900710070E070C068C068A068A0D5
:1011000060806060586058405860586058806080C7
:1011100060A060A060A068A068C068C068C068C027
:1011200068C068E068C068C068C068C060A06080CF
:101130006080608060A060C160C160C068C068E01D
:1011400060C060C058C050A050805860586058407F
:101150005840584058405860588060A060A060A037
:1011600068C068E06900690068C068C068C068C09D
:1011700068C068C068C068C068C068C068C070C027
:1011800068C068C070C068C068C068C068C068C017
:1011900068A060806080608060805880586058607F
:1011A000588060806080608068A068A070C08141C5
:1011B00091A29A24A2E7C46DDD31F614ED91CC6CB6
:1011C000D44CED50EE758C2A5B4553865BA7536675
:1011D0005B875BA753464B2642E44B4553675367F7
:1011E0005BA85BA7536542E253445B8563E65BA55E
:1011F00063A76BA65B4342805BA46BA663067B89F7
:1012000073496B496B496B896B886B068B27DD5083
:10121000CC6DF572F5D4FE37BC93100100000021AF
:10122000004000200000000008000801312528E3EC
:1012300020826289CD95AC71AC70A42F9C0EA46DF8
:101240008BC77B417B80A481E669BD03CD84DDE64D
:10125000FEEDFE0DDC48AA8291A089808160794074
:1012600079407140712079207900710079634820BC
:101270008140898091C09A00A240AA80AAA0B2C0F1
:10128000B2A0B2A0B2A0AA60AA40AA20A20099E08F
:1012900099E091A091C0918099A099E099C0A20095
:1012A0009960A1E09A209A209A00A240AA60AA60C0
:1012B000AA60AA60AA60AA40A220A20099E099C0F0
:1012C00091A091A08980896089608140814081409E
:1012D000792079207900710070E070E068C068A022
:1012E00060A060806080606058605880608060802E
:1012F00060A060A060A068A068C068C068C068C046
:1013000068C068E068E068C068C068C068A060A0A5
:101310006080608060A060C060C060C068C068E03D
:1013200068C060C060C058A058805860586058605D
:101330005860586058405860588058A060A060A01D
:1013400068C068C068E068E068C068C068E068E0DD
:1013500070E070E070E070E070E070C070E070E02D
:1013600070C070E070C070C070C070C068C068C0ED
:1013700068A060A06080608060805880586058607D
:1013800058605880608060A068A068A068C0812113
:10139000A224AAA6CC4CED92FEF8D551EDF3F5F2BD
:1013A000FDD2E5718B6973476B8763C863A85B6780
:1013B0005B8763E85BA75BA75BC653A65BA7536726
:1013C0005366536642E342E25365534553655B649B
:1013D0004AC26B8584679D2953225B646B876306D1
:1013E0006B496B6973CA6B887BEA7306C4CEF5F3ED
:1013F000DCEFED51EDB3FE98EE3931050821000028
:10140000004000200020294508009451C5D7ACF4C5
:10141000B534B513ACB2BD13AC50A44F93CD93EC1F
:101420008BC783628BA09400DE28C564CD84DDC6A3
:10143000FEABFE6DE4E9B30391C089607940794069
:1014400079407140712079207900710071624820E3
:1014500079008120896089A09A00A240AA60AAA090
:10146000B2C0B2C0BAC0B2A0B280AA60AA40A240C4
:10147000A220A220AA61AA62B2A2B2A1B281AA202D
:10148000A1A0A1C099E09A009A20A220AA40AA6037
:10149000B280B280AA80AA60AA60A240A20099E0AD
:1014A00099C091C091A08980896089608140814004
:1014B0008140792079207920790070E070E068C05F
:1014C00068A060A06080608058605860588060802C
:1014D000608060A060A068A068C068C068C068C084
:1014E00068C068C068E068E068C068C068C068C07C
:1014F00060A060A060A060A060C068C068C070C04C
:1015000068C068C068A060A058805860606058607B
:1015100058605060586058605880588060A060A043
:1015200068A068C068E068E070E070E068E068E0CB
:1015300070E070E070E070E070E070E070E070E02B
:1015400070E070E070C070C070E070E070C068C0A3
:1015500068A060A060806080608060605880586093
:101560006080608060A060A068A0688068A0812022
:10157000B2A5BB06ED51FED8FEF9938CFEB7F65529
:10158000FE75CCEF7AE783AA7BA973C973C973E9A7
:101590006BE86BE763E7640764275BE65BC653A70A
:1015A0005BC84B464B66536663A763C853456BA540
:1015B0009CE8A4E7C5EB9CE8A5AB4B2253445B66D3
:1015C0005B675B475B47634863277B27E5D2ED9208
:1015D000E530ED70FE35BC6F72AA5A4920E200205A
:1015E00008803185420839875ACBBDB6CE38AD3434
:1015F000AD34ACF3ACB2B491B4B1AC4FA42F93AB57
:101600008B868B628B8093A0D5C6CDA5C522D5A431
:10161000EE68FECCED6ABB8491E0814079007920D0
:101620007940792079007900790071007142482071
:10163000790079008140896091C09A00A220AA6057
:10164000B2A0B2C0BAE0BAE0B2A0B2A0AA80AA80AA
:10165000AA80AA60C303CB85D406D406D3A4C30250
:10166000B240A1C099C099E09A00A220A220AA602D
:10167000B280B280AA80AA80AA60AA60A240A2001A
:101680009A0099E091C091A08980898089608960E1
:1016900081408140792079207920790070E070E0E4
:1016A00068C068C060A060805860586058805880EA
:1016B0006080608060A068A068C068C068C068C0C2
:1016C00068C068C068C068E068C068C068C068C0BA
:1016D00068A060A060A060A068C068C070C070C052
:1016E00070C070C068C060A0608060606060606052
:1016F000588058605860586058805880608060807A
:1017000068A068A068C070E070E070E070E068E019
:1017100070E070E070E070E070E070E070E070E049
:1017200070E070E070C070C070E070E070E068C0A1
:1017300068C068A060806080608060806080588041
:101740006080608060A068A068A068A068C08140D8
:10175000BAC5DC0BF5D3FF5AE65872EAFF9BFEF8D8
:10176000FEF8A42C836983EB83EA7BC97BEA73E9E7
:10177000740874286C27640664256C875C065C0713
:10178000432532A33AE453864B0553464AE48CAAD8
:101790009CC7C5EACDEC83E4C6AF3AC04B434B854A
:1017A0004B654B46536663875AE593EAF614ED7131
:1017B000E510EDB2EDF459E4206041A529224A4735
:1017C0005AA95AAA6B2D736F9471A513BDB6AD5566
:1017D0009CB2A4B2B4B2AC71C512BCF2AC709BECBA
:1017E0008B868B838B609380C544DE26BCE1D5A4B9
:1017F000E647FEECF5AAC3C59A008940810079004E
:1018000079207920790079007900710071424020B7
:101810007900790079208120896091C099E0A22027
:10182000AA60B2A0B2C0BAE0BAE0BAC0B2C0B2A078
:10183000B2C0B2A0E3E5EC87FD6AFD6AE466E3E5C9
:10184000CAC1BA40A20099E091E09A00A220AA4041
:10185000AA60AA60AA60AA80AA80AA80AA60A24000
:10186000A2209A0099E091C091A091A089808980DE
:1018700081608160814079207920710070E070E0A2
:1018800068E068E068C060A0608058805880608030
:101890006080608060A068A068A068C068C068C000
:1018A00068C068C068C068E068E070E068E068C070
:1018B00068C068A060A060A068A068C070E070C048
:1018C00070E070C068C068C068A0608060606060E0
:1018D0005880588058805860606060606080688080
:1018E00068A068A068C070C070E070E0710070E02F
:1018F00070E070E070E070E070E070E07100710026
:1019000070E070E070E070E070E070E070E068C07F
:1019100068C068C060A06080608060806080608017
:1019200060806080608068A068A068A070C08161ED
:10193000C327F4EFF656FFBDCDB69C50F71AF71942
:10194000EEB6942B7BA87BC98C2A7BC97BE97C09EA
:101950006C276C476405642664666C865C466CA9DB
:10196000224043455C07642864085B866C08C650C7
:10197000A529DEAFCE0E94A9A5CD53C553C55406F7
:101980004BC64BA54BA65B8652E3C56FF634ED9272
:10199000EDB3FE56AC2E288062A86B0941C4840DBD
:1019A000942F83AE8BF19C939C928C51B575BDB6F0
:1019B000A4F3ACF3B4D3B4D2C554C553B4D2A44E3B
:1019C00093E893C48B808BA0AC82F6CABCE1D5C3EC
:1019D000E627FEECF5EBCC07A22189408120792097
:1019E0007920792079007900790068E06922400047
:1019F00079207900790079008120896091A099E0AF
:101A0000AA40AA80B2C0BAE0BAE0BB00BAE0B2C055
:101A1000BAC0C2E0EC66FD49FDCBFDCBFDABF4875F
:101A2000DB43BA60AA0099E09A009A20AA20AA4053
:101A3000AA60AA60AA60AA80AA80AAA0AA80AA60B6
:101A4000A260A2209A0099E091A091A0898089804B
:101A50008160816081407920792079007100710076
:101A600070E068E068C060A0608060805880588046
:101A70005880608060A060A068A068C068C068C02E
:101A800068C068C068C068C068E070E068E068C0AE
:101A900068C068A068A060A068A068C070E070E03E
:101AA00070E070E070E068C068C068A06880608026
:101AB000608058805880588060606060608060807E
:101AC0006880688068A070C070E07100710070E08C
:101AD00070E070E070E070E070E07100710070E044
:101AE00070E070E070E070E070E070E070E070C096
:101AF00068C068C068A0608060806080608060802E
:101B00006080608060A068A068A068A070C08182CA
:101B1000D3EBFD92FEF9FF7CC596C5F7C5B5B5328E
:101B2000B591842A73E774077C087C087C087C489C
:101B30006C476426642564455C2454046CC874E9CD
:101B40002AA1856C95CD958D9DAE8D2CC6B2CED239
:101B5000DF11DEF0D6B1D6F274A8750A74E9648894
:101B60005C675C67540653856B86EED4F655EDD4FE
:101B7000EE16FE986A8951E6DEB8CE15736A83EDDB
:101B80009430A4B394329432943194929CB3CE188E
:101B9000B555ACF3BD34BD34B4F2C574ACD29C4E73
:101BA0009C2A8BC58B8193A09C00F6CABD01CD8376
:101BB000DDE6FECCFE2DDC69A22289408100792081
:101BC00079207920790078E0710068E0692240008E
:101BD000792079207900790079008140896091A08D
:101BE0009A00A240AA80B2C0BAE0BB00BB00BB0012
:101BF000C300CB20EC24FD48FDA9ED07FD69FD29BC
:101C0000EC05C2C0B220A1E09A009A00A200AA206E
:101C1000AA40AA60AA80AA80AA80B2A0AAA0AA808C
:101C2000AA60AA60A2209A0099E091A09180898080
:101C300089808160816081408140792079207100B4
:101C40007100710068E068C060A0608060805880AA
:101C500058806080608060A060A060A068C068C09C
:101C600068E068E068C068C068C070E070E070E07C
:101C700070C070C068C068C068A068C070E070E0E4
:101C800070E070E068E068E068E068C060A060A0B4
:101C900060A060A05880588060606080608060A014
:101CA00068A068A0688068A068C070E070E070E01C
:101CB00070E070E070E070E070E070E070E070E0A4
:101CC00070E070E070E070E070E070E070E070E094
:101CD00068C068C068A060A060A060A060806080EC
:101CE0006080608068A068A068A068A07901920404
:101CF000E4AEFE55FF9CFFBEA4F3FF9D83CE7B8C1C
:101D00009D0F6BE85BE4640463C47446640564057A
:101D100064655C24540454045404540443821A201B
:101D20005C054B6343224B6343023AC119E019C07F
:101D30005B4263A342C042E04BA35C4564466C86B1
:101D40005C8664C87D2A63E69CECFF79FF3AF6372F
:101D5000B4919C0FF73CEF3B840E738BA5129CB1A2
:101D600094518BF09C529432943194319C92B534BE
:101D7000DE79ACF3BD34B4F3BD54BD73B5329C6EA3
:101D8000A48C93E78B828BC09C00DE27CDA3C52259
:101D9000D5A5FE8BFE4EECEBAA6389407900792035
:101DA00079407940790078E0710068E0690240008C
:101DB000790079207920790079008120812089605B
:101DC00091A099E0A240AA80B2A0BAE0BB00C300F3
:101DD000CB20CB20EC44FD26FDE9C402BB00FCE88F
:101DE000FCC8E3A4CB01AA40A1E09A00A200AA206B
:101DF000AA40AA60AA80AA80AAA0B2A0AAA0AA808B
:101E0000AA80AA60AA60A2209A0099E091C091A03D
:101E1000898089808160816081408140792079203A
:101E20007920710070E068C068A060A060A0608048
:101E300058806080608060A060A060A068C068C0BA
:101E400068E068E070E068C070E070E070E070E04A
:101E500070E070E070E068C068C068C070E070E07A
:101E60007100710070E07100710068E068E060E08E
:101E700060A060A058A0588060806080608060A0F2
:101E800060C060A068A068A068C068E070E070E012
:101E900070C070E070E070E070E070E070E070E0E2
:101EA00071007100710070E070E070E070E070E04F
:101EB00068C068C068A068A068A060A060806080FA
:101EC0006080608068A068A0688068C08162A28627
:101ED000FDF4FEF8FF3BFFBEA4B2FF9EFF9ED63787
:101EE000A5317C6A64456CA5642453A153C2540394
:101EF000540354235443540353E34BE332E043620B
:101F00004B834BC35C0453E45C2553C5644764476F
:101F10005BC45BC364245C44540364655BE3642476
:101F2000542464A753C47C89FF98BD316207A41070
:101F3000838D7B8D83CE18A11080840EAD548C5080
:101F40009C9394529C73943194119C72ACD3A4B220
:101F5000D617C5B6BD34CDB6BD33B512A4D1944D98
:101F6000ACEDA4898BA28B809BE0CD85EEA8BD2132
:101F7000D584F66AFE8EF54CB2C491A17900792021
:101F800079407940790070E0710060E061024000C2
:101F90007920792079207920792079208120812069
:101FA000896091A09A00A260AAA0B2C0BAE0C30062
:101FB000CB20CB20E443F505FDC8E4E5BB00CB0115
:101FC000FCC8F425DB82BAA0A200A200A1E0AA20EE
:101FD000AA40AA60AA60B280B2A0B2A0B2A0B2A089
:101FE000AA80AA80AA60A240A2209A0099E091C08B
:101FF0008980898089608160814081407920792051
:102000007920710070E068E068C068C060A06080FE
:102010006080608060A060A060A060A068A068C0D0
:1020200068E068E070E070E070E070E070E070E040
:102030007100710070E068E068C068C070C070C076
:102040007900790070E0710071007100690068E04A
:1020500060A060A058A05880586060A058A058A008
:1020600060C060A068A068C068E070E070E070E0E8
:1020700070E0710070E070E070E07100790070E075
:102080007100710070E070E07100710070E070E04C
:1020900068C068C068A068A068A06080608060A018
:1020A00060A0608068A0608070C068C089C3AB0811
:1020B000FE76EE779C70C5D79C718BEFCDD7EEFB8B
:1020C000E73A950E5C0564A6648574E66CC564A465
:1020D0005C644C0254224C024BC233202AC03B4168
:1020E0003B41436143614B824382436253E54BA4CE
:1020F0004BA34BA34BC353E34BC253C25BE353C34A
:102100004C0354045BC573C77328BCF2DE1793EF0E
:1021100049E762EA3184738CAD33AD34AD359CB39D
:1021200094929C93945294519C5183AE940FACD250
:10213000B534F71CBD55B4F4ACB2B533DE57C59217
:102140009C08AC679BE38B809BE1B4C3FF2ABD0076
:10215000CD82EE47FE8CFDABBB2491A07940794047
:102160007961794070E070E068E060E069224000E9
:10217000792079207920792081207920812081207F
:102180008140896091C09A00AA60B2A0BAE1C301FF
:10219000CB41CB40E442F505FDE8F546D3C3D3423D
:1021A000E3A3FCA7F424CB00B260A1E0A1C0A2008D
:1021B000AA40AA60AA60AA80B2A0B2A0B2A0B2A0AF
:1021C000B2A0B2A0AA80AA60AA40A2209A0099E078
:1021D00091C091A089A08980896081608140792027
:1021E000792079207100710068C068C068A06080A3
:1021F0006080608060A060A060A060A068C068C0CF
:1022000068E068E070E070E070E070E070E070E05E
:1022100070E070E0710070E068E070E068C070C06D
:1022200070E078E078E070E070E070E0712160A02C
:1022300068E0608060A060C0588060A060C060E01E
:1022400060C060C068C068C068E070E0710078E09D
:10225000710071007100710070E07100710070E038
:1022600070E0710071007100710070E070E070E06A
:1022700068C068A068A068A068A060A0608060A036
:1022800060A0608068A0608068A070C08182BB8A06
:10229000FE76EEB8B554A4F383CF6AEB838F943106
:1022A000CE37CEB65BC6436254056CA764866CC657
:1022B000648564A55C43540354033B203B21436283
:1022C0004362438243614BA24341436243833B22C7
:1022D00043833B213B413B2043613B4143414361BD
:1022E0003B813B6253646BA873097B2B730B734C6C
:1022F0005AA96B4B62E96B2ACE17B555A4F49CF42E
:1023000094B39CB3945294529431941083AEA4929B
:10231000A4B2B555BD56BD34DE38CDD5940DA48CD0
:102320009C67A4659C03A3E2A422A441DE26C561A8
:10233000C582E606FEACFDCCBB449A0179407940EB
:102340007960794070E070E068E068E06902400020
:102350007920792079207920792079408120812085
:1023600081408140896091A099E0A240AA80BAC0D2
:10237000C300CB20E422F504FDC7FDA8E424D382EA
:10238000CB01F425FC86E3A3C2C0AA20A1C0A1E032
:10239000AA20AA40AA60AA80B280B2A0B2A0B2A02D
:1023A000B2A0B2A0B2A0AA80AA60AA40A2209A00BD
:1023B00099C091C091A08980898089808160814085
:1023C000792079207920710068C068C068C068A051
:1023D00068A060A060A0608060A060A068C068C0C5
:1023E00068E068E070E070E070E070E070E070E07D
:1023F00070E070E0792070E070E0710068C068E023
:1024000070E0790078E078E0810078C078E078E1E9
:1024100070A070C068A068A06880608068C05880A4
:1024200060C060C068C068C068C070E070E07100E3
:102430007100710071007100710070E070E070E077
:1024400070E070E0710079007100710070E070E080
:1024500070E068C068A068A068A068A060A060A0E4
:10246000608068C0688068A0688070C091E4BBAB81
:10247000FE97FF3BE6BAAD14B534ACF38BF07B6E40
:102480009430A4F15B6753862A612A4132A23AE272
:102490004B63434243625C0553C443424B834363F3
:1024A0004B8443434B834B834B824BA34B834B83E4
:1024B0004BA34BC44BA353C34BA3436243833B6225
:1024C0003B6232E1534673CA6B4A62EA39A5630A3A
:1024D0005AA9632A83ED5267A4D2AD14AD56A5352F
:1024E0009CF48CB29CF38C319452945283AF7B6EEB
:1024F0008BF09C93DE5AB5349C91736A39A26B259C
:10250000B508ACA49C0193A08B6093A0CDA5CD830E
:10251000D605DE07FE8DFDEDC38591C08140792093
:102520007940792070E070C068C068E0692340009D
:102530007920792079207920794079408140814043
:102540008140814081408960918099E0A220AA6009
:10255000BAC0C300DBE1ECC3FD86FDC8E444DBC3C5
:10256000C2E0E383FC65FC65DB62BA40A1E0A1E068
:10257000A200A220AA40AA60AA80B2A0B2A0B2A0E3
:10258000B2A0B2A0B2A0AA80AA80AA60A240A22053
:1025900099E099E091C089A0898089608960814033
:1025A000792079207900710070E068C070E068C01F
:1025B00068C068A060A06080608060A068A068C0FB
:1025C00068E068E070E070E070E070E070E070E09B
:1025D000790078E0790070E068E0710068E068E018
:1025E00070E070E0812189218100892181018101D0
:1025F00078E178E278E2688070E1606068A06080ED
:10260000608060A068A068A068C070E070E07100A1
:10261000710071007100710071007100710079002A
:1026200071007900790079007900790079007900EA
:1026300070E070E068C068A068A068A068A060A0B2
:10264000608060A0688070C1686070E19A25BBAB53
:10265000FE98FF7CF73CBD96EF1BF73CCDF7B534F9
:10266000941083ED5B2863E9114000C000800920CD
:10267000328353662A613AC23AC32A412A613282BE
:102680002A613AC33AE33AE2434243214B6353A4FB
:102690004B8353C44B6353E653E64BC543844BC54E
:1026A0003302224063A86B8963096B8B52C75AE8D7
:1026B00052A85288738C62C97B8DBD95B576B5964C
:1026C000A55594D39CF394928C328BF183B0734EC6
:1026D0008C109CB2AD347BCD318310C0298052A1C7
:1026E0009CC6AD059C4193A08B809BE0C545BD0376
:1026F000BD45C526FE8EF58DC38699E18140816179
:102700007920792078E070C070C068E169234000CA
:102710008120792079207920792079208140814099
:102720008160816081408160896091A09A00A240AF
:10273000B2A1BAE0D3A1EC63FD25FDC7FD06DBE342
:10274000CB01CB01F425FC86EBC4CAE1A1C0A1E01A
:1027500099E0A220AA60AA60AA80AA80B2A0B2C012
:10276000B2C0B2A0B2A0B2A0B2A0AA80AA60AA4091
:10277000A2209A0099E091C089A089808960816037
:102780008140794079207920710070E070E070E03C
:1027900068C068A060A060A060A060A068A068C0D9
:1027A00068E068E070E0710070E070E07100710056
:1027B00078E079007900790071007100690068E0C3
:1027C00071207920812199C399E499E491C49A26D2
:1027D00099E599E58984790278E27922606070E16F
:1027E0006880688068A068A068C070C070E07100F0
:1027F0007900710071007900790079007900792001
:102800008140792079207920792079007900790038
:1028100070E070E070C068C068A068A068A068A0A0
:1028200068A0606070C0688068A0792299E4D44E86
:10283000FEFAFFBEDE9AC5B6FF5CFF5BFF7DF71BAD
:10284000DE58C5F573EB5B6829E3194110C10060E0
:102850005B2AADD3320419401100194111201940EF
:102860003223196019A019A02A612A602A603281D6
:102870002A602A6132812A622A4232E42A8232E3C1
:1028800032A221E05B2773894A654AC563674AC55E
:102890005AE7528762EA7BAD3985BDB5B575B5B7E4
:1028A000AD96A5349CD39CF48C326B4F7BD0947145
:1028B000A533738C18C118E0194032215324638466
:1028C00052C0A505BD24B4C1C524BCC3AC22A4021A
:1028D00093C2BCC7FE0FF54DBB2691C1812081403C
:1028E0007920792070E070E070C068E169034000F1
:1028F0008120792079207920792081408140816070
:1029000081608160816081408960898091A099E0C7
:10291000AA40B280CB41E402FCE4FD66FDC9DBE2E3
:10292000D362CAC0DB83FC86FC46DB83B260A1E0D5
:1029300099E0A200AA40AA40AA60AA60AA80B2A018
:10294000B2C0B2C0B2C0B2C0B2A0B2A0AA80AA80C7
:10295000AA60A2209A0099E091C091A08980898004
:10296000898081408140792079007100710070E098
:1029700068C068A068A068A060A060A060A068A00F
:1029800068C068E070E0710070E071007100710073
:1029900070E0790079007900790070E070E068C03B
:1029A00068A0792091C3C308CB8ACBABCBECCC0D0C
:1029B000BB8CAAEAA2A9AAA9922789E589847923CE
:1029C00070C168A068A068A070C070C070E071009D
:1029D00079207900790079007900790079207920CF
:1029E0008140792079207900790079007900790097
:1029F000710070E070E068C068C068C068C068C0FE
:102A000068C0608070E1688068A08142AA87DC901D
:102A1000FEFAFF9DC5D7CDF7FF5BEEB9FF7DDE382F
:102A2000CDD6CE3694EF6BEA3A44216221232103BE
:102A3000004010E17C2E842E6B6B6B6C632A424647
:102A4000C63531E35B485B672A213AC2328219C03E
:102A500032412A0121E1094000E009000920090072
:102A6000638852A58BEBF7176B473A4252E452E466
:102A70004AA56309420683EF5AC95AA9D699AD55AA
:102A8000BDB7AD5594B29CD39CF5B597B5B673ADB3
:102A9000216208A0298142647C8A63A653645302A0
:102AA00073C27B80B503B4E1C524D567A3C2B44526
:102AB000FF11FEF1ED4DDC2AA243896081607900AF
:102AC0007920710070E070E070C068C160E2380089
:102AD00081408140814081208140814081408160EE
:102AE00081408160816081608140896089608980E6
:102AF00099C0A200C2C0D361EC63FD04FDC8E464C8
:102B0000D321DB22C2A0F425FCC7E3C3DB83AA20C8
:102B1000A1E0A200A220AA20AA40AA60B280B280AE
:102B2000B2A0B2C0B2C0B2C0B2C0B2A0B2A0B280B5
:102B3000AA80AA60A2209A0099E091C091A0898001
:102B4000898081608160794079207920790070E006
:102B500070E068C068C068C068A068A068A068A08D
:102B600068C068C068E070E070E0710071007100DA
:102B700071007100710079007900790078E07900C6
:102B800091829A04D38AECAEFD50FDF3FE14E593D6
:102B9000FE57F5F6ED95D4D1E512AB4B9A8881A49A
:102BA000814370E168A068C070C070C070E07900B7
:102BB000792079207920792079207900790079208D
:102BC00079007900790079207920792079007900DD
:102BD0007900710070E070C068C068C068C068C0EB
:102BE00068A068A068A068A070C191C4CB8BE4F114
:102BF000FF9DFF7DC5B5DE78F6FAF6B9FF1BC595DA
:102C0000C5D5CE763AA46C2A5B473A2439C531A59E
:102C10002164006019015AC939A64A285228398509
:102C20004A065AE73A03848C4AE43AC332624B06B6
:102C300021C200A008E04288738C73AD5B090020BC
:102C40006308FF9AF676F696DE3342224AA342C321
:102C500052E5424452A74207A5541081AD34C5F74E
:102C6000B576C5F8B5B7C619A5345B0A19001100C9
:102C700021A14AE55B865B86A5CE9D8D428231C04F
:102C80006B40CDE8E648CD24DDA7D547C4E7FE6D0F
:102C9000F62DE52BCBA7BAC591A0894081207940BC
:102CA000712069007100710068C060A058A13800EF
:102CB00081608160816081408140814079407940BC
:102CC000814081608160816089608960896089401C
:102CD000898091A0B240C2C0DBC2F4C4FD66FD6829
:102CE000BAA0DB83CB01DB42FC86FCA6E3C2C2C0F8
:102CF000A1E0A200A200AA00AA40B260AA80AA8015
:102D0000B2A0B2C0BAE0BAE0BAC0B2C0B2A0B2A03B
:102D1000B2A0AA80AA60A240A22099E091A091A0AE
:102D20008980898081808160794079407920710033
:102D300070E070E068C068C068C068A068A068C043
:102D400068C068C068E068E070E0710071007120E0
:102D5000712071007920790079208962896291C49B
:102D6000A267B2E9ECD0FD92FE76D4EF61C449646B
:102D700049856208934D9B8E934CE595D490A2C9EA
:102D800089C5792168C068C070C070C070E07900E2
:102D9000792079207920792079207920792079008B
:102DA00079207920792079207920790079007900BB
:102DB0007900710070E068C068C068E068C068C0F1
:102DC00068C068C068A070E189A4AAA8D44EF5D4F0
:102DD000FF9CE6B9C5B5F71AF6D9FEFAEE99CDD73C
:102DE000B574BE1442E474AA63E829C119002983AA
:102DF0002162428794D039E552485229520852281C
:102E000041C541E5420452A652E542C43AA51140EB
:102E100029E49D32B617ADB6B57583CE41E72923B7
:102E200028A1EE97E5B4EDF3F6B58C2A426242A3F1
:102E30004A8363477C2E636C634C840F31A5CE3785
:102E4000C5F7D69AB5B65ACA31C529A23A224B045B
:102E500053854B445B845B646BC5532373C6D69127
:102E6000BD69BD26AC42A3C19B81C466FE4DFE4E2A
:102E7000ED4BCBE7AAA399C1894081408140710005
:102E8000712068E06900710168C058805080380086
:102E9000896089608160816081608160816081601A
:102EA00081608160816081808160816089608980CA
:102EB00089A08980A1E0B220CAE0F444FD05FDE9C3
:102EC000D381CB00DB83CAC0E3E3FD07F444DBA27C
:102ED000C2A0AA00A9E0A9E0AA00AA40AA80AAA0CC
:102EE000B2A0BAC0BAC0BAC0BAC0BAC0BAC0BAC03A
:102EF000B2C0B2A0AA80AA80A2409A0099C099C18B
:102F000091A08980898081808160814079207900C9
:102F10007100710070E070E068C068C068C068C08F
:102F200068C068E068E068C07100710071206900E5
:102F3000712071007940792091C3A266AAC8BB6B49
:102F4000C3EEDCF3FE38FE99D511C4B072CB7B6FB3
:102F500041C941E9732E6ACC626B7AECD4F3C42F79
:102F60009A67794168E0710070E068A070C078E00D
:102F70008120814079007920794079207920792059
:102F800079007920812081408120810079008100B1
:102F90007920710070C070C068C068E060E068E0CF
:102FA000690068E0794289A4AA67CBCDE572FF1970
:102FB000FFDDE6D9CDB5FF3BF6D9FEFADDF8CDF75A
:102FC0009CD29D514B645C055BC59DAF7C4B42859B
:102FD00032637CAD6BCA21424A0849E85A6962AA49
:102FE0005A894A0749E739A5422452E619418CB06B
:102FF000ADB4C678B5F68C7152AA4A284A084A0779
:103000001800C4D1F614E591EE74C5D14A83428408
:1030100031E27C2D9CF27BEE5AEA8C9042067BEDED
:10302000B5D473CC52C84265426442A44B44538425
:103030005BE553844B0253026BA5BDCDD66FFF7386
:10304000DDEC9BA29B81D507E56AEDACFDCDE4EA02
:10305000CBE7AAC491C0894081408140814079007A
:1030600070E0710068E068C060A0586058A1380046
:103070008140896089608980898081608160816008
:103080008160816081608160816081608960898008
:103090008980898099A0A1A0C280E3A3F4A5FD67DF
:1030A000F4A5B280DB84D322DB82FCC6FCC6F42408
:1030B000DB62BA60B220B200A1E0A220AA81A280A5
:1030C000B2A0B2C0BAC0BAE0BAE0BAE0BAC0BAC000
:1030D000B2A0BAE1B2A0B2A0AA60A220A22199C077
:1030E00091C091C089A089A08160814081407920F0
:1030F00071007100710070E070C068C068C068C085
:1031000068C068E068C068C070E07100710071005C
:1031100071007100794089E3B349CC2DDCD0EDB466
:10312000F617EDF8DDD7CD759BCE8B6D62CD8C1487
:103130003169294862EF41EB292728C57A8ACCB149
:10314000AAE9818368E068E070E070E078E078E008
:103150007900790081408140816079207100794156
:10316000814079208140814081408140814181209E
:103170007920790078E070E068C068E068E068E095
:10318000714179639A26AAC9D42EE552EE75B571BC
:10319000C5F4C635E6B8F75AF73AFF7CEEBABDB6C5
:1031A0009D128CCE4B644BC35C05D7B5B6737CCDFA
:1031B0004B675BE93244298341E841C841E84A084A
:1031C0006AEB6AEB730D62AA4A464A8608607C2F56
:1031D0007C2F73CE5B0B420831A739C7524A6ACBAA
:1031E0003081AC4EFE76D571E654D63352E6428538
:1031F000634A8C909D138C716B6C634B634A428560
:103200007C2B53063A444AC44AE4534453A44B62C9
:103210004B4242E17C06A4EABD6CEEB1EE70F66F63
:10322000EDEDCCC8D4E9F5CCF5CDED4BDC69BB4573
:10323000AAA391C1896081608140792079207900B9
:1032400070E07101710168C06080586058C2380038
:1032500081408140816089808980898081808180EE
:103260008160816081608160896089608960898016
:103270008980898091A09980B220CAE1E423FD274A
:10328000FD68C2E0BAA0E3C4D321FC65FD27FCC6FB
:10329000EC04D341C280B22099E09A209A40A280E7
:1032A000AAA0B2C0BAE0BB00BB00BB00BB00BB0021
:1032B000BAE0BAC0BAC0BAC0B280AA40A2009A01AD
:1032C00091C091C089C089A0816081608160814086
:1032D000792079007900710070E070E068E068E0C2
:1032E00068C068C070C068C070E070E070E07100D5
:1032F0007920814191E3AAC7D48FF5F5FE98FEFAB3
:10330000E618BCF4BD36628C5A6B3989398A63324F
:10331000316B294A426E424D3A0B31473082E533D8
:10332000AAE991A370E070C070E070E070E070E016
:10333000792079208140812081208140792081403D
:103340008140794089A189E189C1898089A1816011
:103350008120814181017901710070E0710071016A
:1033600081A3A2A8BB8CDCB0EDD4EE75B5B05B46F2
:1033700063C873EAA550BDD3BDF4A532B5737C0D07
:10338000951063C94B843B418D8ABF12A6318DB124
:10339000540A2A853A873A0739A8318839C83186CC
:1033A0004A6862EA6B2C6B2C6B4B5AE918A121031B
:1033B0002123212431864A294A09524A4A095A8A34
:1033C0003103834BF676EE35EE96D6147BAB632A4B
:1033D00094D09CF294B294B284315B0B6B8B3A44E0
:1033E0004AE55B664B044B2442E343034B225342C2
:1033F0006BC57BC5CDAEFED2EDEFD4EBCC49D46925
:10340000E50BF56CF58CE50AD468C3C6B2E49A0105
:1034100089A08140814081607920792079207900DC
:1034200070E0710168E160805860586058E23800CF
:10343000792081408140816081808980898089A054
:10344000898089808980816089608980898089A05C
:103450008980898091A09180A1A0B260CB21FCC617
:10346000FD48E3E3AA20E3A4E3A3E3C3FCA6FD072E
:10347000FC85EC24D321BA80A2209A009A00A26095
:10348000AA80B2C0BB00BB00BB00BB20BB20BB20DE
:10349000BB00BAC0BAC0BAE0BAC0B280A240A24172
:1034A0009A0091E091C091A08980896081608160DB
:1034B0008120812179207900710070E070E068E05E
:1034C00068C068C070C070C078E070E070E07100E3
:1034D000814191C3BB08D44EEDD4FF3BFFBEF71C26
:1034E000A47162AB943329282108292939ED73B4DA
:1034F000739463124A6F73B38C546ACD7AAADCF169
:10350000AAE989A370C070A070E068C070E070E0A4
:10351000792070E08981812089618120894091A290
:103520009A249A44A284A2A59A849A649A649203E3
:103530009A4591E489A4898389A3790178E08983F4
:10354000A288C3ADE533FEB8FF19C5F24AE33AE2FB
:103550002A603241194029A23A2408C029A229A38D
:103560004AE73AC44B8432E0A66EA670854E5C2CC6
:10357000440D3B4B538C4ACB31C93A0B3A2B3209A1
:1035800031C6296531A64A697BCE8C5020E22923B9
:1035900031852965526A83F029253966396639658E
:1035A00049C630E2BD12DE15E677CDF59C90A4F257
:1035B000A4F294719CD394939CF47C2F52E84AC556
:1035C0003A8242A23AC23AE242E342C252E273A4CF
:1035D000CDADFED2F5F0DCCBC3E8B305BB46B2E41B
:1035E000BB45C3A6C3A5B364AB04A28291C09180BE
:1035F000814081408140814079207920792071008B
:10360000710170E168A0586058405880610238002C
:10361000792079207920814081608960898089A121
:1036200089A089808980898089608980898089A032
:103630008980898091A091A09980A9E0BA60E3E493
:10364000FCC7FCA7B260D302EBC5E3A3DBA2FCC6B8
:10365000FD07FC85EC03CB00B280A200A220A200F3
:10366000B260BAA0BAE1BAE0BB00BB20BB20BB008D
:10367000BB00C320BAC0BAC0BAC0B2A0AAA09A40C8
:10368000A2409A0099E099C099A0918091808960A8
:103690008141812179207900710070E070E070E053
:1036A00070C068C070C070C070E070C070E0790019
:1036B0008182A286D42DFDB4FEFAFF9EFF9FDE7AA2
:1036C0009CD362EC18C621096BB494FA94D99D1A64
:1036D00041ED41CC2929104420632000D513DCD0D2
:1036E000AB0889A370A0688070C070E070E07100C2
:1036F0007100818270E0898281418961A224A244A3
:10370000BB28C3AACC2CD48DCC4DBBAAB369C3AA09
:10371000BB8ABB6AB34AA2A8AAA889A491E5A267FA
:10372000BB6CE513FEB9FFBDEF388CCC4B4332E0E8
:103730003B0142E142A34AE54AC529E229C22A03E4
:1037400029E24B0632814B43B6F1854C75303BADD7
:10375000232E54B41A295BF03AED21EA21EA2A0A11
:103760003A4A29C831E929C910C431C739E72123A8
:1037700031653186292520C320E4292528E41882D3
:1037800041A628E2186018409C4F9C70A4B29C92FD
:103790009C929C728C119493A5369D344AA85B2808
:1037A0004AE43A6142C32A0021607BA6EEB2FF33AD
:1037B000FE30DCABCBC8B305AA63AA4299C099C05E
:1037C0009A009A009A009A209A2191E189408940B2
:1037D00081208160814081408140792070E07100CA
:1037E000792168C160605840606060A0612340201A
:1037F0007100790079007920814081608980898019
:1038000091A191A089A089808980898089808980FF
:10381000918091A091A0918099A09980B200C2A0BE
:10382000F486FD08C2C0BA60E384EBC4D301E403AC
:10383000FCE6FD07F464E3E3C300B2A0AA20AA20DB
:10384000B240BAA2BAE2BB03C343C383CB63CB8308
:10385000CB82BB20CB41BAE0BAE0C321AAA0AAA088
:10386000A260A220A1E099C099A099A0918089802E
:1038700089618141794079207100710070E070E0C8
:1038800070E170C070C070C070E068C079008141A4
:103890009A44CC0CFDB3FED9FFBEFFDFF77FCE3AD2
:1038A0009CF339C8E73F94D984787C37004710C827
:1038B00039AB522D49CB93B1D556C430E4F1B34A5C
:1038C0009A66818270C070C070E170E071007120F2
:1038D00068E068E081A381839A05A245BB28CBCA32
:1038E000E50FFDF3E552CCB0EDB4FE77FDF5ED72DA
:1038F000FE35FE35FE16F594B38CB36BBB4BCBEDAA
:10390000F595FE79FF7EFF9DCE76742964869E4BE9
:1039100053A23280848A8CCCBE535B88198021E20A
:103920006C0A328322007CA9AE70750C540D2B4EAC
:1039300023932B934C132A8C439011EA224C220B95
:1039400019CA21EA21EB19A929EA31C84A4920E319
:1039500018C3106220E4082118A320C36AECE6BA59
:103960008BEE62C96AEA08005227BD96947294727F
:103970009C729C529CB3A515632D632B73CC52C6CD
:1039800052C4320021808408F755FED3DD4DD48A1D
:10399000CBC7C366BAC4A22191C091A0918099E01F
:1039A00099A099C099C091A089808960894081209F
:1039B00081408160814081407940710070E07941AF
:1039C0007101608058405860608060C06923402069
:1039D000710071007920792081208140896089609F
:1039E000898091A091A091A089A08980898089A0D7
:1039F000918091A091A0918099A09980A9E0B22096
:103A0000E3C4FCA7E3A4AA00E384E363E3A3D341F4
:103A1000DBE3FD27FCE5F4A5DBA2D342BA80BAA222
:103A2000BA82C2C4CB47D3C9DC4AD429D3C7D3C6D0
:103A3000D3A5D3A4C341C320C321BAE0BB01B2E0E4
:103A4000AA80AA40A200A1E099C099C091A091A02B
:103A500089808180816079407920792071007100AE
:103A600070E070E070E068E068E068E0794089C28A
:103A7000AB27E550FEB8FF5BFFDEFFDFF77FD67BAD
:103A8000A5356B6E6B709CF831CC424F3A0D0045FA
:103A900029694A2B6AACE5D8F575E490B3099A45D3
:103AA00081A27961712070E078E170C0790079209D
:103AB000794168E092259A86B349C3CBDCCFF5F40F
:103AC000EDF4B42EA38D930B7A488289BCD1E5F630
:103AD000C4D1BCD1E5D6DD95F678F616D4F1EDB4B7
:103AE000F638FF3CFF7ED6BA95116C4A5C045C2226
:103AF0005BE42A0094CBE7169D0FBE3421C219C1A6
:103B0000958F536621E063E7748974ED3B6C230F56
:103B100023B70AF454973B702ACE2A8D19EC220D54
:103B2000220D21EC19CC220D29EB218929670821CE
:103B3000108220C318C3AD34CE59734D2903CE175C
:103B40008BEE39648BCD188029038C709CD39472D2
:103B50008C10A4D39492630C634B4A6783EB6B275E
:103B60005AA4AD0DDE51EE71DD6DD4AAD407CB653C
:103B7000C325B2A3A22199E091E091E091C099E020
:103B800099C09980998099A09180894089408960E5
:103B900089608160814079207920710071007921EC
:103BA00068C058605840606060A060C069234020D1
:103BB00079207920790079207920814081408960BD
:103BC0008960898091A091A091A089A089A089A0F5
:103BD00091A0898091A091A0918099A0A1A0BA20E4
:103BE000D301FC46FCA8B220DB43DB44EBE5D36306
:103BF000C300ECA6FD68FD27EC45D383CB65CB461F
:103C0000E40AD369BB08BB29BB8AC3CADC2CECAD70
:103C1000F4CCECAAE487CBC3C362CB63BB01BAE1AB
:103C2000BAC0B280B261AA21A1E099C099C091A0A6
:103C300089808980816081407920792079007100B4
:103C400071007100710068E068E068E081619224B1
:103C5000C42BEDF3FF3AFFDEFFDFF79FFFBFE6FD6A
:103C6000B57694726B6F7BB2528E39EB422C214742
:103C7000088429269C31E5B6DC70CB8B99C491A3CE
:103C800079627141712070C070E078C078E079008D
:103C900089A28A04AB09C3EDDD12F616EDF5D573E2
:103CA000C5539C0F938E728A622959E872CC6ACBF5
:103CB000626A6AAA6AAB624972CA9BEEEE57FEFA62
:103CC000FF3CF6FCDE7BB5976BEE4B474B82540313
:103CD0004B624B0394ACBDF28C6E73CB32443243D7
:103CE0009DAE748953443AA23AC34368332C23519E
:103CF00023981B7833B543F3330F224C21EC2A0D64
:103D000021ED19ED1A0E220E21ED218A31AA420968
:103D1000A4F4AD3418C39491D6796B2C18A183AE5A
:103D2000B5337B8C62C9292318A14A289CF394924D
:103D3000ACF38C0F630B4A67842D8C4CA4ADCDB0D3
:103D4000D5B0E611E5CFE56DB385C365C304BAC34D
:103D5000B262AA4199E091E0920092009A2091E02B
:103D600099E099C099C099A0916089608160816053
:103D7000814081408140792071007940792168C07B
:103D800060A058606060608068A068C069234020BF
:103D90007920712071007920792079208140896013
:103DA0008960898091A091A091A091A091C091C0BB
:103DB00091A091A091A0918091A099A099A0B2000A
:103DC000C260F3E5FC87CB02BA40DB65E3A5D363B1
:103DD000C322C362FDAAFD89ECE9E4AAE4ACECCEFF
:103DE000BB2A89C579657185698479E692479A8885
:103DF000A2C8BB89DC8AED0BDC68D3E6C323C3020F
:103E0000C321BAC0B260B241AA0199C099E091A0A1
:103E10009180898091808140812081407920792022
:103E2000792070E0710070E068E070E08182A2C7E4
:103E3000DCEFFEB7FF9CFFDFFFFFEF5EFFBFEF1E73
:103E4000C5D8AD1494927BB062ED28E6212618E522
:103E5000000141E8B4D3D553CBECAA668942812155
:103E600071017121710170E070E178E078E08120EA
:103E700091E4B309CC90E5B6E618CD769C316AEDB5
:103E80008BF183D17B2E628C624B626C522B39CAD0
:103E900041EA39A9210629465A6A836EBD13BD330A
:103EA000EE7AEEDCB5788C7442AB43296C8953E42E
:103EB0003AE242A37C0AC655BE15638B19613243B0
:103EC000A60F644753A53AE22A6122642ACB233223
:103ED0001B791B9A1B5533933B502A2B29EB29EC5A
:103EE0002A0D19ED1A2E11CD19EE21CD31EB39E93C
:103EF000C618D69A294542088C717BCE4A2752278C
:103F00009C7083CD2923290220E221028C509CF24F
:103F100083EF5A894A474A6683EBDE73DE11F63235
:103F2000F5F0E50DCC28C386AAA2AAA1B282AA8286
:103F3000A2219A20920092009A20920091E09A0089
:103F400099E099E099E091A09180896081608180F9
:103F5000816081407920792071007120794160A0D1
:103F600060806080608068A068A060C06943402075
:103F700071007100710079207920792081208140C1
:103F800081408960898091A091C091C091C091C009
:103F900091A091A09180918091A091A09980A9E099
:103FA000C260DB22FC67EBE5A9C0D303CB03CB44A3
:103FB000CB85A280E4A7FE0DFDAEDCEDBBECBBCD56
:103FC000610448424822404338423842402140215F
:103FD0004841614392C7B3C9CC4BD44ADC28CB8457
:103FE000C322BAC0BAC1AA20BA81AA20A20099C02D
:103FF00099A09180894091808960810081207920F9
:10400000792071007100710070C070E091C4BB4AEA
:10401000EDB3FED8FFFEFFFFEF9DE73DF75EEEFD3F
:10402000CE59B5969CD3947262CC41A8318618C300
:10403000292583AEAC91D512C3ABA245894278C085
:1040400070E170E170E070E070C079008121894119
:10405000AAA7C3CCF5F7FEFDC5B97371526D4A2D01
:104060006B316B515ACE5AAE528D528D5A8F4A2DAA
:1040700031AA39EA4A6C6B2FA4B4B4F47B6C732B6D
:10408000A471CDD8A5175B3029E95B6DAE537CCB0D
:1040900032633AA463A99D509D5163AB08C04B069F
:1040A000AE706C6732E15C2732C232C509E82B3250
:1040B0001B59137A1B982352332E326A29E929A9F6
:1040C00021EB19EC1A2E1A0D220E2A0E29CB1927D4
:1040D00073D09CF35ACB18E38C51B575840F39C556
:1040E0004A27420610602923292320E26B4B8C507B
:1040F00041C641C6734A83AAAC8CF673F611DCEC58
:10410000CC09C3A7BB04B281A220AA61AA82AA617A
:10411000A2619A2092009A209A0099E099E09A0070
:104120009A0099E091C091A0898089808180816006
:10413000814081407920792079407120710060A010
:104140006080608060A068C068C068C0694340202B
:104150007100710071007920792079207920812007
:1041600081408160898089A091C091C091E091C017
:1041700091C091A099A0998099A099A099A0A1C05F
:10418000BA40CAA1F405FC87B200C2E3D344BAA284
:10419000C325AA82B303FE10E57082A740A238832C
:1041A000404340443845386540854084384438446D
:1041B000302330222800302069A5BBCCDC6DDC49DF
:1041C000D3A5CB63CB41C300C300B280BAA0B24039
:1041D000AA40A1E0A1A0914091409161812081205D
:1041E0007100712070E0790078E078E09A05C3AB47
:1041F000F615FF9CFFFEF7BED6DADEDBDEDCD65A14
:10420000B576AD349CF38C518C10943183CF5269C8
:104210007B6E8B8EA3EFE573CC0DBAE899E48942EF
:1042200078E1812270C0790170C070E0814191C352
:10423000BB2AD470FEDDF73F845652F26B757BF6D5
:104240006B545B126B9352F05AF05AF04A2D398B33
:10425000314962CEBD57D5F9C576B514A4B183AD49
:104260005A89738EA4F739CB216A7C53FFFFADD4F2
:1042700021C46C2C63890900112019404AC6A5B0DD
:10428000AE307D0A12006CC83B43330511C6122DB7
:104290001B371B9A1BB913331ACA3B093A883208D9
:1042A000218921CB19CB220C19CC2A2D21EB320AE2
:1042B0003A2952CB8C5121259CD3AD558C302964A1
:1042C000108010C12964210329434A275A68526883
:1042D00039A6730BBD31F674FE53D4ACCC4ABB6720
:1042E000B2E4BAE4AA61AA41A200B281AA61AA61B9
:1042F000A2419A009A00A22099E099E0A1E099E0F9
:1043000099E099E091C089808960896081608160CD
:1043100081408140792079208162712068A060808D
:10432000608060A060A068E070E068E071434020B9
:1043300070E070E07100792079207920792079206F
:104340008140814081608960898091A091C091C045
:1043500091C099C099C099C099C099C099A0A1C0B5
:10436000A9E0CAA1F3E5FCA8D343A9E0E3C7B28260
:10437000C305D3A889C0CC2A30003020388430450A
:104380003865408638463045304530253025302563
:104390003886282430443884280138006902CBEC60
:1043A000FD2DD3C5D3C3D402DC03E444DC04CB84A9
:1043B000BAE1B280A9E099809960914089608161F9
:1043C00079207920790078E078E08100A245CC0D51
:1043D000F616FFBDFFFFD6DBBDF7D6BBCE5AC639FA
:1043E000A534949194B284108BF083AF7B8E8BEFC5
:1043F00083AF7B0CB431FE18F554D3CE99E599E523
:1044000089428101810081007900816281629A661E
:10441000CBEEED75FF1EA53894F984785B1331AFB0
:1044200073B784385B5353114ACF424D1066292825
:10443000ACF6E6BCC577C576B4D3AC91ACB19C7094
:104440009C5083D0524C41EC39EDC63DF7DF52CB46
:1044500031E74AE921A229C221E229C29D4F9D4E9E
:10446000744842E25BE51A207D4B11C02A46228D3A
:10447000233523BA13381B741AE96CEE744DA55317
:1044800073D04AAD218908E621AA21EB324C2A2AB1
:10449000218629A610A339A7108218C221232144FE
:1044A00021431923214418C24A27AD3362EA3964F3
:1044B000FF9DFFBCF655E591DC8CC3A7AAE4B2C30F
:1044C000AA82AA61AA41AA20B261AA61B280AA60A6
:1044D000AA40A2009A009A00A1E0A1E0A1E099E020
:1044E00099E091E091C089808960896089608160EC
:1044F0008140814079207941816270E060806080F4
:10450000608060A068C068E070E068E071434820A7
:1045100070E070E07100790079207920794079406D
:1045200081408140814081408160898089A091A043
:1045300091C099E199E099E099E099C099C099C03A
:10454000A9E0BA60DB22FC26FCA899A0CB65BAC41E
:10455000B2A4E42ABAE4AAC669843842304538874E
:1045600030463046282530453045302530663046C7
:10457000282630463886304530454064380148208A
:10458000A2A7FDF0F549F567ED26FDA8FDAAFD8A75
:10459000F508E425D383C2C1B2409980894089607F
:1045A000814079208140812081008960A265D44DBD
:1045B000FEB8FF5CDEDBB5B7CE59CE7AC619A514BE
:1045C000D69AE73C9CB27BAF83D06AEC730C732D18
:1045D0006ACC93B1D51779EA58437105C36D99E553
:1045E00091A391618100916199E39A04A2A7B34AD2
:1045F000C430FF7E943100221927214973B4A55C91
:1046000031AF5B1452F23A2D296808639474F73F76
:10461000D65AC596BD75BD55AC92BCF3AC92B4D319
:10462000BCF4AC938BB2524E210ABE3DE77F424BA5
:10463000426A00411923F7FC8CCF1120B6319D4D01
:10464000CEF3640732A13B226C87B6B15BEA2ACA7B
:104650001AD22B99237912D222E9A673E7BABE1691
:10466000AD359CB49C937BB0422B006419883229F1
:1046700029C6426839E720E4316539C729642143F6
:104680001943216421032103420739A50820B553AA
:10469000FF9CF6F8E5B2E4EECBC8BAC4AA41A2206A
:1046A000A240A240A220AA41AA61B260AA20B240C0
:1046B000AA00A200A1E099E0A200A1E099E0A20076
:1046C00099E091C08980896089609180898081406A
:1046D0008140814081408141792168C0608060A033
:1046E00060A060C068E070E070E070E07143482056
:1046F00070E070E0710079007920792079207920CC
:10470000794079408140816081608980898091A071
:1047100091C099E199E099E0A1E099E099E099E0F0
:10472000A1E0B220DB22F405FCC9B260AA41D3C8E3
:10473000AA63C326DC29A264A2EB40233866304674
:104740003046284528253046304528253046302635
:1047500030673867282530653885280330024042A5
:1047600048609AE6FE2EF5EAFE4BFE8DFE6EFE2EAA
:10477000FE6FF54AF4A7E405CB01AA2091A0896059
:104780008140812089608940814091E2B328DCD05A
:10479000FEFAFF9EBDF7C639C639BDF89CD49CB35E
:1047A000E71BE73CC5F8B5569C939C7294317B2D72
:1047B000832F830F5909506660A74803AAABAA88C4
:1047C00099E491A299C3B286B2E8C38BDCD0DD1222
:1047D000FEBAC55518C32946192510C518C773B4A4
:1047E00073D6192B29AC5AEF6B6FCE39DE9BCE19DD
:1047F000CE19C5D7CDD7C5B6CD96AC9393F0834E21
:10480000832EA452A45483D3633231CC31CB5B0EBC
:10481000088300004A49EF9DD6D942457C4AC6B27A
:1048200053245365538432C0A64EB6B1A6108DD51D
:104830003C161B3723771AF043CBA693B655CE7799
:10484000C5D7BD76B534A4939431841129A708E364
:1048500021843206420710A118C2212410E2192334
:10486000192321242104292420E3106010C1296286
:1048700039C383AAFEB6F591CBC8B283AA61B281CF
:10488000A240A240A240A220B281AA40B240AA20E7
:10489000A200A220A2009A00A200A200A1E0A20011
:1048A00099E091C089808980918091808980816020
:1048B000814081408141792168C060A068A068A0E2
:1048C00068C068E068E070E070E0710071634820E3
:1048D00070E070E070E07100792079207920792013
:1048E0007940794081608160816089808980898098
:1048F00091A091C091C099E0A1E0A1E0A20099E04F
:10490000A200AA00CAC1EBC4FCA8F46891C0CBA75E
:10491000B2C4B2C4E449B2E5B2EA58A53804384595
:104920003065284528452865286528653066304764
:10493000302738673866282328205165726A30424C
:10494000386248A0DD4DFE8EFE6DEDCC8AE4720229
:104950008AA2FE0EFD8BFCE8E3E4C2C1A1E09180D7
:10496000898089609180898099E2B307DC6FF5D5F1
:10497000F679C5B6CE5ABDD8BDD8B5569C72BD76AF
:10498000DEDBCE59C5D8ACF59C739C5193F07AED23
:10499000830F59494888506858A950467967BB2BFE
:1049A000B286BAC7BB28C38AE4D0F5B4DD33E5F7D5
:1049B000ACB241A631A631A62945290520A521077B
:1049C0007C15216A3A0CA537CE3AD639E69BCDD86C
:1049D000D63AD65AB55694726AED524B522C49EAE1
:1049E00039884A0A83F29CB663921969422C2106DF
:1049F0000001000020E462EBBDD673CC6BE97C8A39
:104A00005B8653654B434301CF52A60EA6317D947E
:104A1000239613172B961ACD64EFAE93CEF8F77D3D
:104A2000E6BADE59CDB7C597B535A4F38C913A6790
:104A30001101428731C5210218C2210210C1190299
:104A400018E218E318A2290418A2190221631941D7
:104A5000214029406AA6CCCFDC8CC366B2A1B2A0AB
:104A6000AA80AAA0A260AA61AA40B281AA40AA60B4
:104A7000A2209A209A209A20A200A200A200A200BE
:104A800099C091C091A091A0898089808180816026
:104A900081408140814178E068A068A068A068C03A
:104AA00068E069007100710071007100796348402D
:104AB00070C070E070E070E071007920792079209A
:104AC0007940794079408140814081608960896086
:104AD000896091A091A099E099E0A1E0A1E099C03E
:104AE000A220AA20C2A0E3C4F4A9FD8D81C0AB0618
:104AF000BB25B2A3DC08CB67AAA889C838023865F1
:104B000030652865284528452865286530453046A4
:104B100030263846304428008B09C4F0D57482EB27
:104B20003842280082A4FEB1E58C9B6540603000CD
:104B30008242ED0BECE9FD8BF487D383B26191A047
:104B40009180918099C0A243BB07D44DF5B5FE7A00
:104B5000A45162CCD69BBDF9A535A4F4AD15D639C8
:104B6000CE59B596ACF49C529C528BF07B2D8B4F5A
:104B700069CB488858CA58CB50AB48276907DC72C4
:104B8000DC2EDC2DD42DED52F5F6F638CD7593F0F4
:104B90004A0720E3424831A63165312529041063D4
:104BA00039EA31AA8C74D6BCE6BBDE59D5F8D61AE0
:104BB000CE3BA516739052AD39AA39AB318B318AF1
:104BC000420A420A528D8C74635129CB420B000277
:104BD0000021000000002925CE586BAB6BE953453E
:104BE00042E34B6443026C66CF319DCD95D15CB2FC
:104BF00013361BB923531ACB9653BEF5EFDDEF3CAA
:104C0000DEBAE6DAD638D618D618C5B6C6379D113C
:104C10005B4973EC29A410C1190219021902190287
:104C200018E218E320E320E318C21902218221C20E
:104C3000322321203120CD50ED90D44AC3A5C38426
:104C4000BB43BB42B2C1B2C2AA60B281A240A24081
:104C5000A2409A209A20A220A200A200AA20A2008C
:104C600091C089A0898089A091A189A0818081605B
:104C700081408160814170C0608068A068A068C088
:104C800068E0712071207120790079217983484092
:104C900070E070E070E070E07900790079207920B0
:104CA000794081408140814081408960896089608C
:104CB0008960898091A091A099C0A1E1A1E199E0CA
:104CC0009A20A260B2A0DBE5E52CD52D59809B0788
:104CD000C367B282D3A7D3A8B2A6A2684022304449
:104CE000308628452845284528043066304530451B
:104CF00030453885300169C5FE34EDF2DD71C4B050
:104D0000486140208A85F5D192E65100404058C064
:104D1000CBA7D3A6E448FD0BFD29DC25BAE2A220EF
:104D2000A1E099C0B282C346E48DF593F618CD9701
:104D30006AEE39C994F5C65AA5159493AD35D63A9D
:104D4000C5D8AD558C5194518BF08B8F7AED7A8EFE
:104D500048A850AA58CB588B58AB484860A7D433C2
:104D6000DCD3E533EDB5FE78EE58CDB7A4935A6B9E
:104D70003166318631A629652924292420C320C320
:104D800008224209C619C5F8BD96D618CDD8D63A1C
:104D9000A4F7528E3A0C31AB39CC4A2E420E39CCA4
:104DA000528D73704A0B83D2633131CC18E6000107
:104DB0000021002000005ACBDF1B4AE85386432322
:104DC00032C143224B22A5EDBEB095CF8DD43BB26C
:104DD00013571BD91B50336CAED5D778FFFEEF3C71
:104DE000DEFAE71BDEBADE7AE639DE39E6BACE77DE
:104DF000B5F384AE19211902214421232124210372
:104E00002102212320E3210318E21902194129E29A
:104E10003A6232015263D5D1FE93E58FE52CDCEA8C
:104E2000DCA9CBE6CBA5C363BAE1B2C1A200AA203C
:104E3000A240A200AA40A220AA00AA20AA2099E08B
:104E400091C089A089A08980918091A181608160B1
:104E50008161816170E068A068A068A070E0710065
:104E600071007100792071007920712079A3486068
:104E700070E070E070E070E07100790079007920F6
:104E80007920792081208140814089608960896012
:104E9000898089809180918091A099C099E19A0040
:104EA000A2819A60B2E1C406DDD07B4839A272E7E4
:104EB000BBA8AAA3CB67DBE9C308AAC958E52803A6
:104EC00028453066306630463866302530453065D6
:104ED000306528024081E531F5B1A3268264824520
:104EE000694279E4FDD2BBCB48A050E24840AAC752
:104EF000DBC7CB24DBE9B304ED09E4E8CBE5B2C2C0
:104F0000AA62BB04D3C7ECCDFDB2FEB8DDD793D007
:104F10008BF2632F3A0A9D15A5358C529453B53602
:104F2000B55694529C928C108BD07AEE7A8E50C9E2
:104F3000508A50AB58CC60CC58AB588A58C8718A4C
:104F4000930DCD14FEBADDD7C576C5B7734E6B2E63
:104F50005AAB41E82944294520C320C320C220C3BD
:104F6000084141E8AD158BF09430AD14BD56C5B97C
:104F7000420C296A4A6E4A6E316B39ED39EE420DA8
:104F800039AA62EE83B17371633139CB000200221A
:104F90000062002000209CB2BE1542854B443B00BD
:104FA0004BA4432242E4BED4B69395F27D962B7374
:104FB0001379137712CC64EFBF36E7F9F79CF79EAD
:104FC000FFFFF7BDF7DDEF3CCDB7E679CE36BDF498
:104FD000B5F3636908A01902296521032944212436
:104FE000294421232143212318E2192129E33A638B
:104FF0003A62320052A3AD0DD611E652F672E5CFF9
:10500000EDAEED6CDCCAD447CBA4B2C1B260A20055
:10501000A220AA40A200AA00AA20AA20A2009A00C8
:1050200091A089C091C089A091A089808140898187
:105030008981794168C068C068C068C070E071004B
:1050400071007100792071007920712179A34840A5
:1050500070E070E070E070E070E07100790079005D
:1050600079207940814081408140896089608960F0
:10507000898089808980898089A089A099C09A00C7
:10508000A261B2C3B324C46ACE122A243AA832055C
:105090009368AB67B2E5D388C36BB34C81E938033F
:1050A00030453066304630263025386638663866FA
:1050B00030443000B38BF52FAAE69A43AB4871C158
:1050C000B3A9FE33DCAE6101402040417121FD50A7
:1050D000F469DB8679204800BBE6F5ACDCA8D4484F
:1050E000D44ADC8BED4EF5D1FEF6FED8D574A43152
:1050F0007B4E736F526C1063736FAD578C126B0ED7
:10510000838F8BD18BB17B0F7AAF7A6F4047508AF8
:10511000588C506D588D484B58AC590C590A300575
:105120003044BCB4D597CD96D618BD5628C5524B41
:1051300083D0C5B7945162CB52491062188220A324
:10514000188320C39C5294319430A4B3ACF5526CB4
:1051500010A673B294D7B5BB31AB18C83A0D39EC71
:105160004A4D4A4C528C5AEE63302989086300013B
:10517000000100610000A51273EB5B6664253B2013
:105180002A80226153AA7D129E579E9A54B71B35DE
:105190001B792BD80A899632BF34CF359D31D6B9C9
:1051A000EF7CEFDDEF9DFFDEFFBCFFBBAD709D6FC1
:1051B0009D703A4510E12123214421441904212402
:1051C0002104210331C521632122296231E231E129
:1051D00031E03A4131E0212020E03120942A9C2A1C
:1051E0008B87FF14FE71ED6DE489C323BAA1B26011
:1051F000AA60B2A1B261AA61AA61AA20A20091C06C
:1052000091C091E091C089A091A08960894091A14D
:105210008961710068A068C070E070E07100710081
:1052200071007100792079007920712179A34840BB
:1052300070E070E070E070E070E071007100790083
:10524000792079207920792081408160896081608E
:105250008180898089808980898089A091E09A20D5
:10526000AAA2AB04C409C50E6BEC122622EA22687E
:105270004A459BA9B347CB89AAA9588361074886A9
:105280003846302530463867304630253066304461
:10529000280092CADCAEA2A4AA85B3074020610010
:1052A000FDF0ED2E9A8760C240004800ECAEDBC8EE
:1052B000DBA6FDAE71408223FF13F62EF60EFE1024
:1052C000FE12FE95FF17FF58F675A40C7AA882EA25
:1052D000832C6ACC5A8C3988106410634A2A628BFA
:1052E000626B72CE620C61EC512B3828612C58AC89
:1052F000588D60AE504C58AD50CC616D28069372FD
:10530000FF1FD5D8C596C5B7CDF8D65AE6BCBD7730
:10531000EEDCDE59D659D659CDF89C5210212082A8
:10532000102128E49451838E8BEF9C528C122948D3
:1053300063318C767BF48C55AD7A5AF010A8210934
:10534000316A4A6C18E57C1252EE08A50001000093
:10535000000000410840086042638CEA4BA23B20F9
:105360003B422AC42249120B124D0A8F12D31B57FB
:105370001B582B742B2AC7B77D0C9DB0192118E23E
:105380003A0621834A88846E844C8CCC8D0BADEF19
:10539000848D10C02123210329442123214421236A
:1053A000292421241943192242058C4D73A96347EE
:1053B00052E542424AA442844A84422339A041E150
:1053C000398028A0EE73FF15F54EDC69D3C6D3A54E
:1053D000CBC5D3E6DC06D3A5C343AA80A22099E0BF
:1053E00091C091E091C089A0918089808960898075
:1053F000814068C068A068C070E0710079207100C9
:105400007120712079207920792071217983484099
:105410007100710070E070E0710071007100710046
:10542000710079207920792081408140814081601C
:105430008180898089808980898089A092009220DA
:105440009AA2AB86DD90CE34436B12C91B4D12AAD3
:1054500019E54A24A348C3AB60A3586458C838264A
:1054600038263846304530253886304530652001AD
:10547000ABAEE4F0AB07B327924660C05060E4ECFB
:10548000FD6EA2A5606168E45020BB2AE3E9E3A6B3
:10549000FC89D3C79283FE52FF33FF34FF15FF57B9
:1054A000FEB6CD72AC6E7B09834A6AA772A66A8685
:1054B0006A67626939464A0ACE5B6B4F108349E8D6
:1054C0008BB0498840E848C9406950AA58CB60ED84
:1054D000588D588D508C50CC48CA2826C539DE1BB3
:1054E000C5B8C5B7C5D6C5D6CE17C5D7D659D639CE
:1054F000D5F8D618B535B5349C52ACF4626A102193
:10550000080049E8945183AF83AE943183B14A2CAB
:105510006B926BB37BD484159CD79CF884166B522A
:1055200083D36B509CF6A577194710C5000008205F
:10553000082000000020216253048D4B53A33B211F
:10554000330222A622CF22F412F61B59235A1B380B
:105550002BB70A6D7D51C735952E39E3736BC6178E
:105560006B8B3A45740CB613A5AF9DCEA60FBEB299
:105570005AE6104028C128E2314320E1106020C0E3
:1055800020E1318419432163424539E35B086B8A8A
:1055900063285AE752C642854264428442634A8382
:1055A00052834A224160BCEEFEF6F5AFED2BED09C9
:1055B000ED4AF58BFDCCED09D3E5BB23AA4099C09C
:1055C00099C099A091A089808980898089A08160F3
:1055D000790068C068A068E070E0792079207120C7
:1055E0007120792079407940794071207983482071
:1055F0007100710071007100710071007100710023
:1056000079207920792079408140814081608160D2
:105610008180898089808980898089C08A208A6187
:10562000A365A3E97347AE143B8C02AA0B0C0AEBEB
:105630001A8921C472C6AB8A8A08504458C948895D
:1056400038473826384630452825200418026A286D
:10565000DD32B38AAB07A2C661434040B3A8FDCF99
:10566000D42A68A050005001C32ADBCACAE4EBE781
:10567000CB4579407A42FF76FFD6FFB7FF79EED867
:10568000D615B512730A524762A96AC862655A24D0
:105690007B09836C5A69C5D8FFBFD69B8C5241C821
:1056A000626B622B6A0C618C616C612C50CB508BED
:1056B000508C58AC58EC384840C8AC55D61BCE1A64
:1056C000B556BDB7C5F7C5F6C5F6CDF7CE18D61891
:1056D000C5B6C576A4B294109410A47293F01000CD
:1056E00010218C107BAF7BAE7B8E83F07BB05AAEEB
:1056F0006B526B936B7283F48C7694979C97A4F89F
:10570000BD7AA4F6E71E52AC088310E4000008003E
:105710000000000000003A2442C3432353E54BA598
:1057200033041A8733531AF71B5A131A1B3B237976
:105730002B940A49AEB5BE93A5516B4A8C0EA4F2C8
:1057400094B06B8B8C6EC673B650AE4EB690A56D92
:1057500028C0286051233060286041427B285224B1
:1057600039822121110132254AA64A8642255AC88A
:10577000736B5AC95AE84A8642853A4342A4428327
:105780004A8352C531813982A42CFED5FE50F60ED3
:10579000FE8FCCC8E54AFE4EED09C384AA61AA215A
:1057A00099A099A091A091A0816089A089C0794019
:1057B00070C068C070E070E07100792079207920B5
:1057C00079207920794081407940712071634820A7
:1057D00070E0710071007100710071007100710062
:1057E0007920792079207940814081408140816011
:1057F0008960896089808980898089A08A218A82DC
:10580000AC08942A29C24B6A22EA0ACA02CB02CB0C
:1058100012CA120642258309AB4C71275067590BF7
:1058200048AA40883866300438A751A9416693CE0B
:10583000B44D8AA6AB498A67510361A5F590E4ACE3
:10584000CBC9922558829A69E44CE3C8D366D387C2
:1058500091C15080B46BFF77FFB7FFFAFFBCE6BA87
:10586000BD7683AF526A5A8A49E739858BED942E0B
:10587000B512940E9C91FFDFEF7EDEFDEF5E736F3D
:1058800041C96AAD728E6A2D720E61CD596C618DFF
:10589000592D50CA406848E99BF3D61BC5B8B59747
:1058A000B597BDD7BDD7BDD6C5F7C5D7CDD7CDB771
:1058B000C576ACD39430943093EF8BAEA47128C3EB
:1058C0001862A5146B6D738D736D7BAE83F162EE00
:1058D0005ACF73927BB384148C349475A4B79455C7
:1058E000ACD6C598FF7F83B021260883000008202E
:1058F00000000000004042C6430419E032A332C455
:105900002AA422883B942B791B7A135A1B3A2377BB
:1059100012EE3BCCC737C694B5B4AD339C9183CE61
:105920009470840E7B8BA50EB5EEB62EBE2F83C76A
:1059300061A39288A268922769427A04A3A9832767
:105940007B88294011003A6542A55B27632983EED5
:105950008C30734C62CA5AC94A874AA63A4342837A
:1059600052C452C452C629613982942BFF34FF13AA
:10597000EE2EA3C4BC45FE0CFDEDDC88C344B28210
:1059800099C099C091A089A081A081A181A0712016
:1059900068C070E071007100790079207920794049
:1059A00079407920794079207940712079834820A5
:1059B00070E0710071007900790079207920710020
:1059C000710071007900792079207920814081402F
:1059D00089608960898089C091A089A08A018AA391
:1059E000A409948C2A450163018512CB0ACB02CB12
:1059F00002AA1AA922055A67B3CDAACC58A6508884
:105A000050CA50CA406738457A8E8B708B8F8BADE9
:105A10007AA7934992E98AEA61E88B4CC46EAB4855
:105A2000BBCBB38B71E6D490E46CE42AC30692033B
:105A300081A29AE7FED6FF78FFFAFFFCFFDEDEDBED
:105A400083F14A09524A41E841A76AEBB554D65856
:105A5000CE377B8DD678FFFFDF1CD6FCF7DFAD3766
:105A6000524C626D6A8E6A4D622D620D622E622EFC
:105A7000516C596C49298B71DE3BC5D9B556B59728
:105A8000B5B7B5B7BDD7BDB7C5D7C5D7C5B7BD5570
:105A9000ACF39410940F93EF93CE8B8E9C105228FE
:105AA00010616B4D52CA5AEB6B4C736D7B8F8BF24E
:105AB00062EF630F73707BB183F28BF39C3493F2CC
:105AC000B4B4E619FEDCE63983AF20E40000000040
:105AD0000820002008E04B4632C319E009A011C19C
