:020000040800F2
:1000000010040020C1010008110200080D020008C0
:100010000F02000809020008D102000800000000D9
:100020000000000000000000000000003502000891
:100030000B0200080000000033020008370200082D
:10004000DB010008DB010008DB010008DB01000820
:10005000DB010008DB010008DB010008DB01000810
:10006000DB010008DB010008DB010008DB01000800
:10007000DB010008DB010008DB010008DB010008F0
:10008000DB010008DB010008DB010008DB010008E0
:10009000DB010008DB010008DB010008DB010008D0
:1000A000DB010008DB010008DB010008DB010008C0
:1000B000DB010008DB010008DB010008DB010008B0
:1000C000DB010008DB010008DB010008DB010008A0
:1000D000DB010008DB010008DB010008DB01000890
:1000E000DB010008DB010008DB010008DB01000880
:1000F000DB010008DB010008DB010008DB01000870
:10010000DB010008DB010008DB010008DB0100085F
:10011000DB010008DB010008DB010008DB0100084F
:10012000DB010008DB010008DB010008DB0100083F
:10013000DB010008DB010008DB010008DB0100082F
:10014000DB010008DB010008DB010008DB0100081F
:10015000DB010008DB010008DB010008DB0100080F
:10016000DB010008DB010008DB010008DB010008FF
:10017000DB010008DB010008DB01000800000000D3
:10018000DB010008DB010008DB010008DB010008DF
:10019000DB010008DB010008DB01000800000000B3
:1001A000DB010008DB010008DB010008DFF80CD0F0
:1001B00000F018F800480047590400081004002017
:1001C0000648804706480047FEE7FEE7FEE7FEE7F1
:1001D000FEE7FEE7FEE7FEE7FEE7FEE73D0200087A
:1001E000AD010008064C074D06E0E06840F0010351
:1001F00094E8070098471034AC42F6D3FFF7DAFFD3
:1002000080050008A0050008FEE77047FEE7FEE74E
:1002100070470907090E002806DA00F00F0000F108
:10022000E02080F8141D704700F1E02080F80014F1
:1002300070477047704700F063B8000018B420485A
:10024000016841F4700101601E48016841F001013C
:10025000016001688907FCD51A4A0832116841F02B
:10026000800111600023009302E00099491C009175
:1002700000995029F9D3116841F090011160009361
:1002800002E00099491C009100995029F9D31168A6
:1002900021F00301116001680B4C214001600168ED
:1002A00021F4802101601360106806490748091D88
:1002B000086004480C30036018BC00F039B9000035
:1002C00088ED00E000380240FFFFF6FE1030002409
:1002D000FEE702E008C8121F08C1002AFAD17047E1
:1002E0007047002001E001C1121F002AFBD17047B6
:1002F0000249086008680028FCD17047000000200F
:1003000003480168002902D00168491E0160704756
:1003100000000020816270478161704700690842D7
:1003200001D001207047002070472DE9F047056893
:10033000C66800244FF001084FF0030908FA04F7DB
:100340001F420ED0670009FA07FC25EA0C0501FAE6
:1003500007FA4AEA050526EA0C0602FA07FC4CEA07
:100360000606641CA4B2102CE8D30560C660BDE884
:10037000F0872DE9F04101291AD041689943416085
:10038000846800214FF001084FF0030C08FA01F7D0
:100390001F4206D04D000CFA05F6B44302FA05F6EA
:1003A0003443491C89B21029F0D38460BDE8F08140
:1003B000416819434160E3E710B54FF4406000F035
:1003C00051F801230222BDE8104000210148FFF747
:1003D000ACBF00000000024000F028F8FFF7ECFF7F
:1003E0000126104D104C002701212846FFF796FFEB
:1003F000216809B901280CD00129F5D10028F3D1D1
:1004000020212846FFF786FF27600A20FFF770FFAC
:10041000EAE720212846FFF77FFF26600A20FFF742
:1004200067FFE1E7000002400800002010B54FF42C
:10043000406000F017F8074C2023002201212046DD
:10044000FFF773FF202320460022BDE8104011462D
:10045000FFF78FBF0000024000F06CF8FFF7BCFF11
:10046000FEE70000064901EB9011D1F8002800F0EA
:100470001F03012098400243C1F800287047000084
:100480000030024010B50020264A116841F00101F9
:1004900011604FF4A063401C116801F0020109B91A
:1004A0009842F8D11068800700D4FEE71D4840301C
:1004B000016841F0805101601B49086840F44040E8
:1004C00008601848083003680360036843F4004379
:1004D0000360036843F4A0530360041F134B2360BD
:1004E000136843F08073136013689B01FCD50A689E
:1004F00042F480320A604A68D203FCD50A6842F4AA
:1005000000320A604A689203FCD5016821F00301B9
:100510000160016841F00201016001680907FCD532
:1005200010BD000000380240007000401078000A42
:10053000FFF7A8BF70B511484FF47A710068B0FB9F
:10054000F1F1491E4FF0FF35B1F1807F01D3012158
:100550000BE04FF0E02461610F212846FFF759FEC0
:100560000020A06107202061002101B1FEE728469C
:10057000BDE870400021FFF74CBE000004000020E1
:10058000A0050008000000200C000000D2020008B6
:10059000AC0500080C00002004040000E202000882
:0C05A00000000000001C4E0E00000000D7
:04000005080001AD41
:00000001FF
