:020000040800F2
:1000000020140020C1010008B3020008AF0200085C
:10001000B1020008450200081904000800000000B1
:10002000000000000000000000000000D7020008EF
:10003000AD02000800000000D5020008D902000847
:10004000DB010008DB010008DB010008DB01000820
:10005000DB010008DB010008DB010008DB01000810
:10006000DB010008DB010008DB010008DB01000800
:10007000DB010008DB010008DB010008DB010008F0
:10008000DB010008DB010008DB010008DB010008E0
:10009000DB010008DB010008DB010008DB010008D0
:1000A000DB010008DB010008DB010008DB010008C0
:1000B000DB010008DB010008DB010008DB010008B0
:1000C000DB010008DB010008DB010008DB010008A0
:1000D000DB01000871030008DB010008DB010008F8
:1000E000DB010008DB010008DB010008DB01000880
:1000F000DB010008DB010008DB010008DB01000870
:10010000DB010008DB010008DB010008DB0100085F
:10011000DB010008DB010008DB010008DB0100084F
:1001200049020008DB010008DB010008DB010008D0
:10013000DB010008DB010008DB010008DB0100082F
:10014000DB010008DB010008DB010008DB0100081F
:10015000DB010008DB010008DB010008DB0100080F
:10016000DB010008DB010008DB010008DB010008FF
:10017000DB010008DB010008DB01000800000000D3
:10018000DB010008DB010008DB010008DB010008DF
:10019000DB010008DB010008DB01000800000000B3
:1001A000DB010008DB010008DB010008DFF80CD0F0
:1001B00000F036F8004800477F0A000820140020AD
:1001C0000648804706480047FEE7FEE7FEE7FEE7F1
:1001D000FEE7FEE7FEE7FEE7FEE7FEE7DD020008DA
:1001E000AD010008421C10F8011B0029FBD1801A48
:1001F000704730B50B46014600202022012409E05B
:1002000021FA02F59D4205D303FA02F5491B04FACF
:1002100002F52844151EA2F10102F1DC30BD0000F8
:10022000064C074D06E0E06840F0010394E8070043
:1002300098471034AC42F6D3FFF7BCFFD01000084B
:10024000F0100008FEE7000010B511A000F0E6F87D
:10025000114C20220021204600F0B8FA012815D1C7
:1002600020220021204600F052FA01280ED10B492D
:100270000BA000F0D3F820220021204600F08BFADA
:100280002046BDE81040002100F0CEB910BD0000AE
:10029000686168610A000000006402400E000020EE
:1002A000656E643A2025730D0A0000007047FEE772
:1002B000FEE770470907090E002806DA00F00F0074
:1002C00000F1E02080F8141D704700F1E02080F874
:1002D000001470477047704700F09CB918B420486C
:1002E000016841F4700101601E48016841F001019C
:1002F000016001688907FCD51A4A0832116841F08B
:10030000800111600023009302E00099491C0091D4
:1003100000995029F9D3116841F0900111600093C0
:1003200002E00099491C009100995029F9D3116805
:1003300021F00301116001680B4C2140016001684C
:1003400021F4802101601360106806490748091DE7
:10035000086004480C30036018BC00F0FDBC0000CD
:1003600088ED00E000380240FFFFF6FE1030002468
:100370002DE9F8431E4F1F4D3946284600F04AFE2E
:100380001D4E1E4C012815D1284600F07AFD009024
:10039000284600F076FD2268B054B018BDF8001071
:1003A0000180921C22603946284600F029FE14A0E4
:1003B00000F034F8144F2846394600F02BFE01288F
:1003C00014D1A846404600F05CFD20680025355455
:1003D0000948FFF707FF01460CA000F01FF8256051
:1003E00039464046BDE8F84300F00ABEBDE8F88350
:1003F00005030500001001401C000020140000202F
:1004000072626E650A00000004030400675F726593
:1004100063762025640A0000FEE700000FB4054B58
:1004200010B503A9044A029800F018F810BC5DF852
:1004300014FB0000810900081800002002E008C831
:10044000121F08C1002AFAD170477047002001E04E
:1004500001C1121F002AFBD1704700002DE9FF4F98
:100460008BB09A460F460546002606E025280BD09D
:1004700052460D9990476D1C761C28780028F5D1BE
:100480000FB03046BDE8F08F0024A046012260493D
:1004900000E0044315F8013F203B02FA03F0084254
:1004A000F7D128782E2817D115F8010F44F004044D
:1004B0002A280ED06FF02F022878A0F130010929E8
:1004C0000AD808EB880102EB410100EB01086D1C22
:1004D000F2E757F8048B6D1C287869283ED006DCBB
:1004E0000028CDD063280BD0642804D136E07328CF
:1004F00010D075284BD052460D999047761C85E058
:1005000017F8040B8DF8000000208DF80100E94673
:10051000012003E057F8049B4FF0FF3061074FF0D4
:10052000000401D40AE0641C44450DDA8442FADB7D
:1005300019F804100029F6D106E0641C8442FCDBA3
:1005400019F804100029F8D1264404E019F8010B29
:1005500052460D999047641EF8D257E001CF4FF0F4
:100560000A0B002802DA40422D2102E0210504D5C1
:100570002B218DF82410012103E0E10705D0202173
:10058000F7E70DF1200908910CE00021F9E701CF10
:100590004FF00A0BF9E75946FFF72BFE01F1300245
:1005A00009F8012D0028F6D1ADEB090000F1200B70
:1005B000600701D44FF00108D84502DDA8EB0B001D
:1005C00000E000208046002406E009A85246005DB5
:1005D0000D999047641C761C08988442F5DB04E072
:1005E000302052460D999047761CB8F10001A8F1D1
:1005F0000108F5DC05E019F8010B52460D9990470A
:10060000761CBBF10001ABF1010BF4DC6D1C34E78F
:100610000928010003480168002902D00168491E29
:10062000016070470000002001EB410100EBC100B8
:10063000016921F001010161704701EB410100EB0B
:10064000C100016941F0010101617047F0B589B055
:1006500004460D46164615A0FFF7E0FE40F616408C
:1006600000F0E4FA134F0021384600F025F800941A
:100670000295802006900796002001900390049038
:100680004FF400300890012005906A46002138465A
:1006900000F02EF902221146382000F0FDF9102258
:1006A0000021384600F068F809B0F0BD6565650ABC
:1006B000000000000064024001EB410200EBC202B6
:1006C000136923F0010313610023136153619361E4
:1006D000D361136253623D2204290BD201EB410323
:1006E0005B00C1F3400103EB81018A4081680A434A
:1006F00082607047091F01EB41035B00C1F34001B9
:1007000003EB81018A40C1680A43C2607047042933
:100710000ED201EB41035B00C1F3400103EB810109
:1007200000688A40024201D00120704700207047D3
:10073000091F01EB41035B00C1F3400103EB8101A1
:1007400040688A40024201D0012070470020704773
:1007500010B506A0FFF762FE06490622881FFFF7C4
:1007600075FFBDE8104000F0B3B800006464640A8F
:10077000000000000E00002001EB410100EBC10071
:10078000802A03D00169114301617047416A41F039
:1007900080014162704704290BD201EB41035B00E9
:1007A000C1F3400103EB81018A4081680A43826002
:1007B0007047091F01EB41035B00C1F3400103EBEC
:1007C00081018A40C1680A43C2607047F0B50024C5
:1007D000002301EB410500EBC505042938D201EBEC
:1007E00041077F00C1F34001164607EB81018A40B3
:1007F000082E18D004DC012E07D0042E61D10BE0A6
:10080000102E17D0202E5CD11BE0006802EA0003F6
:10081000686A00F0800454E0006802EA0003286976
:1008200000F002044DE0006802EA0003286900F0CD
:10083000040446E0006802EA0003286900F00804A6
:100840003FE0006802EA0003286900F0100438E085
:10085000091F01EB41077F00C1F34001164607EB7A
:1008600081018A40082E18D004DC012E07D0042E06
:1008700027D10BE0102E17D0202E22D11BE040688C
:1008800002EA0003686A00F080041AE0406802EAA5
:100890000003286900F0020413E0406802EA000344
:1008A000286900F004040CE0406802EA00032869AB
:1008B00000F0080405E0406802EA0003286900F03F
:1008C000100413B10CB10120F0BD0020F0BD0000F8
:1008D00010B504A0FFF7A2FDBDE8104000210348B9
:1008E000FFF7ABBE6666660A0000000000640240C7
:1008F00030B501EB410100EBC100416A21F0040178
:100900004162116881619168C161D1694161036986
:100910001A490B40146A116995690C4345EA810133
:100920000C4344EA030101615168002912D00129F6
:1009300015D0016941F400410161D168A1B101699B
:1009400021F480610161516999B1016921F48071DB
:10095000016130BD016941F400710161EDE7016998
:1009600021F400710161E8E7016941F480610161EE
:10097000E9E7016941F48071016130BD3F87FCFF07
:1009800010B5C0B200F082F9002010BD2DE9F0438F
:10099000046A456A002301274FF00F0C07FA03F69B
:1009A000164208D09E000CFA06F824EA080401FA60
:1009B00006F848EA04045B1C9BB2082BEED308231C
:1009C00007FA03F818EA020F0AD0A3F10806B600E6
:1009D0000CFA06F825EA080501FA06F949EA0505C0
:1009E0005B1C9BB2102BEBD304624562BDE8F08325
:1009F0002DE9F0470568C66800244FF001084FF064
:100A0000030908FA04F71F420ED0670009FA07FC31
:100A100025EA0C0501FA07FA4AEA050526EA0C065A
:100A200002FA07FC4CEA0606641CA4B2102CE8D3B8
:100A30000560C660BDE8F0872DE9F04101291AD0B4
:100A4000416899434160846800214FF001084FF0EC
:100A5000030C08FA01F71F4206D04D000CFA05F608
:100A6000B44302FA05F63443491C89B21029F0D385
:100A70008460BDE8F081416819434160E3E74FF4C9
:100A8000A06000F057F800F069F94FF4E13000F091
:100A90008BF9FFF75DFEFEE770B505460E460023B5
:100AA000002423480168C1F30221072932D00168DC
:100AB000C1F3022106292FD00168C1F302210529C3
:100AC0002DD00168C1F3022104292BD00068C0F3A6
:100AD0000220032829D04FF4A06000F02BF8022355
:100AE0000224C3F104008640C4F104010F20C84071
:100AF00010403043000105F1E02181F8000405F0C9
:100B00001F01012088406909890001F1E021C1F835
:100B1000000170BD0424E4E701230324E1E702237C
:100B20000224DEE703230124DBE70423D9E70000E6
:100B30000CED00E0024908430249086070470000DC
:100B40000000FA050CED00E0F0B588B00246002088
:100B50002FA104AE91E83800C96838C607912DA1CD
:100B60000AC9CDE902132BA10AC9CDE900132C4C07
:100B70002168C1F381012B4B002925D0DFF8A8C0E3
:100B8000012923D0022923D019462368C3F3031374
:100B900004ADEB5C21FA03F32568C5F3822502AEB0
:100BA000755D23FA05F52468C4F342341DF804404A
:100BB00023FA04F432B3012A26D0022A26D0032ACB
:100BC00000D1204608B0F0BD1946DEE76146DCE7FB
:100BD0001349091F0D6805F03F050E68C6F3881616
:100BE0000F68C7F301477F1C7F00096801F480018B
:100BF000B1F5800F00D16346B3FBF5F17143B1FB52
:100C0000F7F1C2E70846DDE71846DBE72846D9E7F3
:100C100000000000000000000102030406070809AC
:100C2000083802400024F40040787D01064901EBB9
:100C30009011D1F8002800F01F03012098400243D2
:100C4000C1F800287047000000300240064901EB5F
:100C50009011D1F8002800F01F0301209840824332
:100C6000C1F800287047000000300240064901EB3F
:100C70009011D1F8002800F01F0301209840024392
:100C8000C1F80028704700000030024010B5064C43
:100C90000146204600F0F9F80721204600F06FF9E0
:100CA0000028F9D010BD00000010014010B5002050
:100CB000264A116841F0010111604FF4A063401C05
:100CC000116801F0020109B99842F8D11068800753
:100CD00000D4FEE71D484030016841F080510160BA
:100CE0001B49086840F44040086018480830036811
:100CF0000360036843F400430360036843F4A053B4
:100D00000360041F134B2360136843F08073136068
:100D100013689B01FCD50A6842F480320A604A6875
:100D2000D203FCD50A6842F400320A604A68920392
:100D3000FCD5016821F003010160016841F0020166
:100D4000016001680907FCD510BD000000380240B1
:100D5000007000401078000AFFF7A8BF70B5114876
:100D60004FF47A710068B0FBF1F1491E4FF0FF3586
:100D7000B1F1807F01D301210BE04FF0E0246161EC
:100D80000F212846FFF796FA0020A0610720206176
:100D9000002101B1FEE72846BDE870400021FFF7C1
:100DA00089BA00000400002010B500F0F5F8BDE895
:100DB00010404FF4E13000F047B9000070B5044630
:100DC0000D460020294AA11A131594422DD00BDCA0
:100DD0002749621819D09A421BD0B2F5006F1CD077
:100DE000B2F5406F28D11CE0994222D0B1F5184FDE
:100DF00003D0B1F51C4F1FD103E00320FFF7A4FE81
:100E00001AE00320FFF7A0FE16E00220FFF79CFE89
:100E100012E00220FFF798FE0EE00220FFF794FE9A
:100E20000AE00220FFF790FE06E00220FFF78CFEAA
:100E300002E00220FFF788FEE1680A044FF6F07135
:100E40000AD5400000EB5500B0FBF5F00140C0F3BF
:100E500042021143A16070BD00EB5500B0FBF5F0FC
:100E6000014000F00F021143A16070BD0078004006
:100E700000BCFFBF50F8802F22F400620A430260DA
:100E800070474068C0F308007047C1F30801416033
:100E90007047000010B5354A811A131590424FD0A3
:100EA00014DC334940182DD0984235D0B0F5006F8E
:100EB0003CD0B0F5406F57D140F614042046FFF700
:100EC000D5FE2046BDE81040FFF7C0BE994241D094
:100ED000B1F5184F0CD0B1F51C4F45D140F60514B3
:100EE0002046FFF7C3FE2046BDE81040FFF7AEBE28
:100EF00040F604142046FFF7B9FE2046BDE8104036
:100F0000FFF7A4BE40F611042046FFF7AFFE2046CF
:100F1000BDE81040FFF79ABE40F612042046FFF7E6
:100F2000A5FE2046BDE81040FFF790BE40F6130432
:100F30002046FFF79BFE2046BDE81040FFF786BE27
:100F400040F61E042046FFF791FE2046BDE8104003
:100F5000FFF77CBE40F61F042046FFF787FE2046C1
:100F6000BDE81040FFF772BE10BD000000780040E1
:100F700000BCFFBFC16841F40051C160704700EB85
:100F80009110006801F01F0201219140084201D038
:100F9000012070470020704770B54FF44060FFF7A4
:100FA00045FE41F20410FFF741FE144E4FF48064F9
:100FB000224607213046FFF7E9FC65102A46072143
:100FC0003046FFF7E3FC2346012202213046FFF7BB
:100FD0000FFD2B46012202213046FFF709FD234673
:100FE000022200213046FFF727FD2B463046BDE8A0
:100FF000704002220021FFF71FBD000000000240E8
:1010000000EB91500268C1F30443012199408A43E7
:101010000260704730B5C1F38912825801F01F0495
:10102000012505FA04F31A4000EB91500068C1F362
:10103000044105FA01F31840002802D00AB101204A
:1010400030BD002030BD000070B50546104C204674
:10105000FFF720FF29462046FFF7B0FE002120467B
:1010600000F018F80021204600F02AF80021204660
:1010700000F018F800212046FFF7FCFE2046FFF79D
:1010800079FF2046BDE87040082100F013B8000049
:1010900000100140C26822F4C062C260C2680A4304
:1010A000C2607047026922F44052026102690A4339
:1010B00002617047C26822F008020A43C2607047AA
:1010C000C26822F48052C260C2680A43C26070479C
:1010D000F0100008000000201C0000003C04000884
:1010E0000C1100081C000020041400004C0400082F
:1010F00000000000001C4E0E68656C6C6F0A00005A
:0C110000000000000000000000000000E3
:04000005080001AD41
:00000001FF
