:020000040800F2
:1000000010040020C1010008110200080D020008C0
:100010000F02000809020008D102000800000000D9
:100020000000000000000000000000003502000891
:100030000B0200080000000033020008370200082D
:10004000DB010008DB010008DB010008DB01000820
:10005000DB010008DB010008DB010008DB01000810
:10006000DB010008DB010008DB010008DB01000800
:10007000DB010008DB010008DB010008DB010008F0
:10008000DB010008DB010008DB010008DB010008E0
:10009000DB010008DB010008DB010008DB010008D0
:1000A000DB010008DB010008DB010008DB010008C0
:1000B000DB010008DB010008DB010008DB010008B0
:1000C000DB010008DB010008DB010008DB010008A0
:1000D000DB010008DB010008DB010008DB01000890
:1000E000DB010008DB010008DB010008DB01000880
:1000F000DB010008DB010008DB010008DB01000870
:10010000DB010008DB010008DB010008DB0100085F
:10011000DB010008DB010008DB010008DB0100084F
:10012000DB010008DB010008DB010008DB0100083F
:10013000DB010008DB010008DB010008DB0100082F
:10014000DB010008DB010008DB010008DB0100081F
:10015000DB010008DB010008DB010008DB0100080F
:10016000DB010008DB010008DB010008DB010008FF
:10017000DB010008DB010008DB01000800000000D3
:10018000DB010008DB010008DB010008DB010008DF
:10019000DB010008DB010008DB01000800000000B3
:1001A000DB010008DB010008DB010008DFF80CD0F0
:1001B00000F018F80048004711060008100400205D
:1001C0000648804706480047FEE7FEE7FEE7FEE7F1
:1001D000FEE7FEE7FEE7FEE7FEE7FEE73D0200087A
:1001E000AD010008064C074D06E0E06840F0010351
:1001F00094E8070098471034AC42F6D3FFF7DAFFD3
:10020000D40C0008F40C0008FEE77047FEE7FEE798
:1002100070470907090E002806DA00F00F0000F108
:10022000E02080F8141D704700F1E02080F80014F1
:1002300070477047704700F075B8000018B4204848
:10024000016841F4700101601E48016841F001013C
:10025000016001688907FCD51A4A0832116841F02B
:10026000800111600023009302E00099491C009175
:1002700000995029F9D3116841F090011160009361
:1002800002E00099491C009100995029F9D31168A6
:1002900021F00301116001680B4C214001600168ED
:1002A00021F4802101601360106806490748091D88
:1002B000086004480C30036018BC00F00BBB000061
:1002C00088ED00E000380240FFFFF6FE1030002409
:1002D000FEE70000014A024900F013B8F1040008EB
:1002E0000C00002002E008C8121F08C1002AFAD141
:1002F00070477047002001E001C1121F002AFBD1A6
:1003000070472DE9F04116460F460446002503E0EC
:100310003946B047641C6D1C20780028F8D1284667
:10032000BDE8F08103480168002902D00168491E38
:10033000016070470000002001EB410100EBC100AB
:10034000016921F001010161704701EB410100EBFE
:10035000C100016941F001010161704701EB4101F8
:1003600000EBC100016921F0606141EA4261016175
:10037000704701EB410200EBC202136923F0010355
:1003800013610023136153619361D361136253625C
:100390003D2204290BD201EB41035B00C1F3400174
:1003A00003EB81018A4081680A4382607047091F1C
:1003B00001EB41035B00C1F3400103EB81018A4083
:1003C000C1680A43C260704704290BD201EB4103A4
:1003D0005B00C1F3400103EB81018A4081680A435D
:1003E00082607047091F01EB41035B00C1F34001CC
:1003F00003EB81018A40C1680A43C2607047042947
:100400000ED201EB41035B00C1F3400103EB81011C
:1004100000688A40024201D00120704700207047E6
:10042000091F01EB41035B00C1F3400103EB8101B4
:1004300040688A40024201D0012070470020704786
:1004400001EB410100EBC100002A01D003627047BB
:10045000C361704730B501EB410100EBC100416A57
:1004600021F004014162116881619168C161D16923
:10047000416103691A490B40146A116995690C437B
:1004800045EA81010C4344EA0301016151680029F6
:1004900012D0012915D0016941F400410161D168F0
:1004A000A1B1016921F480610161516999B10169CA
:1004B00021F48071016130BD016941F40071016175
:1004C000EDE7016921F400710161E8E7016941F498
:1004D00080610161E9E7016941F48071016130BD2A
:1004E0003F87FCFF01EB410100EBC1004261704717
:1004F00010B5084908700121064800F013FA064CAF
:10050000202207212046FFF77AFF0028F8D000209C
:1005100010BD000008000020006402402DE9F043F7
:10052000046A456A002301274FF00F0C07FA03F60F
:10053000164208D09E000CFA06F824EA080401FAD4
:1005400006F848EA04045B1C9BB2082BEED3082390
:1005500007FA03F818EA020F0AD0A3F10806B6005A
:100560000CFA06F825EA080501FA06F949EA050534
:100570005B1C9BB2102BEBD304624562BDE8F08399
:100580002DE9F0470568C66800244FF001084FF0D8
:10059000030908FA04F71F420ED0670009FA07FCA6
:1005A00025EA0C0501FA07FA4AEA050526EA0C06CF
:1005B00002FA07FC4CEA0606641CA4B2102CE8D32D
:1005C0000560C660BDE8F0872DE9F04101291AD029
:1005D000416899434160846800214FF001084FF061
:1005E000030C08FA01F71F4206D04D000CFA05F67D
:1005F000B44302FA05F63443491C89B21029F0D3FA
:100600008460BDE8F081416819434160E3E7000080
:1006100000F062F94FF4A06000F05AF84FF4E130B6
:1006200000F074FA01A0FFF755FEFEE768656C6CF8
:100630006F0D0A0070B505460E46002300242348BE
:100640000168C1F30221072932D00168C1F30221F8
:1006500006292FD00168C1F3022105292DD0016898
:10066000C1F3022104292BD00068C0F30220032823
:1006700029D04FF4A06000F02BF802230224C3F12C
:1006800004008640C4F104010F20C84010403043EC
:10069000000105F1E02181F8000405F01F010120AF
:1006A00088406909890001F1E021C1F8000170BDAD
:1006B0000424E4E701230324E1E702230224DEE724
:1006C00003230124DBE70423D9E700000CED00E05D
:1006D0000249084302490860704700000000FA051B
:1006E0000CED00E0F0B588B0024600202FA104AE6A
:1006F00091E83800C96838C607912DA10AC9CDE92B
:1007000002132BA10AC9CDE900132C4C2168C1F3B7
:1007100081012B4B002925D0DFF8A8C0012923D067
:10072000022923D019462368C3F3031304ADEB5CFD
:1007300021FA03F32568C5F3822502AE755D23FA1D
:1007400005F52468C4F342341DF8044023FA04F488
:1007500032B3012A26D0022A26D0032A00D120460D
:1007600008B0F0BD1946DEE76146DCE71349091F12
:100770000D6805F03F050E68C6F388160F68C7F3CD
:1007800001477F1C7F00096801F48001B1F5800FEB
:1007900000D16346B3FBF5F17143B1FBF7F1C2E75A
:1007A0000846DDE71846DBE72846D9E700000000E9
:1007B000000000000102030406070809083802408F
:1007C0000024F40040787D01064901EB9011D1F836
:1007D000002800F01F03012098400243C1F80028C0
:1007E0007047000000300240064901EB9011D1F83B
:1007F000002800F01F03012098408243C1F8002820
:100800007047000000300240064901EB9011D1F81A
:10081000002800F01F03012098400243C1F800287F
:10082000704700000030024010B50020264A1168D1
:1008300041F0010111604FF4A063401C116801F008
:10084000020109B99842F8D11068800700D4FEE788
:100850001D484030016841F0805101601B49086823
:1008600040F440400860184808300368036003689B
:1008700043F400430360036843F4A0530360041F80
:10088000134B2360136843F08073136013689B015C
:10089000FCD50A6842F480320A604A68D203FCD56B
:1008A0000A6842F400320A604A689203FCD5016883
:1008B00021F003010160016841F00201016001685B
:1008C0000907FCD510BD0000003802400070004050
:1008D0001078000AFFF7A8BF70B511484FF47A717D
:1008E0000068B0FBF1F1491E4FF0FF35B1F1807F98
:1008F00001D301210BE04FF0E02461610F21284674
:10090000FFF787FC0020A06107202061002101B1D2
:10091000FEE72846BDE870400021FFF77ABC0000E2
:100920000400002070B505460E460D4C07212046F8
:10093000FFF702FD202207212046FFF745FD2B4649
:10094000002207212046FFF77BFD32460721204683
:10095000FFF7C8FD07212046FFF7F7FC002070BD18
:100960000064024070B504460D460020294AA11AD1
:10097000131594422DD00BDC2749621819D09A42E6
:100980001BD0B2F5006F1CD0B2F5406F28D11CE02F
:10099000994222D0B1F5184F03D0B1F51C4F1FD1A9
:1009A00003E00320FFF79EFE1AE00320FFF79AFE04
:1009B00016E00220FFF796FE12E00220FFF792FEFB
:1009C0000EE00220FFF78EFE0AE00220FFF78AFE0B
:1009D00006E00220FFF786FE02E00220FFF782FE1B
:1009E000E1680A044FF6F0710AD5400000EB5500AB
:1009F000B0FBF5F00140C0F342021143A16070BDAD
:100A000000EB5500B0FBF5F0014000F00F02114380
:100A1000A16070BD0078004000BCFFBF50F8802F7F
:100A200022F400620A4302607047000010B5354AA4
:100A3000811A131590424FD014DC334940182DD041
:100A4000984235D0B0F5006F3CD0B0F5406F57D12B
:100A500040F614042046FFF7D7FE2046BDE81040BC
:100A6000FFF7C2BE994241D0B1F5184F0CD0B1F595
:100A70001C4F45D140F605142046FFF7C5FE204621
:100A8000BDE81040FFF7B0BE40F604142046FFF763
:100A9000BBFE2046BDE81040FFF7A6BE40F611049D
:100AA0002046FFF7B1FE2046BDE81040FFF79CBE90
:100AB00040F612042046FFF7A7FE2046BDE810408E
:100AC000FFF792BE40F613042046FFF79DFE204636
:100AD000BDE81040FFF788BE40F61E042046FFF731
:100AE00093FE2046BDE81040FFF77EBE40F61F048F
:100AF0002046FFF789FE2046BDE81040FFF774BE90
:100B000010BD00000078004000BCFFBF10B50446D7
:100B100000F042F8204600F07DF8BDE810400148A2
:100B200000F00CB804100140426922F080024261DA
:100B3000426901F080010A434261704730B589B0D3
:100B4000044640F61640FFF73FFE0F4D07212846AA
:100B5000FFF70FFC40200690002003900094012135
:100B6000019104904FF44030089005916A460721A6
:100B70002846FFF76FFC042207212846FFF7EEFB0B
:100B800009B0002030BD000000640240C16841F49B
:100B90000051C1607047000070B54FF44060FFF72E
:100BA00013FE41F20410FFF70FFE144E4FF4806461
:100BB000224607213046FFF7B1FC65102A4607217F
:100BC0003046FFF7ABFC2346012202213046FFF7F7
:100BD000D7FC2B46012202213046FFF7D1FC2346E9
:100BE000022200213046FFF7EFFC2B463046BDE8DD
:100BF000704002220021FFF7E7BC00000000024025
:100C000000EB9110026801F01F03012199400A4393
:100C10000260704770B505461B4C2046FFF706FF83
:100C200029462046FFF79EFE0021204600F02EF8C0
:100C30000021204600F046F80021204600F034F85C
:100C400000212046FFF7EAFE2046FFF79FFF08211C
:100C5000204600F031F80421204600F01FF802225F
:100C600011462520FFF7E6FC40F205312046FFF74C
:100C7000C7FF4FF441712046FFF7C2FF2046BDE891
:100C800070408021FFF750BF00100140C26822F47D
:100C9000C062C260C2680A43C2607047C26822F084
:100CA00004020A43C2607047026922F440520261A2
:100CB00002690A4302617047C26822F008020A43CF
:100CC000C2607047C26822F48052C260C2680A43A0
:100CD000C2607047F40C0008000000201000000003
:100CE000E4020008040D00081000002000040000C9
:100CF000F402000800000000001C4E0E000000007E
:040D000000000000EF
:04000005080001AD41
:00000001FF
