:020000040800F2
:1000000010140020C1010008C9030008C50300083E
:10001000C703000835020008F504000800000000CE
:10002000000000000000000000000000ED030008D8
:100030003702000800000000EB030008EF0300088F
:10004000DB010008DB010008DB010008DB01000820
:10005000DB010008DB01000839020008DB010008B1
:10006000ED020008DB010008DB010008DB010008ED
:10007000DB010008DB010008DB010008DB010008F0
:10008000DB010008DB010008DB010008DB010008E0
:10009000DB010008DB010008DB0100088503000824
:1000A000DB010008DB010008DB010008DB010008C0
:1000B000DB010008DB010008DB010008DB010008B0
:1000C000DB010008DB010008DB010008DB010008A0
:1000D000DB01000889040008DB010008DB010008DF
:1000E000AD020008DB010008DB010008DB010008AD
:1000F000DB010008DB010008DB010008DB01000870
:10010000DB010008DB010008DB010008DB0100085F
:10011000DB010008DB010008DB010008DB0100084F
:10012000DB010008DB010008DB010008DB0100083F
:10013000DB010008DB010008DB010008DB0100082F
:10014000DB010008DB010008DB010008DB0100081F
:10015000DB010008DB010008DB010008DB0100080F
:10016000DB010008DB010008DB010008DB010008FF
:10017000DB010008DB010008DB01000800000000D3
:10018000DB010008DB010008DB010008DB010008DF
:10019000DB010008DB010008DB01000800000000B3
:1001A000DB010008DB010008DB010008DFF80CD0F0
:1001B00000F02EF800480047F50900081014002050
:1001C0000648804706480047FEE7FEE7FEE7FEE7F1
:1001D000FEE7FEE7FEE7FEE7FEE7FEE7F5030008C1
:1001E000AD01000830B50B46014600202022012455
:1001F00009E021FA02F59D4205D303FA02F5491BF5
:1002000004FA02F52844151EA2F10102F1DC30BD0A
:10021000064C074D06E0E06840F0010394E8070053
:1002200098471034AC42F6D3FFF7C4FF34110008EE
:1002300054110008FEE7704710B5012000F0F0FAF5
:1002400001460FA000F058F9012000F0E9FA01285A
:1002500014D101210F4800F027FB012806D10EA080
:1002600000F04AF90821104800F01CFB012000F0C2
:10027000D1FABDE81040322000F072BA10BD000083
:100280006B65795F6C207072652073746174653A78
:1002900025640A00000002406B65795F6C20696E7E
:1002A0007465720A000000000018024010B54FF497
:1002B0000044204600F0B4FA012811D12146094833
:1002C00000F0F2FA012803D18021074800F0EAFA91
:1002D000204600F09FFABDE81040322000F040BAFE
:1002E00010BD000000040240000C024010B50420C4
:1002F00000F096FA014614A000F0FEF8042000F089
:100300008FFA01281ED10421144800F0CDFA0128EB
:1003100006D113A000F0F0F82021154800F0C2FA31
:10032000042000F077FA042000F02CFA042000F0FA
:1003300077FA01460FA000F0DFF8BDE81040642016
:1003400000F00EBA10BD00006B65795F722070720C
:10035000652073746174653A25640A0000040240E4
:100360006B65795F7220696E7465720A0000000027
:10037000000002406B65795F722073746174653AA6
:1003800025640A0010B54FF40074204600F048FAC6
:10039000012811D12146094800F086FA012803D12D
:1003A0000821074800F07EFA204600F033FABDE845
:1003B0001040322000F0D4B910BD000000180240F7
:1003C00000100240FEE7FEE770470907090E00280B
:1003D00006DA00F00F0000F1E02080F8141D7047ED
:1003E00000F1E02080F8001470477047704700F07B
:1003F000BFB9000018B42048016841F470010160E1
:100400001E48016841F00101016001688907FCD5BF
:100410001A4A0832116841F08001116000230093EC
:1004200002E00099491C009100995029F9D3116804
:1004300041F090011160009302E00099491C009185
:1004400000995029F9D3116821F003011160016866
:100450000B4C21400160016821F480210160136090
:10046000106806490748091D086004480C300360FD
:1004700018BC00F08BBC000088ED00E000380240A2
:10048000FFFFF6FE1030002470B5134E11493046C0
:1004900000F0DAFD114D124C012806D1304600F073
:1004A0000AFD21686854491C21600E49304600F05D
:1004B000CBFD01280CD1304600F0FDFC2168002066
:1004C00068542060BDE87040044907A000F014B8EB
:1004D00070BD000005030500001001401000002061
:1004E0000800002004030400646174612025730A7D
:1004F00000000000FEE700000FB4054B10B503A993
:10050000044A029800F018F810BC5DF814FB0000D3
:10051000350800080C00002002E008C8121F08C1BE
:10052000002AFAD170477047002001E001C1121F74
:10053000002AFBD1704700002DE9FF4F8BB09A468F
:100540000F460546002606E025280BD052460D9999
:1005500090476D1C761C28780028F5D10FB03046E6
:10056000BDE8F08F0024A0460122604900E004436A
:1005700015F8013F203B02FA03F00842F7D1287832
:100580002E2817D115F8010F44F004042A280ED0A4
:100590006FF02F022878A0F1300109290AD808EB62
:1005A000880102EB410100EB01086D1CF2E757F8EE
:1005B000048B6D1C287869283ED006DC0028CDD03D
:1005C00063280BD0642804D136E0732810D0752836
:1005D0004BD052460D999047761C85E017F8040BD6
:1005E0008DF8000000208DF80100E946012003E0AD
:1005F00057F8049B4FF0FF3061074FF0000401D41F
:100600000AE0641C44450DDA8442FADB19F8041050
:100610000029F6D106E0641C8442FCDB19F80410C2
:100620000029F8D1264404E019F8010B52460D992F
:100630009047641EF8D257E001CF4FF00A0B002814
:1006400002DA40422D2102E0210504D52B218DF84C
:100650002410012103E0E10705D02021F7E70DF187
:10066000200908910CE00021F9E701CF4FF00A0BB7
:10067000F9E75946FFF7B6FD01F1300209F8012DFF
:100680000028F6D1ADEB090000F1200B600701D482
:100690004FF00108D84502DDA8EB0B0000E0002078
:1006A0008046002406E009A85246005D0D99904757
:1006B000641C761C08988442F5DB04E03020524626
:1006C0000D999047761CB8F10001A8F10108F5DCFE
:1006D00005E019F8010B52460D999047761CBBF1C5
:1006E0000001ABF1010BF4DC6D1C34E709280100BB
:1006F000FEB54FF400720920CDE9010206210091F8
:100700001723144940F6064000F08CFA0F2001240C
:10071000CDE90040104D4FF4004240F60146282339
:1007200029460292304600F07DFA00220092CDE97F
:100730000124062301220949580200F073FA02201D
:10074000CDE900400422082329460292304600F0F9
:1007500069FAFEBD00180240000402400000024099
:100760000249086008680028FCD17047000000209A
:1007700003480168002902D00168491E01607047E2
:10078000000000200149086070470000143C01404F
:10079000F0B51B4E336883433360351D2B688343AC
:1007A0002B602B1D1C6884431C601C1D276887431D
:1007B0002760002902D0012907D103E031680143F5
:1007C000316002E029680143296052B1012A0FD04B
:1007D000022A05D11968014319602168014321608B
:1007E000F0BD196801431960216881432160F0BDA3
:1007F000196881431960216801432160F0BD000040
:10080000003C014002490A6802430A607047000048
:10081000003C01400149086070470000143C014061
:1008200003490968014201D0012070470020704748
:10083000143C014010B5C0B200F0E4F9002010BD36
:100840002DE9F043046A456A002301274FF00F0C9D
:1008500007FA03F6164208D09E000CFA06F824EABE
:10086000080401FA06F848EA04045B1C9BB2082B52
:10087000EED3082307FA03F818EA020F0AD0A3F10F
:100880000806B6000CFA06F825EA080501FA06F98A
:1008900049EA05055B1C9BB2102BEBD30462456251
:1008A000BDE8F083C16270470069084201D00120B1
:1008B0007047002070472DE9F0470568C66800249E
:1008C0004FF001084FF0030908FA04F71F420ED059
:1008D000670009FA07FC25EA0C0501FA07FA4AEA5B
:1008E000050526EA0C0602FA07FC4CEA0606641C1B
:1008F000A4B2102CE8D30560C660BDE8F0872DE9EE
:10090000F04101291AD0416899434160846800216F
:100910004FF001084FF0030C08FA01F71F4206D010
:100920004D000CFA05F6B44302FA05F63443491CAF
:1009300089B21029F0D38460BDE8F0814168194381
:100940004160E3E710B500F005F8BDE81040FFF79F
:10095000CFBE00002DE9F04140F6044000F022F93E
:1009600040F6034000F01EF940F6064000F01AF988
:100970004FF4406000F016F91A4C082300220121C0
:100980002046FFF798FF184D8023002201212846BA
:10099000FFF791FF154E0823002201213046FFF793
:1009A0008AFF134F2023002201213846FFF783FFDF
:1009B0000022082311462046FFF7A1FF00228023D2
:1009C00011462846FFF79BFF0022082311463046B8
:1009D000FFF795FF3846BDE8F0412023002211467D
:1009E000FFF78DBF00100240000C024000180240CB
:1009F0000000024000F0CCF94FF4A06000F056F87F
:100A00004FF4E13000F0EAF9FFF79CFFFEE7000049
:100A100070B505460E460023002423480168C1F343
:100A20000221072932D00168C1F3022106292FD003
:100A30000168C1F3022105292DD00168C1F302210B
:100A400004292BD00068C0F30220032829D04FF4DA
:100A5000A06000F02BF802230224C3F104008640BA
:100A6000C4F104010F20C84010403043000105F1DB
:100A7000E02181F8000405F01F0101208840690988
:100A8000890001F1E021C1F8000170BD0424E4E710
:100A900001230324E1E702230224DEE703230124E8
:100AA000DBE70423D9E700000CED00E0024908432E
:100AB00002490860704700000000FA050CED00E0F4
:100AC000F0B588B0024600202FA104AE91E83800AE
:100AD000C96838C607912DA10AC9CDE902132BA117
:100AE0000AC9CDE900132C4C2168C1F381012B4BBD
:100AF000002925D0DFF8A8C0012923D0022923D05E
:100B000019462368C3F3031304ADEB5C21FA03F326
:100B10002568C5F3822502AE755D23FA05F52468C4
:100B2000C4F342341DF8044023FA04F432B3012A1A
:100B300026D0022A26D0032A00D1204608B0F0BDD4
:100B40001946DEE76146DCE71349091F0D6805F029
:100B50003F050E68C6F388160F68C7F301477F1C70
:100B60007F00096801F48001B1F5800F00D1634670
:100B7000B3FBF5F17143B1FBF7F1C2E70846DDE7DE
:100B80001846DBE72846D9E7000000000000000017
:100B90000102030406070809083802400024F40093
:100BA00040787D01064901EB9011D1F8002800F052
:100BB0001F03012098400243C1F80028704700003D
:100BC00000300240064901EB9011D1F8002800F0F6
:100BD0001F03012098408243C1F80028704700009D
:100BE00000300240064901EB9011D1F8002800F0D6
:100BF0001F03012098400243C1F8002870470000FD
:100C00000030024010B5064C0146204600F057F96E
:100C10000721204600F0CDF90028F9D010BD0000D2
:100C2000001001402DE9F0470C46DDE909789146B6
:100C30001D46089EFFF7B6FF41F20E10FFF7B2FF08
:100C40004B46022200212046FFF735FE02221146C4
:100C50002846FFF7DDFE3946304600F00DF8022247
:100C600000214046FFF794FD4046FFF7CBFD40468C
:100C7000BDE8F047FFF7CEBD8A07130F0F229A4059
:100C8000D243984089080DD0012914D002291BD0E5
:100C9000032906D111490B6813400B600A6802430F
:100CA0000A6070470D490C390B6813400B600A68E5
:100CB00002430A607047094908390B6813400B600A
:100CC0000A6802430A6070470449091F0B68134011
:100CD0000B600A6802430A60704700001438014044
:100CE00010B50020264A116841F0010111604FF44F
:100CF000A063401C116801F0020109B99842F8D1C3
:100D00001068800700D4FEE71D484030016841F0BC
:100D1000805101601B49086840F440400860184851
:100D2000083003680360036843F40043036003680A
:100D300043F4A0530360041F134B2360136843F074
:100D40008073136013689B01FCD50A6842F48032FB
:100D50000A604A68D203FCD50A6842F400320A608D
:100D60004A689203FCD5016821F003010160016823
:100D700041F00201016001680907FCD510BD0000C7
:100D800000380240007000401078000AFFF7A8BF4A
:100D900070B511484FF47A710068B0FBF1F1491E4B
:100DA0004FF0FF35B1F1807F01D301210BE04FF00F
:100DB000E02461610F212846FFF707FB0020A061B6
:100DC00007202061002101B1FEE72846BDE8704000
:100DD0000021FFF7FABA00000400002010B500F06F
:100DE000F5F8BDE810404FF4E13000F047B90000DD
:100DF00070B504460D460020294AA11A13159442E5
:100E00002DD00BDC2749621819D09A421BD0B2F5BD
:100E1000006F1CD0B2F5406F28D11CE0994222D05F
:100E2000B1F5184F03D0B1F51C4F1FD103E00320DB
:100E3000FFF746FE1AE00320FFF742FE16E002200D
:100E4000FFF73EFE12E00220FFF73AFE0EE002201E
:100E5000FFF736FE0AE00220FFF732FE06E002202E
:100E6000FFF72EFE02E00220FFF72AFEE1680A04E7
:100E70004FF6F0710AD5400000EB5500B0FBF5F0DD
:100E80000140C0F342021143A16070BD00EB550068
:100E9000B0FBF5F0014000F00F021143A16070BDFE
:100EA0000078004000BCFFBF50F8802F22F40062A1
:100EB0000A43026070474068C0F308007047C1F3FE
:100EC000080141607047000010B5354A811A1315BA
:100ED00090424FD014DC334940182DD0984235D081
:100EE000B0F5006F3CD0B0F5406F57D140F6140418
:100EF0002046FFF777FE2046BDE81040FFF762BEB0
:100F0000994241D0B1F5184F0CD0B1F51C4F45D1E5
:100F100040F605142046FFF765FE2046BDE8104068
:100F2000FFF750BE40F604142046FFF75BFE204654
:100F3000BDE81040FFF746BE40F611042046FFF71B
:100F400051FE2046BDE81040FFF73CBE40F61204BB
:100F50002046FFF747FE2046BDE81040FFF732BEAF
:100F600040F613042046FFF73DFE2046BDE8104042
:100F7000FFF728BE40F61E042046FFF733FE20464A
:100F8000BDE81040FFF71EBE40F61F042046FFF7E5
:100F900029FE2046BDE81040FFF714BE10BD00003A
:100FA0000078004000BCFFBFC16841F40051C1603F
:100FB000704700EB9110006801F01F020121914081
:100FC000084201D0012070470020704770B54FF4EF
:100FD0004060FFF7E7FD41F20410FFF7E3FD144E18
:100FE0004FF48064224607213046FFF729FC651044
:100FF0002A4607213046FFF723FC2346012202211F
:101000003046FFF758FC2B46012202213046FFF7FD
:1010100052FC2346022200213046FFF770FC2B468B
:101020003046BDE8704002220021FFF768BC000096
:101030000000024000EB9110026801F01F03012143
:1010400099400A430260704730B5C1F38912825853
:1010500001F01F04012505FA04F31A4000EB91503A
:101060000068C1F3044105FA01F31840002802D0DA
:101070000AB1012030BD002030BD000070B505462A
:10108000194C2046FFF720FF29462046FFF7B0FE07
:101090000021204600F02AF80021204600F042F806
:1010A0000021204600F030F800212046FFF7FCFE2A
:1010B0002046FFF779FF0821204600F02DF8042193
:1010C000204600F01BF8022211462520FFF7A0FC65
:1010D00040F205312046FFF7ADFF2046BDE87040E5
:1010E0004FF44171FFF7A6BF00100140C26822F41F
:1010F000C062C260C2680A43C2607047C26822F020
:1011000004020A43C2607047026922F4405202613D
:1011100002690A4302617047C26822F008020A436A
:10112000C2607047C26822F48052C260C2680A433B
:10113000C260704754110008000000201000000039
:1011400018050008641100081000002000140000B9
:101150002805000800000000001C4E0E00000000E2
:04116000000000008B
:04000005080001AD41
:00000001FF
