:020000040800F2
:1000000028140020C101000893050008AD02000873
:1000100091050008A9020008C107000800000000BF
:10002000000000000000000000000000B70500080C
:10003000AB02000800000000B50500085D060008DE
:10004000DB010008DB010008DB010008DB01000820
:10005000DB010008DB010008DB010008DB01000810
:10006000DB010008DB010008DB010008DB01000800
:10007000DB010008DB010008DB010008DB010008F0
:10008000DB010008DB010008DB010008DB010008E0
:10009000DB010008DB010008DB010008DB010008D0
:1000A000DB010008DB010008DB010008DB010008C0
:1000B000DB010008DB010008F5060008DB01000891
:1000C000DB010008DB010008DB010008DB010008A0
:1000D000DB01000855070008DB010008DB01000810
:1000E000DB010008DB010008DB010008DB01000880
:1000F000DB010008DB010008DB010008DB01000870
:10010000DB010008DB010008DB010008DB0100085F
:10011000DB010008DB010008DB010008DB0100084F
:10012000DB010008DB010008DB010008DB0100083F
:10013000DB010008DB010008DB010008DB0100082F
:10014000DB010008DB010008DB010008DB0100081F
:10015000DB010008DB010008DB010008DB0100080F
:10016000DB010008DB010008DB010008DB010008FF
:10017000DB010008DB010008DB01000800000000D3
:10018000DB010008DB010008DB010008DB010008DF
:10019000DB010008DB010008DB01000800000000B3
:1001A000DB010008DB010008DB010008DFF80CD0F0
:1001B00000F058F800480047D91A00082814002019
:1001C0000648804706480047FEE7FEE7FEE7FEE7F1
:1001D000FEE7FEE7FEE7FEE7FEE7FEE76106000852
:1001E000AD0100082DE9F05F0546002092469B46D0
:1001F00088460646814640241BE02846414647463D
:10020000224600F041F853465A46C01A914110D395
:1002100011461846224600F016F82D1A67EB010821
:100220004F4622460120002100F00DF817EB00098F
:100230004E41201EA4F10104DFDC484631462A4627
:100240004346BDE8F09F202A04DB203A00FA02F181
:10025000002070479140C2F1200320FA03F31943B4
:1002600090407047064C074D06E0E06840F00103FF
:1002700094E8070098471034AC42F6D3FFF79AFF92
:10028000402F0208602F0208202A04DB203A21FABE
:1002900002F00021704721FA02F3D040C2F120029F
:1002A0009140084319467047FEE77047FEE72DE985
:1002B000F0479146089F9846002401EB0802521E21
:1002C00093B200EB0902521E92B200F001F900262F
:1002D00011E000250BE017F8140000F04DF907EBD2
:1002E0004400407800F048F9641C6D1CADB24545EF
:1002F000F1D3761CB6B24E45EBD3BDE8F0870000D3
:1003000070B50546084C1021204601F0E5F9284655
:1003100000F08EF9042000F0DDFC2046BDE87040BE
:10032000102101F0DBB900000000024070B501F0BF
:1003300089FB00F041F9644D4FF480642146284662
:1003400001F0CAF9642000F0C9FC2146284601F0FA
:10035000C5F9642000F0C2FC80215C4801F0BEF9C0
:10036000112000F0F7F8782000F0B8FC002000F031
:10037000E3F83A2000F0EEF8052000F0FDF8B22096
:1003800000F0E8F80C2000F0F7F80C2000F0F4F88A
:10039000002000F0F1F8332000F0EEF8332000F0F8
:1003A000EBF8B72000F0D6F8352000F0E5F8BB20D8
:1003B00000F0D0F8322000F0DFF8C22000F0CAF8D8
:1003C000012000F0D9F8C32000F0C4F8152000F097
:1003D000D3F8C42000F0BEF8202000F0CDF8C620ED
:1003E00000F0B8F80F2000F0C7F8D02000F0B2F805
:1003F000A42000F0C1F8A12000F0BEF8E02000F039
:10040000A9F8D02000F0B8F8082000F0B5F80E20C8
:1004100000F0B2F8092000F0AFF8092000F0ACF8C5
:10042000052000F0A9F8312000F0A6F8332000F0F4
:10043000A3F8482000F0A0F8172000F09DF8142041
:1004400000F09AF8152000F097F8312000F094F8A9
:10045000342000F091F8E12000F07CF8D02000F08A
:100460008BF8082000F088F80E2000F085F80920AD
:1004700000F082F8092000F07FF8152000F07CF8E9
:10048000312000F079F8332000F076F8482000F0B1
:1004900073F8172000F070F8142000F06DF81520A4
:1004A00000F06AF8312000F067F8342000F064F8BA
:1004B000212000F04FF8292000F04CF8BDE87040F2
:1004C000782000F00BBC0000001402400000024045
:1004D0002DE9F04106460C4615461F4615480078A2
:1004E000002806D0C02804D0702807D0A02805D046
:1004F00008E01434A4B21437BFB203E01436B6B225
:100500001435ADB22A2000F025F8304600F036F858
:10051000284600F033F82B2000F01CF8204600F0AD
:100520002DF8384600F02AF8BDE8F0412C2000F004
:1005300011B800000800002010B5054C20703620CE
:1005400000F008F82078BDE8104000F015B8000071
:100550000800002070B50546064C4021204601F0F9
:10056000BBF82846FFF7CCFE2046BDE8704040218E
:1005700001F0B4B800000240FFF7C2BE10B5044657
:10058000200AFFF7BDFEE0B2BDE81040FFF7B8BE9D
:10059000FEE770470907090E002806DA00F00F0091
:1005A00000F1E02080F8141D704700F1E02080F891
:1005B000001470477047704730B587B040F605406B
:1005C00001F098FB41F2141001F094FB164D4FF42A
:1005D000207422460521284601F04CF823460022CB
:1005E0000221284601F0A8F82346022200212846CD
:1005F00001F0C6F82146284601F070F8002001906D
:100600004FF48271009102900321059169150391C5
:1006100006900490054C6946204601F0B9FB20463F
:1006200001F0A8FB07B030BD0014024000500140AB
:1006300070B50546084C0221204601F0A2FB0028B7
:10064000F9D02946204601F09AFB0221204601F00C
:1006500098FB0028F9D070BD0050014000F046BB67
:1006600018B42048016841F4700101601E48016817
:1006700041F00101016001688907FCD51A4A08327E
:10068000116841F0800111600023009302E000999D
:10069000491C009100995029F9D3116841F090014B
:1006A0001160009302E00099491C009100995029C3
:1006B000F9D3116821F00301116001680B4C21404E
:1006C0000160016821F4802101601360106806490F
:1006D0000748091D086004480C30036018BC01F08D
:1006E000C5BB000088ED00E000380240FFFFF6FEC9
:1006F0001030002470B5144D0121284601F0E6FBAE
:1007000000281DD00121284601F0DDFB0F4CD4E963
:100710000010425C0221012000F0A6FA012000F046
:10072000C9FA2168491C2160A068884208D1207B51
:10073000012806D0284601F0C1FB054902200870B7
:1007400070BD0020206070BD00080040181000201F
:100750001000002070B5134E1149304601F0F6FC30
:10076000114D124C012806D1304601F026FC2168BB
:100770006854491C21600E49304601F0E7FC01280D
:100780000CD1304601F019FC21680020685420602B
:10079000BDE87040044907A000F014B870BD000027
:1007A0000503050000100140180000200C00002087
:1007B00004030400646174612025730A00000000D2
:1007C000FEE700000FB4054B10B503A9044A0298D8
:1007D00000F018F810BC5DF814FB00006916000862
:1007E0001400002002E008C8121F08C1002AFAD134
:1007F00070477047002001E001C1121F002AFBD1A1
:10080000704700002DE9FF4F8DB00F4605460026CA
:1008100006E025280BD0DDE90F1290476D1C761CF1
:1008200028780028F5D111B03046BDE8F08F0024BB
:10083000A246A1460122EC4900E0044315F8013F1D
:10084000203B02FA03F00842F7D128782A2810D07A
:100850006FF02F022878A0F13001092914D80AEB93
:100860008A0102EB410144F0020400EB010A6D1C15
:10087000F0E701CF5FEA000A03D544F40054CAF15F
:10088000000A44F002046D1C28782E2817D115F8B0
:10089000010F44F004042A280ED06FF02F022878AC
:1008A000A0F1300109290AD809EB890102EB4101C5
:1008B00000EB01096D1CF2E757F8049B6D1C2878CA
:1008C0006C280FD006DC4C2817D068280DD06A2879
:1008D00014D104E0742810D07A280FD10DE044F42C
:1008E00000140AE044F4801401E044F440146978F0
:1008F000814202D104F580146D1C6D1C2A786E2A89
:100900001FD00CDC632A31D004DC002A8BD0582A9B
:1009100011D1A3E0642A68D0692A0CD165E0732A5A
:100920002ED004DC6F2A73D0702A04D19BE0752A84
:100930006FD0782A6ED01046DDE90F129047761CF2
:1009400050E1C4F30250022806D0032809D004283D
:1009500001CF09D0066045E101CFF117C0E9006180
:1009600040E101CF06803DE106703BE117F8040B42
:100970008DF8000000208DF80100EB46012003E017
:1009800057F804BB4FF0FF3061074FF0000102D46D
:100990000DE008F10101884649450FDA8045F8DB92
:1009A0001BF808100029F4D108E008F1010188467D
:1009B0008142FADB1BF808100029F6D1DDE90F238C
:1009C000AAEB08008146214600F036F9304400EBDE
:1009D000080604E0DDE90F121BF8010B9047B8F19F
:1009E0000108F7D221464846F7E00A21C4F3025332
:1009F0004FF0000B0891022B04D001CFC117032B3D
:100A000009D00AE0FF1D27F00707F7E8020108E018
:100A100032E01FE020E000B2C117042B01D140B248
:100A2000C117031E71F1000307DA4FF0000CD0EB81
:100A30000C006CEB01012D2302E0230504D52B23D0
:100A40008DF82430012303E0E30701D02023F7E7EA
:100A5000984658E00A2110E010210EE010204FF0D7
:100A6000000B08900CE010214FF0000B44F0040440
:100A70004FF00809089103E008214FF0000B08919E
:100A8000C4F30253022B04D001CF0021032B06D064
:100A900006E0FF1D27F00707F7E8020103E080B238
:100AA000042B00D1C0B24FF0000823072BD5702AC9
:100AB00007D0DDF820C08CF0100C5CEA0B0C05D0E0
:100AC0000EE040238DF82430012308E050EA0103B2
:100AD00006D030238DF824308DF825200223984647
:100AE000DDF820C08CF0080C5CEA0B0C0BD150EA4E
:100AF000010301D1630706D530238DF824304FF070
:100B00000108A9F10109582A04D038A20B9208AAB9
:100B10000A920BE03AA2F9E75B46089AFFF762FBFC
:100B20000B9B9B5C0A9A521E0A92137050EA0102B8
:100B3000F2D10A98ADEB000000F1200B600702D55E
:100B400024F4803401E04FF00109D94502DDA9EB1E
:100B50000B0000E0002000EB0B0141440890AAEBE1
:100B6000010AE00306D4DDE90F232146504600F0D8
:100B700063F806444FF0000908E009A911F80900DC
:100B8000DDE90F12904709F10109761CC145F4DB3C
:100B9000E0030CD5DDE90F232146504600F04CF868
:100BA000064404E0DDE90F1230209047761C0899D6
:100BB000481E08900029F5DC08E00A980A99007898
:100BC000491C0A91DDE90F129047761CBBF1000128
:100BD000ABF1010BF1DC21465046DDE90F2300F0BB
:100BE00019F806446D1C1BE6092801003031323328
:100BF0003435363738396162636465660000000059
:100C00003031323334353637383941424344454642
:100C1000000000002DE9F041044600251E4617465D
:100C2000880404D405E039462020B0476D1C641EBA
:100C3000F9D52846BDE8F0812DE9F04104460025AC
:100C40001E469046C80301D5302700E020278804BF
:100C500004D505E041463846B0476D1C641EF9D501
:100C60002846BDE8F0810000002807D0B9B101296D
:100C700019D0022901D10E480260704739B101290B
:100C800009D00229F9D10A480C3802607047084897
:100C900014380260704706481038026070470448F4
:100CA0000838026070470248001F02607047000069
:100CB0001C7400400649002804D0086840F0020077
:100CC00008607047086840F0010008607047000045
:100CD00004740040401E411CFCD17047024908606A
:100CE00008680028FCD17047000000200348016814
:100CF000002902D00168491E0160704700000020F1
:100D00002DE9F74F804616464FF0000B00250024D2
:100D1000A1468B4F41F2883ABBF1050F73D2DFE851
:100D20000BF00325557AEB00CDB940F2016B01E0E1
:100D3000641CA4B25946384600F064FE08B154451C
:100D4000F6D3544506D2022E09D1B102384600F03E
:100D500040FD04E000F044FD7AA0FFF733FD384683
:100D600000F066FE00244FF0010BE2E04FF4A06BB0
:100D700001E0641CA4B25946384600F043FE08B9AD
:100D80005445F6D354451AD27DB1754801220188E5
:100D9000384600F044FE032E03D20021384600F00E
:100DA00012FD4FF0020B0024C3E06D486FF001020A
:100DB0000188384600F033FE4FF0020BF3E70024C1
:100DC000A346002567A0FFF7FDFCB2E040F2015BFF
:100DD00001E0641CA4B25946384600F013FE08B97D
:100DE0005445F6D354450FD25946384600F0F9FD24
:100DF000012D04D1012E02D1384600F01EFE002440
:100E00004FF0030B95E08BE00024A346002561A082
:100E1000FFF7D8FC8DE0002D66D140F2075B01E0C2
:100E2000641CA4B25946384600F0ECFD08B954459C
:100E3000F6D3544505D23846019900F094FD0024BC
:100E400004E00024002560A0FFF7BCFC40F2025B38
:100E500001E0641CA4B25946384600F0D3FD08B93D
:100E60005445F6D3544504D20024A3466D1CEDB27C
:100E70005FE00024A346002561A0FFF7A3FC58E033
:100E8000641CA4B2032E0BD140F2025B59463846D3
:100E900000F0B8FD0028F9D00021384600F093FC9E
:100EA000022E0AD140F2025B5946384600F0AAFDF4
:100EB0000028F9D0384600F0C0FD40F2065138460F
:100EC00000F0A0FD48B1384600F04AFD88F8000067
:100ED00008F10108761EB6B20024544504D9002456
:100EE000002557A0FFF76EFC002EC9D100244FF05B
:100EF000040B1EE0641CA4B23868800501D554457B
:100F0000F8D3544505D200244FF0010B4FF00109EE
:100F10000FE00024A346002553A0FFF753FC08E090
:100F20004FF0000B00254FF0010900245AA0FFF7F5
:100F300049FCB9F1000F3FF4EFAE0120BDE8FE8F90
:100F40000054004069326320627573206973206227
:100F500075737920696E2052454144210A000000D2
:100F600012000020693263206D6173746572207312
:100F7000656E6473207374617274207369676E6147
:100F80006C2074696D656F757420696E20524541DF
:100F900044210A00693263206D61737465722063B5
:100FA0006C65617273206164647265737320666C32
:100FB00061672074696D656F757420696E20524594
:100FC0004144210A00000000693263206D6173749E
:100FD000657220776169742064617461206275664E
:100FE00066657220697320656D7074792074696D0F
:100FF000656F757420696E2052454144210A0000D6
:10100000693263206D61737465722073656E6473F9
:1010100020454550524F4D277320696E7465726E9E
:10102000616C20616464726573732074696D656FAF
:10103000757420696E2052454144210A0000000069
:10104000693263206D61737465722073656E6473B9
:1010500020646174612074696D656F757420696EB8
:101060002052454144210A00693263206D61737446
:1010700065722073656E64732073746F702073697A
:10108000676E616C2074696D656F757420696E2080
:1010900052454144210A0000693263206D61737436
:1010A00065722073656E647320737461727420734B
:1010B00069676E616C20696E20524541442E0A00BA
:1010C0002DE9F04107460D4605F00F00C0F110066E
:1010D000C2F3071402F00F08002814D0B24221D244
:1010E000D2B22946384600F049F8BDE8F04100F098
:1010F0008BB910222946384600F040F800F084F9F8
:101100001035EDB21037641EE4B2F2D2B8F1000F20
:1011100031D042462946384600F030F8BDE8F0416B
:1011200000F072B9901B1FFA80F832462946384603
:1011300000F024F800F068F9A819C5B23E44C8F3DD
:10114000071409E010222946304600F017F800F095
:101150005BF91035EDB21036641EE4B2F2D208F03D
:101160000F02002A07D02946304600F007F8BDE8F4
:10117000F04100F049B9BDE8F08100002DE9F74FDA
:10118000064615464FF0000B00240027DFF8A89113
:1011900040F2025A41F28838BBF1050F70D2DFE805
:1011A0000BF003203F5BA40040F2016B01E0641CE4
:1011B000A4B25946484600F025FC08B14445F6D390
:1011C000444506D2484600F033FC00244FF0010BA2
:1011D000ABE000F005FB0024A34658A0FFF7F2FAAD
:1011E000A3E04FF4A06B01E0641CA4B2594648464A
:1011F00000F008FC08B94445F6D344450AD25748E4
:101200006FF001020188484600F009FC00244FF00D
:10121000020B8AE00024A34651A0FFF7D3FA84E032
:1012200040F2015B01E0641CA4B25946484600F05C
:10123000E9FB08B94445F6D3444507D25946484628
:1012400000F0CFFB00244FF0030B6EE00024A34618
:101250004AA0FFF7B7FA68E040F2075B01E0641CC0
:10126000A4B25946484600F0CDFB08B94445F6D330
:10127000444506D24846019900F075FB002407E07A
:101280004CE0002444A0FFF79DFA01E0641CA4B2E6
:101290005146484600F0B6FB08B94445F6D34445EC
:1012A00001D200241BE0002443A0FFF78BFA16E0D4
:1012B0003178484600F057FB761C01E0641CA4B26C
:1012C0005146484600F09EFB08B94445F6D34445D4
:1012D00001D2002403E0002437A0FFF773FA6D1E4B
:1012E000EDB2E5D24FF0040B1FE0484600F0A5FB3D
:1012F00001E0641CA4B2D9F80000800501D5444582
:10130000F7D3444504D200244FF0010B01270CE031
:101310000024A3462EA0FFF755FA06E04FF0000B7D
:101320000127002431A0FFF74DFA002F3FF434AF1E
:101330000120BDE8FE8F000000540040693263D7F1
:10134000DCCFDFC3A6C2B5A3ACCEDEB7A8BDF8D054
:10135000D0D0B4B2D9D7F7210A0000001200002083
:10136000693263D6F7BBFAB7A2CBCDC6F0CABCD000
:10137000C5BAC5B3ACCAB1210A000000693263D650
:10138000F7BBFAC7E5B3FDB5D8D6B7B1EAD6BECE3E
:10139000BBB3ACCAB1210A00693263D6F7BBFAB756
:1013A000A2CBCD454550524F4DC4DAB2BFB5D8D6C9
:1013B000B7B3ACCAB1210A00693263D6F7BBFAB73A
:1013C000A2CBCDCAFDBEDDB3ACCAB1210A0000007C
:1013D000693263D6F7BBFAB7A2CBCDCDA3D6B9D0CD
:1013E000C5BAC5B3ACCAB1210A000000693263D6E0
:1013F000F7BBFAB7A2CBCDC6F0CABCD0C5BAC5CA36
:10140000B1B3F6B4ED210A002DE9F0474FF0000A20
:10141000002400274E4D40F2015840F20A5941F293
:101420008836BAF1000F13D0BAF1010F2DD0BAF1FE
:10143000020F4BD0BAF1040F74D04FF0000A002411
:1014400044A0FFF7BFF9002FEBD00120BDE8F087E3
:1014500040F2016A01E0641CA4B25146284600F043
:10146000D1FA08B1B442F6D3B44206D2284600F00D
:10147000DFFA00244FF0010AE5E700F0B1F900249B
:10148000A24642A0FFF79EF9DDE74FF4A06A01E013
:10149000641CA4B25146284600F0B4FA08B9B4421C
:1014A000F6D3B4420AD242486FF0010201882846BE
:1014B00000F0B5FA00244FF0020AC4E70024A24667
:1014C0003CA0FFF77FF9BEE7641CA4B24146284662
:1014D00000F098FA30B94946284600F093FA08B966
:1014E000B442F1D3B44215D24146284600F08AFAFC
:1014F00040B14146284600F074FA284600F09DFAB3
:101500000120A3E74946284600F06BFA00244FF07B
:10151000040A98E70024A24600E003E034A0FFF7A5
:1015200051F990E7284600F088FA01E0641CA4B263
:101530002868800501D5B442F8D3B44202D2002411
:10154000A24680E70024A24638A0FFF73BF97AE7DD
:1015500000540040693263206D61737465722073BA
:10156000656E6473207374617274207369676E6151
:101570006C20656E6420696E20454550524F4D20A9
:101580007374616E646279210A000000693263201D
:10159000627573206973206275737920696E2045C6
:1015A0004550524F4D207374616E646279210A0078
:1015B00012000020693263206D61737465722073BC
:1015C000656E6473207374617274207369676E61F1
:1015D0006C2074696D656F757420696E2045455087
:1015E000524F4D207374616E646279210A000000CD
:1015F000693263206D617374657220636C6561721A
:1016000073206164647265737320666C6167207413
:10161000696D656F757420696E20454550524F4D58
:10162000207374616E646279210A0000693263205C
:101630006D61737465722073656E64732073746F6B
:1016400070207369676E616C2074696D656F757465
:1016500020696E20454550524F4D207374616E6471
:101660006279210A0000000010B5C0B200F072FBE0
:10167000002010BD2DE9F043046A456A00230127CC
:101680004FF00F0C07FA03F6164208D09E000CFA32
:1016900006F824EA080401FA06F848EA04045B1C88
:1016A0009BB2082BEED3082307FA03F818EA020FBF
:1016B0000AD0A3F10806B6000CFA06F825EA0805D8
:1016C00001FA06F949EA05055B1C9BB2102BEBD326
:1016D00004624562BDE8F0838162704781617047B2
:1016E00010B540F6014000F005FB124C40220421E9
:1016F0002046FFF7BFFF802204212046FFF7BAFFF4
:10170000402301220221204600F016F84023022245
:101710000121204600F034F88023012202212046D6
:1017200000F00AF8204680230222BDE81040012183
:1017300000F026B8000402402DE9F0470568C668AD
:1017400000244FF001084FF0030908FA04F71F4284
:101750000ED0670009FA07FC25EA0C0501FA07FA22
:101760004AEA050526EA0C0602FA07FC4CEA0606D8
:10177000641CA4B2102CE8D30560C660BDE8F087F5
:101780002DE9F04101291AD04168994341608468EC
:1017900000214FF001084FF0030C08FA01F71F4237
:1017A00006D04D000CFA05F6B44302FA05F63443B0
:1017B000491C89B21029F0D38460BDE8F0814168EA
:1017C00019434160E3E7026822F480620A43026041
:1017D0007047026822F400620A430260704700000A
:1017E00010B51F4800F0C2F81E48016841F04001E2
:1017F0000160016841F0800101601A4C4023283CDF
:10180000022200212046FFF7BBFF80230222002195
:101810002046FFF7B5FF00BF00BF00BF00BF00BFFD
:1018200010491039086840F040020A6000BF00BF4C
:1018300000BF00BF00BF086840F080020A6040237C
:10184000022201212046FFF79BFF80230222012173
:101850002046FFF795FFBDE8104000F067B8000094
:10186000005400402804024070B504460D46164658
:10187000022000F0CDF92A4AB0FBF2F13C2900D356
:101880003C21636823F03F030B436360254B9D427B
:1018900019D8B0FBF2F1491C3C2902D33C2121624A
:1018A00005E0022902D80221216200E021626900DC
:1018B000B0FBF1F0042800D20420E169C0F30B0072
:1018C0000143E16170BD184A9542FBD84FF496720E
:1018D00051434FF47A72B1FBF2F1491C216266B1B7
:1018E00005EBC50101EB0511B0FBF1F0E16941F435
:1018F0008041E161010509D00AE005EB4501B0FB3B
:10190000F1F0E16921F48041E161F3E740F0010089
:10191000E16941F40041E161E1690143E16170BDC8
:1019200040420F00A0860100801A060010B5FFF7A4
:10193000D7FE41F2150000F0DDF9084C00220649FF
:101940002046FFF791FF204600F046F8211520467B
:10195000BDE81040FFF737BFA086010000540040EB
:101960000069C0B2704701617047000010B51449AA
:1019700040180FD0B0F5806F16D0B0F5006F1DD1B4
:1019800040F61704204600F0D5F92046BDE8104087
:1019900000F0C0B940F61504204600F0CBF920460F
:1019A000BDE8104000F0B6B940F61604204600F03D
:1019B000C1F92046BDE8104000F0ACB910BD0000F0
:1019C00000ACFFBF10B5FFF7B1FF0249A0200880AF
:1019D00010BD000012000020016841F0010101600B
:1019E0007047A1F5A062013A09D000EB911002689E
:1019F00001F01F03012199408A4302607047416949
:101A00008069704700EB9110006801F01F0201210E
:101A10009140084201D00120704700207047921C7D
:101A200003D041F001010161704721F00101FAE7A3
:101A3000016841F4807101607047016841F40071F0
:101A40000160704770B540F6054000F053F9204D35
:101A50004FF480642346002201212846FFF76CFEE4
:101A60002346022200212846FFF78AFE4FF44064F5
:101A7000204600F03FF9174D40230022012128465F
:101A8000FFF75AFE4023022200212846FFF778FE86
:101A9000204600F02FF91023002201212846FFF7ED
:101AA0004BFE1023022200212846FFF769FE204644
:101AB00000F020F98023002201212846FFF73CFE98
:101AC0002846BDE87040802302220021FFF758BE5F
:101AD00000140240000002400EB500F0C9F94FF4B6
:101AE000A06000F08BF84FF4E13000F0F9F9FFF757
:101AF00069FF002002905A2001900122042102A8CF
:101B0000FFF7FEF89DF808100EA0FEF75BFE01221D
:101B1000042101A8FFF7D4FA0122042102A8FFF74B
:101B2000EFF89DF808100AA0FEF74CFEFEF7FEFB4A
:101B30000A48002100904FF48C73F0220846FEF70B
:101B4000B6FBFEE776616C75653D25640D0A000005
:101B500076616C7565323D25640D0A0038220008F7
:101B600070B505460E460023002423480168C1F3E2
:101B70000221072932D00168C1F3022106292FD0A2
:101B80000168C1F3022105292DD00168C1F30221AA
:101B900004292BD00068C0F30220032829D04FF479
:101BA000A06000F02BF802230224C3F10400864059
:101BB000C4F104010F20C84010403043000105F17A
:101BC000E02181F8000405F01F0101208840690927
:101BD000890001F1E021C1F8000170BD0424E4E7AF
:101BE00001230324E1E702230224DEE70323012487
:101BF000DBE70423D9E700000CED00E002490843CD
:101C000002490860704700000000FA050CED00E092
:101C1000F0B588B0024600202FA104AE91E838004C
:101C2000C96838C607912DA10AC9CDE902132BA1B5
:101C30000AC9CDE900132C4C2168C1F381012B4B5B
:101C4000002925D0DFF8A8C0012923D0022923D0FC
:101C500019462368C3F3031304ADEB5C21FA03F3C5
:101C60002568C5F3822502AE755D23FA05F5246863
:101C7000C4F342341DF8044023FA04F432B3012AB9
:101C800026D0022A26D0032A00D1204608B0F0BD73
:101C90001946DEE76146DCE71349091F0D6805F0C8
:101CA0003F050E68C6F388160F68C7F301477F1C0F
:101CB0007F00096801F48001B1F5800F00D163460F
:101CC000B3FBF5F17143B1FBF7F1C2E70846DDE77D
:101CD0001846DBE72846D9E70000000000000000B6
:101CE0000102030406070809083802400024F40032
:101CF00040787D01064901EB9011D1F8002800F0F1
:101D00001F03012098400243C1F8002870470000DB
:101D100000300240064901EB9011D1F8002800F094
:101D20001F03012098408243C1F80028704700003B
:101D300000300240064901EB9011D1F8002800F074
:101D40001F03012098400243C1F80028704700009B
:101D50000030024010B5064C0146204600F031F933
:101D60000721204600F0A7F90028F9D010BD000097
:101D700000100140016841F0400101607047C160FE
:101D800070478068084201D00120704700207047EA
:101D9000026802F441520B6813434A681A438B6885
:101DA0001343CA681A430B6913434A691A43896982
:101DB00011430160C16921F40061C16170470000F5
:101DC00010B50020264A116841F0010111604FF45E
:101DD000A063401C116801F0020109B99842F8D1D2
:101DE0001068800700D4FEE71D484030016841F0CC
:101DF000805101601B49086840F440400860184861
:101E0000083003680360036843F400430360036819
:101E100043F4A0530360041F134B2360136843F083
:101E20008073136013689B01FCD50A6842F480320A
:101E30000A604A68D203FCD50A6842F400320A609C
:101E40004A689203FCD5016821F003010160016832
:101E500041F00201016001680907FCD510BD0000D6
:101E600000380240007000401078000AFFF7A8BF59
:101E700070B511484FF47A710068B0FBF1F1491E5A
:101E80004FF0FF35B1F1807F01D301210BE04FF01E
:101E9000E02461610F212846FEF77CFB0020A06151
:101EA00007202061002101B1FEE72846BDE870400F
:101EB0000021FEF76FBB000004000020016821F044
:101EC000010101607047C94301617047C2680A405F
:101ED0000069084202D00AB1012070470020704713
:101EE00010B500F0F5F8BDE810404FF4E13000F017
:101EF00047B9000070B504460D460020294AA11AD2
:101F0000131594422DD00BDC2749621819D09A4240
:101F10001BD0B2F5006F1CD0B2F5406F28D11CE089
:101F2000994222D0B1F5184F03D0B1F51C4F1FD103
:101F300003E00320FFF76CFE1AE00320FFF768FEC2
:101F400016E00220FFF764FE12E00220FFF760FEB9
:101F50000EE00220FFF75CFE0AE00220FFF758FEC9
:101F600006E00220FFF754FE02E00220FFF750FED9
:101F7000E1680A044FF6F0710AD5400000EB550005
:101F8000B0FBF5F00140C0F342021143A16070BD07
:101F900000EB5500B0FBF5F0014000F00F021143DB
:101FA000A16070BD0078004000BCFFBF50F8802FDA
:101FB00022F400620A43026070474068C0F30800E0
:101FC0007047C1F3080141607047000010B5354A01
:101FD000811A131590424FD014DC334940182DD08C
:101FE000984235D0B0F5006F3CD0B0F5406F57D176
:101FF00040F614042046FFF79DFE2046BDE8104041
:10200000FFF788BE994241D0B1F5184F0CD0B1F519
:102010001C4F45D140F605142046FFF78BFE2046A5
:10202000BDE81040FFF776BE40F604142046FFF7E7
:1020300081FE2046BDE81040FFF76CBE40F611045B
:102040002046FFF777FE2046BDE81040FFF762BE4E
:1020500040F612042046FFF76DFE2046BDE8104012
:10206000FFF758BE40F613042046FFF763FE2046F4
:10207000BDE81040FFF74EBE40F61E042046FFF7B5
:1020800059FE2046BDE81040FFF744BE40F61F044D
:102090002046FFF74FFE2046BDE81040FFF73ABE4E
:1020A00010BD00000078004000BCFFBFC16841F4D3
:1020B0000051C160704700EB9110006801F01F02F1
:1020C00001219140084201D0012070470020704753
:1020D00070B54FF44060FFF70DFE41F20410FFF7BA
:1020E00009FE144E4FF48064224607213046FFF764
:1020F000C1FA65102A4607213046FFF7BBFA23468E
:10210000012202213046FFF717FB2B460122022154
:102110003046FFF711FB2346022200213046FFF72D
:102120002FFB2B463046BDE8704002220021FFF70E
:1021300027BB00000000024000EB9110026801F094
:102140001F03012199400A430260704730B5C1F373
:102150008912825801F01F04012505FA04F31A4080
:1021600000EB91500068C1F3044105FA01F31840F7
:10217000002802D00AB1012030BD002030BD00008F
:1021800070B50546194C2046FFF720FF294620462A
:10219000FFF7B0FE0021204600F02AF8002120467B
:1021A00000F042F80021204600F030F800212046DF
:1021B000FFF7FCFE2046FFF779FF0821204600F0DC
:1021C0002DF80421204600F01BF80222114625209C
:1021D000FFF7C6FC40F205312046FFF7ADFF204671
:1021E000BDE870404FF44171FFF7A6BF00100140F9
:1021F000C26822F4C062C260C2680A43C26070470B
:10220000C26822F004020A43C2607047026922F4E5
:102210004052026102690A4302617047C26822F0BB
:1022200008020A43C2607047C26822F48052C2604A
:10223000C2680A43C2607047101000F00118011B09
:10224000898191C19A01A240AA80B2C0B2A0B2A075
:10225000B2A0B280AA60AA40A220A22099E091A0D8
:1022600091A0894091809180918099A099A099C076
:1022700099A0A1E09A009A40A240AA80AA60AA80F0
:10228000AA60AA60AA40A220A20099E091C091A0F1
:10229000918089808980896081608140814081400E
:1022A00079007900710070E070C068C068A068A013
:1022B0006080606058605840586058605880608006
:1022C00060A060A060A068A068C068C068C068C066
:1022D00068C068E068C068C068C068C060A060800E
:1022E0006080608060A060C160C160C068C068E05C
:1022F00060C060C058C050A05080586058605840BE
:102300005840584058405860588060A060A060A075
:1023100068C068E06900690068C068C068C068C0DB
:1023200068C068C068C068C068C068C068C070C065
:1023300068C068C070C068C068C068C068C068C055
:1023400068A06080608060806080588058605860BD
:10235000588060806080608068A068A070C0814103
:1023600091A29A24A2E7C46DDD31F614ED91CC6CF4
:10237000D44CED50EE758C2A5B4553865BA75366B3
:102380005B875BA753464B2642E44B455367536735
:102390005BA85BA7536542E253445B8563E65BA59C
:1023A00063A76BA65B4342805BA46BA663067B8935
:1023B00073496B496B496B896B886B068B27DD50C2
:1023C000CC6DF572F5D4FE37BC93100100000021EE
:1023D000004000200000000008000801312528E32B
:1023E00020826289CD95AC71AC70A42F9C0EA46D37
:1023F0008BC77B417B80A481E669BD03CD84DDE68C
:10240000FEEDFE0DDC48AA8291A0898081607940B2
:1024100079407140712079207900710079634820FA
:102420008140898091C09A00A240AA80AAA0B2C02F
:10243000B2A0B2A0B2A0AA60AA40AA20A20099E0CD
:1024400099E091A091C0918099A099E099C0A200D3
:102450009960A1E09A209A209A00A240AA60AA60FE
:10246000AA60AA60AA60AA40A220A20099E099C02E
:1024700091A091A0898089608960814081408140DC
:10248000792079207900710070E070E068C068A060
:1024900060A060806080606058605880608060806C
:1024A00060A060A060A068A068C068C068C068C084
:1024B00068C068E068E068C068C068C068A060A0E4
:1024C0006080608060A060C060C060C068C068E07C
:1024D00068C060C060C058A058805860586058609C
:1024E0005860586058405860588058A060A060A05C
:1024F00068C068C068E068E068C068C068E068E01C
:1025000070E070E070E070E070E070C070E070E06B
:1025100070C070E070C070C070C070C068C068C02B
:1025200068A060A0608060806080588058605860BB
:1025300058605880608060A068A068A068C0812151
:10254000A224AAA6CC4CED92FEF8D551EDF3F5F2FB
:10255000FDD2E5718B6973476B8763C863A85B67BE
:102560005B8763E85BA75BA75BC653A65BA7536764
:102570005366536642E342E25365534553655B64D9
:102580004AC26B8584679D2953225B646B8763060F
:102590006B496B6973CA6B887BEA7306C4CEF5F32B
:1025A000DCEFED51EDB3FE98EE3931050821000066
:1025B000004000200020294508009451C5D7ACF404
:1025C000B534B513ACB2BD13AC50A44F93CD93EC5E
:1025D0008BC783628BA09400DE28C564CD84DDC6E2
:1025E000FEABFE6DE4E9B30391C0896079407940A8
:1025F0007940714071207920790071007162482022
:1026000079008120896089A09A00A240AA60AAA0CE
:10261000B2C0B2C0BAC0B2A0B280AA60AA40A24002
:10262000A220A220AA61AA62B2A2B2A1B281AA206B
:10263000A1A0A1C099E09A009A20A220AA40AA6075
:10264000B280B280AA80AA60AA60A240A20099E0EB
:1026500099C091C091A08980896089608140814042
:102660008140792079207920790070E070E068C09D
:1026700068A060A06080608058605860588060806A
:10268000608060A060A068A068C068C068C068C0C2
:1026900068C068C068E068E068C068C068C068C0BA
:1026A00060A060A060A060A060C068C068C070C08A
:1026B00068C068C068A060A05880586060605860BA
:1026C00058605060586058605880588060A060A082
:1026D00068A068C068E068E070E070E068E068E00A
:1026E00070E070E070E070E070E070E070E070E06A
:1026F00070E070E070C070C070E070E070C068C0E2
:1027000068A060A0608060806080606058805860D1
:102710006080608060A060A068A0688068A0812060
:10272000B2A5BB06ED51FED8FEF9938CFEB7F65567
:10273000FE75CCEF7AE783AA7BA973C973C973E9E5
:102740006BE86BE763E7640764275BE65BC653A748
:102750005BC84B464B66536663A763C853456BA57E
:102760009CE8A4E7C5EB9CE8A5AB4B2253445B6611
:102770005B675B475B47634863277B27E5D2ED9246
:10278000E530ED70FE35BC6F72AA5A4920E2002098
:1027900008803185420839875ACBBDB6CE38AD3472
:1027A000AD34ACF3ACB2B491B4B1AC4FA42F93AB95
:1027B0008B868B628B8093A0D5C6CDA5C522D5A470
:1027C000EE68FECCED6ABB8491E08140790079200F
:1027D00079407920790079007900710071424820B0
:1027E000790079008140896091C09A00A220AA6096
:1027F000B2A0B2C0BAE0BAE0B2A0B2A0AA80AA80E9
:10280000AA80AA60C303CB85D406D406D3A4C3028E
:10281000B240A1C099C099E09A00A220A220AA606B
:10282000B280B280AA80AA80AA60AA60A240A20058
:102830009A0099E091C091A089808980896089601F
:1028400081408140792079207920790070E070E022
:1028500068C068C060A06080586058605880588028
:102860006080608060A068A068C068C068C068C000
:1028700068C068C068C068E068C068C068C068C0F8
:1028800068A060A060A060A068C068C070C070C090
:1028900070C070C068C060A0608060606060606090
:1028A00058805860586058605880588060806080B8
:1028B00068A068A068C070E070E070E070E068E058
:1028C00070E070E070E070E070E070E070E070E088
:1028D00070E070E070C070C070E070E070E068C0E0
:1028E00068C068A060806080608060806080588080
:1028F0006080608060A068A068A068A068C0814017
:10290000BAC5DC0BF5D3FF5AE65872EAFF9BFEF816
:10291000FEF8A42C836983EB83EA7BC97BEA73E925
:10292000740874286C27640664256C875C065C0751
:10293000432532A33AE453864B0553464AE48CAA16
:102940009CC7C5EACDEC83E4C6AF3AC04B434B8588
:102950004B654B46536663875AE593EAF614ED716F
:10296000E510EDB2EDF459E4206041A529224A4773
:102970005AA95AAA6B2D736F9471A513BDB6AD55A4
:102980009CB2A4B2B4B2AC71C512BCF2AC709BECF8
:102990008B868B838B609380C544DE26BCE1D5A4F7
:1029A000E647FEECF5AAC3C59A008940810079008C
:1029B00079207920790079007900710071424020F6
:1029C0007900790079208120896091C099E0A22066
:1029D000AA60B2A0B2C0BAE0BAE0BAC0B2C0B2A0B7
:1029E000B2C0B2A0E3E5EC87FD6AFD6AE466E3E508
:1029F000CAC1BA40A20099E091E09A00A220AA4080
:102A0000AA60AA60AA60AA80AA80AA80AA60A2403E
:102A1000A2209A0099E091C091A091A0898089801C
:102A200081608160814079207920710070E070E0E0
:102A300068E068E068C060A060805880588060806E
:102A40006080608060A068A068A068C068C068C03E
:102A500068C068C068C068E068E070E068E068C0AE
:102A600068C068A060A060A068A068C070E070C086
:102A700070E070C068C068C068A06080606060601E
:102A800058805880588058606060606060806880BE
:102A900068A068A068C070C070E070E0710070E06D
:102AA00070E070E070E070E070E070E07100710064
:102AB00070E070E070E070E070E070E070E068C0BE
:102AC00068C068C060A06080608060806080608056
:102AD00060806080608068A068A068A070C081612C
:102AE000C327F4EFF656FFBDCDB69C50F71AF71981
:102AF000EEB6942B7BA87BC98C2A7BC97BE97C0929
:102B00006C276C476405642664666C865C466CA919
:102B1000224043455C07642864085B866C08C65005
:102B2000A529DEAFCE0E94A9A5CD53C553C5540635
:102B30004BC64BA54BA65B8652E3C56FF634ED92B0
:102B4000EDB3FE56AC2E288062A86B0941C4840DFB
:102B5000942F83AE8BF19C939C928C51B575BDB62E
:102B6000A4F3ACF3B4D3B4D2C554C553B4D2A44E79
:102B700093E893C48B808BA0AC82F6CABCE1D5C32A
:102B8000E627FEECF5EBCC07A221894081207920D5
:102B90007920792079007900790068E06922400085
:102BA00079207900790079008120896091A099E0ED
:102BB000AA40AA80B2C0BAE0BAE0BB00BAE0B2C094
:102BC000BAC0C2E0EC66FD49FDCBFDCBFDABF4879E
:102BD000DB43BA60AA0099E09A009A20AA20AA4092
:102BE000AA60AA60AA60AA80AA80AAA0AA80AA60F5
:102BF000A260A2209A0099E091A091A0898089808A
:102C000081608160814079207920790071007100B4
:102C100070E068E068C060A0608060805880588084
:102C20005880608060A060A068A068C068C068C06C
:102C300068C068C068C068C068E070E068E068C0EC
:102C400068C068A068A060A068A068C070E070E07C
:102C500070E070E070E068C068C068A06880608064
:102C600060805880588058806060606060806080BC
:102C70006880688068A070C070E07100710070E0CA
:102C800070E070E070E070E070E07100710070E082
:102C900070E070E070E070E070E070E070E070C0D4
:102CA00068C068C068A0608060806080608060806C
:102CB0006080608060A068A068A068A070C0818209
:102CC000D3EBFD92FEF9FF7CC596C5F7C5B5B532CD
:102CD000B591842A73E774077C087C087C087C48DB
:102CE0006C476426642564455C2454046CC874E90C
:102CF0002AA1856C95CD958D9DAE8D2CC6B2CED278
:102D0000DF11DEF0D6B1D6F274A8750A74E96488D2
:102D10005C675C67540653856B86EED4F655EDD43C
:102D2000EE16FE986A8951E6DEB8CE15736A83ED19
:102D30009430A4B394329432943194929CB3CE18CC
:102D4000B555ACF3BD34BD34B4F2C574ACD29C4EB1
:102D50009C2A8BC58B8193A09C00F6CABD01CD83B4
:102D6000DDE6FECCFE2DDC69A222894081007920BF
:102D700079207920790078E0710068E069224000CC
:102D8000792079207900790079008140896091A0CB
:102D90009A00A240AA80B2C0BAE0BB00BB00BB0050
:102DA000C300CB20EC24FD48FDA9ED07FD69FD29FA
:102DB000EC05C2C0B220A1E09A009A00A200AA20AD
:102DC000AA40AA60AA80AA80AA80B2A0AAA0AA80CB
:102DD000AA60AA60A2209A0099E091A091808980BF
:102DE00089808160816081408140792079207100F3
:102DF0007100710068E068C060A0608060805880E9
:102E000058806080608060A060A060A068C068C0DA
:102E100068E068E068C068C068C070E070E070E0BA
:102E200070C070C068C068C068A068C070E070E022
:102E300070E070E068E068E068E068C060A060A0F2
:102E400060A060A05880588060606080608060A052
:102E500068A068A0688068A068C070E070E070E05A
:102E600070E070E070E070E070E070E070E070E0E2
:102E700070E070E070E070E070E070E070E070E0D2
:102E800068C068C068A060A060A060A0608060802A
:102E90006080608068A068A068A068A07901920442
:102EA000E4AEFE55FF9CFFBEA4F3FF9D83CE7B8C5A
:102EB0009D0F6BE85BE4640463C4744664056405B9
:102EC00064655C24540454045404540443821A205A
:102ED0005C054B6343224B6343023AC119E019C0BE
:102EE0005B4263A342C042E04BA35C4564466C86F0
:102EF0005C8664C87D2A63E69CECFF79FF3AF6376E
:102F0000B4919C0FF73CEF3B840E738BA5129CB1E0
:102F100094518BF09C529432943194319C92B534FC
:102F2000DE79ACF3BD34B4F3BD54BD73B5329C6EE1
:102F3000A48C93E78B828BC09C00DE27CDA3C52297
:102F4000D5A5FE8BFE4EECEBAA6389407900792073
:102F500079407940790078E0710068E069024000CA
:102F60007900792079207900790081208120896099
:102F700091A099E0A240AA80B2A0BAE0BB00C30031
:102F8000CB20CB20EC44FD26FDE9C402BB00FCE8CD
:102F9000FCC8E3A4CB01AA40A1E09A00A200AA20A9
:102FA000AA40AA60AA80AA80AAA0B2A0AAA0AA80C9
:102FB000AA80AA60AA60A2209A0099E091C091A07C
:102FC0008980898081608160814081407920792079
:102FD0007920710070E068C068A060A060A0608087
:102FE00058806080608060A060A060A068C068C0F9
:102FF00068E068E070E068C070E070E070E070E089
:1030000070E070E070E068C068C068C070E070E0B8
:103010007100710070E07100710068E068E060E0CC
:1030200060A060A058A0588060806080608060A030
:1030300060C060A068A068A068C068E070E070E050
:1030400070C070E070E070E070E070E070E070E020
:1030500071007100710070E070E070E070E070E08D
:1030600068C068C068A068A068A060A06080608038
:103070006080608068A068A0688068C08162A28665
:10308000FDF4FEF8FF3BFFBEA4B2FF9EFF9ED637C5
:10309000A5317C6A64456CA5642453A153C25403D2
:1030A000540354235443540353E34BE332E0436249
:1030B0004B834BC35C0453E45C2553C564476447AE
:1030C0005BC45BC364245C44540364655BE36424B5
:1030D000542464A753C47C89FF98BD316207A410AF
:1030E000838D7B8D83CE18A11080840EAD548C50BF
:1030F0009C9394529C73943194119C72ACD3A4B25F
:10310000D617C5B6BD34CDB6BD33B512A4D1944DD6
:10311000ACEDA4898BA28B809BE0CD85EEA8BD2170
:10312000D584F66AFE8EF54CB2C491A1790079205F
:1031300079407940790070E0710060E06102400000
:1031400079207920792079207920792081208120A7
:10315000896091A09A00A260AAA0B2C0BAE0C300A0
:10316000CB20CB20E443F505FDC8E4E5BB00CB0153
:10317000FCC8F425DB82BAA0A200A200A1E0AA202C
:10318000AA40AA60AA60B280B2A0B2A0B2A0B2A0C7
:10319000AA80AA80AA60A240A2209A0099E091C0C9
:1031A000898089808960816081408140792079208F
:1031B0007920710070E068E068C068C060A060803D
:1031C0006080608060A060A060A060A068A068C00F
:1031D00068E068E070E070E070E070E070E070E07F
:1031E0007100710070E068E068C068C070C070C0B5
:1031F0007900790070E0710071007100690068E089
:1032000060A060A058A05880586060A058A058A046
:1032100060C060A068A068C068E070E070E070E026
:1032200070E0710070E070E070E07100790070E0B3
:103230007100710070E070E07100710070E070E08A
:1032400068C068C068A068A068A06080608060A056
:1032500060A0608068A0608070C068C089C3AB084F
:10326000FE76EE779C70C5D79C718BEFCDD7EEFBC9
:10327000E73A950E5C0564A6648574E66CC564A4A3
:103280005C644C0254224C024BC233202AC03B41A6
:103290003B41436143614B824382436253E54BA40C
:1032A0004BA34BA34BC353E34BC253C25BE353C388
:1032B0004C0354045BC573C77328BCF2DE1793EF4D
:1032C00049E762EA3184738CAD33AD34AD359CB3DC
:1032D00094929C93945294519C5183AE940FACD28F
:1032E000B534F71CBD55B4F4ACB2B533DE57C59256
:1032F0009C08AC679BE38B809BE1B4C3FF2ABD00B5
:10330000CD82EE47FE8CFDABBB2491A07940794085
:103310007961794070E070E068E060E06922400027
:1033200079207920792079208120792081208120BD
:103330008140896091C09A00AA60B2A0BAE1C3013D
:10334000CB41CB40E442F505FDE8F546D3C3D3427B
:10335000E3A3FCA7F424CB00B260A1E0A1C0A200CB
:10336000AA40AA60AA60AA80B2A0B2A0B2A0B2A0ED
:10337000B2A0B2A0AA80AA60AA40A2209A0099E0B6
:1033800091C091A089A08980896081608140792065
:10339000792079207100710068C068C068A06080E1
:1033A0006080608060A060A060A060A068C068C00D
:1033B00068E068E070E070E070E070E070E070E09D
:1033C00070E070E0710070E068E070E068C070C0AC
:1033D00070E078E078E070E070E070E0712160A06B
:1033E00068E0608060A060C0588060A060C060E05D
:1033F00060C060C068C068C068E070E0710078E0DC
:10340000710071007100710070E07100710070E076
:1034100070E0710071007100710070E070E070E0A8
:1034200068C068A068A068A068A060A0608060A074
:1034300060A0608068A0608068A070C08182BB8A44
:10344000FE76EEB8B554A4F383CF6AEB838F943144
:10345000CE37CEB65BC6436254056CA764866CC695
:10346000648564A55C43540354033B203B214362C1
:103470004362438243614BA24341436243833B2205
:1034800043833B213B413B2043613B4143414361FB
:103490003B813B6253646BA873097B2B730B734CAA
:1034A0005AA96B4B62E96B2ACE17B555A4F49CF46C
:1034B00094B39CB3945294529431941083AEA492DA
:1034C000A4B2B555BD56BD34DE38CDD5940DA48C0F
:1034D0009C67A4659C03A3E2A422A441DE26C561E7
:1034E000C582E606FEACFDCCBB449A01794079402A
:1034F0007960794070E070E068E068E0690240005F
:1035000079207920792079207920794081208120C3
:1035100081408140896091A099E0A240AA80BAC010
:10352000C300CB20E422F504FDC7FDA8E424D38228
:10353000CB01F425FC86E3A3C2C0AA20A1C0A1E070
:10354000AA20AA40AA60AA80B280B2A0B2A0B2A06B
:10355000B2A0B2A0B2A0AA80AA60AA40A2209A00FB
:1035600099C091C091A089808980898081608140C3
:10357000792079207920710068C068C068C068A08F
:1035800068A060A060A0608060A060A068C068C003
:1035900068E068E070E070E070E070E070E070E0BB
:1035A00070E070E0792070E070E0710068C068E061
:1035B00070E0790078E078E0810078C078E078E128
:1035C00070A070C068A068A06880608068C05880E3
:1035D00060C060C068C068C068C070E070E0710022
:1035E0007100710071007100710070E070E070E0B6
:1035F00070E070E0710079007100710070E070E0BF
:1036000070E068C068A068A068A068A060A060A022
:10361000608068C0688068A0688070C091E4BBABBF
:10362000FE97FF3BE6BAAD14B534ACF38BF07B6E7E
:103630009430A4F15B6753862A612A4132A23AE2B0
:103640004B63434243625C0553C443424B83436331
:103650004B8443434B834B834B824BA34B834B8322
:103660004BA34BC44BA353C34BA3436243833B6263
:103670003B6232E1534673CA6B4A62EA39A5630A78
:103680005AA9632A83ED5267A4D2AD14AD56A5356D
:103690009CF48CB29CF38C319452945283AF7B6E29
:1036A0008BF09C93DE5AB5349C91736A39A26B25DA
:1036B000B508ACA49C0193A08B6093A0CDA5CD834D
:1036C000D605DE07FE8DFDEDC38591C081407920D2
:1036D0007940792070E070C068C068E069234000DC
:1036E0007920792079207920794079408140814082
:1036F0008140814081408960918099E0A220AA6048
:10370000BAC0C300DBE1ECC3FD86FDC8E444DBC303
:10371000C2E0E383FC65FC65DB62BA40A1E0A1E0A6
:10372000A200A220AA40AA60AA80B2A0B2A0B2A021
:10373000B2A0B2A0B2A0AA80AA80AA60A240A22091
:1037400099E099E091C089A0898089608960814071
:10375000792079207900710070E068C070E068C05D
:1037600068C068A060A06080608060A068A068C039
:1037700068E068E070E070E070E070E070E070E0D9
:10378000790078E0790070E068E0710068E068E056
:1037900070E070E08121892181008921810181010E
:1037A00078E178E278E2688070E1606068A060802B
:1037B000608060A068A068A068C070E070E07100E0
:1037C0007100710071007100710071007100790069
:1037D0007100790079007900790079007900790029
:1037E00070E070E068C068A068A068A068A060A0F1
:1037F000608060A0688070C1686070E19A25BBAB92
:10380000FE98FF7CF73CBD96EF1BF73CCDF7B53437
:10381000941083ED5B2863E9114000C0008009200B
:10382000328353662A613AC23AC32A412A613282FC
:103830002A613AC33AE33AE2434243214B6353A439
:103840004B8353C44B6353E653E64BC543844BC58C
:103850003302224063A86B8963096B8B52C75AE815
:1038600052A85288738C62C97B8DBD95B576B5968A
:10387000A55594D39CF394928C328BF183B0734E04
:103880008C109CB2AD347BCD318310C0298052A105
:103890009CC6AD059C4193A08B809BE0C545BD03B4
:1038A000BD45C526FE8EF58DC38699E181408161B7
:1038B0007920792078E070C070C068E16923400009
:1038C00081207920792079207920792081408140D8
:1038D0008160816081408160896091A09A00A240EE
:1038E000B2A1BAE0D3A1EC63FD25FDC7FD06DBE381
:1038F000CB01CB01F425FC86EBC4CAE1A1C0A1E059
:1039000099E0A220AA60AA60AA80AA80B2A0B2C050
:10391000B2C0B2A0B2A0B2A0B2A0AA80AA60AA40CF
:10392000A2209A0099E091C089A089808960816075
:103930008140794079207920710070E070E070E07A
:1039400068C068A060A060A060A060A068A068C017
:1039500068E068E070E0710070E070E07100710094
:1039600078E079007900790071007100690068E001
:1039700071207920812199C399E499E491C49A2610
:1039800099E599E58984790278E27922606070E1AD
:103990006880688068A068A068C070C070E071002E
:1039A000790071007100790079007900790079203F
:1039B0008140792079207920792079007900790077
:1039C00070E070E070C068C068A068A068A068A0DF
:1039D00068A0606070C0688068A0792299E4D44EC5
:1039E000FEFAFFBEDE9AC5B6FF5CFF5BFF7DF71BEC
:1039F000DE58C5F573EB5B6829E3194110C100601F
:103A00005B2AADD33204194011001941112019402D
:103A10003223196019A019A02A612A602A60328114
:103A20002A602A6132812A622A4232E42A8232E3FF
:103A300032A221E05B2773894A654AC563674AC59C
:103A40005AE7528762EA7BAD3985BDB5B575B5B722
:103A5000AD96A5349CD39CF48C326B4F7BD0947183
:103A6000A533738C18C118E01940322153246384A4
:103A700052C0A505BD24B4C1C524BCC3AC22A40258
:103A800093C2BCC7FE0FF54DBB2691C1812081407A
:103A90007920792070E070E070C068E1690340002F
:103AA00081207920792079207920814081408160AE
:103AB00081608160816081408960898091A099E006
:103AC000AA40B280CB41E402FCE4FD66FDC9DBE222
:103AD000D362CAC0DB83FC86FC46DB83B260A1E014
:103AE00099E0A200AA40AA40AA60AA60AA80B2A057
:103AF000B2C0B2C0B2C0B2C0B2A0B2A0AA80AA8006
:103B0000AA60A2209A0099E091C091A08980898042
:103B1000898081408140792079007100710070E0D6
:103B200068C068A068A068A060A060A060A068A04D
:103B300068C068E070E0710070E0710071007100B1
:103B400070E0790079007900790070E070E068C079
:103B500068A0792091C3C308CB8ACBABCBECCC0D4A
:103B6000BB8CAAEAA2A9AAA9922789E5898479230C
:103B700070C168A068A068A070C070C070E07100DB
:103B8000792079007900790079007900792079200D
:103B900081407920792079007900790079007900D5
:103BA000710070E070E068C068C068C068C068C03C
:103BB00068C0608070E1688068A08142AA87DC905C
:103BC000FEFAFF9DC5D7CDF7FF5BEEB9FF7DDE386E
:103BD000CDD6CE3694EF6BEA3A44216221232103FD
:103BE000004010E17C2E842E6B6B6B6C632A424686
:103BF000C63531E35B485B672A213AC2328219C07D
:103C000032412A0121E1094000E0090009200900B0
:103C1000638852A58BEBF7176B473A4252E452E4A4
:103C20004AA56309420683EF5AC95AA9D699AD55E8
:103C3000BDB7AD5594B29CD39CF5B597B5B673ADF1
:103C4000216208A0298142647C8A63A653645302DE
:103C500073C27B80B503B4E1C524D567A3C2B44564
:103C6000FF11FEF1ED4DDC2AA243896081607900ED
:103C70007920710070E070E070C068C160E23800C7
:103C8000814081408140812081408140814081602C
:103C90008140816081608160814089608960898024
:103CA00099C0A200C2C0D361EC63FD04FDC8E46406
:103CB000D321DB22C2A0F425FCC7E3C3DB83AA2007
:103CC000A1E0A200A220AA20AA40AA60B280B280ED
:103CD000B2A0B2C0B2C0B2C0B2C0B2A0B2A0B280F4
:103CE000AA80AA60A2209A0099E091C091A0898040
:103CF000898081608160794079207920790070E045
:103D000070E068C068C068C068A068A068A068A0CB
:103D100068C068C068E070E070E071007100710018
:103D200071007100710079007900790078E0790004
:103D300091829A04D38AECAEFD50FDF3FE14E59314
:103D4000FE57F5F6ED95D4D1E512AB4B9A8881A4D8
:103D5000814370E168A068C070C070C070E07900F5
:103D600079207920792079207920790079007920CB
:103D7000790079007900792079207920790079001B
:103D80007900710070E070C068C068C068C068C029
:103D900068A068A068A068A070C191C4CB8BE4F152
:103DA000FF9DFF7DC5B5DE78F6FAF6B9FF1BC59518
:103DB000C5D5CE763AA46C2A5B473A2439C531A5DD
:103DC0002164006019015AC939A64A285228398548
:103DD0004A065AE73A03848C4AE43AC332624B06F5
:103DE00021C200A008E04288738C73AD5B090020FB
:103DF0006308FF9AF676F696DE3342224AA342C360
:103E000052E5424452A74207A5541081AD34C5F78C
:103E1000B576C5F8B5B7C619A5345B0A1900110007
:103E200021A14AE55B865B86A5CE9D8D428231C08D
:103E30006B40CDE8E648CD24DDA7D547C4E7FE6D4D
:103E4000F62DE52BCBA7BAC591A0894081207940FA
:103E5000712069007100710068C060A058A138002D
:103E600081608160816081408140814079407940FA
:103E7000814081608160816089608960896089405A
:103E8000898091A0B240C2C0DBC2F4C4FD66FD6867
:103E9000BAA0DB83CB01DB42FC86FCA6E3C2C2C036
:103EA000A1E0A200A200AA00AA40B260AA80AA8053
:103EB000B2A0B2C0BAE0BAE0BAC0B2C0B2A0B2A07A
:103EC000B2A0AA80AA60A240A22099E091A091A0ED
:103ED0008980898081808160794079407920710072
:103EE00070E070E068C068C068C068A068A068C082
:103EF00068C068C068E068E070E07100710071201F
:103F0000712071007920790079208962896291C4D9
:103F1000A267B2E9ECD0FD92FE76D4EF61C44964A9
:103F200049856208934D9B8E934CE595D490A2C928
:103F300089C5792168C068C070C070C070E0790020
:103F400079207920792079207920792079207900C9
:103F500079207920792079207920790079007900F9
:103F60007900710070E068C068C068E068C068C02F
:103F700068C068C068A070E189A4AAA8D44EF5D42E
:103F8000FF9CE6B9C5B5F71AF6D9FEFAEE99CDD77A
:103F9000B574BE1442E474AA63E829C119002983E8
:103FA0002162428794D039E552485229520852285A
:103FB00041C541E5420452A652E542C43AA511402A
:103FC00029E49D32B617ADB6B57583CE41E72923F6
:103FD00028A1EE97E5B4EDF3F6B58C2A426242A330
:103FE0004A8363477C2E636C634C840F31A5CE37C4
:103FF000C5F7D69AB5B65ACA31C529A23A224B049A
:1040000053854B445B845B646BC5532373C6D69165
:10401000BD69BD26AC42A3C19B81C466FE4DFE4E68
:10402000ED4BCBE7AAA399C1894081408140710043
:10403000712068E06900710168C0588050803800C4
:104040008960896081608160816081608160816058
:104050008160816081608180816081608960898008
:1040600089A08980A1E0B220CAE0F444FD05FDE901
:10407000D381CB00DB83CAC0E3E3FD07F444DBA2BA
:10408000C2A0AA00A9E0A9E0AA00AA40AA80AAA00A
:10409000B2A0BAC0BAC0BAC0BAC0BAC0BAC0BAC078
:1040A000B2C0B2A0AA80AA80A2409A0099C099C1C9
:1040B00091A0898089808180816081407920790008
:1040C0007100710070E070E068C068C068C068C0CE
:1040D00068C068E068E068C0710071007120690024
:1040E000712071007940792091C3A266AAC8BB6B88
:1040F000C3EEDCF3FE38FE99D511C4B072CB7B6FF2
:1041000041C941E9732E6ACC626B7AECD4F3C42FB7
:104110009A67794168E0710070E068A070C078E04B
:104120008120814079007920794079207920792097
:1041300079007920812081408120810079008100EF
:104140007920710070C070C068C068E060E068E00D
:10415000690068E0794289A4AA67CBCDE572FF19AE
:10416000FFDDE6D9CDB5FF3BF6D9FEFADDF8CDF798
:104170009CD29D514B645C055BC59DAF7C4B4285D9
:1041800032637CAD6BCA21424A0849E85A6962AA87
:104190005A894A0749E739A5422452E619418CB0A9
:1041A000ADB4C678B5F68C7152AA4A284A084A07B7
:1041B0001800C4D1F614E591EE74C5D14A83428447
:1041C00031E27C2D9CF27BEE5AEA8C9042067BED2C
:1041D000B5D473CC52C84265426442A44B44538464
:1041E0005BE553844B0253026BA5BDCDD66FFF73C5
:1041F000DDEC9BA29B81D507E56AEDACFDCDE4EA41
:10420000CBE7AAC491C089408140814081407900B8
:1042100070E0710068E068C060A0586058A1380084
:104220008140896089608980898081608160816046
:104230008160816081608160816081608960898046
:104240008980898099A0A1A0C280E3A3F4A5FD671D
:10425000F4A5B280DB84D322DB82FCC6FCC6F42446
:10426000DB62BA60B220B200A1E0A220AA81A280E3
:10427000B2A0B2C0BAC0BAE0BAE0BAE0BAC0BAC03E
:10428000B2A0BAE1B2A0B2A0AA60A220A22199C0B5
:1042900091C091C089A089A081608140814079202E
:1042A00071007100710070E070C068C068C068C0C3
:1042B00068C068E068C068C070E07100710071009B
:1042C00071007100794089E3B349CC2DDCD0EDB4A5
:1042D000F617EDF8DDD7CD759BCE8B6D62CD8C14C6
:1042E0003169294862EF41EB292728C57A8ACCB188
:1042F000AAE9818368E068E070E070E078E078E047
:104300007900790081408140816079207100794194
:1043100081407920814081408140814081418120DC
:104320007920790078E070E068C068E068E068E0D3
:10433000714179639A26AAC9D42EE552EE75B571FA
:10434000C5F4C635E6B8F75AF73AFF7CEEBABDB603
:104350009D128CCE4B644BC35C05D7B5B6737CCD38
:104360004B675BE93244298341E841C841E84A0888
:104370006AEB6AEB730D62AA4A464A8608607C2F94
:104380007C2F73CE5B0B420831A739C7524A6ACBE8
:104390003081AC4EFE76D571E654D63352E6428576
:1043A000634A8C909D138C716B6C634B634A42859E
:1043B0007C2B53063A444AC44AE4534453A44B6208
:1043C0004B4242E17C06A4EABD6CEEB1EE70F66FA2
:1043D000EDEDCCC8D4E9F5CCF5CDED4BDC69BB45B2
:1043E000AAA391C1896081608140792079207900F8
:1043F00070E07101710168C06080586058C2380077
:10440000814081408160898089808980818081802C
:104410008160816081608160896089608960898054
:104420008980898091A09980B220CAE1E423FD2788
:10443000FD68C2E0BAA0E3C4D321FC65FD27FCC639
:10444000EC04D341C280B22099E09A209A40A28025
:10445000AAA0B2C0BAE0BB00BB00BB00BB00BB005F
:10446000BAE0BAC0BAC0BAC0B280AA40A2009A01EB
:1044700091C091C089C089A08160816081608140C4
:10448000792079007900710070E070E068E068E000
:1044900068C068C070C068C070E070E070E0710013
:1044A0007920814191E3AAC7D48FF5F5FE98FEFAF1
:1044B000E618BCF4BD36628C5A6B3989398A63328E
:1044C000316B294A426E424D3A0B31473082E53317
:1044D000AAE991A370E070C070E070E070E070E055
:1044E000792079208140812081208140792081407C
:1044F0008140794089A189E189C1898089A1816050
:104500008120814181017901710070E071007101A8
:1045100081A3A2A8BB8CDCB0EDD4EE75B5B05B4630
:1045200063C873EAA550BDD3BDF4A532B5737C0D45
:10453000951063C94B843B418D8ABF12A6318DB162
:10454000540A2A853A873A0739A8318839C831860A
:104550004A6862EA6B2C6B2C6B4B5AE918A1210359
:104560002123212431864A294A09524A4A095A8A72
:104570003103834BF676EE35EE96D6147BAB632A89
:1045800094D09CF294B294B284315B0B6B8B3A441E
:104590004AE55B664B044B2442E343034B22534200
:1045A0006BC57BC5CDAEFED2EDEFD4EBCC49D46963
:1045B000E50BF56CF58CE50AD468C3C6B2E49A0144
:1045C00089A081408140816079207920792079001B
:1045D00070E0710168E160805860586058E238000E
:1045E000792081408140816081808980898089A093
:1045F000898089808980816089608980898089A09B
:104600008980898091A09180A1A0B260CB21FCC655
:10461000FD48E3E3AA20E3A4E3A3E3C3FCA6FD076C
:10462000FC85EC24D321BA80A2209A009A00A260D3
:10463000AA80B2C0BB00BB00BB00BB20BB20BB201C
:10464000BB00BAC0BAC0BAE0BAC0B280A240A241B0
:104650009A0091E091C091A0898089608160816019
:104660008120812179207900710070E070E068E09C
:1046700068C068C070C070C078E070E070E0710021
:10468000814191C3BB08D44EEDD4FF3BFFBEF71C64
:10469000A47162AB943329282108292939ED73B418
:1046A000739463124A6F73B38C546ACD7AAADCF1A7
:1046B000AAE989A370C070A070E068C070E070E0E3
:1046C000792070E08981812089618120894091A2CF
:1046D0009A249A44A284A2A59A849A649A64920322
:1046E0009A4591E489A4898389A3790178E0898333
:1046F000A288C3ADE533FEB8FF19C5F24AE33AE23A
:104700002A603241194029A23A2408C029A229A3CB
:104710004AE73AC44B8432E0A66EA670854E5C2C04
:10472000440D3B4B538C4ACB31C93A0B3A2B3209DF
:1047300031C6296531A64A697BCE8C5020E22923F7
:1047400031852965526A83F02925396639663965CC
:1047500049C630E2BD12DE15E677CDF59C90A4F295
:10476000A4F294719CD394939CF47C2F52E84AC594
:104770003A8242A23AC23AE242E342C252E273A40D
:10478000CDADFED2F5F0DCCBC3E8B305BB46B2E459
:10479000BB45C3A6C3A5B364AB04A28291C09180FC
:1047A00081408140814081407920792079207100C9
:1047B000710170E168A0586058405880610238006B
:1047C000792079207920814081608960898089A160
:1047D00089A089808980898089608980898089A071
:1047E0008980898091A091A09980A9E0BA60E3E4D2
:1047F000FCC7FCA7B260D302EBC5E3A3DBA2FCC6F7
:10480000FD07FC85EC03CB00B280A200A220A20031
:10481000B260BAA0BAE1BAE0BB00BB20BB20BB00CB
:10482000BB00C320BAC0BAC0BAC0B2A0AAA09A4006
:10483000A2409A0099E099C099A0918091808960E6
:104840008141812179207900710070E070E070E091
:1048500070C068C070C070C070E070C070E0790057
:104860008182A286D42DFDB4FEFAFF9EFF9FDE7AE0
:104870009CD362EC18C621096BB494FA94D99D1AA2
:1048800041ED41CC2929104420632000D513DCD010
:10489000AB0889A370A0688070C070E070E0710000
:1048A0007100818270E0898281418961A224A244E1
:1048B000BB28C3AACC2CD48DCC4DBBAAB369C3AA48
:1048C000BB8ABB6AB34AA2A8AAA889A491E5A26739
:1048D000BB6CE513FEB9FFBDEF388CCC4B4332E027
:1048E0003B0142E142A34AE54AC529E229C22A0323
:1048F00029E24B0632814B43B6F1854C75303BAD16
:10490000232E54B41A295BF03AED21EA21EA2A0A4F
:104910003A4A29C831E929C910C431C739E72123E6
:1049200031653186292520C320E4292528E4188211
:1049300041A628E2186018409C4F9C70A4B29C923B
:104940009C929C728C119493A5369D344AA85B2846
:104950004AE43A6142C32A0021607BA6EEB2FF33EB
:10496000FE30DCABCBC8B305AA63AA4299C099C09C
:104970009A009A009A009A209A2191E189408940F0
:1049800081208160814081408140792070E0710008
:10499000792168C160605840606060A06123402058
:1049A0007100790079007920814081608980898057
:1049B00091A191A089A0898089808980898089803E
:1049C000918091A091A0918099A09980B200C2A0FD
:1049D000F486FD08C2C0BA60E384EBC4D301E403EB
:1049E000FCE6FD07F464E3E3C300B2A0AA20AA201A
:1049F000B240BAA2BAE2BB03C343C383CB63CB8347
:104A0000CB82BB20CB41BAE0BAE0C321AAA0AAA0C6
:104A1000A260A220A1E099C099A099A0918089806C
:104A200089618141794079207100710070E070E006
:104A300070E170C070C070C070E068C079008141E2
:104A40009A44CC0CFDB3FED9FFBEFFDFF77FCE3A10
:104A50009CF339C8E73F94D984787C37004710C865
:104A600039AB522D49CB93B1D556C430E4F1B34A9A
:104A70009A66818270C070C070E170E07100712030
:104A800068E068E081A381839A05A245BB28CBCA70
:104A9000E50FFDF3E552CCB0EDB4FE77FDF5ED7218
:104AA000FE35FE35FE16F594B38CB36BBB4BCBEDE8
:104AB000F595FE79FF7EFF9DCE76742964869E4B28
:104AC00053A23280848A8CCCBE535B88198021E249
:104AD0006C0A328322007CA9AE70750C540D2B4EEB
:104AE00023932B934C132A8C439011EA224C220BD4
:104AF00019CA21EA21EB19A929EA31C84A4920E358
:104B000018C3106220E4082118A320C36AECE6BA97
:104B10008BEE62C96AEA08005227BD9694729472BD
:104B20009C729C529CB3A515632D632B73CC52C60B
:104B300052C4320021808408F755FED3DD4DD48A5B
:104B4000CBC7C366BAC4A22191C091A0918099E05D
:104B500099A099C099C091A08980896089408120DD
:104B600081408160814081407940710070E07941ED
:104B70007101608058405860608060C069234020A7
:104B800071007100792079208120814089608960DD
:104B9000898091A091A091A089A08980898089A015
:104BA000918091A091A0918099A09980A9E0B220D4
:104BB000E3C4FCA7E3A4AA00E384E363E3A3D34133
:104BC000DBE3FD27FCE5F4A5DBA2D342BA80BAA261
:104BD000BA82C2C4CB47D3C9DC4AD429D3C7D3C60F
:104BE000D3A5D3A4C341C320C321BAE0BB01B2E023
:104BF000AA80AA40A200A1E099C099C091A091A06A
:104C000089808180816079407920792071007100EC
:104C100070E070E070E068E068E068E0794089C2C8
:104C2000AB27E550FEB8FF5BFFDEFFDFF77FD67BEB
:104C3000A5356B6E6B709CF831CC424F3A0D004538
:104C400029694A2B6AACE5D8F575E490B3099A4511
:104C500081A27961712070E078E170C079007920DB
:104C6000794168E092259A86B349C3CBDCCFF5F44D
:104C7000EDF4B42EA38D930B7A488289BCD1E5F66E
:104C8000C4D1BCD1E5D6DD95F678F616D4F1EDB4F5
:104C9000F638FF3CFF7ED6BA95116C4A5C045C2264
:104CA0005BE42A0094CBE7169D0FBE3421C219C1E4
:104CB000958F536621E063E7748974ED3B6C230F95
:104CC00023B70AF454973B702ACE2A8D19EC220D93
:104CD000220D21EC19CC220D29EB2189296708210D
:104CE000108220C318C3AD34CE59734D2903CE179B
:104CF0008BEE39648BCD188029038C709CD3947211
:104D00008C10A4D39492630C634B4A6783EB6B279C
:104D10005AA4AD0DDE51EE71DD6DD4AAD407CB657A
:104D2000C325B2A3A22199E091E091E091C099E05E
:104D300099C09980998099A0918089408940896023
:104D4000896081608140792079207100710079212A
:104D500068C058605840606060A060C0692340200F
:104D600079207920790079207920814081408960FB
:104D70008960898091A091A091A089A089A089A033
:104D800091A0898091A091A0918099A0A1A0BA2022
:104D9000D301FC46FCA8B220DB43DB44EBE5D36344
:104DA000C300ECA6FD68FD27EC45D383CB65CB465D
:104DB000E40AD369BB08BB29BB8AC3CADC2CECADAF
:104DC000F4CCECAAE487CBC3C362CB63BB01BAE1EA
:104DD000BAC0B280B261AA21A1E099C099C091A0E5
:104DE00089808980816081407920792079007100F3
:104DF00071007100710068E068E068E081619224F0
:104E0000C42BEDF3FF3AFFDEFFDFF79FFFBFE6FDA8
:104E1000B57694726B6F7BB2528E39EB422C214780
:104E2000088429269C31E5B6DC70CB8B99C491A30C
:104E300079627141712070C070E078C078E07900CB
:104E400089A28A04AB09C3EDDD12F616EDF5D57320
:104E5000C5539C0F938E728A622959E872CC6ACB33
:104E6000626A6AAA6AAB624972CA9BEEEE57FEFAA0
:104E7000FF3CF6FCDE7BB5976BEE4B474B82540351
:104E80004B624B0394ACBDF28C6E73CB3244324315
:104E90009DAE748953443AA23AC34368332C2351DC
:104EA00023981B7833B543F3330F224C21EC2A0DA2
:104EB00021ED19ED1A0E220E21ED218A31AA4209A7
:104EC000A4F4AD3418C39491D6796B2C18A183AE99
:104ED000B5337B8C62C9292318A14A289CF394928C
:104EE000ACF38C0F630B4A67842D8C4CA4ADCDB012
:104EF000D5B0E611E5CFE56DB385C365C304BAC38C
:104F0000B262AA4199E091E0920092009A2091E069
:104F100099E099C099C099A0916089608160816091
:104F2000814081408140792071007940792168C0B9
:104F300060A058606060608068A068C069234020FD
:104F40007920712071007920792079208140896051
:104F50008960898091A091A091A091A091C091C0F9
:104F600091A091A091A0918091A099A099A0B20048
:104F7000C260F3E5FC87CB02BA40DB65E3A5D363EF
:104F8000C322C362FDAAFD89ECE9E4AAE4ACECCE3D
:104F9000BB2A89C579657185698479E692479A88C3
:104FA000A2C8BB89DC8AED0BDC68D3E6C323C3024D
:104FB000C321BAC0B260B241AA0199C099E091A0E0
:104FC0009180898091808140812081407920792061
:104FD000792070E0710070E068E070E08182A2C723
:104FE000DCEFFEB7FF9CFFDFFFFFEF5EFFBFEF1EB2
:104FF000C5D8AD1494927BB062ED28E6212618E561
:10500000000141E8B4D3D553CBECAA668942812193
:1050100071017121710170E070E178E078E0812028
:1050200091E4B309CC90E5B6E618CD769C316AEDF3
:105030008BF183D17B2E628C624B626C522B39CA0E
:1050400041EA39A9210629465A6A836EBD13BD3348
:10505000EE7AEEDCB5788C7442AB43296C8953E46C
:105060003AE242A37C0AC655BE15638B19613243EE
:10507000A60F644753A53AE22A6122642ACB233261
:105080001B791B9A1B5533933B502A2B29EB29EC98
:105090002A0D19ED1A2E11CD19EE21CD31EB39E97A
:1050A000C618D69A294542088C717BCE4A275227CA
:1050B0009C7083CD2923290220E221028C509CF28E
:1050C00083EF5A894A474A6683EBDE73DE11F63274
:1050D000F5F0E50DCC28C386AAA2AAA1B282AA82C5
:1050E000A2219A20920092009A20920091E09A00C8
:1050F00099E099E099E091A0918089608160818038
:10510000816081407920792071007120794160A00F
:1051100060806080608068A068A060C069434020B3
:1051200071007100710079207920792081208140FF
:1051300081408960898091A091C091C091C091C047
:1051400091A091A09180918091A091A09980A9E0D7
:10515000C260DB22FC67EBE5A9C0D303CB03CB44E1
:10516000CB85A280E4A7FE0DFDAEDCEDBBECBBCD94
:10517000610448424822404338423842402140219D
:105180004841614392C7B3C9CC4BD44ADC28CB8495
:10519000C322BAC0BAC1AA20BA81AA20A20099C06B
:1051A00099A0918089409180896081008120792037
:1051B000792071007100710070C070E091C4BB4A29
:1051C000EDB3FED8FFFEFFFFEF9DE73DF75EEEFD7E
:1051D000CE59B5969CD3947262CC41A8318618C33F
:1051E000292583AEAC91D512C3ABA245894278C0C4
:1051F00070E170E170E070E070C079008121894158
:10520000AAA7C3CCF5F7FEFDC5B97371526D4A2D3F
:105210006B316B515ACE5AAE528D528D5A8F4A2DE8
:1052200031AA39EA4A6C6B2FA4B4B4F47B6C732BAB
:10523000A471CDD8A5175B3029E95B6DAE537CCB4B
:1052400032633AA463A99D509D5163AB08C04B06DD
:10525000AE706C6732E15C2732C232C509E82B328E
:105260001B59137A1B982352332E326A29E929A934
:1052700021EB19EC1A2E1A0D220E2A0E29CB192712
:1052800073D09CF35ACB18E38C51B575840F39C594
:105290004A27420610602923292320E26B4B8C50B9
:1052A00041C641C6734A83AAAC8CF673F611DCEC96
:1052B000CC09C3A7BB04B281A220AA61AA82AA61B9
:1052C000A2619A2092009A209A0099E099E09A00AF
:1052D0009A0099E091C091A0898089808180816045
:1052E000814081407920792079407120710060A04F
:1052F0006080608060A068C068C068C0694340206A
:105300007100710071007920792079207920812045
:1053100081408160898089A091C091C091E091C055
:1053200091C091A099A0998099A099A099A0A1C09D
:10533000BA40CAA1F405FC87B200C2E3D344BAA2C2
:10534000C325AA82B303FE10E57082A740A238836A
:1053500040434044384538654085408438443844AB
:10536000302330222800302069A5BBCCDC6DDC491D
:10537000D3A5CB63CB41C300C300B280BAA0B24077
:10538000AA40A1E0A1A0914091409161812081209B
:105390007100712070E0790078E078E09A05C3AB85
:1053A000F615FF9CFFFEF7BED6DADEDBDEDCD65A52
:1053B000B576AD349CF38C518C10943183CF526907
:1053C0007B6E8B8EA3EFE573CC0DBAE899E489422E
:1053D00078E1812270C0790170C070E0814191C391
:1053E000BB2AD470FEDDF73F845652F26B757BF614
:1053F0006B545B126B9352F05AF05AF04A2D398B72
:10540000314962CEBD57D5F9C576B514A4B183AD87
:105410005A89738EA4F739CB216A7C53FFFFADD430
:1054200021C46C2C63890900112019404AC6A5B01B
:10543000AE307D0A12006CC83B43330511C6122DF5
:105440001B371B9A1BB913331ACA3B093A88320817
:10545000218921CB19CB220C19CC2A2D21EB320A20
:105460003A2952CB8C5121259CD3AD558C302964DF
:10547000108010C12964210329434A275A685268C1
:1054800039A6730BBD31F674FE53D4ACCC4ABB675E
:10549000B2E4BAE4AA61AA41A200B281AA61AA61F7
:1054A000A2419A009A00A22099E099E0A1E099E037
:1054B00099E099E091C0898089608960816081600C
:1054C00081408140792079208162712068A06080CC
:1054D000608060A060A068E070E068E071434020F8
:1054E00070E070E0710079207920792079207920AE
:1054F0008140814081608960898091A091C091C084
:1055000091C099C099C099C099C099C099A0A1C0F3
:10551000A9E0CAA1F3E5FCA8D343A9E0E3C7B2829E
:10552000C305D3A889C0CC2A300030203884304548
:1055300038654086384630453045302530253025A1
:105540003886282430443884280138006902CBEC9E
:10555000FD2DD3C5D3C3D402DC03E444DC04CB84E7
:10556000BAE1B280A9E09980996091408960816137
:1055700079207920790078E078E08100A245CC0D8F
:10558000F616FFBDFFFFD6DBBDF7D6BBCE5AC63938
:10559000A534949194B284108BF083AF7B8E8BEF03
:1055A00083AF7B0CB431FE18F554D3CE99E599E561
:1055B00089428101810081007900816281629A665D
:1055C000CBEEED75FF1EA53894F984785B1331AFEF
:1055D00073B784385B5353114ACF424D1066292864
:1055E000ACF6E6BCC577C576B4D3AC91ACB19C70D3
:1055F0009C5083D0524C41EC39EDC63DF7DF52CB85
:1056000031E74AE921A229C221E229C29D4F9D4EDC
:10561000744842E25BE51A207D4B11C02A46228D78
:10562000233523BA13381B741AE96CEE744DA55355
:1056300073D04AAD218908E621AA21EB324C2A2AEF
:10564000218629A610A339A7108218C2212321443C
:1056500021431923214418C24A27AD3362EA396431
:10566000FF9DFFBCF655E591DC8CC3A7AAE4B2C34D
:10567000AA82AA61AA41AA20B261AA61B280AA60E4
:10568000AA40A2009A009A00A1E0A1E0A1E099E05E
:1056900099E091E091C0898089608960896081602A
:1056A0008140814079207941816270E06080608032
:1056B000608060A068C068E070E068E071434820E6
:1056C00070E070E0710079007920792079407940AC
:1056D00081408140814081408160898089A091A082
:1056E00091C099E199E099E099E099C099C099C079
:1056F000A9E0BA60DB22FC26FCA899A0CB65BAC45D
:10570000B2A4E42ABAE4AAC669843842304538878C
:105710003046304628253045304530253066304605
:1057200028263046388630453045406438014820C8
:10573000A2A7FDF0F549F567ED26FDA8FDAAFD8AB3
:10574000F508E425D383C2C1B240998089408960BD
:10575000814079208140812081008960A265D44DFB
:10576000FEB8FF5CDEDBB5B7CE59CE7AC619A514FC
:10577000D69AE73C9CB27BAF83D06AEC730C732D56
:105780006ACC93B1D51779EA58437105C36D99E591
:1057900091A391618100916199E39A04A2A7B34A10
:1057A000C430FF7E943100221927214973B4A55CCF
:1057B00031AF5B1452F23A2D296808639474F73FB5
:1057C000D65AC596BD75BD55AC92BCF3AC92B4D358
:1057D000BCF4AC938BB2524E210ABE3DE77F424BE4
:1057E000426A00411923F7FC8CCF1120B6319D4D40
:1057F000CEF3640732A13B226C87B6B15BEA2ACABA
:105800001AD22B99237912D222E9A673E7BABE16CF
:10581000AD359CB49C937BB0422B0064198832292F
:1058200029C6426839E720E4316539C72964214334
:105830001943216421032103420739A50820B553E8
:10584000FF9CF6F8E5B2E4EECBC8BAC4AA41A220A8
:10585000A240A240A220AA41AA61B260AA20B240FE
:10586000AA00A200A1E099E0A200A1E099E0A200B4
:1058700099E091C0898089608960918089808140A8
:105880008140814081408141792168C0608060A071
:1058900060A060C068E070E070E070E07143482094
:1058A00070E070E07100790079207920792079200A
:1058B000794079408140816081608980898091A0B0
:1058C00091C099E199E099E0A1E099E099E099E02F
:1058D000A1E0B220DB22F405FCC9B260AA41D3C822
:1058E000AA63C326DC29A264A2EB402338663046B3
:1058F0003046284528253046304528253046302674
:1059000030673867282530653885280330024042E3
:1059100048609AE6FE2EF5EAFE4BFE8DFE6EFE2EE8
:10592000FE6FF54AF4A7E405CB01AA2091A0896097
:105930008140812089608940814091E2B328DCD098
:10594000FEFAFF9EBDF7C639C639BDF89CD49CB39C
:10595000E71BE73CC5F8B5569C939C7294317B2DB0
:10596000832F830F5909506660A74803AAABAA8802
:1059700099E491A299C3B286B2E8C38BDCD0DD1260
:10598000FEBAC55518C32946192510C518C773B4E2
:1059900073D6192B29AC5AEF6B6FCE39DE9BCE191B
:1059A000CE19C5D7CDD7C5B6CD96AC9393F0834E5F
:1059B000832EA452A45483D3633231CC31CB5B0EFB
:1059C000088300004A49EF9DD6D942457C4AC6B2B9
:1059D00053245365538432C0A64EB6B1A6108DD55C
:1059E0003C161B3723771AF043CBA693B655CE77D8
:1059F000C5D7BD76B534A4939431841129A708E3A3
:105A000021843206420710A118C2212410E2192372
:105A1000192321242104292420E3106010C12962C4
:105A200039C383AAFEB6F591CBC8B283AA61B2810D
:105A3000A240A240A240A220B281AA40B240AA2025
:105A4000A200A220A2009A00A200A200A1E0A2004F
:105A500099E091C08980898091809180898081605E
:105A6000814081408141792168C060A068A068A020
:105A700068C068E068E070E070E071007163482021
:105A800070E070E070E07100792079207920792051
:105A900079407940816081608160898089808980D6
:105AA00091A091C091C099E0A1E0A1E0A20099E08D
:105AB000A200AA00CAC1EBC4FCA8F46891C0CBA79D
:105AC000B2C4B2C4E449B2E5B2EA58A538043845D4
:105AD00030652845284528652865286530663047A3
